:020000040800F2
:10000000B8210020ED01000835180008590B000840
:100010003118000807060008172C0008000000002F
:100020000000000000000000000000006F1E00083B
:100030008508000800000000151A00086B21000860
:10004000070200080702000807020008070200086C
:10005000070200080702000807020008070200085C
:10006000070200080702000807020008070200084C
:1000700007020008070200080D0600080702000832
:10008000070200080702000807020008070200082C
:10009000070200080702000807020008070200081C
:1000A000070200080702000807020008070200080C
:1000B0000702000821240008ED24000807020008B8
:1000C00007020008070200080702000807020008EC
:1000D000070200082D290008A5290008E9290008C1
:1000E00007020008070200080702000800000000DD
:1000F0000000000000000000000000000000000000
:1001000000000000000000000702000807020008CD
:1001100007020008F5280008070200080702000887
:10012000070200080702000807020008070200088B
:10013000070200080702000807020008070200087B
:10014000070200080702000807020008070200086B
:1001500000F002F800F03AF80AA090E8000C82449F
:100160008344AAF10107DA4501D100F02FF8AFF27C
:10017000090EBAE80F0013F0010F18BFFB1A43F085
:100180000103184710CA000030CA0000103A24BF0B
:1001900078C878C1FAD8520724BF30C830C144BFEC
:1001A00004680C607047000000230024002500262E
:1001B000103A28BF78C1FBD8520728BF30C148BFCA
:1001C0000B6070471FB51FBD10B510BD00F01CF9C6
:1001D0001146FFF7F7FF04F0ADF800F03AF903B469
:1001E000FFF7F2FF03BC00F041F900000948804727
:1001F00009480047FEE7FEE7FEE7FEE7FEE7FEE709
:10020000FEE7FEE7FEE7FEE704480549054A064B20
:10021000704700007521000851010008B81B00203C
:10022000B8210020B81D0020B81D002010B5431CC7
:1002300002E010F8011B71B18107FAD14FF00132D1
:1002400002C88C1A8C4314EAC211F9D0C01A0A06EB
:1002500003D0C01E10BDC01A10BD0A0401D0801EFC
:1002600010BD0902FCD0401E10BD421E12F8013F15
:10027000002BFBD111F8013B002B02F8013BF9D117
:100280007047032A40F2308010F0030C00F0158014
:1002900011F8013BBCF1020F624498BF11F801CB89
:1002A00000F8013B38BF11F8013BA2F1040298BFEE
:1002B00000F801CB38BF00F8013B11F0030300F058
:1002C0007180083AC0F0088051F8043B083A51F8B0
:1002D00004CBA0E80810F5E7121D5CBF51F8043B01
:1002E00040F8043BAFF30080D20724BF11F8013B74
:1002F00011F801CB48BF11F8012B24BF00F8013BD6
:1003000000F801CB48BF00F8012B70474FF0000206
:100310000429C0F0128010F0030C00F01B80CCF117
:10032000040CBCF1020F18BF00F8012BA8BF20F885
:10033000022BA1EB0C0100F00DB85FEAC17C24BFD9
:1003400000F8012B00F8012B48BF00F8012B704783
:100350004FF0000200B5134694469646203922BF5E
:10036000A0E80C50A0E80C50B1F12001BFF4F7AFA9
:10037000090728BFA0E80C5048BF0CC05DF804EB8B
:10038000890028BF40F8042B08BF704748BF20F8F9
:10039000022B11F0804F18BF00F8012B70477047F7
:1003A0007047704710B5203AC0F00B80B1E8185084
:1003B000203AA0E81850B1E81850A0E81850BFF44F
:1003C000F5AF5FEA027C24BFB1E81850A0E81850EE
:1003D00044BF18C918C0BDE810405FEA827C24BF42
:1003E00051F8043B40F8043B08BF7047D20728BFD0
:1003F00031F8023B48BF11F8012B28BF20F8023B1F
:1004000048BF00F8012B7047754600F02BF8AE4648
:1004100005006946534620F00700854618B020B510
:10042000FFF7F2FEBDE820404FF000064FF0000756
:100430004FF000084FF0000B21F00701AC46ACE88C
:10044000C009ACE8C009ACE8C009ACE8C0098D46F9
:10045000704710B50446AFF300802046BDE8104059
:10046000FFF7BDBE00487047581B00200149182007
:10047000ABBEFEE726000200704721B1826842F061
:100480000102826003E0826822F00102826070470C
:10049000014600208A6802F004020AB1012000E04F
:1004A000002070470146C86C80B2704702460020A9
:1004B00013680B400BB1012000E00020704701469B
:1004C00000208A6802F008020AB1012000E0002042
:1004D0007047000030B502460020002350680F4CE2
:1004E00020400D790C6844EA052420435060906850
:1004F0000B4C2040D1E902542C434D7944EA450489
:1005000020439060D06A20F470000C7C641EE4B23A
:10051000234340EA0350D06230BD0000FFFEF0FFED
:10052000FDF7F1FFF0B504460D4600200021092D2E
:1005300011DDE068A5F10A0606EB4607072606FA74
:1005400007F18843A5F10A0606EB460603FA06F111
:100550000843E0600CE0206905EB4507072606FA32
:1005600007F1884305EB450603FA06F108432061CD
:10057000072A0FDA606B561E06EB86071F2606FA5F
:1005800007F18843561E06EB860605FA06F1084376
:10059000606322E00D2A0FDA206BD61F06EB860778
:1005A0001F2606FA07F18843D61F06EB860605FAD2
:1005B00006F10843206310E0E06AA2F10D0606EBA5
:1005C00086071F2606FA07F18843A2F10D0606EBFF
:1005D000860605FA06F10843E062F0BD816841F045
:1005E00008018160704721B1826842F4A0028260F4
:1005F00003E0826822F4A00282607047816841F0C3
:1006000004018160704700BFFEE7000010B54FF4A1
:10061000005000F0D1F850B14FF4005000F00CF849
:100620000021034800F016F800200249087010BDB0
:10063000440002405000002000F0805111B10349F5
:10064000086001E00249486070470000040402406D
:100650000000024021B1026842F00102026004E0A1
:1006600002684FF6FE731A400260704701684FF649
:10067000FE72114001600021016041608160C16033
:100680004B49884208D14A490839496841F00F016D
:10069000474A083A51608AE045491431884208D1F6
:1006A00043490839496841F0F001414A083A51602C
:1006B0007DE03F492831884208D13D4908394968E1
:1006C00041F470613A4A083A516070E038493C316F
:1006D000884208D136490839496841F47041344AA2
:1006E000083A516063E032495031884208D13049BC
:1006F0000839496841F470212D4A083A516056E0A2
:100700002B496431884208D129490839496841F4A4
:100710007001274A083A516049E0254978318842FA
:1007200008D123490839496841F07061204A083AE4
:1007300051603CE01F49884206D1011F096841F021
:100740000F01021F116032E01A491431884208D1AA
:100750001849091F096841F0F001164A121F11607B
:1007600025E014492831884208D11249091F096837
:1007700041F470610F4A121F116018E00D493C31BD
:10078000884208D10B49091F096841F47041094AA0
:10079000121F11600BE007495031884207D105490B
:1007A000091F096841F47021024A121F1160704745
:1007B000080002400804024001460020002201F027
:1007C000805313B1054B1A6801E0054B1A6802EA21
:1007D00001030BB1012000E000207047000402403B
:1007E000000002401AB103680B43036002E0036893
:1007F0008B430360704710B50022026847F6F07320
:100800009A430C6A8B6823430C6923434C69234346
:100810008C692343CC6923434C6A23438C6A23436A
:100820001A430260CB6843600B6883604B68C36007
:1008300010BD0000124A126842F0F002104B1A601C
:100840000F4A1C3211600E4A243210600C4A1832D2
:10085000126842F001020A4B18331A6000BF084ABE
:10086000121F126802F02002002AF8D0044A18323F
:10087000126822F00102024B18331A607047000020
:10088000040402407047000010B50B48006864285B
:1008900011D209480068401C0749086008460068F2
:1008A000052802D102F0DEFB05E00348006850286D
:1008B00001D102F0DFFB10BD9C0000202DE9F041CA
:1008C000024600250026002000230024002791F87E
:1008D00003C00CF00F0591F803C00CF0100CBCF134
:1008E000000F03D091F802C04CEA050591F800C052
:1008F000BCF1000F31D0146800202BE04FF0010C48
:100900000CFA00F3B1F800C00CEA03069E4220D1B5
:1009100083004FF00F0C0CFA03F7BC4305FA03FCFD
:100920004CEA040491F803C0BCF1280F06D14FF043
:10093000010C0CFA00FCC2F814C00AE091F803C0E4
:10094000BCF1480F05D14FF0010C0CFA00FCC2F8C5
:1009500010C0401C0828D1D31460B1F800C0BCF10D
:10096000FF0F34DD546800202EE000F1080C4FF03A
:10097000010808FA0CF3B1F800C00CEA03069E4225
:1009800021D183004FF00F0C0CFA03F7BC4305FA9A
:1009900003FC4CEA040491F803C0BCF1280F05D114
:1009A00000F1080C08FA0CF8C2F8148091F803C0A2
:1009B000BCF1480F07D100F1080C4FF0010808FA0C
:1009C0000CF8C2F81080401C0828CED35460BDE853
:1009D000F0810000F0B50A46002300240021002524
:1009E00000F00046B6F1004F02D11D4EF16901E062
:1009F0001B4E7168C0F3034583B200F44016B6F590
:100A0000401F08D121F07061154E766826F070669F
:100A1000134F7E6012E000F48016B6F5801F06D1F9
:100A2000032606FA05F4A14341F0706106E0460D85
:100A3000360103FA06F6B14341F0706122B1460D6A
:100A4000360103FA06F6314300F00046B6F1004FD6
:100A500002D1034EF16101E0014E7160F0BD000072
:100A6000000001400246002093680B400BB10120BA
:100A700000E00020704702460020D3680B400BB115
:100A8000012000E00020704741617047016170471C
:100A90000AB1016100E0416170470146002004E0B5
:100AA000401C322800D903E0491C0A78002AF7D1FB
:100AB00000BF704710B5002432E004EB44001A492F
:100AC00001EB8000806848B304EB440011F820007B
:100AD000022823D104EB440001EB80004088401C35
:100AE00004EB4401104A02EB8101488004EB44000E
:100AF000114601EB8000408804EB440102EB8101C8
:100B0000898888420ADB012004EB440102F82100B5
:100B100004EB440102EB810188688047601CC4B289
:100B2000022CCADB10BD00000001002070B5054694
:100B30000E4600240BE000BF4021064801F09AFF5A
:100B40000028F9D0295D034802F061F8641CB44222
:100B5000F1D370BD0048004000BFFEE72DE9F04131
:100B600004460D4616461F462A2000F0A1F9A11C96
:100B700088B200F08AF9B11C88B200F086F92B2007
:100B800000F096F9691C88B200F07FF9791C88B2F0
:100B900000F07BF92C2000F08BF9BDE8F08170B5F6
:100BA00004460D4616462B46224629462046FFF7A8
:100BB000D5FF304600F069F970BD00002DE9F0471F
:100BC00081460F4615461E46DDF82080701E83B212
:100BD000681E82B239464846FFF7C0FF00240AE08B
:100BE0004FEA28222046611C8CB20A490A5401F8B7
:100BF0000480601C84B2AC42F2DB3C4605E029462E
:100C00000448FFF717FE601C84B2B4EB460FF6DB16
:100C1000BDE8F087C00500202DE9FF5F80468A46C9
:100C200017469B460F9D00200290CDF80080284675
:100C300005EBD071C1F347042046E21704EB527272
:100C4000D2102146E31704EB5373DB10A4EBC3036C
:100C50000BB1012300E000231A446A4392B20192CF
:100C6000A7F12000C7B20AEB0500401E83B208EBD3
:100C70000400401E82B251464046FFF76FFF002637
:100C800073E00C2D07D107EB47003A4901EB8000D8
:100C9000805D039025E0102D05D1374800EB07104B
:100CA000805D03901DE0182D07D107EB4700334905
:100CB00001EB0010805D039013E0202D05D130483A
:100CC00000EB8710805D03900BE0302D07D107EB20
:100CD000C7002C4901EB0010805D039001E0BDE8E6
:100CE000FF9F4FF000093AE01098C8B9012000FAC0
:100CF00009F00399084018B1584600F0C6F802E020
:100D00000E9800F0C2F80298401CC0B202900298FF
:100D100090FBF4F104FB1100E8B90020029021E0FF
:100D2000012000FA09F00399084020B15A465146C3
:100D30004046FFF734FF08F101001FFA80F80098E1
:100D4000A8EB0000A04206D1DDF800800AF1010006
:100D50001FFA80FA06E009F1010000F0FF09B9F17D
:100D6000080FC1DB00BF701C86B20198864288DB89
:100D700000BFB4E7F85200086C5700085C5D00083B
:100D80002C6F0008EC8600082DE9FF4782B004466E
:100D90000E461F4600200190A2468020009006F1DA
:100DA0001F0083B204F11F0082B231462046FFF7D4
:100DB000D5FE4FF000093FE02249049801EBC01036
:100DC00010F80980002530E00F98C0B90120A84034
:100DD00000EA080018B1384600F057F802E00E9813
:100DE00000F053F80198401CC0B20190019890FBAC
:100DF000FBF10BFB1100B0B90020019017E00120BE
:100E0000A84000EA080020B13A4631462046FFF7E4
:100E1000C6FE601C84B2A4EB0A00584503D15446B8
:100E2000701C86B203E0681CC5B2082DCCDB00BF85
:100E300009F101001FFA80F900988145BCDB06B07A
:100E4000BDE8F0875CBC00082DE9FE4F06460F4662
:100E500014469846DDE90D5ADDF8309010E0CDE9F2
:100E6000015ACDF800902278434639463046FFF7C4
:100E7000D3FE284605EBD07106EB61018EB2641CEF
:100E800020780028EBD1BDE8FE8F18B5044620126B
:100E90008DF80000E0B28DF8010002216846FFF7EE
:100EA000C9FC18BD10B50446204600F011F810BD6D
:100EB00010B5044610210548FFF7E6FD204600F076
:100EC00007F810210148FFF7E1FD10BD000C0140BB
:100ED00001B540210348FFF7D7FD01216846FFF720
:100EE000A9FC08BD000C014070B503460024002099
:100EF00010E00E5C451C4D5D46EA0526851C4D5DE7
:100F000046EA0546C51C4D5D46EA056543F8245092
:100F1000641C001D9042ECD370BD70B503461446AE
:100F20000022002015E011F822501D5431F8225003
:100F3000C5F30726451C5E5551F82250C5F30746F8
:100F4000851C5E5551F822502D0EC61C9D55521C15
:100F5000001DA042E7D370BD2DE9FC4104460E46BA
:100F6000002500272088C0F3C505382D02D2C5F121
:100F7000380001E0C5F1780007460822214668469E
:100F8000FFF7CBFF3A460849204600F00BFC082249
:100F90006946204600F006FC102204F108013046A4
:100FA000FFF7BBFFBDE8FC81A0000020002101602D
:100FB000416005498160054AC260CA430261034A33
:100FC000D2434261704700000123456789ABCDEFF2
:100FD0002DE9F043C0B080468946D8F80040D8F8E3
:100FE0000450D8F80860D8F80C704022494668468A
:100FF000FFF77AFF05EA060027EA05010843009992
:101000000844FE4908440444E00140EA54642C4486
:1010100004EA050026EA0401084301990844F84956
:1010200008440744380340EA1757274407EA0400F6
:1010300025EA0701084302990844F2490844064496
:10104000700440EAD6363E4406EA070024EA060168
:10105000084303990844EC4908440544A80540EABC
:101060009525354405EA060027EA05010843049959
:101070000844E64908440444E00140EA54642C442E
:1010800004EA050026EA0401084305990844E049FA
:1010900008440744380340EA1757274407EA040086
:1010A00025EA0701084306990844DA49084406443A
:1010B000700440EAD6363E4406EA070024EA0601F8
:1010C000084307990844D44908440544A80540EA60
:1010D0009525354405EA060027EA050108430899E5
:1010E0000844CE4908440444E00140EA54642C44D6
:1010F00004EA050026EA0401084309990844C8499E
:1011000008440744380340EA1757274407EA040015
:1011100025EA070108430A990844A0F524404F38FE
:101120000644700440EAD6363E4406EA070024EA44
:10113000060108430B990844BA4908440544A80528
:1011400040EA9525354405EA060027EA05010843EB
:101150000C990844B44908440444E00140EA54644A
:101160002C4404EA050026EA040108430D990844CA
:10117000AE4908440744380340EA1757274407EAB2
:10118000040025EA070108430E990844A8490844C9
:101190000644700440EAD6363E4406EA070024EAD4
:1011A000060108430F990844A24908440544A805CC
:1011B00040EA9525354405EA070026EA0701084379
:1011C000019908449C4908440444600140EAD464FD
:1011D0002C4404EA060025EA06010843069908445F
:1011E000964908440744780240EAD757274407EA5B
:1011F000050024EA050108430B9908449049084476
:101200000644B00340EA96463E4406EA040027EA54
:1012100004010843009908448A4908440544280504
:1012200040EA1535354405EA070026EA0701084378
:1012300005990844844908440444600140EAD464A0
:101240002C4404EA060025EA060108430A990844EA
:101250007E4908440744780240EAD757274407EA02
:10126000050024EA050108430F9908447849084419
:101270000644B00340EA96463E4406EA040027EAE4
:1012800004010843049908447249084405442805A8
:1012900040EA1535354405EA070026EA0701084308
:1012A000099908446C4908440444600140EAD46444
:1012B0002C4404EA060025EA060108430E99084476
:1012C000664908440744780240EAD757274407EAAA
:1012D000050024EA050108430399084460490844CD
:1012E0000644B00340EA96463E4406EA040027EA74
:1012F00004010843089908445A490844054428054C
:1013000040EA1535354405EA070026EA0701084397
:101310000D990844544908440444600140EAD464E7
:101320002C4404EA060025EA060108430299084411
:101330004E4908440744780240EAD757274407EA51
:10134000050024EA05010843079908444849084470
:101350000644B00340EA96463E4406EA040027EA03
:10136000040108430C9908444249084405442805EF
:1013700040EA1535354485EA060078400599084469
:101380003D4908440444200140EA14742C4484EA92
:101390000500704008990844384908440744F80299
:1013A00040EA5757274487EA040068400B990844ED
:1013B000334908440644300440EA16463E4486EA6F
:1013C000070060400E9908442E4908440544E8058A
:1013D00040EA5525354485EA0600784001990844DD
:1013E000294908440444200140EA14742C4484EA46
:1013F0000500704004990844244949E078A46AD75C
:1014000056B7C7E8DB702024EECEBDC1AF0F7CF528
:101410002AC68747134630A8019546FDD8988069AB
:10142000AFF7448BBED75C892211906B937198FD06
:101430008E4379A62108B44962251EF640B340C008
:10144000515A5E26AAC7B6E95D102FD6531444023E
:1014500081E6A1D8C8FBD3E7E6CDE121D60737C3A3
:10146000870DD5F4ED145A4505E9E3A9F8A3EFFC7F
:10147000D9026F678A4C2A8D4239FAFF81F671874B
:1014800022619D6D0C38E5FD44EABEA4A9CFDE4B78
:1014900008440744F80240EA5757274487EA040003
:1014A000684007990844A54908440644300440EAC6
:1014B00016463E4486EA070060400A990844A0495F
:1014C00008440544E80540EA5525354485EA060008
:1014D00078400D9908449B4908440444200140EA9F
:1014E00014742C4484EA050070400099084496491D
:1014F00008440744F80240EA5757274487EA0400A3
:10150000684003990844914908440644300440EA7D
:1015100016463E4486EA07006040069908448C4916
:1015200008440544E80540EA5525354485EA0600A7
:10153000784009990844874908440444200140EA56
:1015400014742C4484EA050070400C9908448249C4
:1015500008440744F80240EA5757274487EA040042
:1015600068400F9908447D4908440644300440EA25
:1015700016463E4486EA07006040029908447849CE
:1015800008440544E80540EA5525354465EA070066
:10159000704000990844734908440444A00140EA9B
:1015A00094642C4464EA06006840079908446E4934
:1015B00008440744B80240EA9757274467EA050001
:1015C00060400E990844694908440644F00340EA23
:1015D00056463E4466EA040078400599084464494A
:1015E00008440544680540EAD525354465EA070006
:1015F00070400C9908445F4908440444A00140EA43
:1016000094642C4464EA06006840039908445A49EB
:1016100008440744B80240EA9757274467EA0500A0
:1016200060400A990844554908440644F00340EADA
:1016300056463E4466EA0400784001990844504901
:1016400008440544680540EAD525354465EA0700A5
:101650007040089908444B4908440444A00140EAFA
:1016600094642C4464EA060068400F990844464993
:1016700008440744B80240EA9757274467EA050040
:10168000604006990844414908440644F00340EA92
:1016900056463E4466EA040078400D9908443C49A9
:1016A00008440544680540EAD525354465EA070045
:1016B000704004990844374908440444A00140EAB2
:1016C00094642C4464EA060068400B99084432494B
:1016D00008440744B80240EA9757274467EA0500E0
:1016E0006040029908442D4908440644F00340EA4A
:1016F00056463E4466EA0400784009990844284961
:1017000008440544680540EAD5253544D8F800006A
:101710002044C8F80000D8F804002844C8F80400A1
:10172000D8F808003044C8F80800D8F80C0038444D
:10173000C8F80C0040B0BDE8F0830000604BBBF679
:1017400070BCBFBEC67E9B28FA27A1EA8530EFD4C5
:10175000051D880439D0D4D9E599DBE6F87CA21FB1
:101760006556ACC4442229F497FF2A43A72394ABBF
:1017700039A093FCC3595B6592CC0C8F7DF4EFFFCD
:10178000D15D84854F7EA86FE0E62CFE144301A353
:10179000A111084E827E53F735F23ABDBBD2D72A4B
:1017A00091D386EB2DE9F04704460F4615460026F7
:1017B000B046B1462088C0F3C508C8F1400920688A
:1017C00000EBC50020602068B0EBC50F02D2606856
:1017D000401C6060606800EB557060604D451CD334
:1017E00004F1180101EB08004A463946FEF749FDAD
:1017F00004F1180104F10800FFF7EAFB4E4605E08A
:10180000B91904F10800FFF7E3FB403606F1400088
:10181000A842F5D94FF0000800E00026AA1BB9192C
:1018200004F1180303EB0800FEF72BFDBDE8F08779
:1018300000BFFEE77047000070B5002100230F22B3
:10184000C47804B3154C246804F4E064C4F5E0647F
:10185000210AC1F10403CA40447804FA03F18478F0
:101860001440214309010E4C0678A155047804F078
:101870001F050124AC4005786D11AD0005F1E02590
:10188000C5F8004109E0047804F01F050124AC40CC
:10189000044D0678761145F8264070BD0CED00E049
:1018A00000E400E080E100E002490143024A1160E7
:1018B000704700000000FA050CED00E002490968DD
:1018C00009B9014908607047E800002000202CE0B9
:1018D00000EB4001164A52F8211021B300EB400101
:1018E00002EB81010989491C00EB4002104B03EB1C
:1018F0008202118100EB40011A4602EB8101098945
:1019000000EB400203EB8202D28891420BDB002104
:1019100000EB400203EB82021181012100EB400247
:1019200003EB82021171411CC8B20328D0DB70475F
:10193000341B002070B500EB40040E4D55F82440D8
:10194000B4B900EB400445F82410002400EB400536
:10195000084E06EB85052C7100EB4004354605EB7F
:101960008404E280002400EB400506EB85052C8111
:1019700070BD0000341B002019E0002415E004EBCA
:1019800044000B4901EB8000007901280BD10020B5
:1019900004EB4401064A02EB8101087104EB4401A7
:1019A00052F821008047601CC4B2032CE7DBE4E757
:1019B000341B0020002016E0002100EB40020B4BFE
:1019C00043F8221000EB400203EB8202117100EB9E
:1019D000400203EB8202D18000EB400203EB820263
:1019E0001181411CC8B20328E6DB7047341B00207C
:1019F000002007E00549014491F8E817044A115412
:101A0000411CC8B20C28F5DB7047000000F0FF1F36
:101A1000271B0020704700001CB501F009FC0128BD
:101A20006FD1002000904FF6FF731022012101902A
:101A30000846FFF7A9F902F047F8052811D1002060
:101A40005E49088002F040F80A30C4B200200090DD
:101A50004FF6FF732246012101902120FFF794F9F0
:101A6000AAE056480088401C54490880084600886F
:101A700032280AD1002000904FF6FF730A2201217C
:101A800001902120FFF780F996E04C4800886428F7
:101A90000AD1002000904FF6FF730B220121019024
:101AA0002120FFF771F987E04448008896280AD181
:101AB000002000904FF6FF730C220121019021209D
:101AC000FFF762F978E03D480088C8280AD1002075
:101AD00000904FF6FF730D22012101902120FFF7A6
:101AE00053F969E035480088FA280BD100200090AE
:101AF0004FF6FF730E22012101902120FFF744F9D8
:101B00005AE011E02D480088B0F5967F54D10020AE
:101B10002A49088000904FF6FF730F22012101909F
:101B20002120FFF731F947E0002000904FF6FF73C6
:101B30001122012101900846FFF726F901F0C4FFA8
:101B4000012828DC1D480088401C1C4908800846E4
:101B5000008832280ED101F0B7FF0A30C4B200204D
:101B600000904FF6FF732246012101902120FFF7DC
:101B70000BF921E01148008864281DDD00200F4981
:101B8000088000904FF6FF7313220121019021205D
:101B9000FFF7FAF810E000200849088001F094FFF0
:101BA0000A30C4B2002000904FF6FF732246012194
:101BB00001902120FFF7E8F81CBD0000E4000020A0
:101BC00001460020034A506820F44040084350601A
:101BD000704700000010024029B1064A52690243D2
:101BE000044B5A6104E0034A52698243014B5A6133
:101BF000704700000010024029B1064AD269024332
:101C0000044BDA6104E0034AD2698243014BDA6192
:101C1000704700000010024029B1064A12690243D1
:101C2000044B1A6104E0034A12698243014B1A61B2
:101C3000704700000010024029B1064A9269024331
:101C4000044B9A6104E0034A92698243014B9A6112
:101C5000704700000010024029B1064AD2680243D2
:101C6000044BDA6004E0034AD2688243014BDA6035
:101C700070470000001002402DE9F04100210022D1
:101C8000002500230026002400278C46DFF8608111
:101C9000D8F8048008F00C0121B1042907D00829E4
:101CA00059D109E0DFF84C81C0F8008058E0DFF836
:101CB0004881C0F8008053E0DFF83481D8F8048010
:101CC00008F47012DFF82881D8F8048008F4803511
:101CD000920C0D2A01D0921C00E0062235B9DFF8E3
:101CE0001C8102FB08F8C0F8008033E0DFF80081B7
:101CF000D8F82C8008F48036DFF8F480D8F82C80EF
:101D000008F00F0808F1010446B9DFF8EC80B8FBD1
:101D1000F4F808FB02F8C0F800801BE0DFF8D08080
:101D2000D8F82C80C8F3031808F10107DFF8C08049
:101D3000D8F82C80C8F3032808F1020CDFF8B8802B
:101D4000B8FBF7F808FB0CF8B8FBF4F808FB02F84E
:101D5000C0F8008004E0DFF89C80C0F8008000BF7D
:101D600000BFDFF88C80D8F8048008F0F001090982
:101D7000DFF88C8018F80130D0F8008028FA03F8DA
:101D8000C0F80480DFF86880D8F8048008F4E061C7
:101D9000090ADFF86C8018F80130D0F8048028FABE
:101DA00003F8C0F80880DFF84880D8F8048008F409
:101DB0006051C90ADFF8488018F80130D0F8048073
:101DC00028FA03F8C0F80C80DFF82480D8F80480E3
:101DD00008F44041890BDFF82C8018F80130D0F866
:101DE0000C80B8FBF3F8C0F81080BDE8F08100006B
:101DF0000010024000127A0040787D0100093D0089
:101E0000EC000020FC00002021B1028842F04002DA
:101E1000028004E002884FF6BF731A4002807047C8
:101E20001AB183880B43838002E083888B438380CD
:101E3000704710B50022028802F441520B884C888A
:101E400023438C882343CC8823430C8923434C8928
:101E500023438C892343CC8923431A430280838BF9
:101E60004FF2FF74234083830B8A038210BD7047B7
:101E70002DE9F84F05460C4616461F46DDE90A9A3D
:101E80001948006820B169460020174A1268904737
:101E90004FF000081CE099F80000216808702068E5
:101EA000401C2060F1192068884200D1266020681B
:101EB0002968884206D12868401CF11928608842A8
:101EC00000D12E6008F101001FFA80F809F1010924
:101ED000D045E0DB0448006820B169460120024A91
:101EE00012689047BDE8F88FE800002010B503465F
:101EF00008681C68A04204D908881C88001B80B2AE
:101F000010BD08681C68A04205D2088810441C88CF
:101F1000001B80B2F4E70020F2E700002DE9F8434F
:101F200004460E4615461F46DDF820804FF0000996
:101F30001348006820B169460020114A1268904792
:101F4000002088F800003068216888420CD02068A2
:101F5000007888F800004FF001092068401CE9195A
:101F60002060884200D125600548006820B169469C
:101F70000120034A126890474846BDE8F8830000F4
:101F8000E800002002600A6070472DE9F05F044617
:101F90000D4690462846FEF780FD8146C84504D38D
:101FA000A8EB090000F1010A02E0FF20BDE8F09F64
:101FB000002600271CE020782978884216D14FF0AF
:101FC000010B0FE0761C4E4501D13846EEE7641C4C
:101FD0006D1C20782978884204D0A41BAD1B0026F4
:101FE000B34602E0BBF1000FECD100BF641C7F1CC4
:101FF0005745E0D3FF20D9E710B500F001F810BD38
:102000000CB50020019000903F48006840F48030FB
:102010003D49086000BF3C48006800F40030009073
:102020000198401C0190009818B90198B0F5A06F74
:10203000F1D13548006800F4003010B10120009063
:1020400001E000200090009801285CD12F48006832
:1020500040F010002D4908600846006820F0030099
:1020600008600846006840F00200086026484068A2
:10207000254948600846406848600846406840F482
:10208000806048600846C06A214908401E49C8620D
:102090000846C06A1F4908431B49C86208460068D1
:1020A00040F08060086000BF1748006800F00060E2
:1020B0000028F9D01448406820F47C101249486088
:1020C0000846406840F4E81048600846006840F060
:1020D0008070086000BF0C48006800F000700028A5
:1020E000F9D00948406820F00300074948600846D5
:1020F000406840F00200486000BF0348406800F0BC
:102100000C000828F9D10CBD00100240002002404C
:1021100000F0FEFF44060100F0B50346144621E03E
:10212000641E187800F00F070A2F04DA00F00F077A
:1021300007F1300603E000F00F075737FEB2001139
:1021400000F00F070A2F04DA00F00F0707F130053F
:1021500003E000F00F075737FDB20D70491C0E70F9
:10216000491C5B1C002CDBD1F0BD10B5FFF7AEFBAA
:1021700010BD000010B51648006840F00100144979
:1021800008600846406813490840114948600846FD
:102190000068114908400E4908600846006820F4AC
:1021A000802008600846406820F4FE004860084629
:1021B000006820F0A05008604FF47F008860002085
:1021C000C862FFF719FF4FF000600449086010BDB6
:1021D000001002400000FFF0FFFFF6FE08ED00E0F7
:1021E000F0B50C46154600220021068C4FF6FE770E
:1021F0003E400684028B018C4FF60C7632407E1CEA
:1022000006EA03162E433243104EB0420ED0104E53
:10221000B0420BD0B0F1804F08D00E4EB04205D086
:102220000D4EB04202D00D4EB04206D14FF6FD76B3
:10223000314044F00106314305E04FF6F576314078
:1022400044F00106314302830184F0BD002C0140BB
:10225000003401400004004000080040000C004031
:10226000F0B50C461546002200210026078C4FF6DB
:10227000EF7C07EA0C070784028B018C4FF6FF778F
:1022800007EA041640F6FF473A404FF6FF7707EAA1
:1022900003373A434FF6FF7707EA05273A43114FD2
:1022A000B8420ED0104FB8420BD0B0F1804F08D0DA
:1022B0000E4FB84205D00E4FB84202D00D4FB84273
:1022C00006D14FF6DF77394046F01007394305E075
:1022D0004FF65F77394044F0100739430283018499
:1022E000F0BD0000002C014000340140000400401B
:1022F00000080040000C0040F0B50C4615460022D6
:1023000000210026078C4FF6FF6C07EA0C070784B4
:10231000828B018C4FF6FF7707EA04264FF60C7785
:102320003A404FF6FF7707EA03172F433A43114F1E
:10233000B8420ED0104FB8420BD0B0F1804F08D049
:102340000E4FB84205D00E4FB84202D00D4FB842E2
:1023500006D14FF6FF57394046F48077394305E000
:102360004FF2FF57394044F4807739438283018428
:10237000F0BD0000002C014000340140000400408A
:1023800000080040000C0040F0B50C461546002245
:1023900000210026078C4EF6FF7C07EA0C07078415
:1023A000828B018C4FF6FF7707EA043640F6FF4731
:1023B0003A404FF6FF7707EA05273A434FF6FF7793
:1023C00007EA03373A43114FB8420ED0104FB842D4
:1023D0000BD0B0F1804F08D00E4FB84205D00E4F51
:1023E000B84202D00D4FB84206D14DF6FF773940C2
:1023F00046F48057394305E047F6FF57394044F427
:102400008057394382830184F0BD0000002C0140D5
:10241000003401400004004000080040000C00406F
:1024200010B501212F4800F074F904212D4800F067
:1024300070F9002850D02B4800F068F92A498860CC
:1024400008468068B42806D2084680688C2802D9DD
:102450000020887131E0244880683C2803D9224854
:1024600080685A2824D320488068872820D21E48B4
:10247000806864281CD91C4A9079C21700EB5272FC
:10248000D310194A0C32D25C174B9979CB1701EB58
:102490005373DB10A1EBC304802323411A43124B77
:1024A0009879C31700EB5373DC100F4B0C331A559C
:1024B0000D488079401C0C4988710B488079282888
:1024C00006D10021074800F021F801200649487193
:1024D0000021044800F08DF90521024800F013F8AE
:1024E00010BD0000000400401801002010B5FEF7E8
:1024F000E1FA0121014800F003F810BD0008004096
:10250000CA4302827047CA430282704721B10288DF
:1025100042F00102028004E002884FF6FE731A4086
:102520000280704710B504466848844208D10121F2
:10253000C014FFF791FB0021E014FFF78DFBC4E00E
:10254000B4F1804F08D101210846FFF765FB002157
:102550000120FFF761FBB8E05D48844208D101210A
:102560000220FFF759FB00210220FFF755FBACE0EA
:102570005848844208D101210420FFF74DFB002177
:102580000420FFF749FBA0E05348844208D1012111
:102590000820FFF741FB00210820FFF73DFB94E0F6
:1025A0004E48844208D101211020FFF735FB00215D
:1025B0001020FFF731FB88E04948844208D101210F
:1025C0002020FFF729FB00212020FFF725FB7CE0DE
:1025D0004448844208D101214014FFF73DFB00210B
:1025E0006014FFF739FB70E03F48844209D10121B4
:1025F000C804FFF731FB00214FF40020FFF72CFB4C
:1026000063E03A48844209D101210805FFF724FB21
:1026100000214FF48010FFF71FFB56E0344884423E
:1026200009D101214805FFF717FB00214FF40010E5
:10263000FFF712FB49E02F48844208D101214020D6
:10264000FFF7EAFA00214020FFF7E6FA3DE02A48CA
:10265000844208D101218020FFF7DEFA002180208A
:10266000FFF7DAFA31E02548844208D101218015CC
:10267000FFF7D2FA0021A015FFF7CEFA25E0204897
:10268000844209D101210804FFF7E6FA00214FF442
:102690008030FFF7E1FA18E01A48844209D101219D
:1026A0004804FFF7D9FA00214FF40030FFF7D4FABD
:1026B0000BE01548844208D101218804FFF7CCFAC9
:1026C00000214FF48020FFF7C7FA10BD002C014015
:1026D0000004004000080040000C004000100040D2
:1026E0000014004000340140004C01400050014003
:1026F0000054014000180040001C00400020004031
:102700000040014000440140004801400146088F5C
:10271000704730B50246002000230024158A05EAE0
:102720000103958905EA010413B10CB1012000E011
:10273000002030BD70B505460C46244885420ED0B9
:10274000234885420BD0B5F1804F08D021488542FF
:1027500005D02148854202D02048854200D100E0C2
:1027600000BF208850B92389A28861882846FFF7D6
:1027700037FDE188284600F03EF825E0208804284F
:102780000AD12389A28861882846FFF769FDE1887C
:10279000284600F039F817E0208808280AD1238954
:1027A000A28861882846FFF7A7FDE188284600F047
:1027B00038F809E02389A28861882846FFF7E4FDFC
:1027C000E188284600F036F870BD0000002C01407A
:1027D000003401400004004000080040000C0040AC
:1027E0001AB183890B43838102E083898B43838100
:1027F000704781847047028B4FF6F3731A4002834F
:10280000028B0A4302837047028B4FF2FF331A4058
:102810000283028B4FF6FF7303EA01231A430283FC
:102820007047828B4FF6F3731A408283828B0A4380
:1028300082837047828B4FF2FF331A408283828BF0
:102840004FF6FF7303EA01231A43828370470000A7
:10285000002202881D4B98420ED01D4B98420BD08F
:10286000B0F1804F08D01B4B984205D01A4B9842CC
:1028700002D01A4B984204D14FF68F731A404B88FE
:102880001A43174B984207D0164B984204D04FF684
:10289000FF431A40CB881A4302808B8883850B88BC
:1028A00003850A4B98420BD0094B984208D00E4B37
:1028B000984205D00D4B984202D00D4B984201D161
:1028C0000B7A03860123838270470000002C0140AD
:1028D000003401400004004000080040000C0040AB
:1028E000001000400014004000400140004401403E
:1028F0000048014010B540F225510A4800F0C7F8E1
:1029000078B1084800F07EF9C4B240F2255105487C
:1029100000F08CF80448006818B1204602490968A4
:10292000884710BD005000405C0000200EB540F20A
:1029300025510D4800F0ABF8A0B10B4800F062F94A
:10294000C0B2029040F22551074800F06FF8012014
:1029500002A940F20123054ACDE90010111F081F0A
:10296000FFF786FA0EBD000000380140A4030020E6
:102970007CB505460C4640F201220949081FFFF7C5
:10298000B5FA2044B0F5007F09DA40F20123044A89
:10299000121D111F081FCDE90054FFF769FA7CBD15
:1029A000A003002008B540F225510D4800F06FF853
:1029B000A8B140F225510A4800F038F8084800F064
:1029C00021F9C0B200900748006820B19DF80000CE
:1029D00004490968884701216846FFF7C9FF08BD17
:1029E000004400405400002008B540F225510D4835
:1029F00000F04DF8A8B10B4800F004F9C0B2009007
:102A000040F22551074800F011F80748006820B14E
:102A10009DF8000004490968884701216846FFF7CE
:102A2000A7FF08BD004800405800002010B5002254
:102A3000002340F66A14A14200D100BF0A1201240B
:102A40009440A3B2DC43048010BD21B1828942F4DA
:102A50000052828104E082894DF6FF731A40828120
:102A600070471AB1838A0B43838202E0838A8B43C7
:102A70008382704702460020B1F5007F00D100BF7D
:102A800013880B400BB1012000E00020704770B5A7
:102A90000246002400230025002040F66A16B142B9
:102AA00000D100BFC1F3421501F01F03012606FA51
:102AB00003F3012D02D19689334006E0022D02D1A5
:102AC000168A334001E0968A33400C12012606FA3A
:102AD00004F41688344013B10CB1012000E000204A
:102AE00070BDF0B50346002400260025002040F606
:102AF0006A17B94200D100BF1846C1F3421401F071
:102B00001F06012707FA06F5012C01D10C3004E05D
:102B1000022C01D1103000E014301AB107682F43A5
:102B2000076002E00768AF430760F0BD2DE9F0479A
:102B300086B005460E460024A24600BFA1460027E7
:102B4000B08900B100BF2F462C8A4CF6FF700440BC
:102B5000F08804432C82AC894EF6F3100440B08810
:102B600031890843718908430443AC81AC8A4FF62C
:102B7000FF400440B0890443AC8201A8FFF77CF811
:102B80001F48874202D1DDF810A001E0DDF80CA05B
:102B9000A88900F4004040B10AEBCA0000EB0A101B
:102BA00031684900B0FBF1F807E00AEBCA0000EB1E
:102BB0000A1031688900B0FBF1F86420B8FBF0F02E
:102BC00004012009642101FB1089A88900F4004058
:102BD00040B1322000EBC900B0FBF1F000F007007B
:102BE000044308E0322000EB09106421B0FBF1F04F
:102BF00000F00F0004432C8106B0BDE8F087000010
:102C00000038014001468888C0F308007047C1F3CE
:102C100008028280704700BFFEE700002DE9F04700
:102C200081460E4617469846002413E004EBC40084
:102C300000EB4000094A811842464846FFF7A5F9D3
:102C4000C5B2FF2D04D034703D700020BDE8F08780
:102C5000601CC4B20C2CE9DBFF20F7E750CA000867
:102C60007CB505462E7800240CE0285D11490978D2
:102C700001EBC10202EB01110F4A02EBC101085541
:102C8000601CC4B2B442F0DB01200A4911230B4A94
:102C9000CDE90010111F081FFFF7EAF8054800787A
:102CA000401C04490870084600780A2801DB00200F
:102CB00008707CBD88000020E40E0020D00E0020AB
:102CC00070B5B2B005462E78701EC6B2002405E07D
:102CD000601C285C0DF80400601CC4B2B442F7DB31
:102CE00031466846FDF722FF32B070BD70B505462B
:102CF0000C4616460C2C34D2DFE804F00607081CFC
:102D00001D2728263031321E2BE02AE046211648A6
:102D1000FDF7FCFA284602F0A5F81348401E00789B
:102D2000022803D1082002F057F902E0032002F044
:102D300053F916E015E014E00C480078012802D1A0
:102D4000022002F049F90CE00BE00AE007480078A5
:102D5000052802D1062002F03FF902E001E000E080
:102D600000BF00BF70BD0000D51900208900002001
:102D700010B5002002F0F4F9FEF74EFE10BD000081
:102D800010B5034801F040FB024801F0BDFD10BD45
:102D90003D5100085951000800204FF4E15000BF98
:102DA000011EA0F10100FBD17047000000B587B003
:102DB00001210820FEF740FF01211020FEF73CFF13
:102DC000012140F20120FEF737FF0120ADF8180085
:102DD00000208DF81B0006A91D48FDF76FFD01209E
:102DE000ADF8180000208DF81B0006A91948FDF762
:102DF00065FD4FF44040FEF7E3FE002001908DF8A2
:102E000008008DF809004FF4602003900020049022
:102E100002208DF8140001A90F48FDF75BFB01218A
:102E20000D48FDF72AFB0C48FDF7D8FB00BF0A4808
:102E3000FDF745FB0028FAD10748FDF7DFFB00BF8F
:102E40000548FDF725FB0028FAD107B000BD0000BA
:102E5000000C0140001001400024014010B5FFF7B4
:102E6000A5FF00200549087048704860886005206B
:102E7000087500200874488210BD0000A8050020D5
:102E800010B500F0B5FD0446072C0ED1144800889B
:102E9000401C134908800846008832281FDD0020A6
:102EA000088001200F49087019E0062C17D00E4841
:102EB0000078844210D00D480078401C0B490870FF
:102EC0000846007803280ADD0020087006480470D0
:102ED00000780449087502E000200449087010BD1C
:102EE00062000020A805002064000020650000208A
:102EF00010B500F019F80248FEF7E0FC10BD000024
:102F0000052F000870B504460D4624B900F014FEE4
:102F1000287072B606E0012C04D1287808B162B698
:102F200000E072B670BD000030B51448006864223D
:102F3000B0FBF2F1B1F1807F00D31DE021F07F40C2
:102F4000401E4FF0E022506150170F22002807DA90
:102F500013071D0E0A4B00F00F04241F1D5503E03C
:102F600013071C0E074B1C5400BF00204FF0E0223B
:102F700090610720106100BF30BD00006800002094
:102F800018ED00E000E400E070B500EB40040B4DEC
:102F900005F82430002400EB4005084E06EB8505BB
:102FA0006C8000EB4004354605EB8404A28000EB06
:102FB000400405EB8404A16070BD00000001002006
:102FC0000649496C21F00101044A516411468864A4
:102FD000496C41F00101516470470000000002405B
:102FE00000B58DB001210846FEF7F6FD1A48FDF741
:102FF0003DFB1A4801901A480290102003904001AE
:1030000004900020059080200690002007900890F2
:1030100009904FF400500A9000200B9001A90E482F
:10302000FDF7E9FB012202210B48FDF7DBFB4FF422
:10303000A060FEF739FC0E208DF8300006208DF8D8
:10304000310000208DF8320001208DF833000CA8EB
:10305000FEF7F2FB0DB000BD440002400438014011
:103060009C01002010B520210148FDF70FFD10BD87
:103070000008014010B520210148FDF705FD10BDF5
:103080000008014010B502210148FDF7EBFC10BD1E
:10309000000C014010B510210148FDF7F5FC10BDF2
:1030A0000010014010B510210148FDF7EFFC10BDE4
:1030B0000010014010B533480068401C31490860D9
:1030C00008460068B0F5967F04D90020086001200A
:1030D0002D4908712C48007930B1012805D002280B
:1030E0000CD004284CD123E04AE000F0A3FA0220DF
:1030F00025490871012000F071FA41E08021234840
:10310000FDF7C4FC002000F069FA00F093FA0420F7
:103110001D49087147214FF6FF7000F0ABFE0121F9
:103120001B48FFF7F3F900211948FFF762FB27E07E
:1031300015484079012822D10020134948710871AF
:103140000846047B407B2044C4B20846807B204470
:10315000C4B20846C07B2044C4B20846007CA042EA
:103160000DD10846417B007B01EB002006494880D9
:103170000846C17B807B01EB00200349088000BF2B
:1031800000BF10BD340000201801002000080140DD
:10319000000400400148008870470000180100202A
:1031A00001484088704700001801002008B501213F
:1031B0000420FEF741FD01210820FEF73DFD01211D
:1031C0001020FEF739FD1020ADF8000002208DF828
:1031D000020010208DF8030069461148FDF76EFBD0
:1031E0002020ADF8000002208DF8020010208DF89C
:1031F000030069460B48FDF761FB0220ADF80000B3
:1032000004208DF8030069460748FDF757FBFFF7D8
:1032100039FF06490870FFF745FFFFF72BFF08BD90
:103220000010014000080140000C01400000002097
:1032300010B5FFF727FF0446FFF7AEFD0D480078F5
:10324000844203D100200C49087010E0094800783E
:1032500084420CD008480078401C07490870084692
:103260000078142803DD002008700248047001482B
:10327000007810BD000000200100002008B50121E9
:103280000820FEF7D9FC4FF44070ADF80000032091
:103290008DF8020014208DF8030069460448FDF7FC
:1032A0000DFB012000F018F8012000F003F808BD24
:1032B000000C014010B504462CB14FF48071054854
:1032C000FDF7E4FB04E04FF480710248FDF7DCFBFE
:1032D00010BD0000000C014010B504462CB14FF4A5
:1032E00000710548FDF7D2FB04E04FF4007102487D
:1032F000FDF7CAFB10BD0000000C01407FB50020A7
:103300000090019002900390684600F0E5F80024D8
:103310007DE0FF2500264048005D05286AD2DFE8F1
:1033200000F0030A274662001DF8040010B10120D6
:10333000394908555EE01DF8040088B1374830F877
:103340001400401E80B2354921F8140078B90320DA
:1033500021F814000220304908552546012606E0D0
:1033600003202E4921F8140000202B49085541E084
:103370001DF8040088B12A4830F81400401E80B2BD
:10338000274921F8140088B9C82021F81400032027
:10339000214908552546032608E0C820204921F880
:1033A000140004201C4908552546022622E01DF879
:1033B000040048B90420184908559620194921F8F5
:1033C0001400254605260DE0164830F81400401E6E
:1033D00080B2144921F8140020B9962021F8140075
:1033E0002546042606E01DF8040010B900200A490D
:1033F000085500BF00BFFF2D07D00B48006820B163
:1034000031462846084A12689047601CC4B2102C06
:10341000FFF67FAF7FBD00002C0100203C010020A3
:103420005C0100207C0100204C00002010B54FF40E
:1034300080410D48FDF71FFBC0F10100C4B22246D8
:103440004FF480410848FDF723FB4FF40041064844
:10345000FDF711FBC0F10100C4B222464FF4004158
:103460000148FDF715FB10BD0010014008B5012112
:103470001020FEF7E1FB4FF44040ADF800000220C1
:103480008DF8020010208DF8030069460648FDF70C
:1034900015FA4FF480410448FDF7F6FA4FF4004165
:1034A0000148FDF7F3FA08BD0010014010B5FFF721
:1034B000BDFF0221002000F06DF810BD10B5FFF730
:1034C000D5FF022344F6206202490020FFF75CFD8D
:1034D00010BD0000AD34000870B50446002500267C
:1034E0000AE06806050E254951F82600804708B114
:1034F00045F00105701CC6B2052EF2DB112D3AD243
:10350000DFE805F039090C0F1215181B1E212427BE
:103510002A2D30333600012020702CE0012060700D
:1035200029E00120A07026E00120E07023E00120C6
:10353000207120E0012060711DE00120A0711AE0DF
:103540000120E07117E00120207214E00120607278
:1035500011E00120A0720EE00120E0720BE00120DA
:10356000207308E00120607305E00120A07302E0F1
:103570000120E07300BF00BF70BD000038000020D4
:1035800010B54FF480610248FDF780FA10BD0000CD
:103590000010014010B5024602EB4200094B03EB5C
:1035A0008000806858B102EB420003F82010002030
:1035B00002EB4203034C04EB8303588010BD01204F
:1035C000FCE700000001002008B50020F0234FF4C4
:1035D000A07201460090FDF7F1FA08BD38B5044627
:1035E00001210420FEF728FB012C11D18020ADF829
:1035F000000003208DF8020010208DF803006946BA
:103600000B48FDF75BF980210948FDF73DFA0DE015
:103610008020ADF8000048208DF80300694604487A
:10362000FDF74CF980210248FDF72EFA38BD000065
:1036300000080140002004494871887188600846EC
:103640000021C160017470471801002010B500F01E
:1036500005FDFFF7C5FC0020064908700649086013
:103660000649086006490860064A111F081FFEF750
:1036700089FC10BD5000002054000020580000209C
:103680005C000020A403002010B500F0BBFC06483D
:103690000088401C0449088008460088B0F5967FE1
:1036A00001DB0020088010BD600000203EB543E033
:1036B0002748008840F21B31884203DB0020244960
:1036C00008803EBD224801880088401C204A1080A6
:1036D0002048084440F201431F4A111F0090081F70
:1036E000FEF71CFC1A480088401E1A49085C0D2889
:1036F00022D10A21164802880088401C144B1880E9
:10370000144881541846008802280FDD18460388A3
:1037100001AA02A90F48FFF781FA044634B90C4800
:1037200002889DF808100B48FFF7E0FA09480021CD
:10373000016000200649088040F201420649091F45
:10374000081FFEF7D3FB0128B2DC00BFB9E7000079
:103750008C000020B4160020C40A00200EB51122EF
:103760006B49081FFEF7C2FBF0B16A480068401CB5
:1037700068490860084600680A2815D900200860D2
:1037800002A81123624A121D111F0090081FFEF7A4
:10379000C5FB9DF8081001EBC10202EB01115E4A66
:1037A00002EBC100FFF78CFA5C4800780A2819D2B6
:1037B000DFE800F005192C476A7D8D8CAAAB5848CC
:1037C0000068401C5649086008460068C82809D9A6
:1037D000FF2001900020086001A901F065FB012095
:1037E00001F0FAFB92E04E480068401C4C4908602A
:1037F00008460068B0F5967F07D900200860FF20D2
:10380000019001A9012001F04FFB7FE044480068CE
:10381000401C4349086008460068C82810D9FF20AA
:10382000019001A9022001F03FFB01A9032001F052
:103830003BFB01A9042001F037FB032001F0CCFB86
:1038400064E037480068401C354908600846006855
:10385000B0F5967F17D933480078401C314908707D
:1038600000202F490860FF20019001A9072001F0E6
:103870001BFB2C480078052805DD0020294908702D
:10388000012001F061FB41E0274A111F081FFEF7EC
:1038900079FBFF20019001A9062001F005FB01A999
:1038A000052001F001FB052001F096FB2EE01C48ED
:1038B0000068401C1A4908600846006841F27071AF
:1038C000884202D9072001F087FB1FE000BF17489C
:1038D0000078401C15490870084600780A2812DD57
:1038E000114A111F081FFEF74DFB00200F490870F9
:1038F0000B490860FF20019001A9062001F0D4FACD
:10390000032001F069FB01E000E000BF00BF0EBD35
:10391000CC0E002090000020E40E00208900002042
:103920009400002098000020C40A00209900002084
:1039300008B501211020FEF77FF901210420FEF7D0
:103940007BF901210846FEF777F90620ADF8000063
:1039500003208DF8020010208DF8030069461548F9
:10396000FCF7ACFF0120ADF8000003208DF8020049
:1039700004208DF8030069460F48FCF79FFF0820DC
:10398000ADF8000003208DF8020004208DF803003C
:1039900069460848FCF792FF02210648FDF776F8D1
:1039A00004210448FDF772F801210348FDF76EF881
:1039B00008BD0000001001400008014010B5044699
:1039C0000723012221460948FCF7ACFD01210748E5
:1039D000FCF709FE00BF02210448FCF767FD002840
:1039E000F9D00248FCF75EFD10BD00000024014044
:1039F00010B53448007830B101280BD0022826D009
:103A000003285CD134E000202E494870486088606B
:103A1000072010BD0820FFF7D1FF2A494968084454
:103A2000284948600A20FFF7C9FF264989680844E9
:103A30002449886008464078401C48700846407811
:103A40000A2803DB002048700220087037E01D4878
:103A500080680A21B0FBF1F01A4988810846406865
:103A60000A21B0FBF1F01749C8810320087026E055
:103A70000020144908700846C089FA2148431149BA
:103A8000898990FBF1F04400B4F5C87F01D9052085
:103A9000BFE7B4F5C37F01D90420BAE7B4F5C87F06
:103AA00001D90320B5E7B4F5B97F01D90220B0E709
:103AB000B4F5B47F01D90120ABE70020A9E700BF2E
:103AC0000620A6E7A80500200148007D70470000F9
:103AD000A805002010B5FFF7D1FB10BD10B540219F
:103AE0000148FCF7BFFF10BD0010014010B5802158
:103AF0000148FCF7B7FF10BD0010014010B54FF4AE
:103B000080710248FCF7AEFF10BD000000100140BC
:103B100010B54FF400710248FCF7A4FF10BD00007F
:103B20000010014010B54FF480710248FCF79AFF75
:103B300010BD00000008014000BFEFF3108008B97D
:103B4000012070470020FCE708B501211420FEF792
:103B500073F84FF48070ADF8000048208DF8030032
:103B600069460748FCF7AAFE4FF47070ADF80000F4
:103B700048208DF8030069460248FCF79FFE08BD07
:103B8000000801400010014010B500200C490860F9
:103B9000FFF7DAFF002410E000200A49085503204F
:103BA000094921F81400C820084921F8140096207A
:103BB000074921F81400601CC4B2102CECDB10BDC6
:103BC0004C0000202C0100203C0100205C01002062
:103BD0007C01002010B54FF400410248FCF756FF6D
:103BE00010BD00000008014010B54FF4004102482C
:103BF000FCF74AFF10BD00000008014010B5044664
:103C00002CB14FF480510548FCF740FF04E04FF41D
:103C100080510248FCF738FF10BD0000000C014045
:103C200000B587B001218803FDF7E6FF01210820D8
:103C3000FEF702F801210846FDF7FEFF4FF4604051
:103C4000ADF8040003208DF8060018208DF8070059
:103C500001A91F48FCF732FE4FF48050ADF8040074
:103C600003208DF8060010208DF8070001A91848E0
:103C7000FCF724FE4FF480511548FCF707FF0020A5
:103C8000ADF808004FF48270ADF80A000020ADF8DE
:103C90000C000220ADF80E000120ADF8100040022B
:103CA000ADF812001020ADF814000020ADF8160099
:103CB0000720ADF8180002A90648FEF7BAF801215E
:103CC0000448FEF7A1F80120FFF798FF07B000BDF8
:103CD000000C01400038004010B5FFF7EBF9FFF78A
:103CE0000DFBFFF7D1FCFFF7CBF810BD10B500F0CE
:103CF0005BF9FFF75BFAFFF7E1FB00F0FFFA00F07A
:103D000075F9FFF741FFFFF7A1FCFFF7BDFCFFF7D7
:103D1000A5F8FFF7DFFE10BD00B591B00121C80383
:103D2000FDF76AFF01210220FDF756FF01211D204A
:103D3000FDF782FF01214648FCF74CFE4FF400409E
:103D4000ADF82C0010208DF82F0003208DF82E00E8
:103D50000BA94048FCF7B2FD4FF400413D48FCF789
:103D600095FE5020ADF82C0010208DF82F00032078
:103D70008DF82E000BA93848FCF7A0FD50213648DD
:103D8000FCF784FE4FF48060ADF82C0010208DF815
:103D90002F0003208DF82E000BA93048FCF78EFD74
:103DA0004FF480612D48FCF76FFE2820ADF82C0001
:103DB00003208DF82E0018208DF82F000BA926481F
:103DC000FCF77CFD4FF44040ADF830004FF48270BA
:103DD000ADF832000020ADF834000220ADF8360016
:103DE0000120ADF838004002ADF83A000020ADF8EF
:103DF0003C00ADF83E000720ADF840000CA9184883
:103E0000FEF717F81748FCF731FC15480C30009006
:103E100010200290800103900020049080200590E3
:103E200000200690079008904FF4805009900020E1
:103E30000A9069460B48FCF7DEFC01220221084883
:103E4000FDF7EEFF01210648FDF7DEFF11B000BDD2
:103E50000002300000080140000C01400010014049
:103E6000003C00401C04024000BF011EA0F1010004
:103E7000FBD1704730B589B005460C4601210220C0
:103E8000FDF7BAFE01210420FDF7D6FE8020ADF833
:103E9000200010208DF8230003208DF8220008A9AF
:103EA0001F48FCF70BFD80211D48FCF7EFFDADF826
:103EB0000C50ADF808400020ADF80E00ADF80A0037
:103EC00002A91848FEF7C4FC0420ADF81400022033
:103ED000ADF816000120ADF818000020ADF81A006A
:103EE000ADF81C0005A90F48FEF724FC1D208DF835
:103EF000040002208DF8050000208DF80600012046
:103F00008DF8070001A8FDF797FC0122052105485F
:103F1000FEF766FC00210348FEF7F8FA09B030BD51
:103F200000080140000400401FB501210420FDF7F6
:103F300063FE1A48FEF7F6FA3220ADF8080018487A
:103F400000681849B0FBF1F0401E80B2ADF80400E3
:103F50000020ADF80A00ADF8060001A90F48FEF7F1
:103F600077FC012211460D48FEF73AFC01210B486F
:103F7000FEF7CCFA4FF4A060FDF796FC1E208DF8FA
:103F8000000000208DF8010003208DF802000120C0
:103F90008DF803006846FDF74FFC1FBD0008004088
:103FA0006800002040420F0010B5FFF7BDFF00245D
:103FB00017E0012004EB44010B4A02F82100002025
:103FC00004EB440102EB8101488004EB440102EB65
:103FD0008101888004EB440102EB81018860601C50
:103FE000C4B2022CE5DB10BD0001002010B500209A
:103FF00003490880488008714721FFF73BFF10BD47
:104000001801002038B51248007800B138BD40F2E0
:1040100001221049081FFDF769FF054600240BE047
:104020000D48204440F201230A4A121D111F00903E
:10403000081FFDF773FF641CAC42F1D32DB1284675
:10404000FEF7BEFF01200249087000BFDEE7000056
:1040500050000020A00300209C01002000B587B084
:1040600001210420FDF7E8FD01210820FDF7E4FD12
:1040700001211020FDF7E0FD01212020FDF7DCFDEE
:1040800001218803FDF7D8FD01214804FDF7B4FDA7
:1040900001218804FDF7B0FD01210805FDF7ACFD05
:1040A0004FF40070ADF8180018208DF81B000320A5
:1040B0008DF81A0006A97548FCF700FC4FF48060E3
:1040C000ADF8180004208DF81B0003208DF81A00AD
:1040D00006A96E48FCF7F2FB0420ADF81800182082
:1040E0008DF81B0003208DF81A0006A96748FCF71D
:1040F000E5FB0820ADF8180004208DF81B00032014
:104100008DF81A0006A96148FCF7D8FB4FF48060CF
:10411000ADF8180018208DF81B0003208DF81A0048
:1041200006A95B48FCF7CAFB4FF40060ADF8180025
:1041300004208DF81B0003208DF81A0006A95448AE
:10414000FCF7BCFB4FF48050ADF8180018208DF838
:104150001B0003208DF81A0006A94E48FCF7AEFBA1
:104160000420ADF818008DF81B0003208DF81A000C
:1041700006A94948FCF7A2FB4FF4E1300290002069
:10418000ADF80C00ADF80E00ADF81000ADF814005D
:104190000C20ADF8120002A94048FEF7C7FC02A9A6
:1041A0003F48FEF7C3FC02A93E48FEF7BFFC02A948
:1041B0003D48FEF7BBFC25208DF8040003208DF858
:1041C00005008DF8060001208DF8070001A8FDF715
:1041D00033FB26208DF8040004208DF80500032011
:1041E0008DF8060001208DF8070001A8FDF724FBDB
:1041F00027208DF8040005208DF8050003208DF898
:10420000060001208DF8070001A8FDF715FB3520F9
:104210008DF8040005208DF8050006208DF80600B5
:1042200001208DF8070001A8FDF706FB012240F2EE
:1042300025511A48FEF755FC012240F22551184835
:10424000FEF74FFC012240F225511648FEF749FCCB
:10425000012240F225511448FEF743FC01210F488A
:10426000FEF7F3FB01210E48FEF7EFFB01210D489D
:10427000FEF7EBFB01210C48FEF7E7FB0122802152
:104280000648FEF7EEFB07B000BD00000008014045
:10429000000C0140001001400014014000380140B2
:1042A00000440040004800400050004002490968B6
:1042B00009B901490860704758000020024909689F
:1042C00009B90149086070475C00002070B50446D8
:1042D0000D462E460DE021780748FEF798FC00BFFA
:1042E00040210548FEF7C6FB0028F9D0641C701E6B
:1042F000C6B2002EEFD170BD0050004010B5FFF7E0
:1043000017FB04210748FCF7C1FB02210548FCF715
:10431000BDFB00200449087004490870FF200449CF
:10432000087010BD001001402A0000202B00002062
:104330002C00002010B5FEF7DBFDFDF73BFBFDF781
:1043400057FBFFF7D3FC01231A460C490020FDF769
:10435000F1FA00F053FC01231A4609491846FDF70B
:10436000E9FAFEF70DFD01231A4606490220FDF782
:10437000E1FAFDF701FB002010BD0000D93C000868
:10438000ED4B0008712D000810B5002002490860AF
:10439000FEF770FE10BD00009C00002010B5FCF779
:1043A00073FA10BD78B502460B464FF6FF70002435
:1043B00014E012F8011B81EA000505F00F050F4E0D
:1043C00036F8155085EA201080EA211505F00F0512
:1043D00036F8155085EA2010651CACB29C42E8D333
:1043E000C5B28DF80050050A8DF801509DF80150B6
:1043F0009DF8006045EA062078BD00005CC6000814
:1044000010B5FFF70DFC10BD0249096809B9014953
:1044100008607047800000207CB54248007810BBDF
:1044200040F201124049081FFDF760FD01281ADD26
:1044300001A840F201133C4A121D111F0090081FF1
:10444000FDF76CFD9DF80400FE280CD1354840F2C4
:104450000113354A121D111F0090081FFDF75EFD64
:104460000020324908702F480078002858DD40F2BB
:1044700001122D49081FFDF739FD2A4909788842A4
:1044800041DD28480078632809DD274A121D111FE5
:10449000081FFDF777FD0020224908707CBD00252C
:1044A000002410E02248204440F201131E4A121D4D
:1044B000111F0090081FFDF731FD1D48005D2844C5
:1044C000C5B2601CC4B2174800788442EADB01A878
:1044D00040F20113144A121D111F0090081FFDF72E
:1044E0001DFD9DF80400A84209D10E48017810482E
:1044F00000F04AF80B4801780D48FEF739FA002021
:10450000084908700CE009480078401C0749087009
:10451000084600780A2803DB00200870014908706B
:1045200000BFBBE784000020440800208500002075
:10453000580A002030B5C1B040F201120E49081FE0
:10454000FDF7D4FCC5B2002D14DD00240CE001A859
:10455000204440F20113084A121D111F0090081F49
:10456000FDF7DCFC601CC4B2AC42F0DB294601A8BC
:10457000FFF7ACFE41B030BD5009002010B5FFF789
:10458000D9FFFFF749FF10BDF0B587B004460D46CF
:10459000012D7DDD20788DF8080060788DF8090008
:1045A000A1788DF80A109DF808000A2874D2DFE877
:1045B00000F073055253545556575859102D49D190
:1045C000E0788DF80B0021798DF80C1061798DF869
:1045D0000D10A1798DF80E10E1798DF80F10217A68
:1045E0008DF81010617A8DF81110A17A8DF81210E3
:1045F000E17A8DF81310217B8DF81410617B8DF812
:104600001510A17B8DF81610E07B8DF817000C219A
:104610000DF10B00FFF7C6FE06469DF809109DF848
:104620000A0041EA0020B04214D11D48006888B158
:10463000059800900120DFF868C002A90EC9DCF8D7
:1046400000C0E04706909DF81800012802D102A999
:1046500000F03CF820E000BF00BF00BF00BF00BF7B
:1046600000BF00BF032D16D10E48006898B1059811
:1046700000909DF80800DFF82CC002A90EC9DCF8F4
:1046800000C0E047074637B19DF8080002A900E0E6
:1046900003E000F01BF800BF00BF07B0F0BD000052
:1046A000800000207C0000203EB5044602940120DA
:1046B00002A940F20113044ACDE90010111F081F9E
:1046C000FDF7D6FB3EBD000048080020F0B58DB0D8
:1046D00007460D463E46FE208DF800000124062EBA
:1046E0007DD006DC062E7BD2DFE806F0C50C8A8B77
:1046F0008C8D072E75D0082E74D0092E73D0FF2E06
:104700006ED185E010222046611CCCB20DF800204D
:1047100006F18000C2B22046611CCCB20DF8002028
:104720006A782046611CCCB20DF80020AA78204699
:10473000611CCCB20DF80020EA782046611CCCB296
:104740000DF800202A792046611CCCB20DF800201B
:104750006A792046611CCCB20DF80020AA79204667
:10476000611CCCB20DF80020EA792046611CCCB265
:104770000DF800202A7A2046611CCCB20DF80020EA
:104780006A7A2046611CCCB20DF80020AA7A204635
:10479000611CCCB20DF80020EA7A2046611CCCB234
:1047A0000DF800202A7B2046611CCCB20DF80020B9
:1047B0006A7B2046611CCCB20DF80020AA7B204603
:1047C000611CCCB20DF80020EA7B2046611CCCB203
:1047D0000DF80020A01EC1B20DF1020004E013E0AC
:1047E00049E012E012E012E000F062F82146621C9B
:1047F000D4B20DF801002146684600F03FF83AE0D7
:1048000000BF00BF00BF00BF00BF00BF00BF00BFB0
:1048100003222046611CCCB20DF80020FF2E06D1E9
:10482000FF222046611CCCB20DF8002007E006F103
:104830008000C2B22046611CCCB20DF800206A781C
:104840002046611CCCB20DF80020AA782046611CDD
:10485000CCB20DF80020A01EC1B20DF1020000F094
:1048600027F82146621CD4B20DF8010021466846A3
:1048700000F004F800BF00BF0DB0F0BD7CB50546E8
:104880000C462E4640F201120849081FFDF72EFB88
:104890002044FF2809DC40F20113044A121D111FB5
:1048A000081FCDE90064FDF7E3FA7CBD5009002044
:1048B00010B502460020002305E014780444E0B25D
:1048C000521C5C1CE3B28B42F7DB10BD10B5094AE9
:1048D000111F081FFDF756FB074A111F081FFDF7A0
:1048E00051FB002005490860054908600548FFF7AD
:1048F000E5FC10BD48080020540900207C00002081
:1049000080000020A94600080249096809B9014948
:10491000086070477C0000202DE9F043A3B00546F5
:1049200088461746002400267B222046641C19A9CD
:104930000A5400BFA85D38B13046761C2A5C204678
:10494000641C19A90A5400E002E01E2EF2DD00BF2B
:1049500000BF40222046641C19A90A547322204635
:10496000641C0A5463222046641C0A546D222046AB
:10497000641C0A5470222046641C0A547D2221467D
:10498000641C19A8425400222046641C19A90A5428
:10499000402109A8FBF7DCFC414609A8FBF765FCB0
:1049A00019A909A8FBF761FC0B48FCF7FFFA09A855
:1049B000FBF73CFC81464A4609A90748FCF7F2FE92
:1049C00001A90548FCF7C8FA1022394601A8FDF7ED
:1049D000A3FB23B0BDE8F0831C1A0020014981F835
:1049E000B2007047741A002030B589B030208DF8BD
:1049F000040000252BE03948445D241100BF0A2C37
:104A000007DA04F13000C1B26800401C01AA115459
:104A100006E004F13700C1B26800401C01AA11543D
:104A20002E48445D04F00F040A2C07DA04F130002C
:104A3000C1B26800801C01AA115406E004F13700DD
:104A4000C1B26800801C01AA1154681CC5B20C2DAB
:104A5000D1DB00208DF81D0001A800F04FF80DF10A
:104A6000050000F0AFF81E4A0DF105010846FFF7FA
:104A700053FF1CA000F06AF81EA000F07BF85F2036
:104A80008DF81D0064208DF81E006F208DF81F002A
:104A900077208DF820006E208DF8210000208DF801
:104AA00022000DF1050000F079F85F208DF81D005F
:104AB00075208DF81E0070208DF81F0000208DF8E5
:104AC00020008DF821008DF822000DF1050000F086
:104AD00029F80120FFF782FF09B030BD271B002015
:104AE000B01A00203131392E39312E3135382E3877
:104AF00000000000313838330000000010B50021FC
:104B000009E004780A464B1CD9B2054B9C54401C62
:104B10001E2900D102E00278002AF2D100BF10BDA8
:104B2000741A002010B5002109E004780A464B1CD5
:104B3000D9B2054B9C54401C1E2900D102E00278DA
:104B4000002AF2D100BF10BD081B002010B50021C3
:104B500009E004780A464B1CD9B2054B9C54401C12
:104B6000102900D102E00278002AF2D100BF10BD66
:104B7000D01A002010B5002109E004780A464B1C29
:104B8000D9B2054B9C54401C0A2900D102E002789E
:104B9000002AF2D100BF10BDE01A002010B500219C
:104BA00009E004780A464B1CD9B2054B9C54401CC2
:104BB0001E2900D102E00278002AF2D100BF10BD08
:104BC000EA1A002010B5002109E004780A464B1CBF
:104BD000D9B2054B9C54401C1E2900D102E002783A
:104BE000002AF2D100BF10BD921A002010B5FFF7C5
:104BF000C5FC00F03FFAFFF7D1FB10BD10B5FFF781
:104C0000FFFB00F009F8FFF761FE00F0F3F9FFF792
:104C1000BBFBFFF7E9FE10BD0EB5FFF77DF842F2D2
:104C20001070FFF721F9FEF7DFFF42F21070FFF777
:104C30001BF9FEF7CFFF6420FFF716F91120FCF7F0
:104C400037F942F21070FFF70FF93620FCF730F910
:104C5000A020FCF727F93A20FCF72AF90520FCF7F9
:104C600021F9B220FCF724F90C20FCF71BF90C20E9
:104C7000FCF718F90020FCF715F93320FCF712F9BE
:104C80003320FCF70FF9B720FCF712F93520FCF7B9
:104C900009F9BB20FCF70CF93520FCF703F9C0201B
:104CA000FCF706F92C20FCF7FDF8C220FCF700F910
:104CB0000120FCF7F7F8C320FCF7FAF81320FCF703
:104CC000F1F8C420FCF7F4F82020FCF7EBF8C6203C
:104CD000FCF7EEF80F20FCF7E5F8CA20FCF7E8F83F
:104CE0000F20FCF7DFF8C820FCF7E2F80820FCF7FB
:104CF000D9F85520FCF7DCF89020FCF7D3F8D02049
:104D0000FCF7D6F8A420FCF7CDF8A120FCF7CAF8F0
:104D1000E020FCF7CDF8D020FCF7C4F80020FCF729
:104D2000C1F80620FCF7BEF80920FCF7BBF80B2001
:104D3000FCF7B8F82A20FCF7B5F83C20FCF7B2F8ED
:104D40005520FCF7AFF84B20FCF7ACF80820FCF737
:104D5000A9F81620FCF7A6F81420FCF7A3F81920F0
:104D6000FCF7A0F82020FCF79DF8E120FCF7A0F864
:104D7000D020FCF797F80020FCF794F80620FCF709
:104D800091F80920FCF78EF80B20FCF78BF829200E
:104D9000FCF788F83620FCF785F85420FCF782F8F9
:104DA0004B20FCF77FF80D20FCF77CF81620FCF771
:104DB00079F81420FCF776F82120FCF773F820200E
:104DC000FCF770F82920FCF773F8FEF7D9FBFEF723
:104DD000FBFB002000904FF6FF7310220121019091
:104DE0000846FBF7D1FF002000904FF6FF730F221B
:104DF000012101902120FBF7C7FF002000904FF612
:104E0000FF73032201210190FA20FBF7BDFF002070
:104E100000904FF6FF730422012101904FF48D7032
:104E2000FBF7B2FF002000904FF6FF731222012122
:104E30000190D220FBF7A8FF00203021CDE900012E
:104E40004FF6FF7304A2642102904620FBF7FCFF9B
:104E500000F01AF90EBD00002044495341524D2084
:104E60000000000010B501460022084600E0401C8A
:104E700003783A2BFBD1401C0378303B094C23705C
:104E800000E0401C0378222BFBD1401C06E0047894
:104E9000044B5B1C9C54531CDAB2401C0378222B3D
:104EA000F5D110BDD419002070B5B2B006460D463C
:104EB0000E2E45DA002440E0C6EBC60000EB800071
:104EC000204901EB4000005D50B1C6EBC60000EB8D
:104ED000800001EB4000015D601C0DF800102BE02C
:104EE0002878FF2816D0082E0AD105E02978601C02
:104EF0000DF80010641C6D1C2878FF28F6D109E01D
:104F000005E02978601C0DF80010641C6D1C2878E1
:104F10000028F6D10D21601C0DF80010641C0A2138
:104F2000601C0DF80010641C601CC0B28DF80000FD
:104F30006846FDF795FE02E0641C462CBCD300BF1A
:104F400032B070BD7CC6000810B50446FEF770F99B
:104F5000012825D1012C05D1002016490880012007
:104F600000F03AF81348008818B900F043F8FEF74B
:104F700091F810480088B0F57A7F0FDA0D48008864
:104F8000401C0C49088008460088962804DD4FF430
:104F9000FA600880FEF786F8002010BD0120FCE7CB
:104FA000002004490880012000F016F8FEF772F88E
:104FB0000020F2E78A00002001B582B0012002A99A
:104FC00040F20143034ACDE90010111F081FFCF70E
:104FD0004FFF0EBDC40A002010B5044603480470FC
:104FE000034A111F081FFCF7CDFF10BD89000020E8
:104FF000C40A002010B5174A111F081FFCF7C2FF92
:10500000154A111F081FFCF7BDFF1448FFF74EF9A2
:1050100000201349087000240BE004EBC40101EBED
:105020000411104A02EBC100C821FBF791F9601C82
:10503000C4B20A2CF1DB0C480021016001200B49AD
:10504000087000200A49087046210948401CFBF7F7
:105050005DF910BDC40A0020D00E0020B94F000831
:1050600088000020E40E0020B416002089000020F3
:10507000D419002010B50020FFF766FF18B1FEF725
:1050800015FBFEF76BFB10BD00B587B032208DF825
:105090000C0030208DF80D0032208DF80E003320EA
:1050A0008DF80F002D208DF8100031208DF81100A3
:1050B0008DF812002D208DF8130030208DF814008B
:1050C00032208DF8150000208DF816001821CDE94A
:1050D00000014FF6FF7303AAC82102901420FBF7CA
:1050E000B3FE31208DF80C008DF80D003A208DF8BC
:1050F0000E0033208DF80F0030208DF810000020B6
:105100008DF811001821CDE900014FF6FF7303AAB5
:10511000C8210290A020FBF797FE00201821CDE9BE
:1051200000014FF6FF7304A2C82102904FF4827071
:10513000FBF78AFE07B000BD4D6F6E0018B5044640
:1051400002208DF80000012C02D101208DF8000012
:10515000BDF80010084618BD10B50446012010BD6A
:1051600070B586B005460026FEF714F86049098838
:10517000884204D0FEF70EF85D4908800126FEF74C
:105180000FF85C490988884204D0FEF709F85949AC
:105190000880012605B10126012E7DD10024544846
:1051A0000088632810DD52480088B0F57A7F0BDA5A
:1051B0004F480088642190FBF1F03030C2B22046A5
:1051C000611CCCB204A90A5449480088642190FBB0
:1051D000F1F201FB12000A2190FBF1F03030C2B273
:1051E0002046611CCCB204A90A542E222046611C20
:1051F000CCB204A90A543E4800880A2190FBF1F27F
:1052000001FB12003030C2B22046611CCCB204A9AE
:105210000A5421222046611CCCB204A90A5400225F
:105220002046611CCCB204A90A5400201821CDE903
:1052300000014FF6FF7304AA032102904620FBF7FA
:1052400003FE00242B480088632810DD29480088CD
:10525000B0F57A7F0BDA27480088642190FBF1F0E3
:105260003030C2B22046611CCCB204A90A54214895
:105270000088642190FBF1F201FB12000A2190FBEF
:10528000F1F03030C2B22046611CCCB204A90A54FD
:105290002E222046611C00E028E0CCB204A90A546A
:1052A000144800880A2190FBF1F201FB1200303013
:1052B000C2B22046611CCCB204A90A542522204661
:1052C000611CCCB204A90A5400222046611CCCB255
:1052D00004A90A5400201821CDE900014FF6FF73FC
:1052E00004AA032102908720FBF7AEFD06B070BD33
:1052F000E2000020E00000200000000000000000AC
:105300000000000000000404040404000004000085
:1053100014140A00000000000000000000000A0A47
:105320001F0A0A1F0A0A000000040E1505060C14C5
:10533000150E0400000012150D152E2C2A12000067
:105340000000040A0A3615152916000002020100A1
:105350000000000000000000100808040404040419
:1053600008081000020404080808080804040200E1
:1053700000000004150E0E150400000000000008D7
:10538000083E0808000000000000000000000000C7
:105390000202010000000000003F000000000000C9
:1053A00000000000000000000002000000201010BB
:1053B000080804040202010000000E11111111116D
:1053C000110E00000000040604040404040E000092
:1053D00000000E1111080402011F000000000E1150
:1053E000100C1010110E00000000080C0C0A091F10
:1053F000081C000000001F01010F1110110E000019
:1054000000000C12010D1311110E000000001E10FF
:10541000080804040404000000000E11110E11110C
:10542000110E000000000E111119161009060000DF
:105430000000000004000000000400000000000064
:10544000000400000004040000001008040202042C
:1054500008100000000000003F003F0000000000B6
:1054600000000204081010080402000000000E11E1
:10547000110804040004000000001C22292D2D1D29
:10548000221C0000000004040C0A0A1E1233000053
:1054900000000F12120E1212120F000000001E1157
:1054A00001010101110E000000000F121212121270
:1054B000120F000000001F120A0E0A02121F000045
:1054C00000001F120A0E0A020207000000001C1250
:1054D00001013911120C000000003312121E1212C9
:1054E0001233000000001F0404040404041F000021
:1054F00000003E08080808080808090700003712DD
:105500000A060A1212370000000007020202020215
:10551000223F000000003B1B1B1B1515153500002A
:1055200000003B1216161A1A1217000000000E1186
:1055300011111111110E000000000F12120E0202C3
:105540000207000000000E1111111117190E1800AA
:1055500000000F12120E0A121237000000001E1176
:1055600001060810110F000000001F1504040404B8
:10557000040E00000000331212121212120C00006E
:1055800000003312120A0A0C040400000000151572
:1055900015150E0A0A0A000000001B0A0A04040A74
:1055A0000A1B000000001B0A0A0A0404040E000083
:1055B00000001F0908040402121F00001C04040458
:1055C0000404040404041C00000202040404080887
:1055D000081010000E0808080808080808080E003F
:1055E000040A0000000000000000000000000000AD
:1055F000000000000000003F020400000000000066
:105600000000000000000000000C121C123C000012
:1056100000030202020E1212120E0000000000002F
:10562000001C1202120C000000181010101C1212A4
:10563000123C000000000000000C121E021C0000C2
:1056400000182404041E0404041E000000000000CE
:10565000003C120C021C221C00030202020E121259
:10566000123700000004040000060404040E0000C9
:1056700000080800000C08080808080700030202D8
:10568000021A0A060A1300000007040404040404B2
:10569000041F000000000000000F15151515000084
:1056A00000000000000F121212370000000000007E
:1056B000000C1212120C000000000000000F121269
:1056C000120E020700000000001C1212121C1038FB
:1056D00000000000001B060202070000000000009E
:1056E000001E020C101E000000000004041E040432
:1056F000041C000000000000001B1212123C0000FD
:1057000000000000001B0A0A040400000000000062
:105710000015150E0A0A000000000000001B0A0414
:105720000A1B000000000000003312120C080403E2
:1057300000000000001E0804041E000018080808ED
:10574000080C0808080818000808080808080808CD
:1057500008080808060404040408040404040600F5
:10576000160900000000000000000000000000001A
:105770000000000000000000000000000000000821
:1057800008080808080800001818000000486C24E1
:1057900012000000000000000000000000000024D3
:1057A00024247F1212127F12121200000000081C23
:1057B0002A2A0A0C1828282A2A1C08080000002275
:1057C000251515152A585454542200000000000CC9
:1057D0001212120A76252911916E000000060604A5
:1057E0000300000000000000000000000040201046
:1057F00010080808080808101020400000020408DB
:10580000081010101010100808040200000000001A
:1058100008086B1C1C6B080800000000000000005A
:10582000080808087F0808080800000000000000B9
:105830000000000000000000060604030000000055
:1058400000000000FE00000000000000000000005A
:10585000000000000000000006060000000080407C
:105860004020201010080804040202000000001864
:1058700024424242424242422418000000000008F2
:105880000E08080808080808083E00000000003C50
:105890004242422020100804427E00000000003CEA
:1058A0004242201820404042221C000000000020FC
:1058B0003028242422227E20207800000000007E50
:1058C0000202021A26404042221C0000000000385A
:1058D0002402021A26424242241800000000007EE0
:1058E0002222101008080808080800000000003CE8
:1058F0004242422418244242423C00000000001868
:105900002442424264584040241C00000000000031
:105910000000181800000000181800000000000027
:10592000000000080000000000080804000000401B
:1059300020100804020408102040000000000000AD
:1059400000007F0000007F00000000000000000257
:105950000408102040201008040200000000003C51
:105960004242464020101000181800000000001CA1
:10597000225A555555552D42221C000000000008A2
:1059800008181414243C224242E700000000001FC3
:105990002222221E22424242221F00000000007CDE
:1059A0004242010101010142221C00000000001FCF
:1059B0002242424242424242221F00000000003F77
:1059C0004212121E12120242423F00000000003F2B
:1059D0004212121E12120202020700000000003CD6
:1059E0002222010101712122221C0000000000E797
:1059F000424242427E42424242E700000000003EF4
:105A00000808080808080808083E00000000007C94
:105A100010101010101010101010110F000000774F
:105A200022120A0E0A12122222770000000000073A
:105A30000202020202020202427F0000000000771E
:105A4000363636362A2A2A2A2A6B0000000000E35E
:105A500046464A4A52525262624700000000001C09
:105A60002241414141414141221C00000000003FD0
:105A7000424242423E020202020700000000001CB5
:105A80002241414141414D53321C60000000003F22
:105A90004242423E1212222242C700000000007C15
:105AA0004242020418204042423E00000000007FB3
:105AB0004908080808080808081C0000000000E75A
:105AC0004242424242424242423C0000000000E761
:105AD0004242222424141418080800000000006B1D
