:020000040800F2
:1000000010280020ED010008F91B0008590B00081A
:100010006D18000807060008DB2F0008000000002C
:100020000000000000000000000000003322000873
:100030008508000800000000D91D00082F250008D1
:10004000070200080702000807020008070200086C
:10005000070200080702000807020008070200085C
:10006000070200080702000807020008070200084C
:1000700007020008070200080D0600080702000832
:10008000070200080702000807020008070200082C
:10009000070200080702000807020008070200081C
:1000A000070200080702000807020008070200080C
:1000B00007020008E5270008B12800080702000829
:1000C00007020008070200080702000807020008EC
:1000D00007020008F12C0008692D0008AD2D00086A
:1000E00007020008070200080702000800000000DD
:1000F0000000000000000000000000000000000000
:1001000000000000000000000702000807020008CD
:1001100007020008B92C00080702000807020008BF
:10012000070200080702000807020008070200088B
:10013000070200080702000807020008070200087B
:10014000070200080702000807020008070200086B
:1001500000F002F800F03AF80AA090E8000C82449F
:100160008344AAF10107DA4501D100F02FF8AFF27C
:10017000090EBAE80F0013F0010F18BFFB1A43F085
:100180000103184784D10000A4D10000103A24BF15
:1001900078C878C1FAD8520724BF30C830C144BFEC
:1001A00004680C607047000000230024002500262E
:1001B000103A28BF78C1FBD8520728BF30C148BFCA
:1001C0000B6070471FB51FBD10B510BD00F01CF9C6
:1001D0001146FFF7F7FF04F079FB00F03AF903B49A
:1001E000FFF7F2FF03BC00F041F900000948804727
:1001F00009480047FEE7FEE7FEE7FEE7FEE7FEE709
:10020000FEE7FEE7FEE7FEE704480549054A064B20
:100210007047000039250008510100081022002015
:1002200010280020102400201024002010B5431CAA
:1002300002E010F8011B71B18107FAD14FF00132D1
:1002400002C88C1A8C4314EAC211F9D0C01A0A06EB
:1002500003D0C01E10BDC01A10BD0A0401D0801EFC
:1002600010BD0902FCD0401E10BD421E12F8013F15
:10027000002BFBD111F8013B002B02F8013BF9D117
:100280007047032A40F2308010F0030C00F0158014
:1002900011F8013BBCF1020F624498BF11F801CB89
:1002A00000F8013B38BF11F8013BA2F1040298BFEE
:1002B00000F801CB38BF00F8013B11F0030300F058
:1002C0007180083AC0F0088051F8043B083A51F8B0
:1002D00004CBA0E80810F5E7121D5CBF51F8043B01
:1002E00040F8043BAFF30080D20724BF11F8013B74
:1002F00011F801CB48BF11F8012B24BF00F8013BD6
:1003000000F801CB48BF00F8012B70474FF0000206
:100310000429C0F0128010F0030C00F01B80CCF117
:10032000040CBCF1020F18BF00F8012BA8BF20F885
:10033000022BA1EB0C0100F00DB85FEAC17C24BFD9
:1003400000F8012B00F8012B48BF00F8012B704783
:100350004FF0000200B5134694469646203922BF5E
:10036000A0E80C50A0E80C50B1F12001BFF4F7AFA9
:10037000090728BFA0E80C5048BF0CC05DF804EB8B
:10038000890028BF40F8042B08BF704748BF20F8F9
:10039000022B11F0804F18BF00F8012B70477047F7
:1003A0007047704710B5203AC0F00B80B1E8185084
:1003B000203AA0E81850B1E81850A0E81850BFF44F
:1003C000F5AF5FEA027C24BFB1E81850A0E81850EE
:1003D00044BF18C918C0BDE810405FEA827C24BF42
:1003E00051F8043B40F8043B08BF7047D20728BFD0
:1003F00031F8023B48BF11F8012B28BF20F8023B1F
:1004000048BF00F8012B7047754600F02BF8AE4648
:1004100005006946534620F00700854618B020B510
:10042000FFF7F2FEBDE820404FF000064FF0000756
:100430004FF000084FF0000B21F00701AC46ACE88C
:10044000C009ACE8C009ACE8C009ACE8C0098D46F9
:10045000704710B50446AFF300802046BDE8104059
:10046000FFF7BDBE00487047AC21002001491820AD
:10047000ABBEFEE726000200704721B1826842F061
:100480000102826003E0826822F00102826070470C
:10049000014600208A6802F004020AB1012000E04F
:1004A000002070470146C86C80B2704702460020A9
:1004B00013680B400BB1012000E00020704701469B
:1004C00000208A6802F008020AB1012000E0002042
:1004D0007047000030B502460020002350680F4CE2
:1004E00020400D790C6844EA052420435060906850
:1004F0000B4C2040D1E902542C434D7944EA450489
:1005000020439060D06A20F470000C7C641EE4B23A
:10051000234340EA0350D06230BD0000FFFEF0FFED
:10052000FDF7F1FFF0B504460D4600200021092D2E
:1005300011DDE068A5F10A0606EB4607072606FA74
:1005400007F18843A5F10A0606EB460603FA06F111
:100550000843E0600CE0206905EB4507072606FA32
:1005600007F1884305EB450603FA06F108432061CD
:10057000072A0FDA606B561E06EB86071F2606FA5F
:1005800007F18843561E06EB860605FA06F1084376
:10059000606322E00D2A0FDA206BD61F06EB860778
:1005A0001F2606FA07F18843D61F06EB860605FAD2
:1005B00006F10843206310E0E06AA2F10D0606EBA5
:1005C00086071F2606FA07F18843A2F10D0606EBFF
:1005D000860605FA06F10843E062F0BD816841F045
:1005E00008018160704721B1826842F4A0028260F4
:1005F00003E0826822F4A00282607047816841F0C3
:1006000004018160704700BFFEE7000010B54FF4A1
:10061000005000F0D1F850B14FF4005000F00CF849
:100620000021034800F016F800200249087010BDB0
:10063000440002405000002000F0805111B10349F5
:10064000086001E00249486070470000040402406D
:100650000000024021B1026842F00102026004E0A1
:1006600002684FF6FE731A400260704701684FF649
:10067000FE72114001600021016041608160C16033
:100680004B49884208D14A490839496841F00F016D
:10069000474A083A51608AE045491431884208D1F6
:1006A00043490839496841F0F001414A083A51602C
:1006B0007DE03F492831884208D13D4908394968E1
:1006C00041F470613A4A083A516070E038493C316F
:1006D000884208D136490839496841F47041344AA2
:1006E000083A516063E032495031884208D13049BC
:1006F0000839496841F470212D4A083A516056E0A2
:100700002B496431884208D129490839496841F4A4
:100710007001274A083A516049E0254978318842FA
:1007200008D123490839496841F07061204A083AE4
:1007300051603CE01F49884206D1011F096841F021
:100740000F01021F116032E01A491431884208D1AA
:100750001849091F096841F0F001164A121F11607B
:1007600025E014492831884208D11249091F096837
:1007700041F470610F4A121F116018E00D493C31BD
:10078000884208D10B49091F096841F47041094AA0
:10079000121F11600BE007495031884207D105490B
:1007A000091F096841F47021024A121F1160704745
:1007B000080002400804024001460020002201F027
:1007C000805313B1054B1A6801E0054B1A6802EA21
:1007D00001030BB1012000E000207047000402403B
:1007E000000002401AB103680B43036002E0036893
:1007F0008B430360704710B50022026847F6F07320
:100800009A430C6A8B6823430C6923434C69234346
:100810008C692343CC6923434C6A23438C6A23436A
:100820001A430260CB6843600B6883604B68C36007
:1008300010BD0000124A126842F0F002104B1A601C
:100840000F4A1C3211600E4A243210600C4A1832D2
:10085000126842F001020A4B18331A6000BF084ABE
:10086000121F126802F02002002AF8D0044A18323F
:10087000126822F00102024B18331A607047000020
:10088000040402407047000010B50B48006864285B
:1008900011D209480068401C0749086008460068F2
:1008A000052802D102F08AFE05E0034800685028BE
:1008B00001D102F08BFE10BDA40000202DE9F04113
:1008C000024600250026002000230024002791F87E
:1008D00003C00CF00F0591F803C00CF0100CBCF134
:1008E000000F03D091F802C04CEA050591F800C052
:1008F000BCF1000F31D0146800202BE04FF0010C48
:100900000CFA00F3B1F800C00CEA03069E4220D1B5
:1009100083004FF00F0C0CFA03F7BC4305FA03FCFD
:100920004CEA040491F803C0BCF1280F06D14FF043
:10093000010C0CFA00FCC2F814C00AE091F803C0E4
:10094000BCF1480F05D14FF0010C0CFA00FCC2F8C5
:1009500010C0401C0828D1D31460B1F800C0BCF10D
:10096000FF0F34DD546800202EE000F1080C4FF03A
:10097000010808FA0CF3B1F800C00CEA03069E4225
:1009800021D183004FF00F0C0CFA03F7BC4305FA9A
:1009900003FC4CEA040491F803C0BCF1280F05D114
:1009A00000F1080C08FA0CF8C2F8148091F803C0A2
:1009B000BCF1480F07D100F1080C4FF0010808FA0C
:1009C0000CF8C2F81080401C0828CED35460BDE853
:1009D000F0810000F0B50A46002300240021002524
:1009E00000F00046B6F1004F02D11D4EF16901E062
:1009F0001B4E7168C0F3034583B200F44016B6F590
:100A0000401F08D121F07061154E766826F070669F
:100A1000134F7E6012E000F48016B6F5801F06D1F9
:100A2000032606FA05F4A14341F0706106E0460D85
:100A3000360103FA06F6B14341F0706122B1460D6A
:100A4000360103FA06F6314300F00046B6F1004FD6
:100A500002D1034EF16101E0014E7160F0BD000072
:100A6000000001400246002093680B400BB10120BA
:100A700000E00020704702460020D3680B400BB115
:100A8000012000E00020704741617047016170471C
:100A90000AB1016100E0416170470146002004E0B5
:100AA000401C322800D903E0491C0A78002AF7D1FB
:100AB00000BF704710B5002432E004EB44001A492F
:100AC00001EB8000806848B304EB440011F820007B
:100AD000022823D104EB440001EB80004088401C35
:100AE00004EB4401104A02EB8101488004EB44000E
:100AF000114601EB8000408804EB440102EB8101C8
:100B0000898888420ADB012004EB440102F82100B5
:100B100004EB440102EB810188688047601CC4B289
:100B2000022CCADB10BD00000801002070B505468C
:100B30000E4600240BE000BF4021064802F07CF97D
:100B40000028F9D0295D034802F043FA641CB4423E
:100B5000F1D370BD0048004000BFFEE72DE9F04131
:100B600004460D4616461F462A2000F0A1F9A11C96
:100B700088B200F08AF9B11C88B200F086F92B2007
:100B800000F096F9691C88B200F07FF9791C88B2F0
:100B900000F07BF92C2000F08BF9BDE8F08170B5F6
:100BA00004460D4616462B46224629462046FFF7A8
:100BB000D5FF304600F069F970BD00002DE9F0471F
:100BC00081460F4615461E46DDF82080701E83B212
:100BD000681E82B239464846FFF7C0FF00240AE08B
:100BE0004FEA28222046611C8CB20A490A5401F8B7
:100BF0000480601C84B2AC42F2DB3C4605E029462E
:100C00000448FFF717FE601C84B2B4EB460FF6DB16
:100C1000BDE8F087C80500202DE9FF5F80468A46C1
:100C200017469B460F9D00200290CDF80080284675
:100C300005EBD071C1F347042046E21704EB527272
:100C4000D2102146E31704EB5373DB10A4EBC3036C
:100C50000BB1012300E000231A446A4392B20192CF
:100C6000A7F12000C7B20AEB0500401E83B208EBD3
:100C70000400401E82B251464046FFF76FFF002637
:100C800073E00C2D07D107EB47003A4901EB8000D8
:100C9000805D039025E0102D05D1374800EB07104B
:100CA000805D03901DE0182D07D107EB4700334905
:100CB00001EB0010805D039013E0202D05D130483A
:100CC00000EB8710805D03900BE0302D07D107EB20
:100CD000C7002C4901EB0010805D039001E0BDE8E6
:100CE000FF9F4FF000093AE01098C8B9012000FAC0
:100CF00009F00399084018B1584600F0C6F802E020
:100D00000E9800F0C2F80298401CC0B202900298FF
:100D100090FBF4F104FB1100E8B90020029021E0FF
:100D2000012000FA09F00399084020B15A465146C3
:100D30004046FFF734FF08F101001FFA80F80098E1
:100D4000A8EB0000A04206D1DDF800800AF1010006
:100D50001FFA80FA06E009F1010000F0FF09B9F17D
:100D6000080FC1DB00BF701C86B20198864288DB89
:100D700000BFB4E76C5A0008E05E0008D0640008C9
:100D8000A0760008608E00082DE9FF4782B0044677
:100D90000E461F4600200190A2468020009006F1DA
:100DA0001F0083B204F11F0082B231462046FFF7D4
:100DB000D5FE4FF000093FE02249049801EBC01036
:100DC00010F80980002530E00F98C0B90120A84034
:100DD00000EA080018B1384600F057F802E00E9813
:100DE00000F053F80198401CC0B20190019890FBAC
:100DF000FBF10BFB1100B0B90020019017E00120BE
:100E0000A84000EA080020B13A4631462046FFF7E4
:100E1000C6FE601C84B2A4EB0A00584503D15446B8
:100E2000701C86B203E0681CC5B2082DCCDB00BF85
:100E300009F101001FFA80F900988145BCDB06B07A
:100E4000BDE8F087D0C300082DE9FE4F06460F46E7
:100E500014469846DDE90D5ADDF8309010E0CDE9F2
:100E6000015ACDF800902278434639463046FFF7C4
:100E7000D3FE284605EBD07106EB61018EB2641CEF
:100E800020780028EBD1BDE8FE8F18B5044620126B
:100E90008DF80000E0B28DF8010002216846FFF7EE
:100EA000C9FC18BD10B50446204600F011F810BD6D
:100EB00010B5044610210548FFF7E6FD204600F076
:100EC00007F810210148FFF7E1FD10BD000C0140BB
:100ED00001B540210348FFF7D7FD01216846FFF720
:100EE000A9FC08BD000C014010B5044609200C49BE
:100EF0000880AA20887008460088C01EA1F8030058
:100F0000292048710020887108210548A0F80710A1
:100F1000552003498872002004F034F910BD000008
:100F20001621002070B503460024002010E00E5C5E
:100F3000451C4D5D46EA0526851C4D5D46EA054685
:100F4000C51C4D5D46EA056543F82450641C001D30
:100F50009042ECD370BD70B50346144600220020C9
:100F600015E011F822501D5431F82250C5F3072620
:100F7000451C5E5551F82250C5F30746851C5E5549
:100F800051F822502D0EC61C9D55521C001DA0422A
:100F9000E7D370BD2DE9FC4104460E46002500272D
:100FA0002088C0F3C505382D02D2C5F1380001E014
:100FB000C5F178000746082221466846FFF7CBFFB7
:100FC0003A460849204600F00BFC082269462046B4
:100FD00000F006FC102204F108013046FFF7BBFFC9
:100FE000BDE8FC81C8000020002101604160054986
:100FF0008160054AC260CA430261034AD24342612A
:10100000704700000123456789ABCDEF2DE9F04320
:10101000C0B080468946D8F80040D8F80450D8F8C7
:101020000860D8F80C70402249466846FFF77AFFFE
:1010300005EA060027EA0501084300990844FE492D
:1010400008440444E00140EA54642C4404EA0500E6
:1010500026EA0401084301990844F8490844074472
:10106000380340EA1757274407EA040025EA070136
:10107000084302990844F24908440644700440EACF
:10108000D6363E4406EA070024EA060108430399DF
:101090000844EC4908440544A80540EA9525354430
:1010A00005EA060027EA0501084304990844E649D1
:1010B00008440444E00140EA54642C4404EA050076
:1010C00026EA0401084305990844E0490844074416
:1010D000380340EA1757274407EA040025EA0701C6
:1010E000084306990844DA4908440644700440EA73
:1010F000D6363E4406EA070024EA0601084307996B
:101100000844D44908440544A80540EA95253544D7
:1011100005EA060027EA0501084308990844CE4974
:1011200008440444E00140EA54642C4404EA050005
:1011300026EA0401084309990844C84908440744B9
:10114000380340EA1757274407EA040025EA070155
:1011500008430A990844A0F524404F380644700417
:1011600040EAD6363E4406EA070024EA0601084370
:101170000B990844BA4908440544A80540EA952556
:10118000354405EA060027EA050108430C9908449E
:10119000B44908440444E00140EA54642C4404EA9D
:1011A000050026EA040108430D990844AE490844A5
:1011B0000744380340EA1757274407EA040025EAA2
:1011C000070108430E990844A849084406447004DE
:1011D00040EAD6363E4406EA070024EA0601084300
:1011E0000F990844A24908440544A80540EA9525FA
:1011F000354405EA070026EA070108430199084437
:101200009C4908440444600140EAD4642C4404EA44
:10121000060025EA06010843069908449649084451
:101220000744780240EAD757274407EA050024EA32
:10123000050108430B990844904908440644B0034B
:1012400040EA96463E4406EA040027EA04010843C1
:10125000009908448A4908440544280540EA1535A0
:10126000354405EA070026EA0701084305990844C2
:10127000844908440444600140EAD4642C4404EAEC
:10128000060025EA060108430A9908447E490844F5
:101290000744780240EAD757274407EA050024EAC2
:1012A000050108430F990844784908440644B003EF
:1012B00040EA96463E4406EA040027EA0401084351
:1012C00004990844724908440544280540EA153544
:1012D000354405EA070026EA07010843099908444E
:1012E0006C4908440444600140EAD4642C4404EA94
:1012F000060025EA060108430E9908446649084499
:101300000744780240EAD757274407EA050024EA51
:101310000501084303990844604908440644B003A2
:1013200040EA96463E4406EA040027EA04010843E0
:10133000089908445A4908440544280540EA1535E7
:10134000354405EA070026EA070108430D990844D9
:10135000544908440444600140EAD4642C4404EA3B
:10136000060025EA06010843029908444E4908444C
:101370000744780240EAD757274407EA050024EAE1
:101380000501084307990844484908440644B00346
:1013900040EA96463E4406EA040027EA0401084370
:1013A0000C990844424908440544280540EA15358B
:1013B000354485EA06007840059908443D490844CB
:1013C0000444200140EA14742C4484EA050070406F
:1013D00008990844384908440744F80240EA575736
:1013E000274487EA040068400B99084433490844BD
:1013F0000644300440EA16463E4486EA0700604050
:101400000E9908442E4908440544E80540EA55254C
:10141000354485EA06007840019908442949084482
:101420000444200140EA14742C4484EA050070400E
:1014300004990844244949E078A46AD756B7C7E814
:10144000DB702024EECEBDC1AF0F7CF52AC68747E6
:10145000134630A8019546FDD8988069AFF7448BB4
:10146000BED75C892211906B937198FD8E4379A64B
:101470002108B44962251EF640B340C0515A5E2689
:10148000AAC7B6E95D102FD65314440281E6A1D84D
:10149000C8FBD3E7E6CDE121D60737C3870DD5F4E6
:1014A000ED145A4505E9E3A9F8A3EFFCD9026F67EB
:1014B0008A4C2A8D4239FAFF81F6718722619D6D2F
:1014C0000C38E5FD44EABEA4A9CFDE4B084407442E
:1014D000F80240EA5757274487EA04006840079912
:1014E0000844A54908440644300440EA16463E44F0
:1014F00086EA070060400A990844A0490844054468
:10150000E80540EA5525354485EA060078400D99FE
:1015100008449B4908440444200140EA14742C44C4
:1015200084EA05007040009908449649084407443D
:10153000F80240EA5757274487EA040068400399B5
:101540000844914908440644300440EA16463E44A3
:1015500086EA07006040069908448C49084405441F
:10156000E80540EA5525354485EA060078400999A2
:101570000844874908440444200140EA14742C4478
:1015800084EA050070400C990844824908440744E5
:10159000F80240EA5757274487EA040068400F9949
:1015A00008447D4908440644300440EA16463E4457
:1015B00086EA0700604002990844784908440544D7
:1015C000E80540EA5525354465EA07007040009972
:1015D0000844734908440444A00140EA94642C443C
:1015E00064EA06006840079908446E4908440744C5
:1015F000B80240EA9757274467EA050060400E9911
:101600000844694908440644F00340EA56463E440B
:1016100066EA040078400599084464490844054492
:10162000680540EAD525354465EA070070400C9905
:1016300008445F4908440444A00140EA94642C44EF
:1016400064EA06006840039908445A49084407447C
:10165000B80240EA9757274467EA050060400A99B4
:101660000844554908440644F00340EA56463E44BF
:1016700066EA04007840019908445049084405444A
:10168000680540EAD525354465EA070070400899A9
:1016900008444B4908440444A00140EA94642C44A3
:1016A00064EA060068400F99084446490844074424
:1016B000B80240EA9757274467EA05006040069958
:1016C0000844414908440644F00340EA56463E4473
:1016D00066EA040078400D9908443C4908440544F2
:1016E000680540EAD525354465EA0700704004994D
:1016F0000844374908440444A00140EA94642C4457
:1017000064EA060068400B990844324908440744DB
:10171000B80240EA9757274467EA050060400299FB
:1017200008442D4908440644F00340EA56463E4426
:1017300066EA0400784009990844284908440544A9
:10174000680540EAD5253544D8F800002044C8F89B
:101750000000D8F804002844C8F80400D8F80800AD
:101760003044C8F80800D8F80C003844C8F80C0019
:1017700040B0BDE8F0830000604BBBF670BCBFBE5C
:10178000C67E9B28FA27A1EA8530EFD4051D880480
:1017900039D0D4D9E599DBE6F87CA21F6556ACC4F4
:1017A000442229F497FF2A43A72394AB39A093FC42
:1017B000C3595B6592CC0C8F7DF4EFFFD15D8485BE
:1017C0004F7EA86FE0E62CFE144301A3A111084E42
:1017D000827E53F735F23ABDBBD2D72A91D386EB3E
:1017E0002DE9F04704460F4615460026B046B1469F
:1017F0002088C0F3C508C8F14009206800EBC50087
:1018000020602068B0EBC50F02D26068401C6060A9
:10181000606800EB557060604D451CD304F1180101
:1018200001EB08004A463946FEF72BFD04F118018A
:1018300004F10800FFF7EAFB4E4605E0B91904F190
:101840000800FFF7E3FB403606F14000A842F5D957
:101850004FF0000800E00026AA1BB91904F1180394
:1018600003EB0800FEF70DFDBDE8F08700BFFEE7C3
:1018700030B5B3B0DC480078052821D2DFE800F0AD
:101880000321F0EEED00D9480068401CD7490860FC
:1018900008460068C82813D9C82101A8FEF758FDDA
:1018A000FF208DF804000020D049086001A90D2018
:1018B00003F016FE012003F0EDFE002033B030BD32
:1018C0008FE1CA480068401CC84908600024002510
:1018D00008460068B0F5967F77D9002008600CE0D4
:1018E0002846691CCDB2C2490A5C2046611CCCB2B4
:1018F00001A90A541E2D00D103E0BD48405D002817
:10190000EED100BFBA480078302805D1B848007839
:10191000401CB74908700EE0B5480078392805DB4F
:10192000012003F0C5FE3020B1490870B0480078AE
:10193000401CAF49087022222046611CCCB201A98C
:101940000A542C222046611CCCB201A90A5422223E
:101950002046611CCCB201A90A5400250DE028469E
:10196000691CCDB2A2491E310A5C2046611CCCB272
:1019700001A90A541E2D00D104E09D481E30405D8F
:101980000028ECD100BF22222046611CCCB201A964
:101990000A542C222046611CCCB201A90A542222EE
:1019A0002046611CCCB201A90A5400250EE028464D
:1019B000691CCDB28E493C310A5C2046611CCCB218
:1019C00001A90A54202D01D105E045E088483C30AA
:1019D000405D0028EBD100BF22222046611CCCB222
:1019E00001A90A542C222046611CCCB201A90A5438
:1019F00030222046611CCCB201A90A542C22204678
:101A0000611CCCB201A90A5430222046611CCCB220
:101A100001A90A542C222046611CCCB201A90A5407
:101A200022222046611CCCB201A90A542046611C26
:101A3000CCB201A90A5400222046611CCCB201A9F3
:101A40000A54092003F04CFDC82101A8FEF780FCD0
:101A500000206849087031E7C3E0B3E06DE0FFE7BC
:101A600062480068401C614908600024002508465F
:101A70000068B0F5967F5FD9002008605D48007867
:101A8000032807DD00205B490870012003F010FEE9
:101A9000002013E70DE02846691CCDB254495C31A3
:101AA0000A5C2046611CCCB201A90A54102D00D159
:101AB00004E04F485C30405D0028ECD100BF22229A
:101AC0002046611CCCB201A90A542C222046611C7C
:101AD000CCB201A90A5400250DE02846691CCDB2FC
:101AE00043496C310A5C2046611CCCB201A90A54FE
:101AF0000A2D00D104E03E486C30405D0028ECD156
:101B000000BF2C222046611CCCB201A90A5430220D
:101B10002046611CCCB201A90A5400222046611C57
:101B2000CCB201A90A540A2003F0DAFCC82101A8AA
:101B3000FEF70EFC0020C1E653E02C480068401C74
:101B40002A4908600024002508460068C82838D9BA
:101B5000002008600DE02846691CCDB2244976318A
:101B60000A5C2046611CCCB201A90A541E2D00D18A
:101B700004E01F487630405D0028ECD100BF2222EF
:101B80002046611CCCB201A90A542C222046611CBB
:101B9000CCB201A90A5430222046611CCCB201A962
:101BA0000A5400222146601CC4B201A8425401A973
:101BB0000C2003F095FCC82101A8FEF7C9FB00200A
:101BC0007CE60EE009480068401C084908600846A9
:101BD0000068B0F5FA7F03D900200860FFF784F9A8
:101BE00000BF00BFFF2069E68B00002090000020AE
:101BF00063200020890000207047000070B500219C
:101C000000230F22C47804B3154C246804F4E06464
:101C1000C4F5E064210AC1F10403CA40447804FA1F
:101C200003F184781440214309010E4C0678A15534
:101C3000047804F01F050124AC4005786D11AD0057
:101C400005F1E025C5F8004109E0047804F01F051E
:101C50000124AC40044D0678761145F8264070BD4D
:101C60000CED00E000E400E080E100E00249014307
:101C7000024A1160704700000000FA050CED00E018
:101C80000249096809B9014908607047B00000209D
:101C900000202CE000EB4001164A52F8211021B33D
:101CA00000EB400102EB81010989491C00EB400275
:101CB000104B03EB8202118100EB40011A4602EB4C
:101CC0008101098900EB400203EB8202D288914234
:101CD0000BDB002100EB400203EB820211810121AA
:101CE00000EB400203EB82021171411CC8B20328D1
:101CF000D0DB70473021002070B500EB40040E4D62
:101D000055F82440B4B900EB400445F824100024F1
:101D100000EB4005084E06EB85052C7100EB4004F6
:101D2000354605EB8404E280002400EB400506EB19
:101D300085052C8170BD00003021002019E00024B1
:101D400015E004EB44000B4901EB80000079012809
:101D50000BD1002004EB4401064A02EB810108711B
:101D600004EB440152F821008047601CC4B2032CEC
:101D7000E7DBE4E730210020002016E0002100EB43
:101D800040020B4B43F8221000EB400203EB8202AF
:101D9000117100EB400203EB8202D18000EB4002A4
:101DA00003EB82021181411CC8B20328E6DB7047B5
:101DB00030210020002007E00549014491F8E81790
:101DC000044A1154411CC8B20C28F5DB70470000CE
:101DD00000F0FF1F21210020704700001CB501F01A
:101DE000D3FC01286FD1002000904FF6FF73102222
:101DF000012101900846FEF7C7FF02F015F90528FA
:101E000011D100205E49088002F00EF90A30C4B2F8
:101E1000002000904FF6FF732246012101902120FF
:101E2000FEF7B2FFAAE056480088401C54490880DB
:101E30000846008832280AD1002000904FF6FF7330
:101E40000A22012101902120FEF79EFF96E04C48D6
:101E5000008864280AD1002000904FF6FF730B22FF
:101E6000012101902120FEF78FFF87E04448008880
:101E700096280AD1002000904FF6FF730C22012112
:101E800001902120FEF780FF78E03D480088C828B7
:101E90000AD1002000904FF6FF730D22012101901E
:101EA0002120FEF771FF69E035480088FA280BD140
:101EB000002000904FF6FF730E2201210190212097
:101EC000FEF762FF5AE011E02D480088B0F5967FDA
:101ED00054D100202A49088000904FF6FF730F224A
:101EE000012101902120FEF74FFF47E000200090E4
:101EF0004FF6FF731122012101900846FEF744FFBF
:101F000002F092F8012828DC1D480088401C1C497A
:101F100008800846008832280ED102F085F80A3081
:101F2000C4B2002000904FF6FF73224601210190B9
:101F30002120FEF729FF21E01148008864281DDDDB
:101F400000200F49088000904FF6FF7313220121F3
:101F500001902120FEF718FF10E0002008490880BA
:101F600002F062F80A30C4B2002000904FF6FF730E
:101F70002246012101902120FEF706FF1CBD000032
:101F8000AC00002001460020034A506820F4404085
:101F900008435060704700000010024029B1064A13
:101FA00052690243044B5A6104E0034A5269824376
:101FB000014B5A61704700000010024029B1064AE7
:101FC000D2690243044BDA6104E0034AD2698243D6
:101FD000014BDA61704700000010024029B1064A47
:101FE00012690243044B1A6104E0034A12698243F6
:101FF000014B1A61704700000010024029B1064AE7
:1020000092690243044B9A6104E0034A9269824355
:10201000014B9A61704700000010024029B1064A46
:10202000D2680243044BDA6004E0034AD268824378
:10203000014BDA6070470000001002402DE9F041CA
:1020400000210022002500230026002400278C46C2
:10205000DFF86081D8F8048008F00C0121B1042970
:1020600007D0082959D109E0DFF84C81C0F8008079
:1020700058E0DFF84881C0F8008053E0DFF8348191
:10208000D8F8048008F47012DFF82881D8F80480AA
:1020900008F48035920C0D2A01D0921C00E0062233
:1020A00035B9DFF81C8102FB08F8C0F8008033E086
:1020B000DFF80081D8F82C8008F48036DFF8F4804F
:1020C000D8F82C8008F00F0808F1010446B9DFF8B1
:1020D000EC80B8FBF4F808FB02F8C0F800801BE0C5
:1020E000DFF8D080D8F82C80C8F3031808F1010776
:1020F000DFF8C080D8F82C80C8F3032808F1020C60
:10210000DFF8B880B8FBF7F808FB0CF8B8FBF4F878
:1021100008FB02F8C0F8008004E0DFF89C80C0F8FB
:10212000008000BF00BFDFF88C80D8F8048008F082
:10213000F0010909DFF88C8018F80130D0F8008030
:1021400028FA03F8C0F80480DFF86880D8F8048023
:1021500008F4E061090ADFF86C8018F80130D0F863
:10216000048028FA03F8C0F80880DFF84880D8F81F
:10217000048008F46051C90ADFF8488018F801307B
:10218000D0F8048028FA03F8C0F80C80DFF8248027
:10219000D8F8048008F44041890BDFF82C8018F847
:1021A0000130D0F80C80B8FBF3F8C0F81080BDE81F
:1021B000F08100000010024000127A0040787D019A
:1021C00000093D00B4000020C400002021B10288B5
:1021D00042F04002028004E002884FF6BF731A40CA
:1021E000028070471AB183880B43838002E08388A2
:1021F0008B438380704710B50022028802F441525D
:102200000B884C8823438C882343CC8823430C8938
:1022100023434C8923438C892343CC8923431A438A
:102220000280838B4FF2FF74234083830B8A0382E7
:1022300010BD70472DE9F84F05460C4616461F465F
:10224000DDE90A9A1948006820B169460020174A5A
:10225000126890474FF000081CE099F800002168D0
:1022600008702068401C2060F1192068884200D165
:10227000266020682968884206D12868401CF11928
:102280002860884200D12E6008F101001FFA80F812
:1022900009F10109D045E0DB0448006820B1694636
:1022A0000120024A12689047BDE8F88FB000002074
:1022B00010B5034608681C68A04204D908881C8829
:1022C000001B80B210BD08681C68A04205D20888B7
:1022D00010441C88001B80B2F4E70020F2E70000E5
:1022E0002DE9F84304460E4615461F46DDF82080CA
:1022F0004FF000091348006820B169460020114AD8
:1023000012689047002088F80000306821688842F1
:102310000CD02068007888F800004FF00109206890
:10232000401CE9192060884200D1256005480068FA
:1023300020B169460120034A126890474846BDE82B
:10234000F8830000B000002002600A6070472DE9A9
:10235000F05F04460D4690462846FEF79EFB8146F8
:10236000C84504D3A8EB090000F1010A02E0FF20F0
:10237000BDE8F09F002600271CE0207829788842DD
:1023800016D14FF0010B0FE0761C4E4501D13846B7
:10239000EEE7641C6D1C20782978884204D0A41BC9
:1023A000AD1B0026B34602E0BBF1000FECD100BF2D
:1023B000641C7F1C5745E0D3FF20D9E710B500F01F
:1023C00001F810BD0CB50020019000903F48006856
:1023D00040F480303D49086000BF3C48006800F48C
:1023E000003000900198401C0190009818B90198A5
:1023F000B0F5A06FF1D13548006800F4003010B19D
:102400000120009001E000200090009801285CD19C
:102410002F48006840F010002D4908600846006809
:1024200020F0030008600846006840F002000860E1
:102430002648406825494860084640684860084684
:10244000406840F4806048600846C06A21490840FE
:102450001E49C8620846C06A1F4908431B49C86232
:102460000846006840F08060086000BF17480068B8
:1024700000F000600028F9D01448406820F47C1077
:10248000124948600846406840F4E8104860084631
:10249000006840F08070086000BF0C48006800F0E1
:1024A00000700028F9D00948406820F0030007496F
:1024B00048600846406840F00200486000BF03489A
:1024C000406800F00C000828F9D10CBD0010024053
:1024D0000020024000F0FEFF44060100F0B5034674
:1024E000144621E0641E187800F00F070A2F04DA62
:1024F00000F00F0707F1300603E000F00F07573731
:10250000FEB2001100F00F070A2F04DA00F00F07E7
:1025100007F1300503E000F00F075737FDB20D70EB
:10252000491C0E70491C5B1C002CDBD1F0BD10B5A2
:10253000FFF7AEFB10BD000010B51648006840F074
:1025400001001449086008464068134908401149D1
:10255000486008460068114908400E49086008466E
:10256000006820F4802008600846406820F4FE00DF
:1025700048600846006820F0A05008604FF47F00D3
:1025800088600020C862FFF719FF4FF0006004491F
:10259000086010BD001002400000FFF0FFFFF6FED3
:1025A00008ED00E0F0B50C46154600220021068C2F
:1025B0004FF6FE773E400684028B018C4FF60C7678
:1025C00032407E1C06EA03162E433243104EB042C0
:1025D0000ED0104EB0420BD0B0F1804F08D00E4E4E
:1025E000B04205D00D4EB04202D00D4EB04206D1E1
:1025F0004FF6FD76314044F00106314305E04FF6D9
:10260000F576314044F00106314302830184F0BD88
:10261000002C01400034014000040040000800404C
:10262000000C0040F0B50C461546002200210026A3
:10263000078C4FF6EF7C07EA0C070784028B018CAE
:102640004FF6FF7707EA041640F6FF473A404FF689
:10265000FF7707EA03373A434FF6FF7707EA052784
:102660003A43114FB8420ED0104FB8420BD0B0F1E0
:10267000804F08D00E4FB84205D00E4FB84202D05E
:102680000D4FB84206D14FF6DF77394046F01007BC
:10269000394305E04FF65F77394044F0100739437E
:1026A00002830184F0BD0000002C01400034014091
:1026B0000004004000080040000C0040F0B50C464B
:1026C0001546002200210026078C4FF6FF6C07EA12
:1026D0000C070784828B018C4FF6FF7707EA0426EC
:1026E0004FF60C773A404FF6FF7707EA03172F4370
:1026F0003A43114FB8420ED0104FB8420BD0B0F150
:10270000804F08D00E4FB84205D00E4FB84202D0CD
:102710000D4FB84206D14FF6FF57394046F4807747
:10272000394305E04FF2FF57394044F4807739438D
:1027300082830184F0BD0000002C01400034014080
:102740000004004000080040000C0040F0B50C46BA
:102750001546002200210026078C4EF6FF7C07EA72
:102760000C070784828B018C4FF6FF7707EA04364B
:1027700040F6FF473A404FF6FF7707EA05273A430E
:102780004FF6FF7707EA03373A43114FB8420ED0AE
:10279000104FB8420BD0B0F1804F08D00E4FB84266
:1027A00005D00E4FB84202D00D4FB84206D14DF6BB
:1027B000FF77394046F48057394305E047F6FF5725
:1027C000394044F48057394382830184F0BD0000CE
:1027D000002C01400034014000040040000800408B
:1027E000000C004010B501212F4800F074F90421BD
:1027F0002D4800F070F9002850D02B4800F068F9FF
:102800002A49886008468068B42806D2084680684D
:102810008C2802D90020887131E0244880683C2847
:1028200003D9224880685A2824D320488068872802
:1028300020D21E48806864281CD91C4A9079C2178F
:1028400000EB5272D310194A0C32D25C174B9979B3
:10285000CB1701EB5373DB10A1EBC304802323419F
:102860001A43124B9879C31700EB5373DC100F4BCC
:102870000C331A550D488079401C0C4988710B485F
:102880008079282806D10021074800F021F801208E
:10289000064948710021044800F08DF905210248DD
:1028A00000F013F810BD00000004004020010020DB
:1028B00010B5FEF7FFF80121014800F003F810BD44
:1028C00000080040CA4302827047CA430282704730
:1028D00021B1028842F00102028004E002884FF632
:1028E000FE731A400280704710B50446684884425F
:1028F00008D10121C014FFF791FB0021E014FFF77C
:102900008DFBC4E0B4F1804F08D101210846FFF7E8
:1029100065FB00210120FFF761FBB8E05D488442C0
:1029200008D101210220FFF759FB00210220FFF707
:1029300055FBACE05848844208D101210420FFF740
:102940004DFB00210420FFF749FBA0E053488442DF
:1029500008D101210820FFF741FB00210820FFF7E3
:102960003DFB94E04E48844208D101211020FFF73E
:1029700035FB00211020FFF731FB88E049488442F5
:1029800008D101212020FFF729FB00212020FFF79B
:1029900025FB7CE04448844208D101214014FFF724
:1029A0003DFB00216014FFF739FB70E03F48844293
:1029B00009D10121C804FFF731FB00214FF40020A9
:1029C000FFF72CFB63E03A48844209D10121080556
:1029D000FFF724FB00214FF48010FFF71FFB56E0A8
:1029E0003448844209D101214805FFF717FB002133
:1029F0004FF40010FFF712FB49E02F48844208D142
:102A000001214020FFF7EAFA00214020FFF7E6FA13
:102A10003DE02A48844208D101218020FFF7DEFAF8
:102A200000218020FFF7DAFA31E02548844208D1FE
:102A300001218015FFF7D2FA0021A015FFF7CEFA89
:102A400025E02048844209D101210804FFF7E6FA75
:102A500000214FF48030FFF7E1FA18E01A48844271
:102A600009D101214804FFF7D9FA00214FF40030C1
:102A7000FFF7D4FA0BE01548844208D101218804FD
:102A8000FFF7CCFA00214FF48020FFF7C7FA10BD02
:102A9000002C01400004004000080040000C0040F1
:102AA000001000400014004000340140004C014080
:102AB000005001400054014000180040001C00403C
:102AC0000020004000400140004401400048014017
:102AD0000146088F704730B50246002000230024CD
:102AE000158A05EA0103958905EA010413B10CB1C1
:102AF000012000E0002030BD70B505460C4624489A
:102B000085420ED0234885420BD0B5F1804F08D0C6
:102B10002148854205D02148854202D0204885427F
:102B200000D100E000BF208850B92389A2886188C5
:102B30002846FFF737FDE188284600F03EF825E0FB
:102B4000208804280AD12389A28861882846FFF7B3
:102B500069FDE188284600F039F817E02088082848
:102B60000AD12389A28861882846FFF7A7FDE1885A
:102B7000284600F038F809E02389A28861882846B1
:102B8000FFF7E4FDE188284600F036F870BD00004C
:102B9000002C0140003401400004004000080040C7
:102BA000000C00401AB183890B43838102E08389C2
:102BB0008B438381704781847047028B4FF6F37398
:102BC0001A400283028B0A4302837047028B4FF242
:102BD000FF331A400283028B4FF6FF7303EA01238F
:102BE0001A4302837047828B4FF6F3731A40828335
:102BF000828B0A4382837047828B4FF2FF331A40E5
:102C00008283828B4FF6FF7303EA01231A43828388
:102C100070470000002202881D4B98420ED01D4BC9
:102C200098420BD0B0F1804F08D01B4B984205D092
:102C30001A4B984202D01A4B984204D14FF68F7328
:102C40001A404B881A43174B984207D0164B9842AC
:102C500004D04FF6FF431A40CB881A4302808B887A
:102C600083850B8803850A4B98420BD0094B984209
:102C700008D00E4B984205D00D4B984202D00D4B18
:102C8000984201D10B7A03860123838270470000AA
:102C9000002C0140003401400004004000080040C6
:102CA000000C0040001000400014004000400140B3
:102CB000004401400048014010B540F225510A4847
:102CC00000F0C7F878B1084800F07EF9C4B240F2CD
:102CD0002551054800F08CF80448006818B12046DA
:102CE00002490968884710BD005000405C00002080
:102CF0000EB540F225510D4800F0ABF8A0B10B48DD
:102D000000F062F9C0B2029040F22551074800F08D
:102D10006FF8012002A940F20123054ACDE9001015
:102D2000111F081FFFF786FA0EBD00000038014092
:102D3000AC0300207CB505460C4640F2012209494F
:102D4000081FFFF7B5FA2044B0F5007F09DA40F21A
:102D50000123044A121D111F081FCDE90054FFF77B
:102D600069FA7CBDA803002008B540F225510D4842
:102D700000F06FF8A8B140F225510A4800F038F889
:102D8000084800F021F9C0B200900748006820B15F
:102D90009DF8000004490968884701216846FFF74B
:102DA000C9FF08BD004400405400002008B540F2AF
:102DB00025510D4800F04DF8A8B10B4800F004F97A
:102DC000C0B2009040F22551074800F011F80748C2
:102DD000006820B19DF80000044909688847012176
:102DE0006846FFF7A7FF08BD0048004058000020D4
:102DF00010B50022002340F66A14A14200D100BFA2
:102E00000A1201249440A3B2DC43048010BD21B116
:102E1000828942F40052828104E082894DF6FF7378
:102E20001A40828170471AB1838A0B43838202E081
:102E3000838A8B438382704702460020B1F5007F6E
:102E400000D100BF13880B400BB1012000E000202F
:102E5000704770B50246002400230025002040F68C
:102E60006A16B14200D100BFC1F3421501F01F0341
:102E7000012606FA03F3012D02D19689334006E0BC
:102E8000022D02D1168A334001E0968A33400C129B
:102E9000012606FA04F41688344013B10CB101205F
:102EA00000E0002070BDF0B5034600240026002598
:102EB000002040F66A17B94200D100BF1846C1F39E
:102EC000421401F01F06012707FA06F5012C01D173
:102ED0000C3004E0022C01D1103000E014301AB1A3
:102EE00007682F43076002E00768AF430760F0BD43
:102EF0002DE9F04786B005460E460024A24600BFE5
:102F0000A1460027B08900B100BF2F462C8A4CF69D
:102F1000FF700440F08804432C82AC894EF6F31015
:102F20000440B08831890843718908430443AC8167
:102F3000AC8A4FF6FF400440B0890443AC8201A83C
:102F4000FFF77CF81F48874202D1DDF810A001E0AE
:102F5000DDF80CA0A88900F4004040B10AEBCA00DB
:102F600000EB0A1031684900B0FBF1F807E00AEB0A
:102F7000CA0000EB0A1031688900B0FBF1F8642048
:102F8000B8FBF0F004012009642101FB1089A88935
:102F900000F4004040B1322000EBC900B0FBF1F07A
:102FA00000F00700044308E0322000EB0910642120
:102FB000B0FBF1F000F00F0004432C8106B0BDE837
:102FC000F08700000038014001468888C0F30800FF
:102FD0007047C1F308028280704700BFFEE770B5FA
:102FE00004460B460021204600E0401C0578222DB7
:102FF000FBD1401C00E0401C0578222DFBD1401C79
:10300000401C0DE00578302D09DB0578392D06DCF4
:1030100001EB810569000578303D0D44E9B2401CA3
:1030200005782C2DEED1117003E005781D705B1C26
:10303000401C0D1EA1F10106F1B2F6D170BD0000D9
:103040002DE9F04781460E4617469846002413E0C6
:1030500004EBC40000EB4000094A81184246484690
:10306000FFF775F9C5B2FF2D04D034703D70002014
:10307000BDE8F087601CC4B20C2CE9DBFF20F7E749
:10308000C4D100087CB505462E7800240CE0285DEC
:103090001149097801EBC10202EB01110F4A02EB61
:1030A000C1010855601CC4B2B442F0DB01200A49DA
:1030B00011230B4ACDE90010111F081FFFF7BAF8C2
:1030C00005480078401C04490870084600780A2822
:1030D00001DB002008707CBD88000020EC0E002081
:1030E000D80E002070B5B2B005462E78701EC6B25C
:1030F000002405E0601C285C0DF80400601CC4B2CC
:10310000B442F7DB31466846FDF710FD32B070BDC2
:1031100070B505460C4616460C2C71D2DFE804F05B
:103120000607081C1D4344424C53591E68E067E0E3
:1031300046213448FDF7EAF8284602F0AFF9314855
:10314000401E0078022803D1082002F0F9FA02E0BC
:10315000032002F0F5FA53E052E051E02A480078EB
:10316000012803D1022002F0EBFA1AE02648007889
:10317000082816D125480078012803D1022002F042
:1031800089FA0EE021480078022803D1032002F0DA
:1031900081FA06E01D480078032802D1042002F0DD
:1031A00079FA2DE02CE02BE017480078052802D1B1
:1031B000062002F0C5FA23E000201549087003201C
:1031C00002F068FA1CE012480078401C10490870B0
:1031D00016E0104A10492846FFF701FF0D4908780C
:1031E00000EBD0714910A0EB410129B909480278E0
:1031F0000A49094800F028F8002001F0BBFE00BF92
:1032000000BF70BDDD1900208A0000208B00002067
:103210008900002094000020431D0020231A002074
:1032200010B5002002F056FBFEF7D8FD10BD0000DF
:1032300010B5034801F0B4FB024801F031FE10BDA7
:10324000B1580008CD58000870B503461846D4B2EE
:103250004BE000250D700578302D07DB0578392D02
:1032600004DC05782D072D0E0D7016E00578412D34
:1032700008DB0578462D05DC0578ED1F2D072D0EA2
:103280000D700AE00578612D07DB0578662D04DCFA
:103290000578ED1F2D072D0E0D70401C0578302D83
:1032A00008DB0578392D05DC0E780578303D35448E
:1032B0000D7016E00578412D08DB0578462D05DCFC
:1032C0000E780578373D35440D700AE00578612D9C
:1032D00007DB0578662D04DC0E780578573D35440C
:1032E0000D70401C491CA51EECB2002CB1D170BD64
:1032F00000204FF4E15000BF011EA0F10100FBD1FE
:103300007047000000B587B001210820FEF776FE67
:1033100001211020FEF772FE012140F20120FEF78C
:103320006DFE0120ADF8180000208DF81B0006A9E5
:103330001D48FDF7C3FA0120ADF8180000208DF8F4
:103340001B0006A91948FDF7B9FA4FF44040FEF7F3
:1033500019FE002001908DF808008DF809004FF447
:10336000602003900020049002208DF8140001A931
:103370000F48FDF7AFF801210D48FDF77EF80C4826
:10338000FDF72CF900BF0A48FDF799F80028FAD19B
:103390000748FDF733F900BF0548FDF779F8002825
:1033A000FAD107B000BD0000000C01400010014040
:1033B0000024014010B5FFF7A5FF00200549087063
:1033C00048704860886005200875002008744882AD
:1033D00010BD0000B005002010B500F0B9FD044696
:1033E000072C0ED114480088401C13490880084659
:1033F000008832281FDD0020088001200F49087056
:1034000019E0062C17D00E480078844210D00D48E1
:103410000078401C0B4908700846007803280ADD34
:10342000002008700648047000780449087502E01E
:1034300000200449087010BD62000020B005002083
:10344000640000206500002010B500F019F8024863
:10345000FEF716FC10BD00005D34000870B5044690
:103460000D4624B900F018FE287072B606E0012C53
:1034700004D1287808B162B600E072B670BD0000D1
:1034800030B5144800686422B0FBF2F1B1F1807FDE
:1034900000D31DE021F07F40401E4FF0E02250613C
:1034A00050170F22002807DA13071D0E0A4B00F0F1
:1034B0000F04241F1D5503E013071C0E074B1C545B
:1034C00000BF00204FF0E02290610720106100BF94
:1034D00030BD00006800002018ED00E000E400E0CE
:1034E00070B500EB40040B4D05F82430002400EBD0
:1034F0004005084E06EB85056C8000EB4004354620
:1035000005EB8404A28000EB400405EB8404A16079
:1035100070BD0000080100200649496C21F001013E
:10352000044A516411468864496C41F001015164B8
:10353000704700000000024000B58DB00121084630
:10354000FEF72CFD1A48FDF791F81A4801901A4829
:1035500002901020039040010490002005908020EC
:10356000069000200790089009904FF400500A90B0
:1035700000200B9001A90E48FDF73DF90122022120
:103580000B48FDF72FF94FF4A060FEF76FFB0E20FC
:103590008DF8300006208DF8310000208DF83200C3
:1035A00001208DF833000CA8FEF728FB0DB000BDFC
:1035B0004400024004380140A401002010B520213D
:1035C0000148FDF763FA10BD0008014010B5202145
:1035D0000148FDF759FA10BD0008014010B502215D
:1035E0000148FDF73FFA10BD000C014010B5102155
:1035F0000148FDF749FA10BD0010014010B5102137
:103600000148FDF743FA10BD0010014010B53348E2
:103610000068401C3149086008460068B0F5967F94
:1036200004D90020086001202D4908712C48007938
:1036300030B1012805D002280CD004284CD123E059
:103640004AE000F0A3FA022025490871012000F0A9
:1036500071FA41E080212348FDF718FA002000F0BC
:1036600069FA00F093FA04201D49087147214FF6CA
:10367000FF7000F0AFFE01211B48FFF729F9002180
:103680001948FFF798FA27E015484079012822D118
:1036900000201349487108710846047B407B204490
:1036A000C4B20846807B2044C4B20846C07B204494
:1036B000C4B20846007CA0420DD10846417B007B85
:1036C00001EB0020064948800846C17B807B01EB66
:1036D00000200349088000BF00BF10BD3400002057
:1036E000200100200008014000040040014800883B
:1036F000704700002001002001484088704700000A
:103700002001002008B501210420FEF777FC0121EB
:103710000820FEF773FC01211020FEF76FFC10203B
:10372000ADF8000002208DF8020010208DF8030093
:1037300069461148FDF7C2F82020ADF800000220CC
:103740008DF8020010208DF8030069460B48FDF744
:10375000B5F80220ADF8000004208DF8030069469A
:103760000748FDF7ABF8FFF739FF06490870FFF788
:1037700045FFFFF72BFF08BD001001400008014086
:10378000000C01400000002010B5FFF727FF0446A1
:10379000FFF7AEFD0D480078844203D100200C49AC
:1037A000087010E00948007884420CD0084800787E
:1037B000401C0749087008460078142803DD0020E3
:1037C0000870024804700148007810BD0000002015
:1037D0000100002008B501210820FEF70FFC4FF47E
:1037E0004070ADF8000003208DF8020014208DF821
:1037F000030069460448FDF761F8012000F018F85D
:10380000012000F003F808BD000C014010B504468B
:103810002CB14FF480710548FDF738F904E04FF4FE
:1038200080710248FDF730F910BD0000000C014026
:1038300010B504462CB14FF400710548FDF726F988
:1038400004E04FF400710248FDF71EF910BD0000BE
:10385000000C01407FB50020009001900290039081
:10386000684600F0E5F800247DE0FF25002640488A
:10387000005D05286AD2DFE800F0030A27466200EF
:103880001DF8040010B10120394908555EE01DF80B
:10389000040088B1374830F81400401E80B2354922
:1038A00021F8140078B9032021F8140002203049CF
:1038B00008552546012606E003202E4921F814006C
:1038C00000202B49085541E01DF8040088B12A4822
:1038D00030F81400401E80B2274921F8140088B93E
:1038E000C82021F814000320214908552546032645
:1038F00008E0C820204921F8140004201C4908557C
:103900002546022622E01DF8040048B90420184983
:1039100008559620194921F81400254605260DE082
:10392000164830F81400401E80B2144921F81400E3
:1039300020B9962021F814002546042606E01DF83B
:10394000040010B900200A49085500BF00BFFF2D30
:1039500007D00B48006820B131462846084A126853
:103960009047601CC4B2102CFFF67FAF7FBD0000F3
:103970003401002044010020640100208401002063
:103980004C00002010B54FF480410D48FDF773F84E
:10399000C0F10100C4B222464FF480410848FDF74F
:1039A00077F84FF400410648FDF765F8C0F10100D3
:1039B000C4B222464FF400410148FDF769F810BD3A
:1039C0000010014008B501211020FEF717FB4FF44D
:1039D0004040ADF8000002208DF8020010208DF864
:1039E000030069460648FCF769FF4FF4804104482C
:1039F000FDF74AF84FF400410148FDF747F808BDCC
:103A00000010014010B5FFF7BDFF0221002000F0BB
:103A10006DF810BD10B5FFF7D5FF022344F6206204
:103A200002490020FFF75CFD10BD0000053A0008C8
:103A300070B50446002500260AE06806050E2549F3
:103A400051F82600804708B145F00105701CC6B248
:103A5000052EF2DB112D3AD2DFE805F039090C0F03
:103A60001215181B1E2124272A2D30333600012061
:103A700020702CE00120607029E00120A07026E079
:103A80000120E07023E00120207120E0012060711E
:103A90001DE00120A0711AE00120E07117E0012073
:103AA000207214E00120607211E00120A0720EE08B
:103AB0000120E0720BE00120207308E00120607318
:103AC00005E00120A07302E00120E07300BF00BF09
:103AD00070BD00003800002010B54FF4806102482E
:103AE000FCF7D4FF10BD00000010014010B50246E5
:103AF00002EB4200094B03EB8000806858B102EBF7
:103B0000420003F82010002002EB4203034C04EBB8
:103B10008303588010BD0120FCE70000080100204D
:103B200008B50020F0234FF4A07201460090FDF785
:103B300045F808BD38B5044601210420FEF75EFAB9
:103B4000012C11D18020ADF8000003208DF8020077
:103B500010208DF8030069460B48FCF7AFFE80216A
:103B60000948FCF791FF0DE08020ADF800004820E7
:103B70008DF8030069460448FCF7A0FE8021024846
:103B8000FCF782FF38BD0000000801400020044916
:103B900048718871886008460021C16001747047CF
:103BA0002001002010B500F009FDFFF7C5FC002042
:103BB0000649087006490860064908600649086019
:103BC000064A111F081FFEF7BFFB10BD5000002062
:103BD00054000020580000205C000020AC030020AE
:103BE00010B500F0BFFC06480088401C044908805E
:103BF00008460088B0F5967F01DB0020088010BDE4
:103C0000600000203EB543E02748008840F21B31A9
:103C1000884203DB0020244908803EBD22480188F9
:103C20000088401C204A10802048084440F201438C
:103C30001F4A111F0090081FFEF752FB1A48008808
:103C4000401E1A49085C0D2822D10A211648028814
:103C50000088401C144B1880144881541846008872
:103C600002280FDD1846038801AA02A90F48FFF7B2
:103C7000E7F9044634B90C4802889DF808100B484F
:103C8000FFF746FA09480021016000200649088034
:103C900040F201420649091F081FFEF709FB0128EF
:103CA000B2DC00BFB9E7000096000020BC1600207F
:103CB000CC0A00200EB511226D49081FFEF7F8FA54
:103CC000F0B16C480068401C6A490860084600680A
:103CD0000A2815D90020086002A81123644A121D81
:103CE000111F0090081FFEF7FBFA9DF8081001EB6A
:103CF000C10202EB0111604A02EBC100FFF7F2F9C9
:103D00005E4800780A2819D2DFE800F005192C4730
:103D10006B7E8E8DABAE5A480068401C58490860D7
:103D200008460068C82809D9FF20019000200860D3
:103D300001A901F0D5FB012001F002FD95E05048FA
:103D40000068401C4E49086008460068B0F5967F40
:103D500007D900200860FF20019001A9012001F08F
:103D6000BFFB82E046480068401C454908600846A1
:103D70000068C82810D9FF20019001A9022001F095
:103D8000AFFB01A9032001F0ABFB01A9042001F066
:103D9000A7FB032001F0D4FC67E039480068401C11
:103DA0003749086008460068B0F5967F18D935484D
:103DB0000078401C33490870002031490860FF201A
:103DC000019001A9072001F08BFB2E4800780A28FA
:103DD00006DD00202B490870012001F069FC0EBDB2
:103DE00043E0294A111F081FFEF7AEFAFF20019099
:103DF00001A9062001F074FB01A9052001F070FB68
:103E0000052001F09DFC30E01D480068401C1C4965
:103E100008600846006841F27071884202D90720A4
:103E200001F08EFC21E000BF18480078401C1749C3
:103E30000870084600780A2812DD134A111F081F6F
:103E4000FEF782FA0020114908700D490860FF2032
:103E5000019001A9062001F043FB032001F070FC52
:103E600003E0FDF705FD00E000BF00BF00BFB6E7BF
:103E7000D40E002098000020EC0E00208A000020C4
:103E80009C000020A0000020CC0A0020A1000020FF
:103E900008B501211020FEF7B1F801210420FEF73A
:103EA000ADF801210846FEF7A9F80620ADF800009C
:103EB00003208DF8020010208DF803006946154894
:103EC000FCF7FCFC0120ADF8000003208DF8020097
:103ED00004208DF8030069460F48FCF7EFFC08202A
:103EE000ADF8000003208DF8020004208DF80300D7
:103EF00069460848FCF7E2FC02210648FCF7C6FDCB
:103F000004210448FCF7C2FD01210348FCF7BEFD73
:103F100008BD0000001001400008014010B5044633
:103F20000723012221460948FCF7FCFA0121074832
:103F3000FCF759FB00BF02210448FCF7B7FA002840
:103F4000F9D00248FCF7AEFA10BD00000024014091
:103F500010B53448007830B101280BD0022826D0A3
:103F600003285CD134E000202E4948704860886006
:103F7000072010BD0820FFF7D1FF2A4949680844EF
:103F8000284948600A20FFF7C9FF26498968084484
:103F90002449886008464078401C487008464078AC
:103FA0000A2803DB002048700220087037E01D4813
:103FB00080680A21B0FBF1F01A4988810846406800
:103FC0000A21B0FBF1F01749C8810320087026E0F0
:103FD0000020144908700846C089FA214843114955
:103FE000898990FBF1F04400B4F5C87F01D9052020
:103FF000BFE7B4F5C37F01D90420BAE7B4F5C87FA1
:1040000001D90320B5E7B4F5B97F01D90220B0E7A3
:10401000B4F5B47F01D90120ABE70020A9E700BFC8
:104020000620A6E7B00500200148007D704700008B
:10403000B005002010B5FFF7CDFB10BD10B5402135
:104040000148FCF70FFD10BD0010014010B58021A4
:104050000148FCF707FD10BD0010014010B54FF4FA
:1040600080710248FCF7FEFC10BD0000001001400A
:1040700010B54FF400710248FCF7F4FC10BD0000CD
:104080000010014010B54FF480710248FCF7EAFCC3
:1040900010BD00000008014000BFEFF3108008B918
:1040A000012070470020FCE708B501211420FDF72E
:1040B000A5FF4FF48070ADF8000048208DF8030094
:1040C00069460748FCF7FAFB4FF47070ADF8000042
:1040D00048208DF8030069460248FCF7EFFB08BD55
:1040E000000801400010014010B500200C49086094
:1040F000FFF7DAFF002410E000200A4908550320EA
:10410000094921F81400C820084921F81400962014
:10411000074921F81400601CC4B2102CECDB10BD60
:104120004C000020340100204401002064010020E4
:104130008401002010B54FF400410248FCF7A6FCB2
:1041400010BD00000008014010B54FF400410248C6
:10415000FCF79AFC10BD00000008014010B50446B1
:104160002CB14FF480510548FCF790FC04E04FF46B
:1041700080510248FCF788FC10BD0000000C014093
:1041800000B587B001218803FDF718FF0121082041
:10419000FDF734FF01210846FDF730FF4FF4604082
:1041A000ADF8040003208DF8060018208DF80700F4
:1041B00001A91F48FCF782FB4FF48050ADF80400C2
:1041C00003208DF8060010208DF8070001A918487B
:1041D000FCF774FB4FF480511548FCF757FC0020A6
:1041E000ADF808004FF48270ADF80A000020ADF879
:1041F0000C000220ADF80E000120ADF810004002C6
:10420000ADF812001020ADF814000020ADF8160033
:104210000720ADF8180002A90648FDF7ECFF0121C0
:104220000448FDF7D3FF0120FFF798FF07B000BD5A
:10423000000C01400038004010B5FFF7E7F9FFF728
:1042400009FBFFF7CDFCFFF7C7F810BD10B500F074
:104250005BF9FFF757FAFFF7DDFB00F0FFFA00F01C
:1042600075F9FFF741FFFFF79DFCFFF7B9FCFFF77A
:10427000A1F8FFF7DFFE10BD00B591B00121C80322
:10428000FDF79CFE01210220FDF788FE01211D2083
:10429000FDF7B4FE01214648FCF79CFB4FF40040BB
:1042A000ADF82C0010208DF82F0003208DF82E0083
:1042B0000BA94048FCF702FB4FF400413D48FCF7D6
:1042C000E5FB5020ADF82C0010208DF82F000320C6
:1042D0008DF82E000BA93848FCF7F0FA502136482B
:1042E000FCF7D4FB4FF48060ADF82C0010208DF863
:1042F0002F0003208DF82E000BA93048FCF7DEFAC2
:104300004FF480612D48FCF7BFFB2820ADF82C004E
:1043100003208DF82E0018208DF82F000BA92648B9
:10432000FCF7CCFA4FF44040ADF830004FF4827007
:10433000ADF832000020ADF834000220ADF83600B0
:104340000120ADF838004002ADF83A000020ADF889
:104350003C00ADF83E000720ADF840000CA918481D
:10436000FDF749FF1748FCF781F915480C3000901C
:10437000102002908001039000200490802005907E
:1043800000200690079008904FF48050099000207C
:104390000A9069460B48FCF72EFA012202210848D0
:1043A000FDF720FF01210648FDF710FF11B000BD09
:1043B0000002300000080140000C014000100140E4
:1043C000003C00401C04024000BF011EA0F101009F
:1043D000FBD1704730B589B005460C46012102205B
:1043E000FDF7ECFD01210420FDF708FE8020ADF86B
:1043F000200010208DF8230003208DF8220008A94A
:104400001F48FCF75BFA80211D48FCF73FFBADF825
:104410000C50ADF808400020ADF80E00ADF80A00D1
:1044200002A91848FEF7F6FB0420ADF8140002209C
:10443000ADF816000120ADF818000020ADF81A0004
:10444000ADF81C0005A90F48FEF756FB1D208DF89E
:10445000040002208DF8050000208DF806000120E0
:104460008DF8070001A8FDF7C9FB012205210548C9
:10447000FEF798FB00210348FEF72AFA09B030BD89
:1044800000080140000400401FB501210420FDF791
:1044900095FD1A48FEF728FA3220ADF808001848B2
:1044A00000681849B0FBF1F0401E80B2ADF804007E
:1044B0000020ADF80A00ADF8060001A90F48FEF78C
:1044C000A9FB012211460D48FEF76CFB01210B48A8
:1044D000FEF7FEF94FF4A060FDF7C8FB1E208DF833
:1044E000000000208DF8010003208DF8020001205B
:1044F0008DF803006846FDF781FB1FBD00080040F2
:104500006800002040420F0010B5FFF7BDFF0024F7
:1045100017E0012004EB44010B4A02F821000020BF
:1045200004EB440102EB8101488004EB440102EBFF
:104530008101888004EB440102EB81018860601CEA
:10454000C4B2022CE5DB10BD0801002010B500202C
:1045500003490880488008714721FFF73BFF10BDE1
:104560002001002038B51248007800B138BD40F273
:1045700001221049081FFDF79BFE054600240BE0B1
:104580000D48204440F201230A4A121D111F0090D9
:10459000081FFDF7A5FE641CAC42F1D32DB12846DF
:1045A000FEF7BAFF01200249087000BFDEE70000F5
:1045B00050000020A8030020A401002000B587B00F
:1045C00001210420FDF71AFD01210820FDF716FD49
:1045D00001211020FDF712FD01212020FDF70EFD25
:1045E00001218803FDF70AFD01214804FDF7E6FCDF
:1045F00001218804FDF7E2FC01210805FDF7DEFC3E
:104600004FF40070ADF8180018208DF81B0003203F
:104610008DF81A0006A97548FCF750F94FF4806030
:10462000ADF8180004208DF81B0003208DF81A0047
:1046300006A96E48FCF742F90420ADF818001820CE
:104640008DF81B0003208DF81A0006A96748FCF7B7
:1046500035F90820ADF8180004208DF81B00032060
:104660008DF81A0006A96148FCF728F94FF480601C
:10467000ADF8180018208DF81B0003208DF81A00E3
:1046800006A95B48FCF71AF94FF40060ADF8180072
:1046900004208DF81B0003208DF81A0006A9544849
:1046A000FCF70CF94FF48050ADF8180018208DF885
:1046B0001B0003208DF81A0006A94E48FCF7FEF8EF
:1046C0000420ADF818008DF81B0003208DF81A00A7
:1046D00006A94948FCF7F2F84FF4E13002900020B7
:1046E000ADF80C00ADF80E00ADF81000ADF81400F8
:1046F0000C20ADF8120002A94048FEF7F9FB02A910
:104700003F48FEF7F5FB02A93E48FEF7F1FB02A980
:104710003D48FEF7EDFB25208DF8040003208DF8C1
:1047200005008DF8060001208DF8070001A8FDF7AF
:1047300065FA26208DF8040004208DF8050003207A
:104740008DF8060001208DF8070001A8FDF756FA44
:1047500027208DF8040005208DF8050003208DF832
:10476000060001208DF8070001A8FDF747FA352063
:104770008DF8040005208DF8050006208DF8060050
:1047800001208DF8070001A8FDF738FA012240F258
:1047900025511A48FEF787FB012240F2255118489F
:1047A000FEF781FB012240F225511648FEF77BFB04
:1047B000012240F225511448FEF775FB01210F48F4
:1047C000FEF725FB01210E48FEF721FB01210D48D4
:1047D000FEF71DFB01210C48FEF719FB0122802189
:1047E0000648FEF720FB07B000BD000000080140AE
:1047F000000C01400010014000140140003801404D
:104800000044004000480040005000400249096850
:1048100009B9014908607047580000200249096839
:1048200009B90149086070475C00002070B5044672
:104830000D462E460DE021780748FEF7CAFB00BF63
:1048400040210548FEF7F8FA0028F9D0641C701ED4
:10485000C6B2002EEFD170BD0050004010B5FFF77A
:1048600017FB04210748FCF711F902210548FCF762
:104870000DF900200449087004490870FF2004491C
:10488000087010BD001001402A0000202B000020FD
:104890002C00002000F00F030A2B04DA00F00F03B5
:1048A0003033137003E000F00F033733137000113F
:1048B00000F00F030A2B04DA00F00F0330330B7003
:1048C00003E000F00F0337330B70704710B5FEF7AD
:1048D000BBFDFDF751FAFDF76DFAFFF7B7FC0123B9
:1048E0001A460C490020FDF707FA00F0A3FC01234B
:1048F0001A4609491846FDF7FFF9FEF799FC01230E
:104900001A4606490220FDF7F7F9FDF717FA0020CD
:1049100010BD00003942000825520008213200086D
:1049200010B5002002490860FEF750FE10BD0000DF
:10493000A400002010B5FBF7A7FF10BD78B5024614
:104940000B464FF6FF70002414E012F8011B81EAB9
:10495000000505F00F050F4E36F8155085EA2010BA
:1049600080EA211505F00F0536F8155085EA20106C
:10497000651CACB29C42E8D3C5B28DF80050050A64
:104980008DF801509DF801509DF8006045EA062021
:1049900078BD0000D0CD000810B5FFF7F1FB10BDC9
:1049A0000249096809B90149086070478000002080
:1049B0007CB54248007810BB40F201124049081F04
:1049C000FDF776FC01281ADD01A840F201133C4AEC
:1049D000121D111F0090081FFDF782FC9DF80400B6
:1049E000FE280CD1354840F20113354A121D111F23
:1049F0000090081FFDF774FC0020324908702F4812
:104A00000078002858DD40F201122D49081FFDF7FB
:104A10004FFC2A490978884241DD284800786328FC
:104A200009DD274A121D111F081FFDF78DFC00200C
:104A3000224908707CBD0025002410E02248204453
:104A400040F201131E4A121D111F0090081FFDF7AE
:104A500047FC1D48005D2844C5B2601CC4B217481D
:104A600000788442EADB01A840F20113144A121DC7
:104A7000111F0090081FFDF733FC9DF80400A842A9
:104A800009D10E480178104800F04AF80B48017827
:104A90000D48FEF74FF90020084908700CE009485E
:104AA0000078401C07490870084600780A2803DB94
:104AB000002008700149087000BFBBE78400002097
:104AC0004C08002085000020600A002030B5C1B0ED
:104AD00040F201120E49081FFDF7EAFBC5B2002D96
:104AE00014DD00240CE001A8204440F20113084A20
:104AF000121D111F0090081FFDF7F2FB601CC4B2CD
:104B0000AC42F0DB294601A8FFF790FE41B030BD72
:104B10005809002010B5FFF7D9FFFFF749FF10BD76
:104B2000F0B587B004460D46012D7DDD20788DF867
:104B3000080060788DF80900A1788DF80A109DF8BA
:104B400008000A2874D2DFE800F073055253545568
:104B500056575859102D49D1E0788DF80B0021791E
:104B60008DF80C1061798DF80D10A1798DF80E106B
:104B7000E1798DF80F10217A8DF81010617A8DF897
:104B80001110A17A8DF81210E17A8DF81310217BA3
:104B90008DF81410617B8DF81510A17B8DF816101F
:104BA000E07B8DF817000C210DF10B00FFF7C6FE1E
:104BB00006469DF809109DF80A0041EA0020B0421F
:104BC00014D11D48006888B1059800900120DFF8D5
:104BD00068C002A90EC9DCF800C0E04706909DF845
:104BE0001800012802D102A900F03CF820E000BF23
:104BF00000BF00BF00BF00BF00BF00BF032D16D124
:104C00000E48006898B1059800909DF80800DFF8FC
:104C10002CC002A90EC9DCF800C0E047074637B136
:104C20009DF8080002A900E003E000F01BF800BFB7
:104C300000BF07B0F0BD0000800000207C00002015
:104C40003EB504460294012002A940F20113044A31
:104C5000CDE90010111F081FFDF7ECFA3EBD000062
:104C600050080020F0B58DB007460D463E46FE20A8
:104C70008DF800000124062E7DD006DC062E7BD2A6
:104C8000DFE806F0C50C8A8B8C8D072E75D0082EB8
:104C900074D0092E73D0FF2E6ED185E010222046ED
:104CA000611CCCB20DF8002006F18000C2B2204693
:104CB000611CCCB20DF800206A782046611CCCB291
:104CC0000DF80020AA782046611CCCB20DF8002017
:104CD000EA782046611CCCB20DF800202A792046E3
:104CE000611CCCB20DF800206A792046611CCCB260
:104CF0000DF80020AA792046611CCCB20DF80020E6
:104D0000EA792046611CCCB20DF800202A7A2046B0
:104D1000611CCCB20DF800206A7A2046611CCCB22E
:104D20000DF80020AA7A2046611CCCB20DF80020B4
:104D3000EA7A2046611CCCB20DF800202A7B20467E
:104D4000611CCCB20DF800206A7B2046611CCCB2FD
:104D50000DF80020AA7B2046611CCCB20DF8002083
:104D6000EA7B2046611CCCB20DF80020A01EC1B227
:104D70000DF1020004E013E049E012E012E012E05D
:104D800000F062F82146621CD4B20DF80100214601
:104D9000684600F03FF83AE000BF00BF00BF00BF28
:104DA00000BF00BF00BF00BF03222046611CCCB281
:104DB0000DF80020FF2E06D1FF222046611CCCB248
:104DC0000DF8002007E006F18000C2B22046611C09
:104DD000CCB20DF800206A782046611CCCB20DF8E8
:104DE0000020AA782046611CCCB20DF80020A01E3D
:104DF000C1B20DF1020000F027F82146621CD4B2C6
:104E00000DF801002146684600F004F800BF00BF1D
:104E10000DB0F0BD7CB505460C462E4640F20112A1
:104E20000849081FFDF744FA2044FF2809DC40F236
:104E30000113044A121D111F081FCDE90064FDF77C
:104E4000F9F97CBD5809002010B502460020002366
:104E500005E014780444E0B2521C5C1CE3B28B42BF
:104E6000F7DB10BD10B5094A111F081FFDF76CFADA
:104E7000074A111F081FFDF767FA0020054908605F
:104E8000054908600548FFF7C9FC10BD500800201F
:104E90005C0900207C00002080000020414C0008BC
:104EA0000249096809B90149086070477C0000207F
:104EB0002DE9F043A3B00546884617460024002696
:104EC0007B222046641C19A90A5400BFA85D38B192
:104ED0003046761C2A5C2046641C19A90A5400E05E
:104EE00002E01E2EF2DD00BF00BF40222046641CFF
:104EF00019A90A5473222046641C0A5463222046CE
:104F0000641C0A546D222046641C0A5470222046F8
:104F1000641C0A547D222146641C19A842540022B4
:104F20002046641C19A90A54402109A8FBF710FA6D
:104F3000414609A8FBF799F919A909A8FBF795F9C2
:104F40000B48FCF751F809A8FBF770F981464A466F
:104F500009A90748FCF744FC01A90548FCF71AF821
:104F60001022394601A8FDF7B9FA23B0BDE8F08355
:104F700054210020014981F8B200704763200020CD
:104F800030B589B030208DF8040000252BE0394879
:104F9000445D241100BF0A2C07DA04F13000C1B2CD
:104FA0006800401C01AA115406E004F13700C1B2A8
:104FB0006800401C01AA11542E48445D04F00F04FF
:104FC0000A2C07DA04F13000C1B26800801C01AA83
:104FD000115406E004F13700C1B26800801C01AA38
:104FE0001154681CC5B20C2DD1DB00208DF81D00BA
:104FF00001A800F04FF80DF1050000F0AFF81E4ACF
:105000000DF105010846FFF753FF1CA000F06AF8F8
:105010001EA000F07BF85F208DF81D0064208DF845
:105020001E006F208DF81F0077208DF820006E2065
:105030008DF8210000208DF822000DF1050000F010
:1050400079F85F208DF81D0075208DF81E00702006
:105050008DF81F0000208DF820008DF821008DF8BC
:1050600022000DF1050000F029F80120FFF782FF72
:1050700009B030BD212100209F2000203131392E80
:1050800039312E3135382E380000000031383833B0
:105090000000000010B5002109E004780A464B1C0E
:1050A000D9B2054B9C54401C1E2900D102E0027865
:1050B000002AF2D100BF10BD6320002010B50021EE
:1050C00009E004780A464B1CD9B2054B9C54401C9D
:1050D0001E2900D102E00278002AF2D100BF10BDE3
:1050E000F720002010B5002109E004780A464B1C87
:1050F000D9B2054B9C54401C102900D102E0027823
:10510000002AF2D100BF10BDBF20002010B5002141
:1051100009E004780A464B1CD9B2054B9C54401C4C
:105120000A2900D102E00278002AF2D100BF10BDA6
:10513000CF20002010B5002109E004780A464B1C5E
:10514000D9B2054B9C54401C1E2900D102E00278C4
:10515000002AF2D100BF10BDD920002010B50021D7
:1051600009E004780A464B1CD9B2054B9C54401CFC
:105170001E2900D102E00278002AF2D100BF10BD42
:105180008120002070B5B2B006460024C8216846D0
:10519000FBF7DEF822480588280A8DF80000E8B2FF
:1051A0008DF801001E4880788DF802001C48B0F888
:1051B0000350280A8DF80300E8B28DF804009DF82A
:1051C00003409DF804004440154840798DF80500DF
:1051D0009DF805004440124880798DF806009DF83E
:1051E000060044400E48B0F80750280A8DF8070022
:1051F000E8B28DF808009DF8070044409DF80800CB
:10520000444007484472407A8DF809000448807A87
:105210008DF80A0016B9684600F0B2F932B070BDD8
:105220001621002010B5FFF775FC00F0DDFAFFF73E
:1052300081FB10BD10B5FFF7AFFB00F009F8FFF7D9
:1052400011FE00F08BFAFFF76BFBFFF799FE10BD24
:105250000EB5FFF711F842F21070FFF7B5F8FEF740
:1052600073FF42F21070FFF7AFF8FEF763FF6420A0
:10527000FFF7AAF81120FBF71BFE42F21070FFF7B0
:10528000A3F83620FBF714FEA020FBF70BFE3A2014
:10529000FBF70EFE0520FBF705FEB220FBF708FE2C
:1052A0000C20FBF7FFFD0C20FBF7FCFD0020FBF7BB
:1052B000F9FD3320FBF7F6FD3320FBF7F3FDB720B4
:1052C000FBF7F6FD3520FBF7EDFDBB20FBF7F0FD0E
:1052D0003520FBF7E7FDC020FBF7EAFD2C20FBF7AC
:1052E000E1FDC220FBF7E4FD0120FBF7DBFDC3205D
:1052F000FBF7DEFD1320FBF7D5FDC420FBF7D8FD3F
:105300002020FBF7CFFDC620FBF7D2FD0F20FBF7D7
:10531000C9FDCA20FBF7CCFD0F20FBF7C3FDC82059
:10532000FBF7C6FD0820FBF7BDFD5520FBF7C0FDD0
:105330009020FBF7B7FDD020FBF7BAFDA420FBF7C8
:10534000B1FDA120FBF7AEFDE020FBF7B1FDD020C1
:10535000FBF7A8FD0020FBF7A5FD0620FBF7A2FD4B
:105360000920FBF79FFD0B20FBF79CFD2A20FBF794
:1053700099FD3C20FBF796FD5520FBF793FD4B2054
:10538000FBF790FD0820FBF78DFD1620FBF78AFD4B
:105390001420FBF787FD1920FBF784FD2020FBF785
:1053A00081FDE120FBF784FDD020FBF77BFD002091
:1053B000FBF778FD0620FBF775FD0920FBF772FD72
:1053C0000B20FBF76FFD2920FBF76CFD3620FBF768
:1053D00069FD5420FBF766FD4B20FBF763FD0D20B4
:1053E000FBF760FD1620FBF75DFD1420FBF75AFD6F
:1053F0002120FBF757FD2020FBF754FD2920FBF768
:1054000057FDFEF769FBFEF78BFB002000904FF67F
:10541000FF731022012101900846FBF7B5FC002024
:1054200000904FF6FF730F22012101902120FBF71E
:10543000ABFC002000904FF6FF7303220121019086
:10544000FA20FBF7A1FC002000904FF6FF73042226
:10545000012101904FF48D70FBF796FC0020009025
:105460004FF6FF73122201210190D220FBF78CFC32
:1054700000203021CDE900014FF6FF7304A2642122
:1054800002904620FBF7E0FC00F0B8F90EBD0000EA
:105490002044495341524D200000000010B5014600
:1054A0000022084600E0401C03783A2BFBD1401C48
:1054B0000378303B094C237000E0401C0378222B1A
:1054C000FBD1401C06E00478044B5B1C9C54531C2D
:1054D000DAB2401C0378222BF5D110BDDC19002074
:1054E00070B5B2B006460D460E2E45DA002440E0F7
:1054F000C6EBC60000EB8000204901EB4000005DD8
:1055000050B1C6EBC60000EB800001EB4000015D2E
:10551000601C0DF800102BE02878FF2816D0082E0C
:105520000AD105E02978601C0DF80010641C6D1C80
:105530002878FF28F6D109E005E02978601C0DF8ED
:105540000010641C6D1C28780028F6D10D21601C09
:105550000DF80010641C0A21601C0DF80010641C7A
:10556000601CC0B28DF800006846FDF78BFD02E0BC
:10557000641C462CBCD300BF32B070BDF0CD000817
:10558000F0B5B5B0054640480078042879D13F48C9
:105590000078082875D1002400260CE03046711CE4
:1055A000CEB23B490A5C2046611CCCB203A90A5426
:1055B0001E2E00D103E03648805D0028EED100BFEA
:1055C00022222046611CCCB203A90A542C22204678
:1055D000611CCCB203A90A5422222046611CCCB221
:1055E00003A90A54287807026D1C2878384487B22A
:1055F0006D1C16E0287801AA02A9FFF74BF99DF867
:1056000008202046611CCCB203A90A549DF804204E
:105610002046611CCCB203A90A546D1CC22C00DBCD
:1056200004E0381EA7F101018FB2E3D100BF2222AE
:105630002046611CCCB203A90A542C222046611CCE
:10564000CCB203A90A5432222146601CC4B203A87A
:1056500042542C222146601CC4B203A8425430227A
:105660002046611CCCB203A90A5400222046611CCA
:10567000CCB203A90A540B20FFF732FF0020FFF73A
:1056800079FC35B0F0BD00008B0000208A000020BE
:10569000F720002010B5044603480470034A111F88
:1056A000081FFCF751FE10BD8B000020CC0A002023
:1056B00010B50446FEF768F8012825D1012C05D164
:1056C000002016490880012000F03AF813480088AD
:1056D00018B900F043F8FDF789FF10480088B0F5CD
:1056E0007A7F0FDA0D480088401C0C490880084674
:1056F0000088962804DD4FF4FA600880FDF77EFFED
:10570000002010BD0120FCE7002004490880012092
:1057100000F016F8FDF76AFF0020F2E78C00002089
:1057200001B582B0012002A940F20143034ACDE94C
:105730000010111F081FFCF77DFD0EBDCC0A0020D4
:1057400010B5044603480470034A111F081FFCF7F4
:10575000FBFD10BD8A000020CC0A002010B5194ABC
:10576000111F081FFCF7F0FD174A111F081FFCF757
:10577000EBFD1648FFF74AF8002015490870002491
:105780000BE004EBC40101EB0411124A02EBC1006F
:10579000C821FAF7DDFD601CC4B20A2CF1DB0E480B
:1057A0000021016001200D49087000200C4908709B
:1057B00046210B48401CFAF7A9FD00200949087052
:1057C00010BD0000CC0A0020D80E00202157000890
:1057D00088000020EC0E0020BC1600208A0000206B
:1057E000DC1900208B00002010B50020FFF760FFBF
:1057F00018B1FEF707FAFEF75DFA10BD00B587B0E5
:1058000032208DF80C0030208DF80D0032208DF8FC
:105810000E0033208DF80F002D208DF81000312060
:105820008DF811008DF812002D208DF81300302016
:105830008DF8140032208DF8150000208DF8160028
:105840001821CDE900014FF6FF7303AAC821029089
:105850001420FBF7F9FA31208DF80C008DF80D00BB
:105860003A208DF80E0033208DF80F0030208DF88F
:10587000100000208DF811001821CDE900014FF62D
:10588000FF7303AAC8210290A020FBF7DDFA0020D5
:105890001821CDE900014FF6FF7304A2C821029040
:1058A0004FF48270FBF7D0FA07B000BD4D6F6E0069
:1058B00018B5044602208DF80000012C02D1012009
:1058C0008DF80000BDF80010084618BD10B504465C
:1058D000012010BD70B586B005460026FDF706FF15
:1058E00060490988884204D0FDF700FF5D490880BF
:1058F0000126FDF701FF5C490988884204D0FDF7C5
:10590000FBFE59490880012605B10126012E7DD1F3
:10591000002454480088632810DD52480088B0F500
:105920007A7F0BDA4F480088642190FBF1F0303029
:10593000C2B22046611CCCB204A90A54494800886E
:10594000642190FBF1F201FB12000A2190FBF1F0BF
:105950003030C2B22046611CCCB204A90A542E22B7
:105960002046611CCCB204A90A543E4800880A2192
:1059700090FBF1F201FB12003030C2B22046611CF4
:10598000CCB204A90A5421222046611CCCB204A93D
:105990000A5400222046611CCCB204A90A540020FB
:1059A0001821CDE900014FF6FF7304AA03210290EC
:1059B0004620FBF749FA00242B480088632810DDB5
:1059C00029480088B0F57A7F0BDA274800886421DF
:1059D00090FBF1F03030C2B22046611CCCB204A979
:1059E0000A5421480088642190FBF1F201FB120067
:1059F0000A2190FBF1F03030C2B22046611CCCB2DB
:105A000004A90A542E222046611C00E028E0CCB2F2
:105A100004A90A54144800880A2190FBF1F201FB02
:105A200012003030C2B22046611CCCB204A90A5424
:105A300025222046611CCCB204A90A54002220462B
:105A4000611CCCB204A90A5400201821CDE9000140
:105A50004FF6FF7304AA032102908720FBF7F4F9A5
:105A600006B070BDAA000020A800002000000000C1
:105A70000000000000000000000004040404040012
:105A80000004000014140A000000000000000000E0
:105A900000000A0A1F0A0A1F0A0A000000040E1565
:105AA00005060C14150E0400000012150D152E2C01
:105AB0002A1200000000040A0A36151529160000F3
:105AC00002020100000000000000000010080804AD
:105AD0000404040408081000020404080808080864
