:020000040800F2
:1000000010200020ED010008650D0008D10900084E
:10001000610D00087F040008C320000800000000F4
:100020000000000000000000000000007B1300083A
:10003000FD06000800000000210F0008251600083A
:10004000070200080702000807020008070200086C
:10005000070200080702000807020008070200085C
:10006000070200080702000807020008070200084C
:1000700007020008070200088504000807020008BC
:10008000070200080702000807020008070200082C
:10009000070200080702000807020008070200081C
:1000A000070200080702000807020008070200080C
:1000B00007020008D9180008A5190008070200085F
:1000C00007020008070200080702000807020008EC
:1000D00007020008E51D00085D1E0008A11E0008BB
:1000E00007020008070200080702000800000000DD
:1000F0000000000000000000000000000000000000
:1001000000000000000000000702000807020008CD
:1001100007020008AD1D00080702000807020008DA
:10012000070200080702000807020008070200088B
:10013000070200080702000807020008070200087B
:10014000070200080702000807020008070200086B
:1001500000F002F800F03AF80AA090E8000C82449F
:100160008344AAF10107DA4501D100F02FF8AFF27C
:10017000090EBAE80F0013F0010F18BFFB1A43F085
:10018000010318473CB900005CB90000103A24BFD5
:1001900078C878C1FAD8520724BF30C830C144BFEC
:1001A00004680C607047000000230024002500262E
:1001B000103A28BF78C1FBD8520728BF30C148BFCA
:1001C0000B6070471FB51FBD10B510BD00F058F88B
:1001D0001146FFF7F7FF03F02BFA00F076F803B4AF
:1001E000FFF7F2FF03BC00F07DF8000009488047EC
:1001F00009480047FEE7FEE7FEE7FEE7FEE7FEE709
:10020000FEE7FEE7FEE7FEE704480549054A064B20
:10021000704700002D16000851010008101A002038
:1002200010200020101C0020101C00204FF00002A5
:1002300000B5134694469646203922BFA0E80C50DC
:10024000A0E80C50B1F12001BFF4F7AF090728BFB7
:10025000A0E80C5048BF0CC05DF804EB890028BF33
:1002600040F8042B08BF704748BF20F8022B11F05C
:10027000804F18BF00F8012B7047704770477047D8
:10028000754600F02BF8AE4605006946534620F04F
:100290000700854618B020B5FFF7B6FFBDE820403F
:1002A0004FF000064FF000074FF000084FF0000B32
:1002B00021F00701AC46ACE8C009ACE8C009ACE8E5
:1002C000C009ACE8C0098D46704710B50446AFF3CD
:1002D00000802046BDE81040FFF781BF004870470E
:1002E000B019002001491820ABBEFEE7260002002D
:1002F000704721B1826842F00102826003E08268A7
:1003000022F0010282607047014600208A6802F0F4
:1003100004020AB1012000E0002070470146C86CC9
:1003200080B270470246002013680B400BB10120D9
:1003300000E000207047014600208A6802F00802B1
:100340000AB1012000E000207047000030B50246ED
:100350000020002350680F4C20400D790C6844EABF
:1003600005242043506090680B4C2040D1E9025492
:100370002C434D7944EA450420439060D06A20F430
:1003800070000C7C641EE4B2234340EA0350D06248
:1003900030BD0000FFFEF0FFFDF7F1FFF0B50446B1
:1003A0000D4600200021092D11DDE068A5F10A06A7
:1003B00006EB4607072606FA07F18843A5F10A0669
:1003C00006EB460603FA06F10843E0600CE02069FC
:1003D00005EB4507072606FA07F1884305EB4506B6
:1003E00003FA06F108432061072A0FDA606B561EF4
:1003F00006EB86071F2606FA07F18843561E06EB12
:10040000860605FA06F10843606322E00D2A0FDA3A
:10041000206BD61F06EB86071F2606FA07F18843D6
:10042000D61F06EB860605FA06F10843206310E0A6
:10043000E06AA2F10D0606EB86071F2606FA07F111
:100440008843A2F10D0606EB860605FA06F108437D
:10045000E062F0BD816841F008018160704721B120
:10046000826842F4A002826003E0826822F4A00263
:1004700082607047816841F004018160704700BF6D
:10048000FEE7000010B54FF4005000F0D1F850B175
:100490004FF4005000F00CF80021034800F016F86B
:1004A00000200249087010BD4400024050000020A6
:1004B00000F0805111B10349086001E00249486031
:1004C00070470000040402400000024021B10268AD
:1004D00042F00102026004E002684FF6FE731A4027
:1004E0000260704701684FF6FE7211400160002102
:1004F000016041608160C1604B49884208D14A492E
:100500000839496841F00F01474A083A51608AE0CA
:1005100045491431884208D143490839496841F0B6
:10052000F001414A083A51607DE03F492831884254
:1005300008D13D490839496841F470613A4A083A9E
:10054000516070E038493C31884208D13649083959
:10055000496841F47041344A083A516063E03249D5
:100560005031884208D130490839496841F4702136
:100570002D4A083A516056E02B496431884208D12F
:1005800029490839496841F47001274A083A5160FD
:1005900049E025497831884208D12349083949681A
:1005A00041F07061204A083A51603CE01F4988429E
:1005B00006D1011F096841F00F01021F116032E0EE
:1005C0001A491431884208D11849091F096841F0B5
:1005D000F001164A121F116025E0144928318842A3
:1005E00008D11249091F096841F470610F4A121FAE
:1005F000116018E00D493C31884208D10B49091FB0
:10060000096841F47041094A121F11600BE0074963
:100610005031884207D10549091F096841F470210A
:10062000024A121F1160704708000240080402408D
:1006300001460020002201F0805313B1054B1A68D7
:1006400001E0054B1A6802EA01030BB1012000E04A
:100650000020704700040240000002401AB1036805
:100660000B43036002E003688B430360704710B5DF
:100670000022026847F6F0739A430C6A8B682343A2
:100680000C6923434C6923438C692343CC6923437E
:100690004C6A23438C6A23431A430260CB6843604D
:1006A0000B6883604B68C36010BD0000124A12687B
:1006B00042F0F002104B1A600F4A1C3211600E4AD1
:1006C000243210600C4A1832126842F001020A4BC0
:1006D00018331A6000BF084A121F126802F0200285
:1006E000002AF8D0044A1832126822F00102024BA4
:1006F00018331A607047000004040240704700007D
:1007000010B50B480068642811D209480068401CE5
:100710000749086008460068052802D101F0CEFEAE
:1007200005E003480068502801D101F0CFFE10BD5C
:10073000940000202DE9F04102460025002600200B
:1007400000230024002791F803C00CF00F0591F856
:1007500003C00CF0100CBCF1000F03D091F802C0E4
:100760004CEA050591F800C0BCF1000F31D01468C7
:1007700000202BE04FF0010C0CFA00F3B1F800C0A0
:100780000CEA03069E4220D183004FF00F0C0CFAB6
:1007900003F7BC4305FA03FC4CEA040491F803C0D8
:1007A000BCF1280F06D14FF0010C0CFA00FCC2F886
:1007B00014C00AE091F803C0BCF1480F05D14FF016
:1007C000010C0CFA00FCC2F810C0401C0828D1D360
:1007D0001460B1F800C0BCF1FF0F34DD5468002094
:1007E0002EE000F1080C4FF0010808FA0CF3B1F804
:1007F00000C00CEA03069E4221D183004FF00F0C8B
:100800000CFA03F7BC4305FA03FC4CEA040491F824
:1008100003C0BCF1280F05D100F1080C08FA0CF850
:10082000C2F8148091F803C0BCF1480F07D100F161
:10083000080C4FF0010808FA0CF8C2F81080401CB0
:100840000828CED35460BDE8F0810000F0B50A4618
:10085000002300240021002500F00046B6F1004FDF
:1008600002D11D4EF16901E01B4E7168C0F30345D2
:1008700083B200F44016B6F5401F08D121F0706134
:10088000154E766826F07066134F7E6012E000F415
:100890008016B6F5801F06D1032606FA05F4A1439B
:1008A00041F0706106E0460D360103FA06F6B143E9
:1008B00041F0706122B1460D360103FA06F631436C
:1008C00000F00046B6F1004F02D1034EF16101E0A5
:1008D000014E7160F0BD00000000014002460020A2
:1008E00093680B400BB1012000E0002070470246E6
:1008F0000020D3680B400BB1012000E000207047BE
:1009000041617047016170470AB1016100E04161D6
:1009100070470146002004E0401C322800D903E063
:10092000491C0A78002AF7D100BF704710B500248F
:1009300032E004EB44001A4901EB8000806848B3C0
:1009400004EB440011F82000022823D104EB4400FA
:1009500001EB80004088401C04EB4401104A02EB8C
:100960008101488004EB4400114601EB800040887F
:1009700004EB440102EB8101898888420ADB0120F3
:1009800004EB440102F8210004EB440102EB810175
:1009900088688047601CC4B2022CCADB10BD00000E
:1009A000B800002070B505460E4600240BE000BFDD
:1009B0004021064801F0B4FA0028F9D0295D034827
:1009C00001F07BFB641CB442F1D370BD00480040D1
:1009D00000BFFEE72DE9F04104460D4616461F46CE
:1009E0002A2000F0A1F9A11C88B200F08AF9B11CFC
:1009F00088B200F086F92B2000F096F9691C88B2C5
:100A000000F07FF9791C88B200F07BF92C2000F00F
:100A10008BF9BDE8F08170B504460D4616462B46AD
:100A2000224629462046FFF7D5FF304600F069F9F7
:100A300070BD00002DE9F04781460F4615461E4661
:100A4000DDF82080701E83B2681E82B239464846A7
:100A5000FFF7C0FF00240AE04FEA28222046611C6D
:100A60008CB20A490A5401F80480601C84B2AC427A
:100A7000F2DB3C4605E029460448FFF717FE601C00
:100A800084B2B4EB460FF6DBBDE8F08778050020B2
:100A90002DE9FF5F80468A4617469B460F9D002042
:100AA0000290CDF80080284605EBD071C1F34704D1
:100AB0002046E21704EB5272D2102146E31704EBF2
:100AC0005373DB10A4EBC3030BB1012300E000233D
:100AD0001A446A4392B20192A7F12000C7B20AEB0E
:100AE0000500401E83B208EB0400401E82B251464E
:100AF0004046FFF76FFF002673E00C2D07D107EB90
:100B000047003A4901EB8000805D039025E0102DFD
:100B100005D1374800EB0710805D03901DE0182DCC
:100B200007D107EB4700334901EB0010805D0390CC
:100B300013E0202D05D1304800EB8710805D039035
:100B40000BE0302D07D107EBC7002C4901EB00105B
:100B5000805D039001E0BDE8FF9F4FF000093AE09F
:100B60001098C8B9012000FA09F00399084018B19B
:100B7000584600F0C6F802E00E9800F0C2F802985D
:100B8000401CC0B20290029890FBF4F104FB1100EB
:100B9000E8B90020029021E0012000FA09F0039951
:100BA000084020B15A4651464046FFF734FF08F14D
:100BB00001001FFA80F80098A8EB0000A04206D1BF
:100BC000DDF800800AF101001FFA80FA06E009F161
:100BD000010000F0FF09B9F1080FC1DB00BF701C74
:100BE00086B20198864288DB00BFB4E72442000841
:100BF00098460008884C0008585E000818760008DF
:100C00002DE9FF4782B004460E461F4600200190A2
:100C1000A2468020009006F11F0083B204F11F005D
:100C200082B231462046FFF7D5FE4FF000093FE083
:100C30002249049801EBC01010F80980002530E02B
:100C40000F98C0B90120A84000EA080018B1384642
:100C500000F057F802E00E9800F053F80198401C9D
:100C6000C0B20190019890FBFBF10BFB1100B0B9F1
:100C70000020019017E00120A84000EA080020B100
:100C80003A4631462046FFF7C6FE601C84B2A4EB0C
:100C90000A00584503D15446701C86B203E0681C14
:100CA000C5B2082DCCDB00BF09F101001FFA80F9A5
:100CB00000988145BCDB06B0BDE8F08788AB000832
:100CC0002DE9FE4F06460F4614469846DDE90D5ABB
:100CD000DDF8309010E0CDE9015ACDF8009022788F
:100CE000434639463046FFF7D3FE284605EBD07120
:100CF00006EB61018EB2641C20780028EBD1BDE8C0
:100D0000FE8F18B5044620128DF80000E0B28DF871
:100D1000010002216846FFF7C9FC18BD10B5044662
:100D2000204600F011F810BD10B50446102105480A
:100D3000FFF7E6FD204600F007F810210148FFF715
:100D4000E1FD10BD000C014001B540210348FFF753
:100D5000D7FD01216846FFF7A9FC08BD000C014042
:100D600000BFFEE77047000070B5002100230F228E
:100D7000C47804B3154C246804F4E064C4F5E0645A
:100D8000210AC1F10403CA40447804FA03F18478CB
:100D90001440214309010E4C0678A155047804F053
:100DA0001F050124AC4005786D11AD0005F1E0256B
:100DB000C5F8004109E0047804F01F050124AC40A7
:100DC000044D0678761145F8264070BD0CED00E024
:100DD00000E400E080E100E002490143024A1160C2
:100DE000704700000000FA050CED00E002490968B8
:100DF00009B9014908607047A000002000202CE0DC
:100E000000EB4001164A52F8211021B300EB4001DB
:100E100002EB81010989491C00EB4002104B03EBF6
:100E20008202118100EB40011A4602EB810109891F
:100E300000EB400203EB8202D28891420BDB0021DF
:100E400000EB400203EB82021181012100EB400222
:100E500003EB82021171411CC8B20328D0DB70473A
:100E60008C19002070B500EB40040E4D55F824405D
:100E7000B4B900EB400445F82410002400EB400511
:100E8000084E06EB85052C7100EB4004354605EB5A
:100E90008404E280002400EB400506EB85052C81EC
:100EA00070BD00008C19002019E0002415E004EB4F
:100EB00044000B4901EB8000007901280BD1002090
:100EC00004EB4401064A02EB8101087104EB440182
:100ED00052F821008047601CC4B2032CE7DBE4E732
:100EE0008C190020002016E0002100EB40020B4B83
:100EF00043F8221000EB400203EB8202117100EB79
:100F0000400203EB8202D18000EB400203EB82023D
:100F10001181411CC8B20328E6DB70478C19002000
:100F2000704700001CB501F0A7FB01286FD100201D
:100F300000904FF6FF731022012101900846FFF741
:100F40005FFE01F03FFF052811D100205E490880B7
:100F500001F038FF0A30C4B2002000904FF6FF7352
:100F60002246012101902120FFF74AFEAAE05648BF
:100F70000088401C544908800846008832280AD15D
:100F8000002000904FF6FF730A22012101902120DA
:100F9000FFF736FE96E04C48008864280AD100200E
:100FA00000904FF6FF730B22012101902120FFF7E3
:100FB00027FE87E04448008896280AD10020009048
:100FC0004FF6FF730C22012101902120FFF718FE3C
:100FD00078E03D480088C8280AD1002000904FF6EC
:100FE000FF730D22012101902120FFF709FE69E026
:100FF00035480088FA280BD1002000904FF6FF7387
:101000000E22012101902120FFF7FAFD5AE011E0A4
:101010002D480088B0F5967F54D100202A490880D9
:1010200000904FF6FF730F22012101902120FFF75E
:10103000E7FD47E0002000904FF6FF7311220121E9
:1010400001900846FFF7DCFD01F0BCFE012828DC1A
:101050001D480088401C1C4908800846008832282A
:101060000ED101F0AFFE0A30C4B2002000904FF65E
:10107000FF732246012101902120FFF7C1FD21E0ED
:101080001148008864281DDD00200F490880009069
:101090004FF6FF731322012101902120FFF7B0FDCD
:1010A00010E000200849088001F08CFE0A30C4B22C
:1010B000002000904FF6FF7322460121019021206D
:1010C000FFF79EFD1CBD00009C0000200146002093
:1010D000034A506820F440400843506070470000C5
:1010E0000010024029B1064A52690243044B5A617A
:1010F00004E0034A52698243014B5A617047000081
:101100000010024029B1064AD2690243044BDA6159
:1011100004E0034AD2698243014BDA617047000060
:101120000010024029B1064A12690243044B1A61B9
:1011300004E0034A12698243014B1A6170470000C0
:101140000010024029B1064A92690243044B9A6199
:1011500004E0034A92698243014B9A6170470000A0
:101160000010024029B1064AD2680243044BDA60FB
:1011700004E0034AD2688243014BDA607047000002
:10118000001002402DE9F04100210022002500233B
:101190000026002400278C46DFF86081D8F8048000
:1011A00008F00C0121B1042907D0082959D109E020
:1011B000DFF84C81C0F8008058E0DFF84881C0F8C3
:1011C000008053E0DFF83481D8F8048008F470120E
:1011D000DFF82881D8F8048008F48035920C0D2AB5
:1011E00001D0921C00E0062235B9DFF81C8102FB19
:1011F00008F8C0F8008033E0DFF80081D8F82C80D0
:1012000008F48036DFF8F480D8F82C8008F00F0856
:1012100008F1010446B9DFF8EC80B8FBF4F808FBEC
:1012200002F8C0F800801BE0DFF8D080D8F82C80EE
:10123000C8F3031808F10107DFF8C080D8F82C8044
:10124000C8F3032808F1020CDFF8B880B8FBF7F800
:1012500008FB0CF8B8FBF4F808FB02F8C0F80080B3
:1012600004E0DFF89C80C0F8008000BF00BFDFF81A
:101270008C80D8F8048008F0F0010909DFF88C8030
:1012800018F80130D0F8008028FA03F8C0F804807C
:10129000DFF86880D8F8048008F4E061090ADFF814
:1012A0006C8018F80130D0F8048028FA03F8C0F8F0
:1012B0000880DFF84880D8F8048008F46051C90A33
:1012C000DFF8488018F80130D0F8048028FA03F8D5
:1012D000C0F80C80DFF82480D8F8048008F440417E
:1012E000890BDFF82C8018F80130D0F80C80B8FB9F
:1012F000F3F8C0F81080BDE8F08100000010024053
:1013000000127A0040787D0100093D00A400002011
:10131000B400002021B1028842F04002028004E0C3
:1013200002884FF6BF731A40028070471AB1838853
:101330000B43838002E083888B438380704710B522
:101340000022028802F441520B884C8823438C8887
:101350002343CC8823430C8923434C8923438C8922
:101360002343CC8923431A430280838B4FF2FF74BB
:10137000234083830B8A038210BD70472DE9F84F09
:1013800005460C4616461F46DDE90A9A19480068CC
:1013900020B169460020174A126890474FF00008B4
:1013A0001CE099F80000216808702068401C20604B
:1013B000F1192068884200D1266020682968884297
:1013C00006D12868401CF1192860884200D12E609F
:1013D00008F101001FFA80F809F10109D045E0DBAE
:1013E0000448006820B169460120024A126890470B
:1013F000BDE8F88FA000002010B5034608681C68FF
:10140000A04204D908881C88001B80B210BD08685F
:101410001C68A04205D2088810441C88001B80B2BA
:10142000F4E70020F2E700002DE9F84304460E46F9
:1014300015461F46DDF820804FF00009134800686C
:1014400020B169460020114A12689047002088F8B0
:1014500000003068216888420CD02068007888F845
:1014600000004FF001092068401CE9192060884203
:1014700000D125600548006820B169460120034A73
:10148000126890474846BDE8F8830000A00000209D
:1014900002600A6070472DE9F05F04460D469046F1
:1014A0002846FFF736FA8146C84504D3A8EB090061
:1014B00000F1010A02E0FF20BDE8F09F00260027AE
:1014C0001CE020782978884216D14FF0010B0FE0FC
:1014D000761C4E4501D13846EEE7641C6D1C207821
:1014E0002978884204D0A41BAD1B0026B34602E035
:1014F000BBF1000FECD100BF641C7F1C5745E0D34B
:10150000FF20D9E710B500F001F810BD0CB50020A0
:10151000019000903F48006840F480303D490860E9
:1015200000BF3C48006800F4003000900198401C67
:101530000190009818B90198B0F5A06FF1D1354825
:10154000006800F4003010B10120009001E000209C
:101550000090009801285CD12F48006840F01000EE
:101560002D4908600846006820F00300086008461E
:10157000006840F00200086026484068254948603D
:101580000846406848600846406840F4806048600B
:101590000846C06A214908401E49C8620846C06A18
:1015A0001F4908431B49C8620846006840F0806034
:1015B000086000BF1748006800F000600028F9D0FC
:1015C0001448406820F47C1012494860084640687E
:1015D00040F4E81048600846006840F080700860F9
:1015E00000BF0C48006800F000700028F9D00948DE
:1015F000406820F00300074948600846406840F012
:101600000200486000BF0348406800F00C00082852
:10161000F9D10CBD001002400020024000F0FEFF96
:101620004406010010B5FFF7E9FB10BD10B51648E0
:10163000006840F0010014490860084640681349FA
:1016400008401149486008460068114908400E49A1
:1016500008600846006820F480200860084640685A
:1016600020F4FE0048600846006820F0A0500860A2
:101670004FF47F0088600020C862FFF743FF4FF0FF
:1016800000600449086010BD001002400000FFF037
:10169000FFFFF6FE08ED00E0F0B50C46154600220F
:1016A0000021068C4FF6FE773E400684028B018CAB
:1016B0004FF60C7632407E1C06EA03162E43324368
:1016C000104EB0420ED0104EB0420BD0B0F1804F51
:1016D00008D00E4EB04205D00D4EB04202D00D4E95
:1016E000B04206D14FF6FD76314044F00106314359
:1016F00005E04FF6F576314044F0010631430283B0
:101700000184F0BD002C0140003401400004004081
:1017100000080040000C0040F0B50C4615460022C1
:1017200000210026078C4FF6EF7C07EA0C070784A0
:10173000028B018C4FF6FF7707EA041640F6FF474D
:101740003A404FF6FF7707EA03373A434FF6FF7701
:1017500007EA05273A43114FB8420ED0104FB8425E
:101760000BD0B0F1804F08D00E4FB84205D00E4FCD
:10177000B84202D00D4FB84206D14FF6DF7739405C
:1017800046F01007394305E04FF65F77394044F0E3
:101790001007394302830184F0BD0000002C014092
:1017A000003401400004004000080040000C0040EC
:1017B000F0B50C461546002200210026078C4FF696
:1017C000FF6C07EA0C070784828B018C4FF6FF77CA
:1017D00007EA04264FF60C773A404FF6FF7707EA00
:1017E00003172F433A43114FB8420ED0104FB8425F
:1017F0000BD0B0F1804F08D00E4FB84205D00E4F3D
:10180000B84202D00D4FB84206D14FF6FF573940CB
:1018100046F48077394305E04FF2FF57394044F4EE
:101820008077394382830184F0BD0000002C0140A1
:10183000003401400004004000080040000C00405B
:10184000F0B50C461546002200210026078C4EF606
:10185000FF7C07EA0C070784828B018C4FF6FF7729
:1018600007EA043640F6FF473A404FF6FF7707EAAB
:1018700005273A434FF6FF7707EA03373A43114FFC
:10188000B8420ED0104FB8420BD0B0F1804F08D004
:101890000E4FB84205D00E4FB84202D00D4FB8429D
:1018A00006D14DF6FF77394046F48057394305E0BD
:1018B00047F6FF57394044F4805739438283018407
:1018C000F0BD0000002C0140003401400004004045
:1018D00000080040000C004010B501212F4800F026
:1018E00074F904212D4800F070F9002850D02B48DD
:1018F00000F068F92A49886008468068B42806D252
:10190000084680688C2802D90020887131E024487C
:1019100080683C2803D9224880685A2824D320486C
:101920008068872820D21E48806864281CD91C4AF9
:101930009079C21700EB5272D310194A0C32D25C64
:10194000174B9979CB1701EB5373DB10A1EBC30451
:10195000802323411A43124B9879C31700EB53732A
:10196000DC100F4B0C331A550D488079401C0C4984
:1019700088710B488079282806D10021074800F09B
:1019800021F80120064948710021044800F08DF932
:101990000521024800F013F810BD000000040040CB
:1019A000D000002010B5FEF7C1FF0121014800F072
:1019B00003F810BD00080040CA4302827047CA43C2
:1019C0000282704721B1028842F00102028004E0E5
:1019D00002884FF6FE731A400280704710B5044625
:1019E0006848844208D10121C014FFF7BBFB0021E5
:1019F000E014FFF7B7FBC4E0B4F1804F08D1012138
:101A00000846FFF78FFB00210120FFF78BFBB8E0B2
:101A10005D48844208D101210220FFF783FB0021A9
:101A20000220FFF77FFBACE05848844208D1012137
:101A30000420FFF777FB00210420FFF773FBA0E0F1
:101A40005348844208D101210820FFF76BFB002195
:101A50000820FFF767FB94E04E48844208D101213B
:101A60001020FFF75FFB00211020FFF75BFB88E0F1
:101A70004948844208D101212020FFF753FB00216F
:101A80002020FFF74FFB7CE04448844208D101212D
:101A90004014FFF767FB00216014FFF763FB70E061
:101AA0003F48844209D10121C804FFF75BFB0021B4
:101AB0004FF40020FFF756FB63E03A48844209D117
:101AC00001210805FFF74EFB00214FF48010FFF7BE
:101AD00049FB56E03448844209D101214805FFF70B
:101AE00041FB00214FF40010FFF73CFB49E02F4879
:101AF000844208D101214020FFF714FB002140203F
:101B0000FFF710FB3DE02A48844208D101218020E4
:101B1000FFF708FB00218020FFF704FB31E0254898
:101B2000844208D101218015FFF7FCFA0021A0159D
:101B3000FFF7F8FA25E02048844209D10121080482
:101B4000FFF710FB00214FF48030FFF70BFB18E08C
:101B50001A48844209D101214804FFF703FB002100
:101B60004FF40030FFF7FEFA0BE01548844208D12D
:101B700001218804FFF7F6FA00214FF48020FFF7D7
:101B8000F1FA10BD002C01400004004000080040A4
:101B9000000C0040001000400014004000340140E0
:101BA000004C01400050014000540140001800402A
:101BB000001C004000200040004001400044014063
:101BC000004801400146088F704730B502460020AA
:101BD00000230024158A05EA0103958905EA01041A
:101BE00013B10CB1012000E0002030BD70B50546F6
:101BF0000C46244885420ED0234885420BD0B5F1CF
:101C0000804F08D02148854205D02148854202D026
:101C10002048854200D100E000BF208850B92389C8
:101C2000A28861882846FFF737FDE188284600F042
:101C30003EF825E0208804280AD12389A2886188FB
:101C40002846FFF769FDE188284600F039F817E0DB
:101C5000208808280AD12389A28861882846FFF7AE
:101C6000A7FDE188284600F038F809E02389A2881A
:101C700061882846FFF7E4FDE188284600F036F841
:101C800070BD0000002C0140003401400004004001
:101C900000080040000C00401AB183890B43838187
:101CA00002E083898B438381704781847047028B74
:101CB0004FF6F3731A400283028B0A430283704784
:101CC000028B4FF2FF331A400283028B4FF6FF73F1
:101CD00003EA01231A4302837047828B4FF6F373A2
:101CE0001A408283828B0A4382837047828B4FF231
:101CF000FF331A408283828B4FF6FF7303EA01237E
:101D00001A43828370470000002202881D4B9842CC
:101D10000ED01D4B98420BD0B0F1804F08D01B4B1A
:101D2000984205D01A4B984202D01A4B984204D1DF
:101D30004FF68F731A404B881A43174B984207D0BF
:101D4000164B984204D04FF6FF431A40CB881A43F3
:101D500002808B8883850B8803850A4B98420BD0C1
:101D6000094B984208D00E4B984205D00D4B984233
:101D700002D00D4B984201D10B7A03860123838256
:101D800070470000002C0140003401400004004076
:101D900000080040000C004000100040001400400B
:101DA00000400140004401400048014010B540F2AD
:101DB00025510A4800F0C1F878B1084800F078F9D8
:101DC000C4B240F22551054800F086F80448006886
:101DD00018B1204602490968884710BD00500040EC
:101DE0005C0000200EB540F225510D4800F0A5F82A
:101DF000A0B10B4800F05CF9C0B2029040F225514E
:101E0000074800F069F8012002A940F20123054AC1
:101E1000CDE90010111F081FFFF7B0FA0EBD00003A
:101E2000003801405C0300207CB505460C4640F2BA
:101E300001220949081FFFF7DFFA2044B0F5007FAF
:101E400009DA40F20123044A121D111F081FCDE9CF
:101E50000054FFF793FA7CBD5803002008B540F208
:101E600025510D4800F069F8A8B140F225510A4803
:101E700000F032F8084800F01BF9C0B200900748A3
:101E8000006820B19DF800000449096888470121D5
:101E90006846FFF7C9FF08BD004400405400002019
:101EA00010B540F225510A4800F047F878B10848CB
:101EB00000F0FEF8C4B240F22551054800F00CF8DD
:101EC0000448006818B1204602490968884710BDD7
:101ED000004800405800002010B50022002340F6C2
:101EE0006A14A14200D100BF0A1201249440A3B297
:101EF000DC43048010BD21B1828942F4005282810A
:101F000004E082894DF6FF731A40828170471AB14E
:101F1000838A0B43838202E0838A8B4383827047E8
:101F200002460020B1F5007F00D100BF13880B40AE
:101F30000BB1012000E00020704770B5024600247C
:101F400000230025002040F66A16B14200D100BFF0
:101F5000C1F3421501F01F03012606FA03F3012D18
:101F600002D19689334006E0022D02D1168A334011
:101F700001E0968A33400C12012606FA04F4168812
:101F8000344013B10CB1012000E0002070BDF0B569
:101F90000346002400260025002040F66A17B942B7
:101FA00000D100BF1846C1F3421401F01F060127FB
:101FB00007FA06F5012C01D10C3004E0022C01D106
:101FC000103000E014301AB107682F43076002E0B8
:101FD0000768AF430760F0BD2DE9F04786B00546BE
:101FE0000E460024A24600BFA1460027B08900B1DA
:101FF00000BF2F462C8A4CF6FF700440F088044343
:102000002C82AC894EF6F3100440B0883189084325
:10201000718908430443AC81AC8A4FF6FF40044009
:10202000B0890443AC8201A8FFF7ACF81F4887428F
:1020300002D1DDF810A001E0DDF80CA0A88900F4C1
:10204000004040B10AEBCA0000EB0A1031684900B9
:10205000B0FBF1F807E00AEBCA0000EB0A103168A8
:102060008900B0FBF1F86420B8FBF0F0040120090E
:10207000642101FB1089A88900F4004040B132209E
:1020800000EBC900B0FBF1F000F00700044308E0EA
:10209000322000EB09106421B0FBF1F000F00F00DA
:1020A00004432C8106B0BDE8F087000000380140F1
:1020B00001468888C0F308007047C1F30802828097
:1020C000704700BFFEE700002DE9F04781460E464D
:1020D00017469846002413E004EBC40000EB4000D0
:1020E000094A811842464846FFF7D5F9C5B2FF2D87
:1020F00004D034703D700020BDE8F087601CC4B28D
:102100000C2CE9DBFF20F7E77CB900087CB505461D
:102110002E7800240CE0285D1149097801EBC102FA
:1021200002EB01110F4A02EBC1010855601CC4B259
:10213000B442F0DB01200A4911230B4ACDE900101B
:10214000111F081FFFF71AF905480078401C0449C1
:102150000870084600780A2801DB002008707CBD62
:10216000880000209C0E0020880E002070B5B2B0C0
:1021700005462E78701EC6B2002405E0601C285C5F
:102180000DF80400601CC4B2B442F7DB3146684667
:10219000FEF708FC32B070BD0C2913D2DFE801F065
:1021A000060708090A0D0E0C0F10110B0AE009E0D2
:1021B00008E007E006E005E004E003E002E001E0FB
:1021C00000E000BF00BF704710B5002001F05EFFC7
:1021D000FEF7A8FE10BD000010B5034801F090FA0C
:1021E000024801F00DFD10BD69400008854000085F
:1021F00000204FF4E15000BF011EA0F10100FBD10F
:102200007047000000B587B001210820FEF79AFF53
:1022100001211020FEF796FF012140F20120FEF778
:1022200091FF0120ADF8180000208DF81B0006A9D1
:102230001D48FEF77FFA0120ADF8180000208DF848
:102240001B0006A91948FEF775FA4FF44040FEF747
:102250003DFF002001908DF808008DF809004FF433
:10226000602003900020049002208DF8140001A942
:102270000F48FEF76BF801210D48FEF73AF80C48BD
:10228000FEF7E8F800BF0A48FEF755F80028FAD133
:102290000748FEF7EFF800BF0548FEF735F80028BD
:1022A000FAD107B000BD0000000C01400010014051
:1022B0000024014010B5FFF7A5FF00200549087074
:1022C00048704860886005200875002008744882BE
:1022D00010BD00006005002010B500F007FD0446A9
:1022E000072C0ED114480088401C1349088008466A
:1022F000008832281FDD0020088001200F49087067
:1023000019E0062C17D00E480078844210D00D48F2
:102310000078401C0B4908700846007803280ADD45
:10232000002008700648047000780449087502E02F
:1023300000200449087010BD6200002060050020E4
:10234000640000206500002010B500F019F8024874
:10235000FEF74CFD10BD00005D23000870B504467B
:102360000D4624B900F066FD287072B606E0012C17
:1023700004D1287808B162B600E072B670BD0000E2
:1023800030B5144800686422B0FBF2F1B1F1807FEF
:1023900000D31DE021F07F40401E4FF0E02250614D
:1023A00050170F22002807DA13071D0E0A4B00F002
:1023B0000F04241F1D5503E013071C0E074B1C546C
:1023C00000BF00204FF0E02290610720106100BFA5
:1023D00030BD00006800002018ED00E000E400E0DF
:1023E00070B500EB40040B4D05F82430002400EBE1
:1023F0004005084E06EB85056C8000EB4004354631
:1024000005EB8404A28000EB400405EB8404A1608A
:1024100070BD0000B80000200649496C21F00101A0
:10242000044A516411468864496C41F001015164C9
:10243000704700000000024000B58DB00121084641
:10244000FEF750FE1A48FEF74DF81A4801901A4858
:1024500002901020039040010490002005908020FD
:10246000069000200790089009904FF400500A90C1
:1024700000200B9001A90E48FEF7F9F80122022175
:102480000B48FEF7EBF84FF4A060FEF7A5FC0E201A
:102490008DF8300006208DF8310000208DF83200D4
:1024A00001208DF833000CA8FEF75EFC0DB000BDD6
:1024B00044000240043801405401002010B520219E
:1024C0000148FEF71FFA10BD0008014010B5202199
:1024D0000148FEF715FA10BD0008014010B50221B1
:1024E0000148FEF7FBF910BD000C014010B51021AA
:1024F0000148FEF707FA10BD0010014010B533483F
:102500000068401C3149086008460068B0F5967FB5
:1025100004D90020086001202D4908712C48007959
:1025200030B1012805D002280CD004284CD123E07A
:102530004AE000F0A3FA022025490871012000F0CA
:1025400071FA41E080212348FEF7DCF9002000F019
:1025500069FA00F093FA04201D49087147214FF6EB
:10256000FF7000F005FE01211B48FFF72BFA002148
:102570001948FFF79AFB27E015484079012822D136
:1025800000201349487108710846047B407B2044B1
:10259000C4B20846807B2044C4B20846C07B2044B5
:1025A000C4B20846007CA0420DD10846417B007BA6
:1025B00001EB0020064948800846C17B807B01EB87
:1025C00000200349088000BF00BF10BD3400002078
:1025D000D0000020000801400004004001480088AD
:1025E00070470000D000002001484088704700007C
:1025F000D000002008B501210420FEF7A3FD012131
:102600000820FEF79FFD01211020FEF79BFD102002
:10261000ADF8000002208DF8020010208DF80300B4
:1026200069461148FEF786F82020ADF80000022028
:102630008DF8020010208DF8030069460B48FEF764
:1026400079F80220ADF8000004208DF803006946F7
:102650000748FEF76FF8FFF741FF06490870FFF7DC
:1026600045FFFFF733FF08BD00100140000801409F
:10267000000C01400000002010B5FFF72FFF0446BA
:10268000FFF7B6FD0D480078844203D100200C49C5
:10269000087010E00948007884420CD0084800789F
:1026A000401C0749087008460078142803DD002004
:1026B0000870024804700148007810BD0000002036
:1026C0000100002008B501210820FEF73BFD4FF472
:1026D0004070ADF8000003208DF8020014208DF842
:1026E000030069460448FEF725F8012000F018F8B9
:1026F000012000F003F808BD000C014010B50446AD
:102700002CB14FF480710548FEF7FCF804E04FF45B
:1027100080710248FEF7F4F810BD0000000C014083
:1027200010B504462CB14FF400710548FEF7EAF8E5
:1027300004E04FF400710248FEF7E2F810BD00001B
:10274000000C01407FB500200090019002900390A2
:10275000684600F0E5F800247DE0FF2500264048AB
:10276000005D05286AD2DFE800F0030A2746620010
:102770001DF8040010B10120394908555EE01DF82C
:10278000040088B1374830F81400401E80B2354943
:1027900021F8140078B9032021F8140002203049F0
:1027A00008552546012606E003202E4921F814008D
:1027B00000202B49085541E01DF8040088B12A4843
:1027C00030F81400401E80B2274921F8140088B95F
:1027D000C82021F814000320214908552546032666
:1027E00008E0C820204921F8140004201C4908559D
:1027F0002546022622E01DF8040048B904201849A5
:1028000008559620194921F81400254605260DE0A3
:10281000164830F81400401E80B2144921F8140004
:1028200020B9962021F814002546042606E01DF85C
:10283000040010B900200A49085500BF00BFFF2D51
:1028400007D00B48006820B131462846084A126874
:102850009047601CC4B2102CFFF67FAF7FBD000014
:10286000E4000020F40000201401002034010020C6
:102870004C00002010B54FF480410D48FEF737F8AA
:10288000C0F10100C4B222464FF480410848FEF76F
:102890003BF84FF400410648FEF729F8C0F101006B
:1028A000C4B222464FF400410148FEF72DF810BD96
:1028B0000010014008B501211020FEF743FC4FF441
:1028C0004040ADF8000002208DF8020010208DF885
:1028D000030069460648FDF72DFF4FF48041044888
:1028E000FEF70EF84FF400410148FEF70BF808BD63
:1028F0000010014010B5FFF7BDFF0221002000F0DD
:102900006DF810BD10B5FFF7D5FF022344F6206225
:1029100002490020FFF764FD10BD0000F528000803
:1029200070B50446002500260AE06806050E254914
:1029300051F82600804708B145F00105701CC6B269
:10294000052EF2DB112D3AD2DFE805F039090C0F24
:102950001215181B1E2124272A2D30333600012082
:1029600020702CE00120607029E00120A07026E09A
:102970000120E07023E00120207120E0012060713F
:102980001DE00120A0711AE00120E07117E0012094
:10299000207214E00120607211E00120A0720EE0AC
:1029A0000120E0720BE00120207308E00120607339
:1029B00005E00120A07302E00120E07300BF00BF2A
:1029C00070BD00003800002010B54FF4806102484F
:1029D000FDF798FF10BD00000010014010B5024641
:1029E00002EB4200094B03EB8000806858B102EB18
:1029F000420003F82010002002EB4203034C04EBDA
:102A00008303588010BD0120FCE70000B8000020BF
:102A100008B50020F0234FF4A07201460090FEF7A5
:102A200009F808BD38B5044601210420FEF78AFBE9
:102A3000012C11D18020ADF8000003208DF8020098
:102A400010208DF8030069460B48FDF773FE8021C6
:102A50000948FDF755FF0DE08020ADF80000482043
:102A60008DF8030069460448FDF764FE80210248A2
:102A7000FDF746FF38BD0000000801400020044972
:102A800048718871886008460021C16001747047F0
:102A9000D000002010B500F05FFCFFF7CDFC002057
:102AA000064908700649086006490860064908603A
:102AB000064A111F081FFEF7EBFC10BD5000002056
:102AC00054000020580000205C0000205C0300201F
:102AD00010B500F015FC06480088401C0449088029
:102AE00008460088B0F5967F01DB0020088010BD05
:102AF000600000203EB543E02748008840F21B31CB
:102B0000884203DB0020244908803EBD224801881A
:102B10000088401C204A10802048084440F20143AD
:102B20001F4A111F0090081FFEF77EFC1A480088FC
:102B3000401E1A49085C0D2822D10A211648028835
:102B40000088401C144B1880144881541846008893
:102B500002280FDD1846038801AA02A90F48FFF7D3
:102B6000B3FA044634B90C4802889DF808100B48A3
:102B7000FFF712FB09480021016000200649088088
:102B800040F201420649091F081FFEF735FC0128E3
:102B9000B2DC00BFB9E700008A0000206C160020FC
:102BA0007C0A00200EB51D480068401C1B490860C7
:102BB00008460068C8280BD900200860FF20019053
:102BC00001A9012001F05EF901A9022001F05AF9E2
:102BD00011221349081FFEF70FFCF0B111480068DD
:102BE000401C10490860084600680A2815D90020D2
:102BF000086002A811230A4A121D111F0090081F25
:102C0000FEF712FC9DF8081001EBC10202EB011166
:102C1000054A02EBC100FFF7A9FA0EBD90000020A3
:102C2000840E00208C0000209C0E002008B501219D
:102C30001020FEF787FA01210420FEF783FA012114
:102C40000846FEF77FFA0620ADF8000003208DF855
:102C5000020010208DF8030069461548FDF76AFD53
:102C60000120ADF8000003208DF8020004208DF84B
:102C7000030069460F48FDF75DFD0820ADF8000030
:102C800003208DF8020004208DF8030069460848EF
:102C9000FDF750FD02210648FDF734FE04210448EB
:102CA000FDF730FE01210348FDF72CFE08BD0000B2
:102CB000001001400008014010B50446072301221E
:102CC00021460948FDF76AFB01210748FDF7C7FBCC
:102CD00000BF02210448FDF725FB0028F9D0024877
:102CE000FDF71CFB10BD00000024014010B5344866
:102CF000007830B101280BD0022826D003285CD1FF
:102D000034E000202E49487048608860072010BDDC
:102D10000820FFF7D1FF2A4949680844284948603C
:102D20000A20FFF7C9FF26498968084424498860BA
:102D300008464078401C4870084640780A2803DB63
:102D4000002048700220087037E01D4880680A2182
:102D5000B0FBF1F01A498881084640680A21B0FBAF
:102D6000F1F01749C8810320087026E000201449BB
:102D700008700846C089FA2148431149898990FBA7
:102D8000F1F04400B4F5C87F01D90520BFE7B4F5E0
:102D9000C37F01D90420BAE7B4F5C87F01D9032065
:102DA000B5E7B4F5B97F01D90220B0E7B4F5B47F37
:102DB00001D90120ABE70020A9E700BF0620A6E764
:102DC000600500200148007D70470000600500207C
:102DD00010B5FFF777FC10BD10B540210148FDF795
:102DE0007DFD10BD0010014010B580210148FDF7A8
:102DF00075FD10BD0010014010B54FF48071024800
:102E0000FDF76CFD10BD00000010014010B54FF43F
:102E100000710248FDF762FD10BD00000010014086
:102E200010B54FF480710248FDF758FD10BD000049
:102E30000008014000BFEFF3108008B9012070477F
:102E40000020FCE708B501211420FEF77BF94FF4C0
:102E50008070ADF8000048208DF8030069460748EF
:102E6000FDF768FC4FF47070ADF8000048208DF855
:102E7000030069460248FDF75DFC08BD00080140FB
:102E80000010014010B500200C490860FFF7DAFF80
:102E9000002410E000200A4908550320094921F8C0
:102EA0001400C820084921F814009620074921F889
:102EB0001400601CC4B2102CECDB10BD4C000020D0
:102EC000E4000020F4000020140100203401002060
:102ED00010B54FF400410248FDF714FD10BD00008D
:102EE0000008014010B54FF400410248FDF708FD0D
:102EF00010BD00000008014010B504462CB14FF48D
:102F000080510548FDF7FEFC04E04FF48051024873
:102F1000FDF7F6FC10BD0000000C014000B587B0C5
:102F200001218803FEF7EEF801210820FEF70AF9D7
:102F300001210846FEF706F94FF46040ADF80400A1
:102F400003208DF8060018208DF8070001A91F48FE
:102F5000FDF7F0FB4FF48050ADF8040003208DF82E
:102F6000060010208DF8070001A91848FDF7E2FBC4
:102F70004FF480511548FDF7C5FC0020ADF808005E
:102F80004FF48270ADF80A000020ADF80C0002206A
:102F9000ADF80E000120ADF810004002ADF81200AF
:102FA0001020ADF814000020ADF816000720ADF891
:102FB000180002A90648FEF7C2F901210448FEF7ED
:102FC000A9F90120FFF798FF07B000BD000C0140F0
:102FD0000038004010B5FFF791FAFFF7B3FBFFF799
:102FE00077FDFFF779F910BD10B500F05BF9FFF739
:102FF00001FBFFF787FC00F0FFFA00F075F9FFF71F
:1030000041FFFFF747FDFFF763FDFFF753F9FFF7B8
:10301000DFFE10BD00B591B00121C803FEF772F8C4
:1030200001210220FEF75EF801211D20FEF78AF83B
:1030300001214648FDF70AFC4FF40040ADF82C0092
:1030400010208DF82F0003208DF82E000BA940488A
:10305000FDF770FB4FF400413D48FDF753FC502055
:10306000ADF82C0010208DF82F0003208DF82E00D5
:103070000BA93848FDF75EFB50213648FDF742FCAE
:103080004FF48060ADF82C0010208DF82F00032045
:103090008DF82E000BA93048FDF74CFB4FF48061F2
:1030A0002D48FDF72DFC2820ADF82C0003208DF8CD
:1030B0002E0018208DF82F000BA92648FDF73AFBAB
:1030C0004FF44040ADF830004FF48270ADF832005C
:1030D0000020ADF834000220ADF836000120ADF834
:1030E00038004002ADF83A000020ADF83C00ADF8E1
:1030F0003E000720ADF840000CA91848FEF71FF964
:103100001748FDF7EFF915480C3000901020029099
:1031100080010390002004908020059000200690FC
:10312000079008904FF48050099000200A9069465B
:103130000B48FDF79CFA012202210848FEF7F6F839
:1031400001210648FEF7E6F811B000BD000230008C
:1031500000080140000C014000100140003C00400C
:103160001C04024000BF011EA0F10100FBD170470A
:1031700030B589B005460C4601210220FDF7C2FF9B
:1031800001210420FDF7DEFF8020ADF82000102093
:103190008DF8230003208DF8220008A91F48FDF7B1
:1031A000C9FA80211D48FDF7ADFBADF80C50ADF814
:1031B00008400020ADF80E00ADF80A0002A918483A
:1031C000FEF7A2FD0420ADF814000220ADF81600B1
:1031D0000120ADF818000020ADF81A00ADF81C0071
:1031E00005A90F48FEF702FD1D208DF804000220FE
:1031F0008DF8050000208DF8060001208DF80700ED
:1032000001A8FDF7B1FD012205210548FEF744FDA7
:1032100000210348FEF7D6FB09B030BD000801408D
:10322000000400401FB501210420FDF76BFF1A4880
:10323000FEF7D4FB3220ADF80800184800681849A2
:10324000B0FBF1F0401E80B2ADF804000020ADF8F4
:103250000A00ADF8060001A90F48FEF755FD01224E
:1032600011460D48FEF718FD01210B48FEF7AAFB99
:103270004FF4A060FDF7B0FD1E208DF80000002087
:103280008DF8010003208DF8020001208DF8030065
:103290006846FDF769FD1FBD00080040680000207A
:1032A00040420F0010B5FFF7BDFF002417E00120DA
:1032B00004EB44010B4A02F82100002004EB440116
:1032C00002EB8101488004EB440102EB810188801C
:1032D00004EB440102EB81018860601CC4B2022C43
:1032E000E5DB10BDB800002010B5002003490880C0
:1032F000488008714721FFF73BFF10BDD000002038
:1033000038B51248007800B138BD40F201221049AA
:10331000081FFEF771F8054600240BE00D48204415
:1033200040F201230A4A121D111F0090081FFEF7E8
:103330007BF8641CAC42F1D32DB12846FFF76CF842
:1033400001200249087000BFDEE7000050000020A5
:10335000580300205401002000B587B0012104204B
:10336000FDF7F0FE01210820FDF7ECFE0121102001
:10337000FDF7E8FE01212020FDF7E4FE012188038E
:10338000FDF7E0FE01214804FDF7BCFE01218804A1
:10339000FDF7B8FE01210805FDF7B4FE4FF40070FB
:1033A000ADF8180018208DF81B0003208DF81A00C6
:1033B00006A97548FDF7BEF94FF48060ADF8180016
:1033C00004208DF81B0003208DF81A0006A96E4812
:1033D000FDF7B0F90420ADF8180018208DF81B0097
:1033E00003208DF81A0006A96748FDF7A3F9082005
:1033F000ADF8180004208DF81B0003208DF81A008A
:1034000006A96148FDF796F94FF48060ADF8180001
:1034100018208DF81B0003208DF81A0006A95B48C0
:10342000FDF788F94FF40060ADF8180004208DF81E
:103430001B0003208DF81A0006A95448FDF77AF9FD
:103440004FF48050ADF8180018208DF81B000320B1
:103450008DF81A0006A94E48FDF76CF90420ADF866
:1034600018008DF81B0003208DF81A0006A94948A2
:10347000FDF760F94FF4E13002900020ADF80C0048
:10348000ADF80E00ADF81000ADF814000C20ADF84A
:10349000120002A94048FEF79FFD02A93F48FEF72F
:1034A0009BFD02A93E48FEF797FD02A93D48FEF7A5
:1034B00093FD25208DF8040003208DF805008DF87C
:1034C000060001208DF8070001A8FDF74DFC26201D
:1034D0008DF8040004208DF8050003208DF8060007
:1034E00001208DF8070001A8FDF73EFC27208DF88C
:1034F000040005208DF8050003208DF8060001204A
:103500008DF8070001A8FDF72FFC35208DF8040089
:1035100005208DF8050006208DF8060001208DF8A5
:10352000070001A8FDF720FC012240F225511A48AE
:10353000FEF72DFD012240F225511848FEF727FD28
:10354000012240F225511648FEF721FD012240F2EA
:1035500025511448FEF71BFD01210F48FEF7CBFC57
:1035600001210E48FEF7C7FC01210D48FEF7C3FC00
:1035700001210C48FEF7BFFC012280210648FEF71E
:10358000C6FC07B000BD000000080140000C01406F
:103590000010014000140140003801400044004088
:1035A00000480040005000400249096809B901493B
:1035B00008607047580000200249096809B90149AC
:1035C000086070475C00002070B504460D462E462A
:1035D0000DE021780748FEF770FD00BF4021054847
:1035E000FEF79EFC0028F9D0641C701EC6B2002EA7
:1035F000EFD170BD0050004010B5FFF717FB04215C
:103600000748FDF77FF902210548FDF77BF9002007
:103610000449087004490870FF200449087010BD6F
:10362000001001402A0000202B0000202C00002068
:1036300010B5FEF789FEFDF755FCFFF7D5FC012319
:103640001A460C490020FDF70DFC00F0E9FA0123B1
:103650001A4609491846FDF705FCFEF7BDFD012392
:103660001A4606490220FDF7FDFBFDF71DFC002070
:1036700010BD0000D52F0008113C0008C92100082A
:1036800010B5002002490860FEF720FF10BD0000C1
:103690009400002010B5FDF733F810BD78B5024650
:1036A0000B464FF6FF70002414E012F8011B81EA6C
:1036B000000505F00F050F4E36F8155085EA20106D
:1036C00080EA211505F00F0536F8155085EA20101F
:1036D000651CACB29C42E8D3C5B28DF80050050A17
:1036E0008DF801509DF801509DF8006045EA0620D4
:1036F00078BD000088B5000810B5FFF70FFC10BDBD
:103700000249096809B90149086070478000002032
:103710007CB54248007810BB40F201124049081FB6
:10372000FDF76AFE01281ADD01A840F201133C4AA8
:10373000121D111F0090081FFDF776FE9DF8040072
:10374000FE280CD1354840F20113354A121D111FD5
:103750000090081FFDF768FE0020324908702F48CE
:103760000078002858DD40F201122D49081FFDF7AE
:1037700043FE2A490978884241DD284800786328B9
:1037800009DD274A121D111F081FFDF781FE0020C9
:10379000224908707CBD0025002410E02248204406
:1037A00040F201131E4A121D111F0090081FFDF761
:1037B0003BFE1D48005D2844C5B2601CC4B21748DA
:1037C00000788442EADB01A840F20113144A121D7A
:1037D000111F0090081FFDF727FE9DF80400A84266
:1037E00009D10E480178104800F04AF80B480178DA
:1037F0000D48FEF719FB0020084908700CE0094845
:103800000078401C07490870084600780A2803DB46
:10381000002008700149087000BFBBE78400002049
:10382000FC07002085000020100A002030B5C1B040
:1038300040F201120E49081FFDF7DEFDC5B2002D52
:1038400014DD00240CE001A8204440F20113084AD2
:10385000121D111F0090081FFDF7E6FD601CC4B289
:10386000AC42F0DB294601A8FFF7AEFE41B030BD07
:103870000809002010B5FFF7D9FFFFF749FF10BD79
:10388000F0B587B004460D46012D7DDD20788DF81A
:10389000080060788DF80900A1788DF80A109DF86D
:1038A00008000A2874D2DFE800F07305525354551B
:1038B00056575859102D49D1E0788DF80B002179D1
:1038C0008DF80C1061798DF80D10A1798DF80E101E
:1038D000E1798DF80F10217A8DF81010617A8DF84A
:1038E0001110A17A8DF81210E17A8DF81310217B56
:1038F0008DF81410617B8DF81510A17B8DF81610D2
:10390000E07B8DF817000C210DF10B00FFF7C6FED0
:1039100006469DF809109DF80A0041EA0020B042D1
:1039200014D11D48006888B1059800900120DFF887
:1039300068C002A90EC9DCF800C0E04706909DF8F7
:103940001800012802D102A900F03CF820E000BFD5
:1039500000BF00BF00BF00BF00BF00BF032D16D1D6
:103960000E48006898B1059800909DF80800DFF8AF
:103970002CC002A90EC9DCF800C0E047074637B1E9
:103980009DF8080002A900E003E000F01BF800BF6A
:1039900000BF07B0F0BD0000800000207C000020C8
:1039A0003EB504460294012002A940F20113044AE4
:1039B000CDE90010111F081FFDF7E0FC3EBD00001F
:1039C00000080020F0B58DB007460D463E46FE20AB
:1039D0008DF800000124062E7DD006DC062E7BD259
:1039E000DFE806F0C50C8A8B8C8D072E75D0082E6B
:1039F00074D0092E73D0FF2E6ED185E010222046A0
:103A0000611CCCB20DF8002006F18000C2B2204645
:103A1000611CCCB20DF800206A782046611CCCB243
:103A20000DF80020AA782046611CCCB20DF80020C9
:103A3000EA782046611CCCB20DF800202A79204695
:103A4000611CCCB20DF800206A792046611CCCB212
:103A50000DF80020AA792046611CCCB20DF8002098
:103A6000EA792046611CCCB20DF800202A7A204663
:103A7000611CCCB20DF800206A7A2046611CCCB2E1
:103A80000DF80020AA7A2046611CCCB20DF8002067
:103A9000EA7A2046611CCCB20DF800202A7B204631
:103AA000611CCCB20DF800206A7B2046611CCCB2B0
:103AB0000DF80020AA7B2046611CCCB20DF8002036
:103AC000EA7B2046611CCCB20DF80020A01EC1B2DA
:103AD0000DF1020004E013E049E012E012E012E010
:103AE00000F062F82146621CD4B20DF801002146B4
:103AF000684600F03FF83AE000BF00BF00BF00BFDB
:103B000000BF00BF00BF00BF03222046611CCCB233
:103B10000DF80020FF2E06D1FF222046611CCCB2FA
:103B20000DF8002007E006F18000C2B22046611CBB
:103B3000CCB20DF800206A782046611CCCB20DF89A
:103B40000020AA782046611CCCB20DF80020A01EEF
:103B5000C1B20DF1020000F027F82146621CD4B278
:103B60000DF801002146684600F004F800BF00BFD0
:103B70000DB0F0BD7CB505460C462E4640F2011254
:103B80000849081FFDF738FC2044FF2809DC40F2F3
:103B90000113044A121D111F081FCDE90064FDF72F
:103BA000EDFB7CBD0809002010B502460020002373
:103BB00005E014780444E0B2521C5C1CE3B28B4272
:103BC000F7DB10BD10B5094A111F081FFDF760FC97
:103BD000074A111F081FFDF75BFC0020054908601C
:103BE000054908600548FFF7E7FC10BD0008002004
:103BF0000C0900207C00002080000020A139000872
:103C00000249096809B90149086070477C00002031
:103C100010B5FFF72FFE00F0C7F9FFF73BFD10BD11
:103C200010B5FFF769FD00F007F8FFF7CBFF00F0D4
:103C300089F9FFF725FD10BD0EB5FFF7EBF942F24C
:103C40001070FFF78FFAFFF74DF942F21070FFF78F
:103C500089FAFFF73DF96420FFF784FA1120FDF798
:103C600063F842F21070FFF77DFA3620FDF75CF83A
:103C7000A020FDF753F83A20FDF756F80520FDF790
:103C80004DF8B220FDF750F80C20FDF747F80C2056
:103C9000FDF744F80020FDF741F83320FDF73EF82A
:103CA0003320FDF73BF8B720FDF73EF83520FDF750
:103CB00035F8BB20FDF738F83520FDF72FF8C02088
:103CC000FDF732F82C20FDF729F8C220FDF72CF87B
:103CD0000120FDF723F8C320FDF726F81320FDF798
:103CE0001DF8C420FDF720F82020FDF717F8C620A6
:103CF000FDF71AF80F20FDF711F8CA20FDF714F8A8
:103D00000F20FDF70BF8C820FDF70EF80820FDF78F
:103D100005F85520FDF708F89020FCF7FFFFD020AC
:103D2000FDF702F8A420FCF7F9FFA120FCF7F6FF4D
:103D3000E020FCF7F9FFD020FCF7F0FF0020FCF7B3
:103D4000EDFF0620FCF7EAFF0920FCF7E7FF0B2058
:103D5000FCF7E4FF2A20FCF7E1FF3C20FCF7DEFF44
:103D60005520FCF7DBFF4B20FCF7D8FF0820FCF7C1
:103D7000D5FF1620FCF7D2FF1420FCF7CFFF192047
:103D8000FCF7CCFF2020FCF7C9FFE120FCF7CCFFBB
:103D9000D020FCF7C3FF0020FCF7C0FF0620FCF793
:103DA000BDFF0920FCF7BAFF0B20FCF7B7FF292065
:103DB000FCF7B4FF3620FCF7B1FF5420FCF7AEFF50
:103DC0004B20FCF7ABFF0D20FCF7A8FF1620FCF7FB
:103DD000A5FF1420FCF7A2FF2120FCF79FFF202065
:103DE000FCF79CFF2920FCF79FFFFEF7EDFDFEF797
:103DF0000FFE002000904FF6FF731022012101906A
:103E00000846FCF7FDFE002000904FF6FF730F22DE
:103E1000012101902120FCF7F3FE002000904FF6D5
:103E2000FF73032201210190FA20FCF7E9FE002034
:103E300000904FF6FF730422012101904FF48D7022
:103E4000FCF7DEFE002000904FF6FF7312220121E6
:103E50000190D220FCF7D4FE00203021CDE90001F2
:103E60004FF6FF7304A2642102904620FCF728FF5E
:103E700000F0A0F80EBD00002044495341524D20EF
:103E80000000000070B5B2B006460D460E2E45DAB1
:103E9000002440E0C6EBC60000EB8000204901EBA7
:103EA0004000005D50B1C6EBC60000EB800001EBA6
:103EB0004000015D601C0DF800102BE02878FF2801
:103EC00016D0082E0AD105E02978601C0DF80010E4
:103ED000641C6D1C2878FF28F6D109E005E02978DC
:103EE000601C0DF80010641C6D1C28780028F6D1A9
:103EF0000D21601C0DF80010641C0A21601C0DF8D7
:103F00000010641C601CC0B28DF800006846FEF70B
:103F1000FDF802E0641C462CBCD300BF32B070BD7B
:103F2000A8B5000801B582B0012002A940F2014302
:103F3000034ACDE90010111F081FFDF71FFA0EBD3F
:103F40007C0A002010B5124A111F081FFDF7A0FAC5
:103F5000104A111F081FFDF79BFA0F48FFF724FBBB
:103F600000200E49087000240BE004EBC40101EBB3
:103F700004110B4A02EBC100C821FCF757F9601C81
:103F8000C4B20A2CF1DB07480021016010BD00001B
:103F90007C0A0020880E0020253F000888000020B1
:103FA0009C0E00206C16002010B5FEF7A3FDFEF756
:103FB000F9FD10BD00B587B032208DF80C0030201F
:103FC0008DF80D0032208DF80E0033208DF80F0093
:103FD0002D208DF8100031208DF811008DF8120081
:103FE0002D208DF8130030208DF8140032208DF82C
:103FF000150000208DF816001821CDE900014FF6BC
:10400000FF7303AAC82102901420FCF759FE312047
:104010008DF80C008DF80D003A208DF80E0033203D
:104020008DF80F0030208DF8100000208DF8110061
:104030001821CDE900014FF6FF7303AAC8210290B1
:10404000A020FCF73DFE00201821CDE900014FF62D
:10405000FF7304A2C82102904FF48270FCF730FE77
:1040600007B000BD4D6F6E0018B5044602208DF8F4
:104070000000012C02D101208DF80000BDF80010D5
:10408000084618BD10B50446012010BD70B586B0B5
:1040900005460026FEF7A2FA60490988884204D046
:1040A000FEF79CFA5D4908800126FEF79DFA5C49FF
:1040B0000988884204D0FEF797FA594908800126FA
:1040C00005B10126012E7DD10024544800886328C3
:1040D00010DD52480088B0F57A7F0BDA4F4800882F
:1040E000642190FBF1F03030C2B22046611CCCB2AA
:1040F00004A90A5449480088642190FBF1F201FBAD
:1041000012000A2190FBF1F03030C2B22046611C4F
:10411000CCB204A90A542E222046611CCCB204A9B8
:104120000A543E4800880A2190FBF1F201FB12007C
:104130003030C2B22046611CCCB204A90A542122FC
:104140002046611CCCB204A90A5400222046611CFE
:10415000CCB204A90A5400201821CDE900014FF681
:10416000FF7304AA032102904620FCF7A9FD002456
:104170002B480088632810DD29480088B0F57A7F35
:104180000BDA27480088642190FBF1F03030C2B28E
:104190002046611CCCB204A90A542148008864213D
:1041A00090FBF1F201FB12000A2190FBF1F030309C
:1041B000C2B22046611CCCB204A90A542E22204669
:1041C000611C00E028E0CCB204A90A54144800881D
:1041D0000A2190FBF1F201FB12003030C2B22046FE
:1041E000611CCCB204A90A5425222046611CCCB221
:1041F00004A90A5400222046611CCCB204A90A5426
:1042000000201821CDE900014FF6FF7304AA032115
:1042100002908720FCF754FD06B070BD9A00002084
:1042200098000020000000000000000000000000D6
:1042300000000404040404000004000014140A0034
:10424000000000000000000000000A0A1F0A0A1F08
:104250000A0A000000040E1505060C14150E0400D1
:10426000000012150D152E2C2A1200000000040A61
:104270000A36151529160000020201000000000090
:1042800000000000100808040404040408081000DA
:1042900002040408080808080404020000000004DE
:1042A000150E0E150400000000000008083E080866
:1042B00000000000000000000000000002020100F9
:1042C00000000000003F00000000000000000000AF
:1042D0000000000000020000002010100808040484
:1042E0000202010000000E1111111111110E000047
:1042F0000000040604040404040E000000000E1173
:1043000011080402011F000000000E11100C101013
:10431000110E00000000080C0C0A091F081C000008
:1043200000001F01010F1110110E000000000C12FF
:10433000010D1311110E000000001E1008080404E6
:104340000404000000000E11110E1111110E0000E6
:1043500000000E11111916100906000000000000DF
:104360000400000000040000000000000004000041
:1043700000040400000010080402020408100000F9
:10438000000000003F003F000000000000000204A9
:10439000081010080402000000000E1111080404A7
:1043A0000004000000001C22292D2D1D221C0000ED
:1043B000000004040C0A0A1E1233000000000F1251
:1043C000120E1212120F000000001E110101010155
:1043D000110E000000000F1212121212120F000034
:1043E00000001F120A0E0A02121F000000001F1216
:1043F0000A0E0A020207000000001C120101391116
:10440000120C000000003312121E121212330000B0
:1044100000001F0404040404041F000000003E0800
:104420000808080808080907000037120A060A12D7
:10443000123700000000070202020202223F0000C1
:1044400000003B1B1B1B15151535000000003B121F
:1044500016161A1A1217000000000E111111111170
:10446000110E000000000F12120E020202070000DF
:1044700000000E1111111117190E180000000F1273
:10448000120E0A121237000000001E110106081059
:10449000110F000000001F1504040404040E0000A6
:1044A0000000331212121212120C0000000033121C
:1044B000120A0A0C040400000000151515150E0A56
:1044C0000A0A000000001B0A0A04040A0A1B000072
:1044D00000001B0A0A0A0404040E000000001F0961
:1044E00008040402121F00001C0404040404040451
:1044F00004041C0000020204040408080810100050
:104500000E0808080808080808080E00040A000039
:10451000000000000000000000000000000000009B
:104520000000003F02040000000000000000000046
:1045300000000000000C121C123C000000030202EC
:10454000020E1212120E000000000000001C1202E7
:10455000120C000000181010101C1212123C000067
:1045600000000000000C121E021C000000182404B1
:10457000041E0404041E000000000000003C120C95
:10458000021C221C00030202020E1212123700004B
:104590000004040000060404040E000000080800E3
:1045A000000C08080808080700030202021A0A069D
:1045B0000A1300000007040404040404041F00009C
:1045C00000000000000F1515151500000000000088
:1045D000000F12121237000000000000000C12122F
:1045E000120C000000000000000F1212120E020751
:1045F00000000000001C1212121C10380000000005
:10460000001B06020207000000000000001E020C52
:10461000101E000000000004041E0404041C00001E
:1046200000000000001B1212123C000000000000FD
:10463000001B0A0A04040000000000000015150E0B
:104640000A0A000000000000001B0A040A1B000008
:1046500000000000003312120C08040300000000E8
:10466000001E0804041E000018080808080C0808AA
:1046700008081800080808080808080808080808B2
:1046800006040404040804040404060016090000D7
:10469000000000000000000000000000000000001A
:1046A00000000000000000000000000808080808E2
:1046B000080800001818000000486C2412000000D0
:1046C00000000000000000000000002424247F12ED
:1046D00012127F12121200000000081C2A2A0A0C73
:1046E0001828282A2A1C080800000022251515155C
:1046F0002A585454542200000000000C1212120ACE
:1047000076252911916E00000006060403000000C2
:104710000000000000000000004020101008080801
:1047200008080810102040000002040808101010AB
:1047300010101008080402000000000008086B1C9C
:104740001C6B0808000000000000000008080808B2
:104750007F080808080000000000000000000000BA
:104760000000000006060403000000000000000036
:10477000FE0000000000000000000000000000003B
:1047800000000000060600000000804040202010CD
:1047900010080804040202000000001824424242EB
:1047A0004242424224180000000000080E08080897
:1047B00008080808083E00000000003C4242422071
:1047C00020100804427E00000000003C42422018F5
:1047D00020404042221C00000000002030282424F9
:1047E00022227E20207800000000007E0202021AB1
:1047F00026404042221C0000000000382402021A19
:1048000026424242241800000000007E222210109E
:1048100008080808080800000000003C4242422442
:1048200018244242423C0000000000182442424248
:1048300064584040241C00000000000000001818CC
:104840000000000018180000000000000000000830
:1048500000000000000808040000004020100804C8
:1048600002040810204000000000000000007F004B
:1048700000007F000000000000000002040810207B
:1048800040201008040200000000003C4242464064
:1048900020101000181800000000001C225A555566
:1048A00055552D42221C0000000000080818141461
:1048B000243C224242E700000000001F2222221E68
:1048C00022424242221F00000000007C42420101BD
:1048D00001010142221C00000000001F224242424E
:1048E00042424242221F00000000003F4212121EBC
:1048F00012120242423F00000000003F4212121E0C
:1049000012120202020700000000003C22220101F4
:1049100001712122221C0000000000E742424242B5
:104920007E42424242E700000000003E08080808BC
:1049300008080808083E00000000007C1010101055
:10494000101010101010110F0000007722120A0E24
:104950000A1212222277000000000007020202025F
:1049600002020202427F000000000077363636362F
:104970002A2A2A2A2A6B0000000000E346464A4AF7
:1049800052525262624700000000001C2241414125
:1049900041414141221C00000000003F424242428E
:1049A0003E020202020700000000001C22414141B9
:1049B00041414D53321C60000000003F4242423EE4
:1049C0001212222242C700000000007C4242020470
:1049D00018204042423E00000000007F49080808BD
:1049E00008080808081C0000000000E74242424294
:1049F00042424242423C0000000000E74242222480
:104A000024141418080800000000006B49494949A3
:104A10005555362222220000000000E742242418C7
:104A20001818242442E70000000000772222141402
:104A300008080808081C00000000007E2120101053
:104A400008040442423F00000078080808080808EB
:104A50000808080808087800000002020404080892
:104A60000810102020204040001E101010101010C0
:104A70001010101010101E0000384400000000003C
:104A80000000000000000000000000000000000026
:104A900000000000000000FF000608000000000009
:104AA0000000000000000000000000000000003CCA
:104AB0004278444242FC0000000000030202021A55
:104AC00026424242261A0000000000000000003882
:104AD0004402020244380000000000604040407878
:104AE0004442424264D80000000000000000003C44
:104AF000427E0202423C0000000000F08808087E6E
:104B000008080808083E0000000000000000007CC3
:104B100022221C023C42423C000000030202023AF4
:104B20004642424242E700000000000C0C00000E2A
:104B300008080808083E0000000000303000003877
:104B4000202020202020221E0000000302020272EA
:104B5000120A1612227700000000000E080808084A
:104B600008080808083E0000000000000000007F60
:104B70009292929292B70000000000000000003B69
:104B80004642424242E70000000000000000003CB4
:104B900042424242423C0000000000000000001B74
:104BA00026424242221E0207000000000000007858
:104BB00044424242447840E0000000000000007798
:104BC0004C040404041F0000000000000000007CEE
:104BD00042023C40423E0000000000000008083E47
:104BE000080808080830000000000000000000630A
:104BF0004242424262DC000000000000000000E788
:104C0000422424140808000000000000000000EB0B
:104C1000494955552222000000000000000000769E
:104C200024181818246E000000000000000000E79F
:104C30004224241418080807000000000000007E29
:104C400022100808447E000000C0202020202010F0
:104C5000202020202020C000101010101010101054
:104C60001010101010101010000608080808081086
:104C700008080808080806000C32C20000000000FE
:104C80000000000000000000000000000000000024
:104C90000000000000000000000000000000000014
:104CA0000000000000000000000000000000000004
:104CB00000000000000000000000000000000000F4
:104CC0006000600060006000600060006000400004
:104CD00020002000200000000000000060006000B4
:104CE0006000000000000000000000006006600698
:104CF000300398018800440000000000000000001C
:104D000000000000000000000000000000000000A3
:104D10000000000000000000000000000000000093
:104D20001002100210021002FE07FE07080208011E
:104D3000080108010801FE07FE070401040104013F
:104D4000040100000000000000000000000040001E
:104D50004000F00158034C03CC034C005800700095
:104D6000E000C001C00140034C035C034C03480158
:104D7000F0004000400000000000000000000000C3
:104D80000E010A01910091009100510051003A007A
:104D9000AE03A002500450044804480448048402AE
:104DA000840300000000000000000000000000007C
:104DB00038006C006C006C006C006C002C009807D4
:104DC0001C011A01330133016301E300C308C60962
:104DD0003C07000000000000000000000C001C0068
:104DE0001000100008000400000000000000000097
:104DF00000000000000000000000000000000000B3
:104E0000000000000000000000000000000400029C
:104E100000018000800040004000200020002000B1
:104E20002000200020002000400040008000800082
:104E30000001000200040000000000000200040065
:104E4000080010001000200020004000400040003A
:104E500040004000400040002000200010001000F2
:104E60000800040002000000000000000000000034
:104E7000000000004000C0004000460C4E0FD00172
:104E8000F0015E0F460C40004000400000000000B2
:104E90000000000000000000000000000000000012
:104EA00000000000000040004000400040004000C2
:104EB000FE0F4000400040004000400000000000A5
:104EC00000000000000000000000000000000000E2
:104ED00000000000000000000000000000000000D2
:104EE0000000000000000000000000000C001C009A
:104EF0001000100008000400000000000000000086
:104F000000000000000000000000000000000000A1
:104F1000FE0700000000000000000000000000008C
:104F20000000000000000000000000000000000081
:104F30000000000000000000000000000000000071
:104F40000000000000000000000000001C001C0029
:104F50001C0000000000000000000000000400062B
:104F600000020003000100018000800040004000BA
:104F700060002000200010001000080008000C0055
:104F80000400060002000000000000000000000015
:104F90000000F00098010C030C0306060606060646
:104FA000060606060606060606060C030C0398010E
:104FB000F000000000000000000000000000000001
:104FC000000040007C006000600060006000600045
:104FD00060006000600060006000600060006000D1
:104FE000FC030000000000000000000000000000C2
:104FF0000000F80084010203060306030003000119
:105000008001C000600020001000080204020602B7
:10501000FE0300000000000000000000000000008F
:1050200000007800C6008601860180018001C00072
:1050300070008001000100030003060306038601DF
:10504000F800000000000000000000000000000068
:10505000000080018001C001A001A0019001880131
:10506000880184018201FE0F80018001800180019E
:10507000E007000000000000000000000000000049
:105080000000FC0304000400040004000400F40019
:105090008C0104030003000306030603820184015C
:1050A000F800000000000000000000000000000008
:1050B0000000E00118030C030C0004000600E601E8
:1050C00016030E0606060606060604060C0218035C
:1050D000F0000000000000000000000000000000E0
:1050E0000000F8070C060402040100010001800022
:1050F00080004000400040006000600060006000F0
:10510000600000000000000000000000000000003F
:105110000000F8010C030606060606060C021C0336
:10512000F000C8010C0306060606060606060C0378
:10513000F00100000000000000000000000000007E
:105140000000F0000C010C03060206060606060627
:1051500006078C0678060006000300030C018C018C
:1051600078000000000000000000000000000000C7
:10517000000000000000000000000000E000E0006F
:10518000E00000000000000000000000E000E0007F
:10519000E00000000000000000000000000000002F
:1051A000000000000000000000000000600060003F
:1051B000000000000000000000000000000060008F
:1051C00060004000200020000000000000000000FF
:1051D00000040002000180004000200010000800D0
:1051E00004000800100020004000800000010002C0
:1051F00000040000000000000000000000000000AB
:10520000000000000000000000000000FE07000099
:1052100000000000FE070000000000000000000089
:10522000000000000000000000000000000000007E
:10523000040008001000200040008000000100026F
:10524000000400020001800040002000100008005F
:10525000040000000000000000000000000000004A
:105260000000E0031806040C040C0C0C0C0C0007E6
:10527000800140004000400000000000E000E0002D
:10528000E00000000000000000000000000000003E
:10529000E00018030C02CC0564056605A605B604FB
:1052A000B604B604B604B602E4010C040C021803FA
:1052B000F0000000000000000000000000000000FE
:1052C0000000600060005000D00090009000880056
:1052D00088010801F8010403040304020202020623
:1052E0000F0F0000000000000000000000000000A0
:1052F0000000FE008C030C030C030C030C038C0158
:10530000FC000C030C020C060C060C060C060C032D
:10531000FE0100000000000000000000000000008E
:105320000000E00318030C060C0404040600060049
:10533000060006000600060006040C040C02180312
:10534000F00000000000000000000000000000006D
:1053500000007F008C010C030C030C060C060C06ED
:105360000C060C060C060C060C060C030C038C0138
:105370007F000000000000000000000000000000AE
:105380000000FF03060306040604060086008600EC
:10539000FE0086008600860006000604060406025B
:1053A000FF030000000000000000000000000000FB
:1053B0000000FF03060306040604060086008600BC
:1053C000FE00860086008600060006000600060035
:1053D0001F000000000000000000000000000000AE
:1053E0000000F00018010C020C0204020600060086
:1053F00006000600C60F060306030C030C03180381
:10540000F0000000000000000000000000000000AC
:1054100000000F0F06060606060606060606060626
:10542000FE07060606060606060606060606060623
:105430000F0F00000000000000000000000000004E
:105440000000FC036000600060006000600060001D
:10545000600060006000600060006000600060004C
:10546000FC0300000000000000000000000000003D
:105470000000F807C000C000C000C000C000C000AD
:10548000C000C000C000C000C000C000C000C0001C
:10549000C000C60066003C000000000000000000E4
:1054A0000000CF038601C600460026001600360025
:1054B0002E006E004600C600860086010601060327
:1054C0008F07000000000000000000000000000046
:1054D00000001F0006000600060006000600060089
:1054E0000600060006000600060006040604060282
:1054F000FF030000000000000000000000000000AA
:1055000000000707860386038E038E034E034E03B7
:105510004A035A035A033A03320332033203120393
:1055200087070000000000000000000000000000ED
:1055300000008E0F0C021C021C02340234026402B2
:1055400064024402C4028402840384030403040347
:105550001F0200000000000000000000000000002A
:105560000000F00098010C030C0206060606060671
:10557000060606060606060606060C020C03980139
:10558000F00000000000000000000000000000002B
:105590000000FF00060306060606060606060606C7
:1055A0008603FE0006000600060006000600060050
:1055B0001F000000000000000000000000000000CC
:1055C0000000F00098010C030C0206060606060611
:1055D000060606060606060676064C02CC03980169
:1055E000F000800700030000000000000000000041
:1055F0000000FF0106030606060606060606060369
:10560000FE004600C6008600860106030603060665
:105610000F0E00000000000000000000000000006D
:105620000000F8020C030602060206000E003C0011
:10563000F800E003800300070206020606060C03DA
:10564000F001000000000000000000000000000069
:105650000000FE07620461086108600060006000ED
:10566000600060006000600060006000600060003A
:10567000F801000000000000000000000000000031
:1056800000001E070C020C020C020C020C020C02A1
:105690000C020C020C020C020C020C020C0218018F
:1056A000F00000000000000000000000000000000A
:1056B00000000F070602040104010C010C01880020
:1056C00088009800980050005000700030002000C2
:1056D00020000000000000000000000000000000AA
:1056E0000000F70E620442044604460464026402A9
:1056F000E402E4029C029C01980198018801880060
:105700008800000000000000000000000000000011
:1057100000009E070C01080118019000B000600015
:10572000200060006000D0009000880108010403A0
:105730008E070000000000000000000000000000D4
:1057400000000F0F060404020C0208011801B80043
:10575000B0007000600060006000600060006000E9
:10576000F801000000000000000000000000000040
:105770000000FC070C0206030201800180004000CB
:105780004000200020001000180008040C0404024F
:10579000FE0300000000000000000000E003200005
:1057A00020002000200020002000200020002000F9
:1057B00020002000200020002000200020002000E9
:1057C00020002000E00300000000000000000000B6
:1057D0000400040008000800100010001000200061
:1057E000200040004000C000800080000001000157
:1057F0000002000200020004000000007C004000E3
:105800004000400040004000400040004000400098
:105810004000400040004000400040004000400088
:10582000400040007C000000000060009000080183
:105830000000000000000000000000000000000068
:105840000000000000000000000000000000000058
:105850000000000000000000000000000000000048
:105860000000000000000000000000000000000038
:105870000000000000000000000000000000000028
:10588000000000000000FF0F000000001800600092
:105890000000000000000000000000000000000008
:1058A00000000000000000000000000000000000F8
:1058B00000000000000000000000000000000000E8
:1058C000000000000000000000000000F0010C03D8
:1058D0000C030003E0031C030E03060306038E0BF8
:1058E0007C0E00000000000000000000000000002E
:1058F00008000E000C000C000C000C00CC013C0356
:105900001C060C060C060C060C060C060C021C03EE
:10591000E4010000000000000000000000000000A2
:10592000000000000000000000000000F0008C01FA
:105930008C01860106000600060006020C020C011E
:10594000F000000000000000000000000000000067
:105950000002C003000300030003000378038C036C
:105960000C030603060306030603060304038C0761
:1059700078010000000000000000000000000000AE
:10598000000000000000000000000000E00118031B
:1059900008020C060C06FC070C000C001804180288
:1059A000E001000000000000000000000000000016
:1059B0000000C0036006300630003000FE013000F9
:1059C0003000300030003000300030003000300057
:1059D000FC010000000000000000000000000000CA
:1059E000000000000000000000000000F007D806E2
:1059F0008C018C018C019801F8000C00FC00CC0398
:105A0000060306038E03F8000000000000000000FB
:105A100008000E000C000C000C000C00EC011C0334
:105A20000C030C030C030C030C030C030C030C03FE
:105A30009E070000000000000000000000000000C1
:105A40000000600060000000000040007C0060007A
:105A50006000600060006000600060006000600046
:105A6000FC03000000000000000000000000000037
:105A70000000C001C001000000000001F001800131
:105A8000800180018001800180018001800180010E
:105A900080018001CC007C000000000000000000BC
:105AA00008000E000C000C000C000C008C038C0095
:105AB0008C004C006C005C008C008C010C010C0311
:105AC0009E07000000000000000000000000000031
:105AD00040007C00600060006000600060006000CA
