:020000040800F2
:1000000058350020ED010008411D0008210C0008B2
:100010003519000807060008B73100080000000085
:100020000000000000000000000000007B2300082A
:100030008508000800000000211F0008772600083E
:10004000070200080702000807020008070200086C
:10005000070200080702000807020008070200085C
:10006000070200080702000807020008070200084C
:1000700007020008070200080D0600080702000832
:10008000070200080702000807020008070200082C
:10009000070200080702000807020008070200081C
:1000A000070200080702000807020008070200080C
:1000B00007020008D9290008A52A0008070200083D
:1000C00007020008070200080702000807020008EC
:1000D00007020008E92E0008512F0008952F00089C
:1000E00007020008070200080702000800000000DD
:1000F0000000000000000000000000000000000000
:1001000000000000000000000702000807020008CD
:1001100007020008B12E00080702000807020008C5
:10012000070200080702000807020008070200088B
:10013000070200080702000807020008070200087B
:10014000070200080702000807020008070200086B
:1001500000F002F800F03AF80AA090E8000C82449F
:100160008344AAF10107DA4501D100F02FF8AFF27C
:10017000090EBAE80F0013F0010F18BFFB1A43F085
:10018000010318470CE000002CE00000103A24BFE7
:1001900078C878C1FAD8520724BF30C830C144BFEC
:1001A00004680C607047000000230024002500262E
:1001B000103A28BF78C1FBD8520728BF30C148BFCA
:1001C0000B6070471FB51FBD10B510BD00F01CF9C6
:1001D0001146FFF7F7FF04F0A9FC00F03AF903B469
:1001E000FFF7F2FF03BC00F041F900000948804727
:1001F00009480047FEE7FEE7FEE7FEE7FEE7FEE709
:10020000FEE7FEE7FEE7FEE704480549054A064B20
:10021000704700008126000851010008582F002077
:1002200058350020583100205831002010B5431CAB
:1002300002E010F8011B71B18107FAD14FF00132D1
:1002400002C88C1A8C4314EAC211F9D0C01A0A06EB
:1002500003D0C01E10BDC01A10BD0A0401D0801EFC
:1002600010BD0902FCD0401E10BD421E12F8013F15
:10027000002BFBD111F8013B002B02F8013BF9D117
:100280007047032A40F2308010F0030C00F0158014
:1002900011F8013BBCF1020F624498BF11F801CB89
:1002A00000F8013B38BF11F8013BA2F1040298BFEE
:1002B00000F801CB38BF00F8013B11F0030300F058
:1002C0007180083AC0F0088051F8043B083A51F8B0
:1002D00004CBA0E80810F5E7121D5CBF51F8043B01
:1002E00040F8043BAFF30080D20724BF11F8013B74
:1002F00011F801CB48BF11F8012B24BF00F8013BD6
:1003000000F801CB48BF00F8012B70474FF0000206
:100310000429C0F0128010F0030C00F01B80CCF117
:10032000040CBCF1020F18BF00F8012BA8BF20F885
:10033000022BA1EB0C0100F00DB85FEAC17C24BFD9
:1003400000F8012B00F8012B48BF00F8012B704783
:100350004FF0000200B5134694469646203922BF5E
:10036000A0E80C50A0E80C50B1F12001BFF4F7AFA9
:10037000090728BFA0E80C5048BF0CC05DF804EB8B
:10038000890028BF40F8042B08BF704748BF20F8F9
:10039000022B11F0804F18BF00F8012B70477047F7
:1003A0007047704710B5203AC0F00B80B1E8185084
:1003B000203AA0E81850B1E81850A0E81850BFF44F
:1003C000F5AF5FEA027C24BFB1E81850A0E81850EE
:1003D00044BF18C918C0BDE810405FEA827C24BF42
:1003E00051F8043B40F8043B08BF7047D20728BFD0
:1003F00031F8023B48BF11F8012B28BF20F8023B1F
:1004000048BF00F8012B7047754600F02BF8AE4648
:1004100005006946534620F00700854618B020B510
:10042000FFF7F2FEBDE820404FF000064FF0000756
:100430004FF000084FF0000B21F00701AC46ACE88C
:10044000C009ACE8C009ACE8C009ACE8C0098D46F9
:10045000704710B50446AFF300802046BDE8104059
:10046000FFF7BDBE00487047F42E00200149182058
:10047000ABBEFEE726000200704721B1826842F061
:100480000102826003E0826822F00102826070470C
:10049000014600208A6802F004020AB1012000E04F
:1004A000002070470146C86C80B2704702460020A9
:1004B00013680B400BB1012000E00020704701469B
:1004C00000208A6802F008020AB1012000E0002042
:1004D0007047000030B502460020002350680F4CE2
:1004E00020400D790C6844EA052420435060906850
:1004F0000B4C2040D1E902542C434D7944EA450489
:1005000020439060D06A20F470000C7C641EE4B23A
:10051000234340EA0350D06230BD0000FFFEF0FFED
:10052000FDF7F1FFF0B504460D4600200021092D2E
:1005300011DDE068A5F10A0606EB4607072606FA74
:1005400007F18843A5F10A0606EB460603FA06F111
:100550000843E0600CE0206905EB4507072606FA32
:1005600007F1884305EB450603FA06F108432061CD
:10057000072A0FDA606B561E06EB86071F2606FA5F
:1005800007F18843561E06EB860605FA06F1084376
:10059000606322E00D2A0FDA206BD61F06EB860778
:1005A0001F2606FA07F18843D61F06EB860605FAD2
:1005B00006F10843206310E0E06AA2F10D0606EBA5
:1005C00086071F2606FA07F18843A2F10D0606EBFF
:1005D000860605FA06F10843E062F0BD816841F045
:1005E00008018160704721B1826842F4A0028260F4
:1005F00003E0826822F4A00282607047816841F0C3
:1006000004018160704700BFFEE7000010B54FF4A1
:10061000005000F0D1F850B14FF4005000F00CF849
:100620000021034800F016F800200249087010BDB0
:10063000440002405000002000F0805111B10349F5
:10064000086001E00249486070470000040402406D
:100650000000024021B1026842F00102026004E0A1
:1006600002684FF6FE731A400260704701684FF649
:10067000FE72114001600021016041608160C16033
:100680004B49884208D14A490839496841F00F016D
:10069000474A083A51608AE045491431884208D1F6
:1006A00043490839496841F0F001414A083A51602C
:1006B0007DE03F492831884208D13D4908394968E1
:1006C00041F470613A4A083A516070E038493C316F
:1006D000884208D136490839496841F47041344AA2
:1006E000083A516063E032495031884208D13049BC
:1006F0000839496841F470212D4A083A516056E0A2
:100700002B496431884208D129490839496841F4A4
:100710007001274A083A516049E0254978318842FA
:1007200008D123490839496841F07061204A083AE4
:1007300051603CE01F49884206D1011F096841F021
:100740000F01021F116032E01A491431884208D1AA
:100750001849091F096841F0F001164A121F11607B
:1007600025E014492831884208D11249091F096837
:1007700041F470610F4A121F116018E00D493C31BD
:10078000884208D10B49091F096841F47041094AA0
:10079000121F11600BE007495031884207D105490B
:1007A000091F096841F47021024A121F1160704745
:1007B000080002400804024001460020002201F027
:1007C000805313B1054B1A6801E0054B1A6802EA21
:1007D00001030BB1012000E000207047000402403B
:1007E000000002401AB103680B43036002E0036893
:1007F0008B430360704710B50022026847F6F07320
:100800009A430C6A8B6823430C6923434C69234346
:100810008C692343CC6923434C6A23438C6A23436A
:100820001A430260CB6843600B6883604B68C36007
:1008300010BD0000124A126842F0F002104B1A601C
:100840000F4A1C3211600E4A243210600C4A1832D2
:10085000126842F001020A4B18331A6000BF084ABE
:10086000121F126802F02002002AF8D0044A18323F
:10087000126822F00102024B18331A607047000020
:10088000040402407047000010B50B48006864285B
:1008900011D209480068401C0749086008460068F2
:1008A000052802D102F08CFF05E0034800685028BB
:1008B00001D102F08DFF10BDB000002008B50F4837
:1008C0000088401C0D49088008460088B0F5967FD6
:1008D00012DD0020088000906946012004F072F9C2
:1008E0006946022004F06EF96946032004F06AF9B3
:1008F0006946042004F066F908BD0000B800002035
:100900002DE9F041024600250026002000230024A6
:10091000002791F803C00CF00F0591F803C00CF00C
:10092000100CBCF1000F03D091F802C04CEA050591
:1009300091F800C0BCF1000F31D0146800202BE00A
:100940004FF0010C0CFA00F3B1F800C00CEA0306FA
:100950009E4220D183004FF00F0C0CFA03F7BC43EA
:1009600005FA03FC4CEA040491F803C0BCF1280F1B
:1009700006D14FF0010C0CFA00FCC2F814C00AE0DA
:1009800091F803C0BCF1480F05D14FF0010C0CFAEF
:1009900000FCC2F810C0401C0828D1D31460B1F884
:1009A00000C0BCF1FF0F34DD546800202EE000F1E0
:1009B000080C4FF0010808FA0CF3B1F800C00CEA7B
:1009C00003069E4221D183004FF00F0C0CFA03F76F
:1009D000BC4305FA03FC4CEA040491F803C0BCF1E3
:1009E000280F05D100F1080C08FA0CF8C2F81480A1
:1009F00091F803C0BCF1480F07D100F1080C4FF08B
:100A0000010808FA0CF8C2F81080401C0828CED360
:100A10005460BDE8F0810000F0B50A4600230024D0
:100A20000021002500F00046B6F1004F02D11D4E16
:100A3000F16901E01B4E7168C0F3034583B200F415
:100A40004016B6F5401F08D121F07061154E76684A
:100A500026F07066134F7E6012E000F48016B6F543
:100A6000801F06D1032606FA05F4A14341F0706108
:100A700006E0460D360103FA06F6B14341F0706117
:100A800022B1460D360103FA06F6314300F0004666
:100A9000B6F1004F02D1034EF16101E0014E7160E9
:100AA000F0BD0000000001400246002093680B40AA
:100AB0000BB1012000E00020704702460020D368FF
:100AC0000B400BB1012000E00020704741617047EE
:100AD000016170470AB1016100E0416170470000A7
:100AE0007CB505462E78002408E0285D0F49104AA1
:100AF000127801EB02210855601CC4B2B442F4DB49
:100B000001200B4911230B4ACDE90010111F081FCA
:100B100001F034FC06480078401C0549087008467E
:100B200000780D2801DB002008707CBD9C2000208F
:100B3000AC0000208820002070B5C0B005462E789B
:100B4000701EC6B2002405E0601C285C0DF804008D
:100B5000601CC4B2B442F7DB684603F025F940B02C
:100B600070BD0146002004E0401C322800D903E09B
:100B7000491C0A78002AF7D100BF704710B500243D
:100B800032E004EB44001A4901EB8000806848B36E
:100B900004EB440011F82000022823D104EB4400A8
:100BA00001EB80004088401C04EB4401104A02EB3A
:100BB0008101488004EB4400114601EB800040882D
:100BC00004EB440102EB8101898888420ADB0120A1
:100BD00004EB440102F8210004EB440102EB810123
:100BE00088688047601CC4B2022CCADB10BD0000BC
:100BF0002401002070B505460E4600240BE000BF1E
:100C00004021064802F006FA0028F9D0295D034881
:100C100002F0CDFA641CB442F1D370BD004800402C
:100C200000BFFEE72DE9F04104460D4616461F467B
:100C30002A2000F0A1F9A11C88B200F08AF9B11CA9
:100C400088B200F086F92B2000F096F9691C88B272
:100C500000F07FF9791C88B200F07BF92C2000F0BD
:100C60008BF9BDE8F08170B504460D4616462B465B
:100C7000224629462046FFF7D5FF304600F069F9A5
:100C800070BD00002DE9F04781460F4615461E460F
:100C9000DDF82080701E83B2681E82B23946484655
:100CA000FFF7C0FF00240AE04FEA28222046611C1B
:100CB0008CB20A490A5401F80480601C84B2AC4228
:100CC000F2DB3C4605E029460448FFF7B3FD601C13
:100CD00084B2B4EB460FF6DBBDE8F087E4050020F4
:100CE0002DE9FF5F80468A4617469B460F9D0020F0
:100CF0000290CDF80080284605EBD071C1F347047F
:100D00002046E21704EB5272D2102146E31704EB9F
:100D10005373DB10A4EBC3030BB1012300E00023EA
:100D20001A446A4392B20192A7F12000C7B20AEBBB
:100D30000500401E83B208EB0400401E82B25146FB
:100D40004046FFF76FFF002673E00C2D07D107EB3D
:100D500047003A4901EB8000805D039025E0102DAB
:100D600005D1374800EB0710805D03901DE0182D7A
:100D700007D107EB4700334901EB0010805D03907A
:100D800013E0202D05D1304800EB8710805D0390E3
:100D90000BE0302D07D107EBC7002C4901EB001009
:100DA000805D039001E0BDE8FF9F4FF000093AE04D
:100DB0001098C8B9012000FA09F00399084018B149
:100DC000584600F0C6F802E00E9800F0C2F802980B
:100DD000401CC0B20290029890FBF4F104FB110099
:100DE000E8B90020029021E0012000FA09F00399FF
:100DF000084020B15A4651464046FFF734FF08F1FB
:100E000001001FFA80F80098A8EB0000A04206D16C
:100E1000DDF800800AF101001FFA80FA06E009F10E
:100E2000010000F0FF09B9F1080FC1DB00BF701C21
:100E300086B20198864288DB00BFB4E7A85F00084D
:100E40001C6400080C6A0008DC7B00089C93000806
:100E50002DE9FF4782B004460E461F460020019050
:100E6000A2468020009006F11F0083B204F11F000B
:100E700082B231462046FFF7D5FE4FF000093FE031
:100E80002249049801EBC01010F80980002530E0D9
:100E90000F98C0B90120A84000EA080018B13846F0
:100EA00000F057F802E00E9800F053F80198401C4B
:100EB000C0B20190019890FBFBF10BFB1100B0B99F
:100EC0000020019017E00120A84000EA080020B1AE
:100ED0003A4631462046FFF7C6FE601C84B2A4EBBA
:100EE0000A00584503D15446701C86B203E0681CC2
:100EF000C5B2082DCCDB00BF09F101001FFA80F953
:100F000000988145BCDB06B0BDE8F0870CC900083D
:100F10002DE9FE4F06460F4614469846DDE90D5A68
:100F2000DDF8309010E0CDE9015ACDF8009022783C
:100F3000434639463046FFF7D3FE284605EBD071CD
:100F400006EB61018EB2641C20780028EBD1BDE86D
:100F5000FE8F18B5044620128DF80000E0B28DF81F
:100F6000010002216846FFF765FC18BD10B5044674
:100F7000204600F011F810BD10B5044610210548B8
:100F8000FFF7A4FD204600F007F810210148FFF705
:100F90009FFD10BD000C014001B540210348FFF743
:100FA00095FD01216846FFF745FC08BD000C014096
:100FB00010B5044609200C490880AA20887008460C
:100FC0000088C01EA1F80300292048710020887104
:100FD00008210548A0F80710552003498872002011
:100FE00004F054FA10BD00004F2E002070B50346E7
:100FF0000024002010E00E5C451C4D5D46EA0526ED
:10100000851C4D5D46EA0546C51C4D5D46EA0565F5
:1010100043F82450641C001D9042ECD370BD70B5A1
:10102000034614460022002015E011F822501D54FA
:1010300031F82250C5F30726451C5E5551F8225061
:10104000C5F30746851C5E5551F822502D0EC61C6F
:101050009D55521C001DA042E7D370BD2DE9FC41F7
:1010600004460E46002500272088C0F3C505382D0C
:1010700002D2C5F1380001E0C5F178000746082228
:1010800021466846FFF7CBFF3A460849204600F064
:101090000BFC08226946204600F006FC102204F1F1
:1010A00008013046FFF7BBFFBDE8FC81E4000020EB
:1010B00000210160416005498160054AC260CA4360
:1010C0000261034AD2434261704700000123456731
:1010D00089ABCDEF2DE9F043C0B080468946D8F802
:1010E0000040D8F80450D8F80860D8F80C704022B6
:1010F00049466846FFF77AFF05EA060027EA050138
:10110000084300990844FE4908440444E00140EAC9
:1011100054642C4404EA050026EA040108430199BA
:101120000844F84908440744380340EA175727445D
:1011300007EA040025EA0701084302990844F24936
:1011400008440644700440EAD6363E4406EA0700E6
:1011500024EA0601084303990844EC49084405447D
:10116000A80540EA9525354405EA060027EA050169
:10117000084304990844E64908440444E00140EA6D
:1011800054642C4404EA050026EA04010843059946
:101190000844E04908440744380340EA1757274405
:1011A00007EA040025EA0701084306990844DA49DA
:1011B00008440644700440EAD6363E4406EA070076
:1011C00024EA0601084307990844D4490844054421
:1011D000A80540EA9525354405EA060027EA0501F9
:1011E000084308990844CE4908440444E00140EA11
:1011F00054642C4404EA050026EA040108430999D2
:101200000844C84908440744380340EA17572744AC
:1012100007EA040025EA070108430A990844A0F5F3
:1012200024404F380644700440EAD6363E4406EA6D
:10123000070024EA060108430B990844BA49084408
:101240000544A80540EA9525354405EA060027EA45
:10125000050108430C990844B44908440444E001DA
:1012600040EA54642C4404EA050026EA04010843D9
:101270000D990844AE4908440744380340EA17571B
:10128000274407EA040025EA070108430E990844A9
:10129000A84908440644700440EAD6363E4406EAAB
:1012A000070024EA060108430F990844A2490844AC
:1012B0000544A80540EA9525354405EA070026EAD5
:1012C00007010843019908449C490844044460010B
:1012D00040EAD4642C4404EA060025EA06010843E7
:1012E00006990844964908440744780240EAD757CB
:1012F000274407EA050024EA050108430B9908443E
:10130000904908440644B00340EA96463E4406EA43
:10131000040027EA04010843009908448A49084464
:101320000544280540EA1535354405EA070026EA54
:1013300007010843059908448449084404446001AE
:1013400040EAD4642C4404EA060025EA0601084376
:101350000A9908447E4908440744780240EAD7576E
:10136000274407EA050024EA050108430F990844C9
:10137000784908440644B00340EA96463E4406EAEB
:10138000040027EA04010843049908447249084408
:101390000544280540EA1535354405EA070026EAE4
:1013A00007010843099908446C4908440444600152
:1013B00040EAD4642C4404EA060025EA0601084306
:1013C0000E990844664908440744780240EAD75712
:1013D000274407EA050024EA050108430399084465
:1013E000604908440644B00340EA96463E4406EA93
:1013F000040027EA04010843089908445A490844AC
:101400000544280540EA1535354405EA070026EA73
:10141000070108430D9908445449084404446001F5
:1014200040EAD4642C4404EA060025EA0601084395
:10143000029908444E4908440744780240EAD757C5
:10144000274407EA050024EA0501084307990844F0
:10145000484908440644B00340EA96463E4406EA3A
:10146000040027EA040108430C990844424908444F
:101470000544280540EA1535354485EA06007840DC
:10148000059908443D4908440444200140EA147485
:101490002C4484EA050070400899084438490844FF
:1014A0000744F80240EA5757274487EA0400684097
:1014B0000B990844334908440644300440EA164670
:1014C0003E4486EA070060400E9908442E490844CD
:1014D0000544E80540EA5525354485EA060078408C
:1014E00001990844294908440444200140EA14743D
:1014F0002C4484EA0500704004990844244949E0DA
:1015000078A46AD756B7C7E8DB702024EECEBDC1F9
:10151000AF0F7CF52AC68747134630A8019546FDD4
:10152000D8988069AFF7448BBED75C892211906B45
:10153000937198FD8E4379A62108B44962251EF661
:1015400040B340C0515A5E26AAC7B6E95D102FD6F7
:101550005314440281E6A1D8C8FBD3E7E6CDE121CC
:10156000D60737C3870DD5F4ED145A4505E9E3A92D
:10157000F8A3EFFCD9026F678A4C2A8D4239FAFF33
:1015800081F6718722619D6D0C38E5FD44EABEA4A9
:10159000A9CFDE4B08440744F80240EA57572744D6
:1015A00087EA0400684007990844A54908440644AE
:1015B000300440EA16463E4486EA070060400A9935
:1015C0000844A04908440544E80540EA5525354447
:1015D00085EA060078400D9908449B490844044474
:1015E000200140EA14742C4484EA050070400099FC
:1015F0000844964908440744F80240EA57572744EC
:1016000087EA040068400399084491490844064465
:10161000300440EA16463E4486EA070060400699D8
:1016200008448C4908440544E80540EA55253544FA
:1016300085EA06007840099908448749084404442B
:10164000200140EA14742C4484EA050070400C998F
:101650000844824908440744F80240EA575727449F
:1016600087EA040068400F9908447D49084406440D
:10167000300440EA16463E4486EA0700604002997C
:101680000844784908440544E80540EA55253544AE
:1016900065EA07007040009908447349084404440F
:1016A000A00140EA94642C4464EA0600684007996B
:1016B00008446E4908440744B80240EA9757274453
:1016C00067EA050060400E990844694908440644E9
:1016D000F00340EA56463E4466EA04007840059925
:1016E0000844644908440544680540EAD525354462
:1016F00065EA070070400C9908445F4908440444B7
:10170000A00140EA94642C4464EA0600684003990E
:1017100008445A4908440744B80240EA9757274406
:1017200067EA050060400A990844554908440644A0
:10173000F00340EA56463E4466EA040078400199C8
:101740000844504908440544680540EAD525354415
:1017500065EA07007040089908444B49084404446E
:10176000A00140EA94642C4464EA060068400F99A2
:101770000844464908440744B80240EA97572744BA
:1017800067EA050060400699084441490844064458
:10179000F00340EA56463E4466EA040078400D995C
:1017A00008443C4908440544680540EAD5253544C9
:1017B00065EA070070400499084437490844044426
:1017C000A00140EA94642C4464EA060068400B9946
:1017D0000844324908440744B80240EA975727446E
:1017E00067EA05006040029908442D490844064410
:1017F000F00340EA56463E4466EA04007840099900
:101800000844284908440544680540EAD52535447C
:10181000D8F800002044C8F80000D8F80400284494
:10182000C8F80400D8F808003044C8F80800D8F810
:101830000C003844C8F80C0040B0BDE8F08300004C
:10184000604BBBF670BCBFBEC67E9B28FA27A1EAE0
:101850008530EFD4051D880439D0D4D9E599DBE66D
:10186000F87CA21F6556ACC4442229F497FF2A4392
:10187000A72394AB39A093FCC3595B6592CC0C8F22
:101880007DF4EFFFD15D84854F7EA86FE0E62CFEEE
:10189000144301A3A111084E827E53F735F23ABDDD
:1018A000BBD2D72A91D386EB2DE9F04704460F46E9
:1018B00015460026B046B1462088C0F3C508C8F1D9
:1018C0004009206800EBC50020602068B0EBC50F20
:1018D00002D26068401C6060606800EB5570606018
:1018E0004D451CD304F1180101EB08004A46394666
:1018F000FEF7C7FC04F1180104F10800FFF7EAFB4A
:101900004E4605E0B91904F10800FFF7E3FB403645
:1019100006F14000A842F5D94FF0000800E000268B
:10192000AA1BB91904F1180303EB0800FEF7A9FC80
:10193000BDE8F08700BFFEE730B5B3B0E5480078FA
:10194000052827D2DFE800F00327F6F3F200E2488B
:101950000068401CE049086008460068C82819D99A
:10196000C82101A8FEF7F4FCFF208DF80400002038
:10197000D949086001A90D2003F06AFF012004F095
:1019800041F80120D54908706420D549086000203D
:1019900033B030BD9BE1D0480068401CCE490860A0
:1019A0000024002508460068B0F5967F77D900200E
:1019B00008600CE02846691CCDB2CA490A5C204682
:1019C000611CCCB201A90A541E2D00D103E0C54808
:1019D000405D0028EED100BFC2480078302805D114
:1019E000C0480078401CBF4908700EE0BD48007830
:1019F000392805DB012004F013F83020B9490870BC
:101A0000B8480078401CB749087022222046611C63
:101A1000CCB201A90A542C222046611CCCB201A9E7
:101A20000A5422222046611CCCB201A90A54002586
:101A30000DE02846691CCDB2AA491E310A5C204639
:101A4000611CCCB201A90A541E2D00D104E0A548A6
:101A50001E30405D0028ECD100BF22222046611CD0
:101A6000CCB201A90A542C222046611CCCB201A997
:101A70000A5422222046611CCCB201A90A54002536
:101A80000EE02846691CCDB296493C310A5C2046DE
:101A9000611CCCB201A90A54202D01D105E048E017
:101AA00090483C30405D0028EBD100BF2222204608
:101AB000611CCCB201A90A542C222046611CCCB274
:101AC00001A90A5430222046611CCCB201A90A5453
:101AD0002C222046611CCCB201A90A543022204697
:101AE000611CCCB201A90A542C222046611CCCB244
:101AF00001A90A5422222046611CCCB201A90A5431
:101B00002046611CCCB201A90A5400222046611C67
:101B1000CCB201A90A54092003F09AFEC82101A8F9
:101B2000FEF716FC00207049087031E7B3E06EE064
:101B300000E0CCE068480068401C67490860002469
:101B4000002508460068B0F5967F5FD90020086040
:101B500065480078032807DD0020634908700120EC
:101B600003F05EFF002013E70DE02846691CCDB2AC
:101B70005C495C310A5C2046611CCCB201A90A5464
:101B8000102D00D104E057485C30405D0028ECD1B6
:101B900000BF22222046611CCCB201A90A542C228B
:101BA0002046611CCCB201A90A5400250DE028464C
:101BB000691CCDB24B496C310A5C2046611CCCB229
:101BC00001A90A540A2D00D104E046486C30405D5A
:101BD0000028ECD100BF2C222046611CCCB201A908
:101BE0000A5430222046611CCCB201A90A540022BA
:101BF0002046611CCCB201A90A540A2003F028FE39
:101C0000C82101A8FEF7A4FB0020C1E65FE032482E
:101C10000068401C30490860002400250846006820
:101C2000C82837D9002008600DE02846691CCDB2CD
:101C30002C4976310A5C2046611CCCB201A90A54B9
:101C40001E2D00D104E027487630405D0028ECD1FD
:101C500000BF22222046611CCCB201A90A542C22CA
:101C60002046611CCCB201A90A5430222046611CD6
:101C7000CCB201A90A5400222046611CCCB201A9B1
:101C80000A540C2003F0E4FDC82101A8FEF760FB14
:101C900000207DE61BE010480068401C0E490860EB
:101CA000084600680E49096888420FD90B48007839
:101CB000012806D100200949087040F6C4100849DF
:101CC0000860002004490860FFF772F900BF00BFF8
:101CD000FF205DE68B000020900000209400002093
:101CE000980000209C2D0020890000201CB51122A6
:101CF0001049081F00F080FBD0B10F480068401C5D
:101D00000D490860084600680F2811D900200860B6
:101D100001A81123074A121D111F0090081F00F08F
:101D200083FB06499DF8042001EB0220FEF704FF27
:101D30001CBD000084200020B40000209C20002056
:101D40007047000070B5002100230F22C47804B34F
:101D5000154C246804F4E064C4F5E064210AC1F180
:101D60000403CA40447804FA03F184781440214300
:101D700009010E4C0678A155047804F01F050124D2
:101D8000AC4005786D11AD0005F1E025C5F80041C6
:101D900009E0047804F01F050124AC40044D0678E6
:101DA000761145F8264070BD0CED00E000E400E03F
:101DB00080E100E002490143024A116070470000DF
:101DC0000000FA050CED00E00249096809B9014973
:101DD00008607047CC00002000202CE000EB4001A0
:101DE000164A52F8211021B300EB400102EB8101A9
:101DF0000989491C00EB4002104B03EB8202118160
:101E000000EB40011A4602EB8101098900EB400218
:101E100003EB8202D28891420BDB002100EB4002EF
:101E200003EB82021181012100EB400203EB8202ED
:101E30001171411CC8B20328D0DB7047782E0020F6
:101E400070B500EB40040E4D55F82440B4B900EBDA
:101E5000400445F82410002400EB4005084E06EB32
:101E600085052C7100EB4004354605EB8404E280C7
:101E7000002400EB400506EB85052C8170BD0000B9
:101E8000782E002019E0002415E004EB44000B49F3
:101E900001EB8000007901280BD1002004EB440104
:101EA000064A02EB8101087104EB440152F821005B
:101EB0008047601CC4B2032CE7DBE4E7782E0020E7
:101EC000002016E0002100EB40020B4B43F82210EB
:101ED00000EB400203EB8202117100EB400203EBC6
:101EE0008202D18000EB400203EB82021181411C8F
:101EF000C8B20328E6DB7047782E0020002007E0F8
:101F00000549014491F8E817044A1154411CC8B22C
:101F10000C28F5DB7047000000F0FF1F692E002041
:101F2000704700001CB501F031FD01286FD1002081
:101F300000904FF6FF731022012101900846FEF732
:101F400087FF02F0A1F9052811D100205E49088021
:101F500002F09AF90A30C4B2002000904FF6FF73E5
:101F60002246012101902120FEF772FFAAE0564887
:101F70000088401C544908800846008832280AD14D
:101F8000002000904FF6FF730A22012101902120CA
:101F9000FEF75EFF96E04C48008864280AD10020D6
:101FA00000904FF6FF730B22012101902120FEF7D4
:101FB0004FFF87E04448008896280AD1002000900F
:101FC0004FF6FF730C22012101902120FEF740FF04
:101FD00078E03D480088C8280AD1002000904FF6DC
:101FE000FF730D22012101902120FEF731FF69E0EE
:101FF00035480088FA280BD1002000904FF6FF7377
:102000000E22012101902120FEF722FF5AE011E06B
:102010002D480088B0F5967F54D100202A490880C9
:1020200000904FF6FF730F22012101902120FEF74F
:102030000FFF47E0002000904FF6FF7311220121AF
:1020400001900846FEF704FF02F01EF9012828DC83
:102050001D480088401C1C4908800846008832281A
:102060000ED102F011F90A30C4B2002000904FF6F0
:10207000FF732246012101902120FEF7E9FE21E0B5
:102080001148008864281DDD00200F490880009059
:102090004FF6FF731322012101902120FEF7D8FE95
:1020A00010E000200849088002F0EEF80A30C4B2BF
:1020B000002000904FF6FF7322460121019021205D
:1020C000FEF7C6FE1CBD0000BE0000200146002039
:1020D000034A506820F440400843506070470000B5
:1020E0000010024029B1064A52690243044B5A616A
:1020F00004E0034A52698243014B5A617047000071
:102100000010024029B1064AD2690243044BDA6149
:1021100004E0034AD2698243014BDA617047000050
:102120000010024029B1064A12690243044B1A61A9
:1021300004E0034A12698243014B1A6170470000B0
:102140000010024029B1064A92690243044B9A6189
:1021500004E0034A92698243014B9A617047000090
:102160000010024029B1064AD2680243044BDA60EB
:1021700004E0034AD2688243014BDA6070470000F2
:10218000001002402DE9F04100210022002500232B
:102190000026002400278C46DFF86081D8F80480F0
:1021A00008F00C0121B1042907D0082959D109E010
:1021B000DFF84C81C0F8008058E0DFF84881C0F8B3
:1021C000008053E0DFF83481D8F8048008F47012FE
:1021D000DFF82881D8F8048008F48035920C0D2AA5
:1021E00001D0921C00E0062235B9DFF81C8102FB09
:1021F00008F8C0F8008033E0DFF80081D8F82C80C0
:1022000008F48036DFF8F480D8F82C8008F00F0846
:1022100008F1010446B9DFF8EC80B8FBF4F808FBDC
:1022200002F8C0F800801BE0DFF8D080D8F82C80DE
:10223000C8F3031808F10107DFF8C080D8F82C8034
:10224000C8F3032808F1020CDFF8B880B8FBF7F8F0
:1022500008FB0CF8B8FBF4F808FB02F8C0F80080A3
:1022600004E0DFF89C80C0F8008000BF00BFDFF80A
:102270008C80D8F8048008F0F0010909DFF88C8020
:1022800018F80130D0F8008028FA03F8C0F804806C
:10229000DFF86880D8F8048008F4E061090ADFF804
:1022A0006C8018F80130D0F8048028FA03F8C0F8E0
:1022B0000880DFF84880D8F8048008F46051C90A23
:1022C000DFF8488018F80130D0F8048028FA03F8C5
:1022D000C0F80C80DFF82480D8F8048008F440416E
:1022E000890BDFF82C8018F80130D0F80C80B8FB8F
:1022F000F3F8C0F81080BDE8F08100000010024043
:1023000000127A0040787D0100093D00D0000020D5
:10231000E000002021B1028842F04002028004E087
:1023200002884FF6BF731A40028070471AB1838843
:102330000B43838002E083888B438380704710B512
:102340000022028802F441520B884C8823438C8877
:102350002343CC8823430C8923434C8923438C8912
:102360002343CC8923431A430280838B4FF2FF74AB
:10237000234083830B8A038210BD70472DE9F84FF9
:1023800005460C4616461F46DDE90A9A19480068BC
:1023900020B169460020174A126890474FF00008A4
:1023A0001CE099F80000216808702068401C20603B
:1023B000F1192068884200D1266020682968884287
:1023C00006D12868401CF1192860884200D12E608F
:1023D00008F101001FFA80F809F10109D045E0DB9E
:1023E0000448006820B169460120024A12689047FB
:1023F000BDE8F88FCC00002010B5034608681C68C3
:10240000A04204D908881C88001B80B210BD08684F
:102410001C68A04205D2088810441C88001B80B2AA
:10242000F4E70020F2E700002DE9F84304460E46E9
:1024300015461F46DDF820804FF00009134800685C
:1024400020B169460020114A12689047002088F8A0
:1024500000003068216888420CD02068007888F835
:1024600000004FF001092068401CE91920608842F3
:1024700000D125600548006820B169460120034A63
:10248000126890474846BDE8F8830000CC00002061
:1024900002600A6070472DE9F05F04460D469046E1
:1024A0002846FEF75EFB8146C84504D3A8EB090029
:1024B00000F1010A02E0FF20BDE8F09F002600279E
:1024C0001CE020782978884216D14FF0010B0FE0EC
:1024D000761C4E4501D13846EEE7641C6D1C207811
:1024E0002978884204D0A41BAD1B0026B34602E025
:1024F000BBF1000FECD100BF641C7F1C5745E0D33B
:10250000FF20D9E710B500F001F810BD0CB5002090
:10251000019000903F48006840F480303D490860D9
:1025200000BF3C48006800F4003000900198401C57
:102530000190009818B90198B0F5A06FF1D1354815
:10254000006800F4003010B10120009001E000208C
:102550000090009801285CD12F48006840F01000DE
:102560002D4908600846006820F00300086008460E
:10257000006840F00200086026484068254948602D
:102580000846406848600846406840F480604860FB
:102590000846C06A214908401E49C8620846C06A08
:1025A0001F4908431B49C8620846006840F0806024
:1025B000086000BF1748006800F000600028F9D0EC
:1025C0001448406820F47C1012494860084640686E
:1025D00040F4E81048600846006840F080700860E9
:1025E00000BF0C48006800F000700028F9D00948CE
:1025F000406820F00300074948600846406840F002
:102600000200486000BF0348406800F00C00082842
:10261000F9D10CBD001002400020024000F0FEFF86
:1026200044060100F0B50346144621E0641E187804
:1026300000F00F070A2F04DA00F00F0707F1300649
:1026400003E000F00F075737FEB2001100F00F074C
:102650000A2F04DA00F00F0707F1300503E000F05D
:102660000F075737FDB20D70491C0E70491C5B1CDB
:10267000002CDBD1F0BD10B5FFF7AEFB10BD0000A4
:1026800010B51648006840F001001449086008467B
:1026900040681349084011494860084600681149DC
:1026A00008400E4908600846006820F48020086051
:1026B0000846406820F4FE0048600846006820F0A4
:1026C000A05008604FF47F0088600020C862FFF7C8
:1026D00019FF4FF000600449086010BD001002406F
:1026E0000000FFF0FFFFF6FE08ED00E0284800685C
:1026F000401C274908600846006844F6206188426B
:1027000044D90020224908602248C079401C214950
:10271000C8710846C0793C2838D10020C8710846E5
:102720008079401C8871084680793C282ED1002091
:10273000887108464079401C48710846407918283D
:1027400024D1002048710846C078401CC870084653
:102750000079401C087108460079072801D1002043
:1027600008710C48C0781E2810D100200949C87093
:1027700008468078401C8870084680780D2805D16E
:102780000120887008460088401C088070470000BF
:10279000C8000020C0000020F0B50C4615460022FD
:1027A0000021068C4FF6FE773E400684028B018C9A
:1027B0004FF60C7632407E1C06EA03162E43324357
:1027C000104EB0420ED0104EB0420BD0B0F1804F40
:1027D00008D00E4EB04205D00D4EB04202D00D4E84
:1027E000B04206D14FF6FD76314044F00106314348
:1027F00005E04FF6F576314044F00106314302839F
:102800000184F0BD002C0140003401400004004070
:1028100000080040000C0040F0B50C4615460022B0
:1028200000210026078C4FF6EF7C07EA0C0707848F
:10283000028B018C4FF6FF7707EA041640F6FF473C
:102840003A404FF6FF7707EA03373A434FF6FF77F0
:1028500007EA05273A43114FB8420ED0104FB8424D
:102860000BD0B0F1804F08D00E4FB84205D00E4FBC
:10287000B84202D00D4FB84206D14FF6DF7739404B
:1028800046F01007394305E04FF65F77394044F0D2
:102890001007394302830184F0BD0000002C014081
:1028A000003401400004004000080040000C0040DB
:1028B000F0B50C461546002200210026078C4FF685
:1028C000FF6C07EA0C070784828B018C4FF6FF77B9
:1028D00007EA04264FF60C773A404FF6FF7707EAEF
:1028E00003172F433A43114FB8420ED0104FB8424E
:1028F0000BD0B0F1804F08D00E4FB84205D00E4F2C
:10290000B84202D00D4FB84206D14FF6FF573940BA
:1029100046F48077394305E04FF2FF57394044F4DD
:102920008077394382830184F0BD0000002C014090
:10293000003401400004004000080040000C00404A
:10294000F0B50C461546002200210026078C4EF6F5
:10295000FF7C07EA0C070784828B018C4FF6FF7718
:1029600007EA043640F6FF473A404FF6FF7707EA9A
:1029700005273A434FF6FF7707EA03373A43114FEB
:10298000B8420ED0104FB8420BD0B0F1804F08D0F3
:102990000E4FB84205D00E4FB84202D00D4FB8428C
:1029A00006D14DF6FF77394046F48057394305E0AC
:1029B00047F6FF57394044F48057394382830184F6
:1029C000F0BD0000002C0140003401400004004034
:1029D00000080040000C004010B501212F4800F015
:1029E00076F904212D4800F072F9002850D02B48C8
:1029F00000F06AF92A49886008468068B42806D23F
:102A0000084680688C2802D90020887131E024486B
:102A100080683C2803D9224880685A2824D320485B
:102A20008068872820D21E48806864281CD91C4AE8
:102A30009079C21700EB5272D310194A0C32D25C53
:102A4000174B9979CB1701EB5373DB10A1EBC30440
:102A5000802323411A43124B9879C31700EB537319
:102A6000DC100F4B0C331A550D488079401C0C4973
:102A700088710B488079282806D10021074800F08A
:102A800023F80120064948710021044800F08FF91D
:102A90000521024800F015F810BD000000040040B8
:102AA0003C01002010B5FEF769F80121024800F052
:102AB00005F8FFF71BFE10BD00080040CA43028264
:102AC0007047CA430282704721B1028842F0010276
:102AD000028004E002884FF6FE731A4002807047BD
:102AE00010B504466848844208D10121C014FFF79C
:102AF00039FB0021E014FFF735FBC4E0B4F1804F4F
:102B000008D101210846FFF70DFB00210120FFF746
:102B100009FBB8E05D48844208D101210220FFF79B
:102B200001FB00210220FFF7FDFAACE05848844287
:102B300008D101210420FFF7F5FA00210420FFF756
:102B4000F1FAA0E05348844208D101210820FFF7A0
:102B5000E9FA00210820FFF7E5FA94E04E488442A4
:102B600008D101211020FFF7DDFA00211020FFF726
:102B7000D9FA88E04948844208D101212020FFF792
:102B8000D1FA00212020FFF7CDFA7CE044488442AE
:102B900008D101214014FFF7E5FA00216014FFF786
:102BA000E1FA70E03F48844209D10121C804FFF7EF
:102BB000D9FA00214FF40020FFF7D4FA63E03A4835
:102BC000844209D101210805FFF7CCFA00214FF416
:102BD0008010FFF7C7FA56E03448844209D101213A
:102BE0004805FFF7BFFA00214FF40010FFF7BAFACB
:102BF00049E02F48844208D101214020FFF792FA92
:102C000000214020FFF78EFA3DE02A48844208D197
:102C100001218020FFF786FA00218020FFF782FA49
:102C200031E02548844208D101218015FFF77AFA66
:102C30000021A015FFF776FA25E02048844209D14B
:102C400001210804FFF78EFA00214FF48030FFF7CE
:102C500089FA18E01A48844209D101214804FFF793
:102C600081FA00214FF40030FFF77CFA0BE01548A1
:102C7000844208D101218804FFF774FA00214FF43F
:102C80008020FFF76FFA10BD002C014000040040C7
:102C900000080040000C00400010004000140040FC
:102CA00000340140004C01400050014000540140FC
:102CB00000180040001C004000200040004001407F
:102CC00000440140004801400146088F704730B57C
:102CD0000246002000230024158A05EA0103958995
:102CE00005EA010413B10CB1012000E0002030BD61
:102CF00070B505460C46244885420ED023488542CF
:102D00000BD0B5F1804F08D02148854205D021482D
:102D1000854202D02048854200D100E000BF2088D3
:102D200050B92389A28861882846FFF735FDE188DC
:102D3000284600F03EF825E0208804280AD123899F
:102D4000A28861882846FFF767FDE188284600F0E1
:102D500039F817E0208808280AD12389A2886188D9
:102D60002846FFF7A5FDE188284600F038F809E07D
:102D70002389A28861882846FFF7E2FDE18828467A
:102D800000F036F870BD0000002C01400034014016
:102D90000004004000080040000C00401AB1838984
:102DA0000B43838102E083898B4383817047818455
:102DB0007047028B4FF6F3731A400283028B0A436B
:102DC00002837047028B4FF2FF331A400283028B5B
:102DD0004FF6FF7303EA01231A4302837047828B85
:102DE0004FF6F3731A408283828B0A4382837047C3
:102DF000828B4FF2FF331A408283828B4FF6FF7330
:102E000003EA01231A4382837047000000220288EC
:102E10001D4B98420ED01D4B98420BD0B0F1804F05
:102E200008D01B4B984205D01A4B984202D01A4B3F
:102E3000984204D14FF68F731A404B881A43174BB0
:102E4000984207D0164B984204D04FF6FF431A40E1
:102E5000CB881A4302808B8883850B8803850A4BB5
:102E600098420BD0094B984208D00E4B984205D09F
:102E70000D4B984202D00D4B984201D10B7A03863C
:102E80000123838270470000002C01400034014080
:102E90000004004000080040000C0040001000400A
:102EA000001400400040014000440140004801403F
:102EB00010B540F225510A4800F0B9F878B1084839
:102EC00000F070F9C4B240F22551054800F07EF8D8
:102ED0000448006818B1204602490968884710BDB7
:102EE000005000405C00002010B540F22551094818
:102EF00000F09DF860B1074800F054F9C4B240F208
:102F00002551044800F062F82146034800F04FF9CB
:102F100010BD000000380140004400407CB505466B
:102F20000C4640F201220949081FFFF765FA2044C8
:102F3000B0F5007F09DA40F20123044A121D111F87
:102F4000081FCDE90054FFF719FA7CBDC403002027
:102F500008B540F225510D4800F069F8A8B140F2DB
:102F600025510A4800F032F8084800F01BF9C0B2B9
:102F700000900748006820B19DF8000004490968E6
:102F8000884701216846FFF7C9FF08BD004400409B
:102F90005400002010B540F225510A4800F047F8CF
:102FA00078B1084800F0FEF8C4B240F22551054857
:102FB00000F00CF80448006818B12046024909687E
:102FC000884710BD004800405800002010B500227E
:102FD000002340F66A14A14200D100BF0A12012466
:102FE0009440A3B2DC43048010BD21B1828942F435
:102FF0000052828104E082894DF6FF731A4082817B
:1030000070471AB1838A0B43838202E0838A8B4321
:103010008382704702460020B1F5007F00D100BFD7
:1030200013880B400BB1012000E00020704770B501
:103030000246002400230025002040F66A16B14213
:1030400000D100BFC1F3421501F01F03012606FAAB
:1030500003F3012D02D19689334006E0022D02D1FF
:10306000168A334001E0968A33400C12012606FA94
:1030700004F41688344013B10CB1012000E00020A4
:1030800070BDF0B50346002400260025002040F660
:103090006A17B94200D100BF1846C1F3421401F0CB
:1030A0001F06012707FA06F5012C01D10C3004E0B8
:1030B000022C01D1103000E014301AB107682F4300
:1030C000076002E00768AF430760F0BD2DE9F047F5
:1030D00086B005460E460024A24600BFA146002742
:1030E000B08900B100BF2F462C8A4CF6FF70044017
:1030F000F08804432C82AC894EF6F3100440B0886B
:1031000031890843718908430443AC81AC8A4FF686
:10311000FF400440B0890443AC8201A8FFF732F8B5
:103120001F48874202D1DDF810A001E0DDF80CA0B5
:10313000A88900F4004040B10AEBCA0000EB0A1075
:1031400031684900B0FBF1F807E00AEBCA0000EB78
:103150000A1031688900B0FBF1F86420B8FBF0F088
:1031600004012009642101FB1089A88900F40040B2
:1031700040B1322000EBC900B0FBF1F000F00700D5
:10318000044308E0322000EB09106421B0FBF1F0A9
:1031900000F00F0004432C8106B0BDE8F08700006A
:1031A0000038014001468888C0F308007047C1F329
:1031B00008028280704700BFFEE770B504460B46E8
:1031C0000021204600E0401C0578222DFBD1401C48
:1031D00000E0401C0578222DFBD1401C401C0DE076
:1031E0000578302D09DB0578392D06DC01EB8105EA
:1031F00069000578303D0D44E9B2401C05782C2D5E
:10320000EED1401C117003E005781D705B1C401C62
:103210000D1EA1F10106F1B2F6D170BD2DE9F04706
:1032200081460E4617469846002413E004EBC4007E
:1032300000EB4000094A811842464846FFF72BF947
:10324000C5B2FF2D04D034703D700020BDE8F0877A
:10325000601CC4B20C2CE9DBFF20F7E700D70008A4
:103260007CB505462E7800240CE0285D11490978CC
:1032700001EBC10202EB01110F4A02EBC10108553B
:10328000601CC4B2B442F0DB01200A4911230B4A8E
:10329000CDE90010111F081FFFF770F805480078EE
:1032A000401C04490870084600780A2801DB002009
:1032B00008707CBD88000020080F0020F40E00205C
:1032C00070B5B2B005462E78701EC6B2002405E077
:1032D000601C285C0DF80400601CC4B2B442F7DB2B
:1032E00031466846FDF786FC32B070BD2DE9F041ED
:1032F00005460C4617460C2C07D2DFE804F00607FB
:103300000F23244A4B49535A602577E03D48007803
:10331000052802D0012002F083FB6FE046213A48E5
:10332000FCF7F4FF284602F071FA3748401E007897
:10333000022803D1082002F0C5FB02E0032002F0BE
:10334000C1FB5BE05AE059E02E480078012803D128
:10335000022002F0B7FB1AE02A480078082816D1AC
:103360002A480078012803D1022002F04BFB0EE02E
:1033700026480078022803D1032002F043FB06E030
:1033800022480078032802D1042002F03BFB35E0FC
:1033900034E033E01B480078052802D1062002F013
:1033A00091FB2BE000201A490870032002F02AFB51
:1033B00024E017480078401C154908701EE0154AA3
:1033C00015492846FFF7F9FE1249087800EBD0713D
:1033D0004910A0EB410169B90E4802780F490E4827
:1033E00000F034F80B48067806EBD67041100B4815
:1033F00002F09CF8002001F041FF00BF00BFBDE8D3
:10340000F08100008A000020F91900208B000020C4
:10341000890000209C0000205F1D00203F1A002032
:1034200010B502F0ADFB002002F0F2FCFEF77AFDD1
:1034300010BD000010B5034801F036FC024801F051
:10344000B3FE10BDED5D0008095E000870B50346CF
:103450001846D4B24BE000250D700578302D07DBFF
:103460000578392D04DC05782D072D0E0D7016E03A
:103470000578412D08DB0578462D05DC0578ED1F24
:103480002D072D0E0D700AE00578612D07DB0578FC
:10349000662D04DC0578ED1F2D072D0E0D70401CE8
:1034A0000578302D08DB0578392D05DC0E78057898
:1034B000303D35440D7016E00578412D08DB057868
:1034C000462D05DC0E780578373D35440D700AE051
:1034D0000578612D07DB0578662D04DC0E7805780C
:1034E000573D35440D70401C491CA51EECB2002C04
:1034F000B1D170BD00204FF4E15000BF011EA0F11A
:103500000100FBD17047000000B587B00121082001
:10351000FEF718FE01211020FEF714FE012140F2F3
:103520000120FEF70FFE0120ADF8180000208DF8F5
:103530001B0006A91D48FDF7E3F90120ADF81800AE
:1035400000208DF81B0006A91948FDF7D9F94FF4A2
:103550004040FEF7BBFD002001908DF808008DF87B
:1035600009004FF4602003900020049002208DF8A1
:10357000140001A90F48FCF7ADFF01210D48FCF72D
:103580007CFF0C48FDF72AF800BF0A48FCF797FFBC
:103590000028FAD10748FDF731F800BF0548FCF7CD
:1035A00077FF0028FAD107B000BD0000000C0140F1
:1035B000001001400024014010B5FFF7A5FF0020D6
:1035C000054908704870486088600520087500202B
:1035D0000874488210BD0000CC05002010B500F032
:1035E000E7FD0446072C0ED114480088401C1349FF
:1035F00008800846008832281FDD0020088001204E
:103600000F49087019E0062C17D00E480078844244
:1036100010D00D480078401C0B490870084600780F
:1036200003280ADD00200870064804700078044969
:10363000087502E000200449087010BD62000020F7
:10364000CC050020640000206500002010B500F0CB
:1036500019F80248FEF7B8FB10BD000061360008FB
:1036600070B504460D4624B900F046FE287072B6C7
:1036700006E0012C04D1287808B162B600E072B6E9
:1036800070BD000030B5144800686422B0FBF2F150
:10369000B1F1807F00D31DE021F07F40401E4FF04C
:1036A000E022506150170F22002807DA13071D0E81
:1036B0000A4B00F00F04241F1D5503E013071C0ED6
:1036C000074B1C5400BF00204FF0E0229061072000
:1036D000106100BF30BD00006800002018ED00E060
:1036E00000E400E070B500EB40040B4D05F8243019
:1036F000002400EB4005084E06EB85056C8000EBCE
:103700004004354605EB8404A28000EB400405EB41
:103710008404A16070BD0000240100200649496CAA
:1037200021F00101044A516411468864496C41F05A
:1037300001015164704700000000024000B58DB0E7
:1037400001210846FEF7CEFC1A48FCF78FFF1A4805
:1037500001901A480290102003904001049000202C
:1037600005908020069000200790089009904FF463
:1037700000500A9000200B9001A90E48FDF73BF87D
:10378000012202210B48FDF72DF84FF4A060FEF74F
:1037900011FB0E208DF8300006208DF8310000203E
:1037A0008DF8320001208DF833000CA8FEF7CAFA1C
:1037B0000DB000BD4400024004380140C0010020AB
:1037C00010B520210148FDF783F910BD0008014024
:1037D00010B520210148FDF779F910BD000801401E
:1037E00010B502210148FDF75FF910BD000C014042
:1037F00010B510210148FDF769F910BD0010014016
:1038000010B510210148FDF763F910BD001001400B
:1038100010B533480068401C31490860084600680C
:10382000B0F5967F04D90020086001202D49087169
:103830002C48007930B1012805D002280CD004288A
:103840004CD123E04AE000F0A3FA02202549087198
:10385000012000F071FA41E080212348FDF738F99A
:10386000002000F069FA00F093FA04201D49087165
:1038700047214FF6FF7000F0DDFE01211B48FFF7E6
:1038800023F900211948FFF792FA27E015484079FB
:10389000012822D100201349487108710846047B91
:1038A000407B2044C4B20846807B2044C4B2084612
:1038B000C07B2044C4B20846007CA0420DD108461B
:1038C000417B007B01EB0020064948800846C17B14
:1038D000807B01EB00200349088000BF00BF10BDC2
:1038E000340000203C01002000080140000400409A
:1038F00001480088704700003C01002001484088D2
:10390000704700003C01002008B501210420FEF7AB
:1039100019FC01210820FEF715FC01211020FEF7FB
:1039200011FC1020ADF8000002208DF802001020DC
:103930008DF8030069461148FCF7E2FF2020ADF83E
:10394000000002208DF8020010208DF80300694667
:103950000B48FCF7D5FF0220ADF8000004208DF8DD
:10396000030069460748FCF7CBFFFFF739FF06491C
:103970000870FFF745FFFFF72BFF08BD001001405F
:1039800000080140000C01400000002010B5FFF7C6
:1039900027FF0446FFF7AEFD0D480078844203D1AF
:1039A00000200C49087010E00948007884420CD0CF
:1039B00008480078401C0749087008460078142819
:1039C00003DD00200870024804700148007810BD33
:1039D000000000200100002008B501210820FEF7AA
:1039E000B1FB4FF44070ADF8000003208DF80200E9
:1039F00014208DF8030069460448FCF781FF01207C
:103A000000F018F8012000F003F808BD000C014098
:103A100010B504462CB14FF480710548FDF758F8F5
:103A200004E04FF480710248FDF750F810BD00002B
:103A3000000C014010B504462CB14FF4007105484C
:103A4000FDF746F804E04FF400710248FDF73EF838
:103A500010BD0000000C01407FB5002000900190D7
:103A600002900390684600F0E5F800247DE0FF2511
:103A700000264048005D05286AD2DFE800F0030A0E
:103A8000274662001DF8040010B10120394908558D
:103A90005EE01DF8040088B1374830F81400401E7D
:103AA00080B2354921F8140078B9032021F81400B8
:103AB0000220304908552546012606E003202E49FC
:103AC00021F8140000202B49085541E01DF804009E
:103AD00088B12A4830F81400401E80B2274921F8E6
:103AE000140088B9C82021F8140003202149085582
:103AF0002546032608E0C820204921F814000420A8
:103B00001C4908552546022622E01DF8040048B944
:103B10000420184908559620194921F81400254613
:103B200005260DE0164830F81400401E80B21449F6
:103B300021F8140020B9962021F814002546042607
:103B400006E01DF8040010B900200A49085500BF1E
:103B500000BFFF2D07D00B48006820B13146284632
:103B6000084A12689047601CC4B2102CFFF67FAF61
:103B70007FBD000050010020600100208001002076
:103B8000A00100204C00002010B54FF480410D48EA
:103B9000FCF793FFC0F10100C4B222464FF480410C
:103BA0000848FCF797FF4FF400410648FCF785FFF3
:103BB000C0F10100C4B222464FF400410148FCF7B5
:103BC00089FF10BD0010014008B501211020FEF74B
:103BD000B9FA4FF44040ADF8000002208DF8020021
:103BE00010208DF8030069460648FCF789FE4FF463
:103BF00080410448FCF76AFF4FF400410148FCF79C
:103C000067FF08BD0010014010B5FFF7BDFF02219E
:103C1000002000F06DF810BD10B5FFF7D5FF0223AE
:103C200044F6206202490020FFF75CFD10BD000051
:103C3000093C000870B50446002500260AE0680625
:103C4000050E254951F82600804708B145F00105C9
:103C5000701CC6B2052EF2DB112D3AD2DFE805F05A
:103C600039090C0F1215181B1E2124272A2D303359
:103C70003600012020702CE00120607029E0012036
:103C8000A07026E00120E07023E00120207120E0F8
:103C9000012060711DE00120A0711AE00120E07197
:103CA00017E00120207214E00120607211E0012071
:103CB000A0720EE00120E0720BE00120207308E00A
:103CC0000120607305E00120A07302E00120E07391
:103CD00000BF00BF70BD00003800002010B54FF4D9
:103CE00080610248FCF7F4FE10BD000000100140A6
:103CF00010B5024602EB4200094B03EB80008068DE
:103D000058B102EB420003F82010002002EB4203FE
:103D1000034C04EB8303588010BD0120FCE7000036
:103D20002401002008B50020F0234FF4A0720146C2
:103D30000090FCF7A7FF08BD38B504460121042018
:103D4000FEF700FA012C11D18020ADF8000003200D
:103D50008DF8020010208DF8030069460B48FCF72F
:103D6000CFFD80210948FCF7B1FE0DE08020ADF8C1
:103D7000000048208DF8030069460448FCF7C0FDA8
:103D800080210248FCF7A2FE38BD00000008014077
:103D90000020044948718871886008460021C1608C
:103DA000017470473C01002010B504460BE02178F7
:103DB0000748FFF7FCF900BF40210548FFF72AF943
:103DC0000028F9D0641C20780028F0D110BD000034
:103DD0000044004010B500F021FDFFF7AFFC0020CB
:103DE00006490870064908600649086006490860E7
:103DF000064A111F081FFEF74BFB10BD50000020A4
:103E000054000020580000205C000020C80300205F
:103E100010B500F0D7FC06480088401C0449088013
:103E200008460088B0F5967F01DB0020088010BDB1
:103E3000600000203EB543E02748008840F21B3177
:103E4000884203DB0020244908803EBD22480188C7
:103E50000088401C204A10802048084440F201435A
:103E60001F4A111F0090081FFEF7DEFA1A4800884B
:103E7000401E1A49085C0D2822D10A2116480288E2
:103E80000088401C144B1880144881541846008840
:103E900002280FDD1846038801AA02A90F48FFF780
:103EA000BDF9044634B90C4802889DF808100B4847
:103EB000FFF71CFA0948002101600020064908802C
:103EC00040F201420649091F081FFEF795FA012832
:103ED000B2DC00BFB9E700009E000020D816002029
:103EE000E80A00200EB511227949081FFEF784FA6E
:103EF000F0B178480068401C7649086008460068C0
:103F00000A2815D90020086002A81123704A121D42
:103F1000111F0090081FFEF787FA9DF8081001EBAB
:103F2000C10202EB01116C4A02EBC100FFF7C8F9B4
:103F30006A4800780A2819D2DFE800F005192C47F2
:103F40006B7E8E8DABC566480068401C6449086076
:103F500008460068C82809D9FF20019000200860A1
:103F600001A901F075FC012001F0ACFDACE05C485A
:103F70000068401C5A49086008460068B0F5967F02
:103F800007D900200860FF20019001A9012001F05D
:103F90005FFC99E052480068401C5149086008469F
:103FA0000068C82810D9FF20019001A9022001F063
:103FB0004FFC01A9032001F04BFC01A9042001F0F2
:103FC00047FC032001F07EFD7EE045480068401C70
:103FD0004349086008460068B0F5967F18D9414803
:103FE0000078401C3F49087000203D490860FF20D0
:103FF000019001A9072001F02BFC3A4800780A281B
:1040000006DD002037490870012001F009FD0EBDD2
:104010005AE0354A111F081FFEF73AFAFF200190B7
:1040200001A9062001F014FC01A9052001F010FCF3
:10403000052001F047FD47E029480068401C284959
:1040400008600846006841F27071884202D9072072
:1040500001F038FD38E000BF24480078401C2349B7
:104060000870084600780A2812DD1F4A111F081F31
:10407000FEF70EFA00201D49087019490860FF205C
:10408000019001A9062001F0E3FB032001F01AFDD5
:104090001AE013480068401C11490860FF20019095
:1040A00008460068B0F5FA6F06D101A9072001F0B3
:1040B000CFFB00200A490860FDF73EFC10B9002044
:1040C0000749086000E000BF00BF00BF9FE7000095
:1040D000F00E0020A0000020080F00208A00002021
:1040E000A4000020A8000020E80A0020A900002069
:1040F00008B501211020FEF725F801210420FEF764
:1041000021F801210846FEF71DF80620ADF8000051
:1041100003208DF8020010208DF803006946154831
:10412000FCF7EEFB0120ADF8000003208DF8020043
:1041300004208DF8030069460F48FCF7E1FB0820D6
:10414000ADF8000003208DF8020004208DF8030074
:1041500069460848FCF7D4FB02210648FCF7B8FC86
:1041600004210448FCF7B4FC01210348FCF7B0FC2F
:1041700008BD0000001001400008014010B50446D1
:104180000723012221460948FCF7CCF90121074801
:10419000FCF729FA00BF02210448FCF787F9002840
:1041A000F9D00248FCF77EF910BD00000024014060
:1041B00010B53448007830B101280BD0022826D041
:1041C00003285CD134E000202E49487048608860A4
:1041D000072010BD0820FFF7D1FF2A49496808448D
:1041E000284948600A20FFF7C9FF26498968084422
:1041F0002449886008464078401C4870084640784A
:104200000A2803DB002048700220087037E01D48B0
:1042100080680A21B0FBF1F01A498881084640689D
:104220000A21B0FBF1F01749C8810320087026E08D
:104230000020144908700846C089FA2148431149F2
:10424000898990FBF1F04400B4F5C87F01D90520BD
:10425000BFE7B4F5C37F01D90420BAE7B4F5C87F3E
:1042600001D90320B5E7B4F5B97F01D90220B0E741
:10427000B4F5B47F01D90120ABE70020A9E700BF66
:104280000620A6E7CC0500200148007D704700000D
:10429000CC05002010B5FFF79FFB10BD10B54021E5
:1042A0000148FCF701FC10BD0010014010B5802151
:1042B0000148FCF7F9FB10BD0010014010B54FF4A8
:1042C00080710248FCF7F0FB10BD000000100140B7
:1042D00010B54FF400710248FCF7E6FB10BD00007A
:1042E0000010014010B54FF480710248FCF7DCFB70
:1042F00010BD00000008014000BFEFF3108008B9B6
:10430000012070470020FCE708B501211420FDF7CB
:1043100019FF4FF48070ADF8000048208DF80300BD
:1043200069460748FCF7ECFA4FF47070ADF80000EE
:1043300048208DF8030069460248FCF7E1FA08BD01
:10434000000801400010014010B500200C49086031
:10435000FFF7DAFF002410E000200A490855032087
:10436000094921F81400C820084921F814009620B2
:10437000074921F81400601CC4B2102CECDB10BDFE
:104380004C0000205001002060010020800100202E
:10439000A001002010B54FF400410248FCF798FB43
:1043A00010BD00000008014010B54FF40041024864
:1043B000FCF78CFB10BD00000008014010B504465E
:1043C0002CB14FF480510548FCF782FB04E04FF418
:1043D00080510248FCF77AFB10BD0000000C014040
:1043E00000B587B001218803FDF78CFE012108206C
:1043F000FDF7A8FE01210846FDF7A4FE4FF460403A
:10440000ADF8040003208DF8060018208DF8070091
:1044100001A91F48FCF774FA4FF48050ADF804006E
:1044200003208DF8060010208DF8070001A9184818
:10443000FCF766FA4FF480511548FCF749FB002061
:10444000ADF808004FF48270ADF80A000020ADF816
:104450000C000220ADF80E000120ADF81000400263
:10446000ADF812001020ADF814000020ADF81600D1
:104470000720ADF8180002A90648FDF760FF0121EA
:104480000448FDF747FF0120FFF798FF07B000BD84
:10449000000C01400038004010B5FFF7B9F9FFF7F4
:1044A000DBFAFFF7B5FCFFF799F810BD10B500F087
:1044B0005BF9FFF729FAFFF7AFFB00F0FFFA00F016
:1044C00075F9FFF741FFFFF785FCFFF7A1FCFFF748
:1044D00073F8FFF7DFFE10BD00B591B00121C803EE
:1044E000FDF710FE01210220FDF7FCFD01211D203A
:1044F000FDF728FE01214648FCF78EFA4FF40040F4
:10450000ADF82C0010208DF82F0003208DF82E0020
:104510000BA94048FCF7F4F94FF400413D48FCF783
:10452000D7FA5020ADF82C0010208DF82F00032072
:104530008DF82E000BA93848FCF7E2F950213648D7
:10454000FCF7C6FA4FF48060ADF82C0010208DF80F
:104550002F0003208DF82E000BA93048FCF7D0F96E
:104560004FF480612D48FCF7B1FA2820ADF82C00FB
:1045700003208DF82E0018208DF82F000BA9264857
:10458000FCF7BEF94FF44040ADF830004FF48270B4
:10459000ADF832000020ADF834000220ADF836004E
:1045A0000120ADF838004002ADF83A000020ADF827
:1045B0003C00ADF83E000720ADF840000CA91848BB
:1045C000FDF7BDFE1748FCF751F815480C30009078
:1045D000102002908001039000200490802005901C
:1045E00000200690079008904FF48050099000201A
:1045F0000A9069460B48FCF7FEF8012202210848A0
:10460000FDF794FE01210648FDF784FE11B000BDC0
:104610000002300000080140000C01400010014081
:10462000003C00401C04024000BF011EA0F101003C
:10463000FBD1704730B589B005460C4601210220F8
:10464000FDF760FD01210420FDF77CFD8020ADF821
:10465000200010208DF8230003208DF8220008A9E7
:104660001F48FCF74DF980211D48FCF731FAADF8E1
:104670000C50ADF808400020ADF80E00ADF80A006F
:1046800002A91848FEF7C2FB0420ADF8140002206E
:10469000ADF816000120ADF818000020ADF81A00A2
:1046A000ADF81C0005A90F48FEF722FB1D208DF870
:1046B000040002208DF8050000208DF8060001207E
:1046C0008DF8070001A8FDF73DFB012205210548F3
:1046D000FEF764FB00210348FEF7F6F909B030BD90
:1046E00000080140000400401FB501210420FDF72F
:1046F00009FD1A48FEF7F4F93220ADF80800184811
:1047000000681849B0FBF1F0401E80B2ADF804001B
:104710000020ADF80A00ADF8060001A90F48FEF729
:1047200075FB012211460D48FEF738FB01210B48AD
:10473000FEF7CAF94FF4A060FDF73CFB1E208DF890
:10474000000000208DF8010003208DF802000120F8
:104750008DF803006846FDF7F5FA1FBD000800401C
:104760006800002040420F0010B5FFF7BDFF002495
:1047700017E0012004EB44010B4A02F8210000205D
:1047800004EB440102EB8101488004EB440102EB9D
:104790008101888004EB440102EB81018860601C88
:1047A000C4B2022CE5DB10BD2401002010B50020AE
:1047B00003490880488008714721FFF73BFF10BD7F
:1047C0003C01002038B51248007800B138BD40F2F5
:1047D00001221049081FFDF70FFE054600240BE0DB
:1047E0000D48204440F201230A4A121D111F009077
:1047F000081FFDF719FE641CAC42F1D32DB1284609
:10480000FEF78CFF01200249087000BFDEE70000C0
:1048100050000020C4030020C001002000B587B074
:1048200001210420FDF78EFC01210820FDF78AFC00
:1048300001211020FDF786FC01212020FDF782FCDC
:1048400001218803FDF77EFC01214804FDF75AFC95
:1048500001218804FDF756FC01210805FDF752FCF3
:104860004FF40070ADF8180018208DF81B000320DD
:104870008DF81A0006A97548FCF742F84FF48060DD
:10488000ADF8180004208DF81B0003208DF81A00E5
:1048900006A96E48FCF734F80420ADF8180018207B
:1048A0008DF81B0003208DF81A0006A96748FCF755
:1048B00027F80820ADF8180004208DF81B0003200D
:1048C0008DF81A0006A96148FCF71AF84FF48060C9
:1048D000ADF8180018208DF81B0003208DF81A0081
:1048E00006A95B48FCF70CF84FF40060ADF818001F
:1048F00004208DF81B0003208DF81A0006A95448E7
:10490000FBF7FEFF4FF48050ADF8180018208DF82B
:104910001B0003208DF81A0006A94E48FBF7F0FF94
:104920000420ADF818008DF81B0003208DF81A0044
:1049300006A94948FBF7E4FF4FF4E130029000205C
:10494000ADF80C00ADF80E00ADF81000ADF8140095
:104950000C20ADF8120002A94048FEF7B7FB02A9EF
:104960003F48FEF7B3FB02A93E48FEF7AFFB02A9A2
:104970003D48FEF7ABFB25208DF8040003208DF8A1
:1049800005008DF8060001208DF8070001A8FDF74D
:10499000D9F926208DF8040004208DF805000320A5
:1049A0008DF8060001208DF8070001A8FDF7CAF96F
:1049B00027208DF8040005208DF8050003208DF8D0
:1049C000060001208DF8070001A8FDF7BBF935208E
:1049D0008DF8040005208DF8050006208DF80600EE
:1049E00001208DF8070001A8FDF7ACF9012240F283
:1049F00025511A48FEF745FB012240F2255118487F
:104A0000FEF73FFB012240F225511648FEF739FB25
:104A1000012240F225511448FEF733FB01210F48D3
:104A2000FEF7E3FA01210E48FEF7DFFA01210D48F7
:104A3000FEF7DBFA01210C48FEF7D7FA01228021AC
:104A40000648FEF7DEFA07B000BD0000000801408E
:104A5000000C0140001001400014014000380140EA
:104A600000440040004800400050004002490968EE
:104A700009B90149086070475800002002490968D7
:104A800009B90149086070475C00002070B5044610
:104A90000D462E460DE021780748FEF788FB00BF43
:104AA00040210548FEF7B6FA0028F9D0641C701EB4
:104AB000C6B2002EEFD170BD0050004010B5FFF718
:104AC00017FB04210748FCF703F802210548FBF710
:104AD000FFFF00200449087004490870FF200449C2
:104AE000087010BD001001402A0000202B0000209B
:104AF0002C00002000F00F030A2B04DA00F00F0353
:104B00003033137003E000F00F03373313700011DC
:104B100000F00F030A2B04DA00F00F0330330B70A0
:104B200003E000F00F0337330B70704710B5FEF74A
:104B30008DFDFDF7C5F9FDF7E1F9FFF7B7FC01239E
:104B40001A460C490020FDF77BF900F02DFD0123EA
:104B50001A4609491846FDF773F9FEF76BFC012365
:104B60001A4606490220FDF76BF9FDF78BF9002084
:104B700010BD000099440008995500082134000830
:104B800010B500200749086007490870074A111F3F
:104B9000081FFDF77DFC064800210160FEF718FEA6
:104BA00010BD0000B0000020AC00002088200020D4
:104BB0009C20002010B5FBF767FEFDF797F8FBF788
:104BC0007DFE10BD70B5C0B005460E46222D35DA0B
:104BD000002430E0C5EBC50000EB8000184901EB74
:104BE0004000005D50B1C5EBC50000EB800001EB5B
:104BF0004000015D601C0DF800101BE005E03178FD
:104C0000601C0DF80010641C761C30780028F6D16A
:104C10000D21601C0DF80010641C0A21601C0DF8A9
:104C20000010641C601CC0B28DF800006846FBF7E1
:104C300057FF02E0641CFF2CCCD900BF40B070BD10
:104C400044D8000878B502460B464FF6FF700024A2
:104C500014E012F8011B81EA000505F00F050F4E64
:104C600036F8155085EA201080EA211505F00F0569
:104C700036F8155085EA2010651CACB29C42E8D38A
:104C8000C5B28DF80050050A8DF801509DF801500D
:104C90009DF8006045EA062078BD00000CD30008AE
:104CA00010B5FFF79DFB10BD0249096809B901491C
:104CB00008607047800000207CB54248007810BB37
:104CC00040F201124049081FFDF796FB01281ADD4A
:104CD00001A840F201133C4A121D111F0090081F49
:104CE000FDF7A2FB9DF80400FE280CD1354840F2E8
:104CF0000113354A121D111F0090081FFDF794FB88
:104D00000020324908702F480078002858DD40F212
:104D100001122D49081FFDF76FFB2A4909788842C7
:104D200041DD28480078632809DD274A121D111F3C
:104D3000081FFDF7ADFB0020224908707CBD00254F
:104D4000002410E02248204440F201131E4A121DA4
:104D5000111F0090081FFDF767FB1D48005D2844E8
:104D6000C5B2601CC4B2174800788442EADB01A8CF
:104D700040F20113144A121D111F0090081FFDF785
:104D800053FB9DF80400A84209D10E480178104851
:104D900000F04AF80B4801780D48FEF7BFF80020F4
:104DA000084908700CE009480078401C0749087061
:104DB000084600780A2803DB0020087001490870C3
:104DC00000BFBBE7840000206808002085000020A9
:104DD0007C0A002030B5C1B040F201120E49081F14
:104DE000FDF70AFBC5B2002D14DD00240CE001A87C
:104DF000204440F20113084A121D111F0090081FA1
:104E0000FDF712FB601CC4B2AC42F0DB294601A8DE
:104E1000FFF73CFE41B030BD7409002010B5FFF72C
:104E2000D9FFFFF749FF10BDF0B587B004460D4626
:104E3000012D7DDD20788DF8080060788DF809005F
:104E4000A1788DF80A109DF808000A2874D2DFE8CE
:104E500000F073055253545556575859102D49D1E7
:104E6000E0788DF80B0021798DF80C1061798DF8C0
:104E70000D10A1798DF80E10E1798DF80F10217ABF
:104E80008DF81010617A8DF81110A17A8DF812103A
:104E9000E17A8DF81310217B8DF81410617B8DF869
:104EA0001510A17B8DF81610E07B8DF817000C21F2
:104EB0000DF10B00FFF7C6FE06469DF809109DF8A0
:104EC0000A0041EA0020B04214D11D48006888B1B0
:104ED000059800900120DFF868C002A90EC9DCF82F
:104EE00000C0E04706909DF81800012802D102A9F1
:104EF00000F03CF820E000BF00BF00BF00BF00BFD3
:104F000000BF00BF032D16D10E48006898B1059868
:104F100000909DF80800DFF82CC002A90EC9DCF84B
:104F200000C0E047074637B19DF8080002A900E03D
:104F300003E000F01BF800BF00BF07B0F0BD0000A9
:104F4000800000207C0000203EB504460294012031
:104F500002A940F20113044ACDE90010111F081FF5
:104F6000FDF70CFA3EBD00006C080020F0B58DB0D6
:104F700007460D463E46FE208DF800000124062E11
:104F80007DD006DC062E7BD2DFE806F0C50C8A8BCE
:104F90008C8D072E75D0082E74D0092E73D0FF2E5D
:104FA0006ED185E010222046611CCCB20DF80020A5
:104FB00006F18000C2B22046611CCCB20DF8002080
:104FC0006A782046611CCCB20DF80020AA782046F1
:104FD000611CCCB20DF80020EA782046611CCCB2EE
:104FE0000DF800202A792046611CCCB20DF8002073
:104FF0006A792046611CCCB20DF80020AA792046BF
:10500000611CCCB20DF80020EA792046611CCCB2BC
:105010000DF800202A7A2046611CCCB20DF8002041
:105020006A7A2046611CCCB20DF80020AA7A20468C
:10503000611CCCB20DF80020EA7A2046611CCCB28B
:105040000DF800202A7B2046611CCCB20DF8002010
:105050006A7B2046611CCCB20DF80020AA7B20465A
:10506000611CCCB20DF80020EA7B2046611CCCB25A
:105070000DF80020A01EC1B20DF1020004E013E003
:1050800049E012E012E012E000F062F82146621CF2
:10509000D4B20DF801002146684600F03FF83AE02E
:1050A00000BF00BF00BF00BF00BF00BF00BF00BF08
:1050B00003222046611CCCB20DF80020FF2E06D141
:1050C000FF222046611CCCB20DF8002007E006F15B
:1050D0008000C2B22046611CCCB20DF800206A7874
:1050E0002046611CCCB20DF80020AA782046611C35
:1050F000CCB20DF80020A01EC1B20DF1020000F0EC
:1051000027F82146621CD4B20DF8010021466846FA
:1051100000F004F800BF00BF0DB0F0BD7CB505463F
:105120000C462E4640F201120849081FFDF764F9AB
:105130002044FF2809DC40F20113044A121D111F0C
:10514000081FCDE90064FDF719F97CBD7409002042
:1051500010B502460020002305E014780444E0B2B4
:10516000521C5C1CE3B28B42F7DB10BD10B5094A40
:10517000111F081FFDF78CF9074A111F081FFDF7C3
:1051800087F9002005490860054908600548FFF7D0
:1051900075FC10BD6C080020780900207C00002000
:1051A00080000020494F00080249096809B90149F7
:1051B000086070477C0000202DE9F043A3B005464D
:1051C00088461746002400267B222046641C19A925
:1051D0000A5400BFA85D38B13046761C2A5C2046D0
:1051E000641C19A90A5400E002E01E2EF2DD00BF83
:1051F00000BF40222046641C19A90A54732220468D
:10520000641C0A5463222046641C0A546D22204602
:10521000641C0A5470222046641C0A547D222146D4
:10522000641C19A8425400222046641C19A90A547F
:10523000402109A8FBF78CF8414609A8FBF715F8AF
:1052400019A909A8FBF711F80B48FBF731FF09A8CA
:10525000FAF7ECFF81464A4609A90748FCF724FB08
:1052600001A90548FBF7FAFE1022394601A8FDF70F
:10527000D9F923B0BDE8F0839C2E0020014981F8C4
:10528000B20070479C2D002030B589B030208DF8D9
:10529000040000252BE03948445D241100BF0A2C8E
:1052A00007DA04F13000C1B26800401C01AA1154B1
:1052B00006E004F13700C1B26800401C01AA115495
:1052C0002E48445D04F00F040A2C07DA04F1300084
:1052D000C1B26800801C01AA115406E004F1370035
:1052E000C1B26800801C01AA1154681CC5B20C2D03
:1052F000D1DB00208DF81D0001A800F04FF80DF162
:10530000050000F0AFF81E4A0DF105010846FFF751
:1053100053FF1CA000F06AF81EA000F07BF85F208D
:105320008DF81D0064208DF81E006F208DF81F0081
:1053300077208DF820006E208DF8210000208DF858
:1053400022000DF1050000F079F85F208DF81D00B6
:1053500075208DF81E0070208DF81F0000208DF83C
:1053600020008DF821008DF822000DF1050000F0DD
:1053700029F80120FFF782FF09B030BD692E002017
:10538000D82D00203131392E39312E3135382E3893
:1053900000000000313838330000000010B5002153
:1053A00009E004780A464B1CD9B2054B9C54401CBA
:1053B0001E2900D102E00278002AF2D100BF10BD00
:1053C0009C2D002010B5002109E004780A464B1CF2
:1053D000D9B2054B9C54401C1E2900D102E0027832
:1053E000002AF2D100BF10BD302E002010B50021E0
:1053F00009E004780A464B1CD9B2054B9C54401C6A
:10540000102900D102E00278002AF2D100BF10BDBD
:10541000F82D002010B5002109E004780A464B1C45
:10542000D9B2054B9C54401C0A2900D102E00278F5
:10543000002AF2D100BF10BD082E002010B50021B7
:1054400009E004780A464B1CD9B2054B9C54401C19
:105450001E2900D102E00278002AF2D100BF10BD5F
:10546000122E002010B5002109E004780A464B1CDA
:10547000D9B2054B9C54401C1E2900D102E0027891
:10548000002AF2D100BF10BDBA2D002070B5B2B015
:1054900006460024C8216846FAF75AFF22480588C4
:1054A000280A8DF80000E8B28DF801001E488078C7
:1054B0008DF802001C48B0F80350280A8DF803004C
:1054C000E8B28DF804009DF803409DF804004440C4
:1054D000154840798DF805009DF8050044401248B4
:1054E00080798DF806009DF8060044400E48B0F81B
:1054F0000750280A8DF80700E8B28DF808009DF8DB
:10550000070044409DF80800444007484472407A30
:105510008DF809000448807A8DF80A0016B96846AB
:1055200000F0E6F932B070BD4F2E002030B50246D3
:105530000B4600201046B0F805100478AA2C27D19D
:10554000032B00DA30BD847B552C21D1C478222C6A
:105550001AD0252C19D02A2C02D0512C17D115E0A5
:105560000C06240C44EA11210A4C2180C479094D0F
:10557000AC70047AEC70447A2C71847A6C71C47AC1
:10558000AC71047BEC7102E001E000E000BF00BF01
:1055900000BFD7E7C000002010B5FFF73FFC00F0C8
:1055A000E5FAFFF707FB10BD10B5FFF779FB00F038
:1055B00009F8FFF7DBFD00F093FAFFF7E1FAFFF7D8
:1055C00063FE10BD0EB5FEF787FF42F21070FFF7C5
:1055D0002BF8FEF7E9FE42F21070FFF725F8FEF710
:1055E000D9FE6420FFF720F81120FBF7C5FC42F23A
:1055F0001070FFF719F83620FBF7BEFCA020FBF770
:10560000B5FC3A20FBF7B8FC0520FBF7AFFCB22055
:10561000FBF7B2FC0C20FBF7A9FC0C20FBF7A6FC67
:105620000020FBF7A3FC3320FBF7A0FC3320FBF7A3
:105630009DFCB720FBF7A0FC3520FBF797FCBB20B7
:10564000FBF79AFC3520FBF791FCC020FBF794FC9C
:105650002C20FBF78BFCC220FBF78EFC0120FBF714
:1056600085FCC320FBF788FC1320FBF77FFCC420DC
:10567000FBF782FC2020FBF779FCC620FBF77CFCC3
:105680000F20FBF773FCCA20FBF776FC0F20FBF71B
:105690006DFCC820FBF770FC0820FBF767FC552069
:1056A000FBF76AFC9020FBF761FCD020FBF764FC61
:1056B000A420FBF75BFCA120FBF758FCE020FBF7E4
:1056C0005BFCD020FBF752FC0020FBF74FFC0620D0
:1056D000FBF74CFC0920FBF749FC0B20FBF746FCD1
:1056E0002A20FBF743FC3C20FBF740FC5520FBF74E
:1056F0003DFC4B20FBF73AFC0820FBF737FC16205B
:10570000FBF734FC1420FBF731FC1920FBF72EFCCF
:105710002020FBF72BFCE120FBF72EFCD020FBF731
:1057200025FC0020FBF722FC0620FBF71FFC0920CC
:10573000FBF71CFC0B20FBF719FC2920FBF716FCE0
:105740003620FBF713FC5420FBF710FC4B20FBF733
:105750000DFC0D20FBF70AFC1620FBF707FC1420BC
:10576000FBF704FC2120FBF701FC2020FBF7FEFBEC
:105770002920FBF701FCFEF7B1FAFEF7D3FA00206F
:1057800000904FF6FF731022012101900846FBF7AD
:105790005FFB002000904FF6FF730F220121019064
:1057A0002120FBF755FB002000904FF6FF730322EA
:1057B00001210190FA20FBF74BFB002000904FF6EF
:1057C000FF730422012101904FF48D70FBF740FB21
:1057D000002000904FF6FF73122201210190D22089
:1057E000FBF736FB00203021CDE900014FF6FF73B7
:1057F00003A2642102904620FBF78AFB0EBD000045
:105800002044495341524D200000000010B501468C
:105810000022084600E0401C03783A2BFBD1401CD4
:105820000378303B094C237000E0401C0378222BA6
:10583000FBD1401C06E00478044B5B1C9C54531CB9
:10584000DAB2401C0378222BF5D110BDF8190020E4
:1058500070B5B2B006460D460E2E45DA002440E083
:10586000C6EBC60000EB8000204901EB4000005D64
:1058700050B1C6EBC60000EB800001EB4000015DBB
:10588000601C0DF800102BE02878FF2816D0082E99
:105890000AD105E02978601C0DF80010641C6D1C0D
:1058A0002878FF28F6D109E005E02978601C0DF87A
:1058B0000010641C6D1C28780028F6D10D21601C96
:1058C0000DF80010641C0A21601C0DF80010641C07
:1058D000601CC0B28DF800006846FDF7C1FC02E014
:1058E000641C462CBCD300BF32B070BD2CD3000862
:1058F000F0B5B5B0054640480078042879D13F4856
:105900000078082875D1002400260CE03046711C70
:10591000CEB23B490A5C2046611CCCB203A90A54B2
:105920001E2E00D103E03648805D0028EED100BF76
:1059300022222046611CCCB203A90A542C22204604
:10594000611CCCB203A90A5422222046611CCCB2AD
:1059500003A90A54287807026D1C2878384487B2B6
:105960006D1C16E0287801AA02A9FFF7C3F89DF87C
:1059700008202046611CCCB203A90A549DF80420DB
:105980002046611CCCB203A90A546D1CC22C00DB5A
:1059900004E0381EA7F101018FB2E3D100BF22223B
:1059A0002046611CCCB203A90A542C222046611C5B
:1059B000CCB203A90A5432222146601CC4B203A807
:1059C00042542C222146601CC4B203A84254302207
:1059D0002046611CCCB203A90A5400222046611C57
:1059E000CCB203A90A540B20FFF732FF0020FFF7C7
:1059F00045FC35B0F0BD00008B0000208A0000207F
:105A0000302E002010B5044603480470034A111FCD
:105A1000081FFCF73DFD10BD8B000020E80A0020A8
:105A200010B50446FDF7B2FF012828D1012C08D19A
:105A300000201A490880012000F044F80020FFF7F8
:105A4000E1FF1648008818B900F04AF8FDF7D0FECB
:105A500012480088B0F57A7F0FDA10480088401CA1
:105A60000E49088008460088962804DD4FF4FA6045
:105A70000880FDF7C5FE002010BD0120FCE70020D6
:105A80000649088006490870012000F01BF8002034
:105A9000FFF7B8FFFDF7ACFE0020EDE78C0000201B
:105AA000F819002001B582B0012002A940F201439B
:105AB000034ACDE90010111F081FFCF75FFC0EBD63
:105AC000E80A002010B5044603480470034A111F79
:105AD000081FFCF7DDFC10BD8A000020E80A00204A
