:020000040800F2
:1000000030280020ED0100081D1C0008590B0008D5
:100010006D18000807060008AF3000080000000057
:10002000000000000000000000000000572200084F
:100030008508000800000000FD1D00085325000889
:10004000070200080702000807020008070200086C
:10005000070200080702000807020008070200085C
:10006000070200080702000807020008070200084C
:1000700007020008070200080D0600080702000832
:10008000070200080702000807020008070200082C
:10009000070200080702000807020008070200081C
:1000A000070200080702000807020008070200080C
:1000B00007020008B5280008812900080702000887
:1000C00007020008070200080702000807020008EC
:1000D00007020008C52D00083D2E0008812E0008EB
:1000E00007020008070200080702000800000000DD
:1000F0000000000000000000000000000000000000
:1001000000000000000000000702000807020008CD
:10011000070200088D2D00080702000807020008EA
:10012000070200080702000807020008070200088B
:10013000070200080702000807020008070200087B
:10014000070200080702000807020008070200086B
:1001500000F002F800F03AF80AA090E8000C82449F
:100160008344AAF10107DA4501D100F02FF8AFF27C
:10017000090EBAE80F0013F0010F18BFFB1A43F085
:100180000103184790D40000B0D40000103A24BFF7
:1001900078C878C1FAD8520724BF30C830C144BFEC
:1001A00004680C607047000000230024002500262E
:1001B000103A28BF78C1FBD8520728BF30C148BFCA
:1001C0000B6070471FB51FBD10B510BD00F01CF9C6
:1001D0001146FFF7F7FF04F0EFFB00F03AF903B424
:1001E000FFF7F2FF03BC00F041F900000948804727
:1001F00009480047FEE7FEE7FEE7FEE7FEE7FEE709
:10020000FEE7FEE7FEE7FEE704480549054A064B20
:10021000704700005D2500085101000830220020D1
:1002200030280020302400203024002010B5431C4A
:1002300002E010F8011B71B18107FAD14FF00132D1
:1002400002C88C1A8C4314EAC211F9D0C01A0A06EB
:1002500003D0C01E10BDC01A10BD0A0401D0801EFC
:1002600010BD0902FCD0401E10BD421E12F8013F15
:10027000002BFBD111F8013B002B02F8013BF9D117
:100280007047032A40F2308010F0030C00F0158014
:1002900011F8013BBCF1020F624498BF11F801CB89
:1002A00000F8013B38BF11F8013BA2F1040298BFEE
:1002B00000F801CB38BF00F8013B11F0030300F058
:1002C0007180083AC0F0088051F8043B083A51F8B0
:1002D00004CBA0E80810F5E7121D5CBF51F8043B01
:1002E00040F8043BAFF30080D20724BF11F8013B74
:1002F00011F801CB48BF11F8012B24BF00F8013BD6
:1003000000F801CB48BF00F8012B70474FF0000206
:100310000429C0F0128010F0030C00F01B80CCF117
:10032000040CBCF1020F18BF00F8012BA8BF20F885
:10033000022BA1EB0C0100F00DB85FEAC17C24BFD9
:1003400000F8012B00F8012B48BF00F8012B704783
:100350004FF0000200B5134694469646203922BF5E
:10036000A0E80C50A0E80C50B1F12001BFF4F7AFA9
:10037000090728BFA0E80C5048BF0CC05DF804EB8B
:10038000890028BF40F8042B08BF704748BF20F8F9
:10039000022B11F0804F18BF00F8012B70477047F7
:1003A0007047704710B5203AC0F00B80B1E8185084
:1003B000203AA0E81850B1E81850A0E81850BFF44F
:1003C000F5AF5FEA027C24BFB1E81850A0E81850EE
:1003D00044BF18C918C0BDE810405FEA827C24BF42
:1003E00051F8043B40F8043B08BF7047D20728BFD0
:1003F00031F8023B48BF11F8012B28BF20F8023B1F
:1004000048BF00F8012B7047754600F02BF8AE4648
:1004100005006946534620F00700854618B020B510
:10042000FFF7F2FEBDE820404FF000064FF0000756
:100430004FF000084FF0000B21F00701AC46ACE88C
:10044000C009ACE8C009ACE8C009ACE8C0098D46F9
:10045000704710B50446AFF300802046BDE8104059
:10046000FFF7BDBE00487047CC210020014918208D
:10047000ABBEFEE726000200704721B1826842F061
:100480000102826003E0826822F00102826070470C
:10049000014600208A6802F004020AB1012000E04F
:1004A000002070470146C86C80B2704702460020A9
:1004B00013680B400BB1012000E00020704701469B
:1004C00000208A6802F008020AB1012000E0002042
:1004D0007047000030B502460020002350680F4CE2
:1004E00020400D790C6844EA052420435060906850
:1004F0000B4C2040D1E902542C434D7944EA450489
:1005000020439060D06A20F470000C7C641EE4B23A
:10051000234340EA0350D06230BD0000FFFEF0FFED
:10052000FDF7F1FFF0B504460D4600200021092D2E
:1005300011DDE068A5F10A0606EB4607072606FA74
:1005400007F18843A5F10A0606EB460603FA06F111
:100550000843E0600CE0206905EB4507072606FA32
:1005600007F1884305EB450603FA06F108432061CD
:10057000072A0FDA606B561E06EB86071F2606FA5F
:1005800007F18843561E06EB860605FA06F1084376
:10059000606322E00D2A0FDA206BD61F06EB860778
:1005A0001F2606FA07F18843D61F06EB860605FAD2
:1005B00006F10843206310E0E06AA2F10D0606EBA5
:1005C00086071F2606FA07F18843A2F10D0606EBFF
:1005D000860605FA06F10843E062F0BD816841F045
:1005E00008018160704721B1826842F4A0028260F4
:1005F00003E0826822F4A00282607047816841F0C3
:1006000004018160704700BFFEE7000010B54FF4A1
:10061000005000F0D1F850B14FF4005000F00CF849
:100620000021034800F016F800200249087010BDB0
:10063000440002405000002000F0805111B10349F5
:10064000086001E00249486070470000040402406D
:100650000000024021B1026842F00102026004E0A1
:1006600002684FF6FE731A400260704701684FF649
:10067000FE72114001600021016041608160C16033
:100680004B49884208D14A490839496841F00F016D
:10069000474A083A51608AE045491431884208D1F6
:1006A00043490839496841F0F001414A083A51602C
:1006B0007DE03F492831884208D13D4908394968E1
:1006C00041F470613A4A083A516070E038493C316F
:1006D000884208D136490839496841F47041344AA2
:1006E000083A516063E032495031884208D13049BC
:1006F0000839496841F470212D4A083A516056E0A2
:100700002B496431884208D129490839496841F4A4
:100710007001274A083A516049E0254978318842FA
:1007200008D123490839496841F07061204A083AE4
:1007300051603CE01F49884206D1011F096841F021
:100740000F01021F116032E01A491431884208D1AA
:100750001849091F096841F0F001164A121F11607B
:1007600025E014492831884208D11249091F096837
:1007700041F470610F4A121F116018E00D493C31BD
:10078000884208D10B49091F096841F47041094AA0
:10079000121F11600BE007495031884207D105490B
:1007A000091F096841F47021024A121F1160704745
:1007B000080002400804024001460020002201F027
:1007C000805313B1054B1A6801E0054B1A6802EA21
:1007D00001030BB1012000E000207047000402403B
:1007E000000002401AB103680B43036002E0036893
:1007F0008B430360704710B50022026847F6F07320
:100800009A430C6A8B6823430C6923434C69234346
:100810008C692343CC6923434C6A23438C6A23436A
:100820001A430260CB6843600B6883604B68C36007
:1008300010BD0000124A126842F0F002104B1A601C
:100840000F4A1C3211600E4A243210600C4A1832D2
:10085000126842F001020A4B18331A6000BF084ABE
:10086000121F126802F02002002AF8D0044A18323F
:10087000126822F00102024B18331A607047000020
:10088000040402407047000010B50B48006864285B
:1008900011D209480068401C0749086008460068F2
:1008A000052802D102F000FF05E003480068502847
:1008B00001D102F001FF10BDAC0000202DE9F04194
:1008C000024600250026002000230024002791F87E
:1008D00003C00CF00F0591F803C00CF0100CBCF134
:1008E000000F03D091F802C04CEA050591F800C052
:1008F000BCF1000F31D0146800202BE04FF0010C48
:100900000CFA00F3B1F800C00CEA03069E4220D1B5
:1009100083004FF00F0C0CFA03F7BC4305FA03FCFD
:100920004CEA040491F803C0BCF1280F06D14FF043
:10093000010C0CFA00FCC2F814C00AE091F803C0E4
:10094000BCF1480F05D14FF0010C0CFA00FCC2F8C5
:1009500010C0401C0828D1D31460B1F800C0BCF10D
:10096000FF0F34DD546800202EE000F1080C4FF03A
:10097000010808FA0CF3B1F800C00CEA03069E4225
:1009800021D183004FF00F0C0CFA03F7BC4305FA9A
:1009900003FC4CEA040491F803C0BCF1280F05D114
:1009A00000F1080C08FA0CF8C2F8148091F803C0A2
:1009B000BCF1480F07D100F1080C4FF0010808FA0C
:1009C0000CF8C2F81080401C0828CED35460BDE853
:1009D000F0810000F0B50A46002300240021002524
:1009E00000F00046B6F1004F02D11D4EF16901E062
:1009F0001B4E7168C0F3034583B200F44016B6F590
:100A0000401F08D121F07061154E766826F070669F
:100A1000134F7E6012E000F48016B6F5801F06D1F9
:100A2000032606FA05F4A14341F0706106E0460D85
:100A3000360103FA06F6B14341F0706122B1460D6A
:100A4000360103FA06F6314300F00046B6F1004FD6
:100A500002D1034EF16101E0014E7160F0BD000072
:100A6000000001400246002093680B400BB10120BA
:100A700000E00020704702460020D3680B400BB115
:100A8000012000E00020704741617047016170471C
:100A90000AB1016100E0416170470146002004E0B5
:100AA000401C322800D903E0491C0A78002AF7D1FB
:100AB00000BF704710B5002432E004EB44001A492F
:100AC00001EB8000806848B304EB440011F820007B
:100AD000022823D104EB440001EB80004088401C35
:100AE00004EB4401104A02EB8101488004EB44000E
:100AF000114601EB8000408804EB440102EB8101C8
:100B0000898888420ADB012004EB440102F82100B5
:100B100004EB440102EB810188688047601CC4B289
:100B2000022CCADB10BD00001C01002070B5054678
:100B30000E4600240BE000BF4021064802F0E6F913
:100B40000028F9D0295D034802F0ADFA641CB442D4
:100B5000F1D370BD0048004000BFFEE72DE9F04131
:100B600004460D4616461F462A2000F0A1F9A11C96
:100B700088B200F08AF9B11C88B200F086F92B2007
:100B800000F096F9691C88B200F07FF9791C88B2F0
:100B900000F07BF92C2000F08BF9BDE8F08170B5F6
:100BA00004460D4616462B46224629462046FFF7A8
:100BB000D5FF304600F069F970BD00002DE9F0471F
:100BC00081460F4615461E46DDF82080701E83B212
:100BD000681E82B239464846FFF7C0FF00240AE08B
:100BE0004FEA28222046611C8CB20A490A5401F8B7
:100BF0000480601C84B2AC42F2DB3C4605E029462E
:100C00000448FFF717FE601C84B2B4EB460FF6DB16
:100C1000BDE8F087DC0500202DE9FF5F80468A46AD
:100C200017469B460F9D00200290CDF80080284675
:100C300005EBD071C1F347042046E21704EB527272
:100C4000D2102146E31704EB5373DB10A4EBC3036C
:100C50000BB1012300E000231A446A4392B20192CF
:100C6000A7F12000C7B20AEB0500401E83B208EBD3
:100C70000400401E82B251464046FFF76FFF002637
:100C800073E00C2D07D107EB47003A4901EB8000D8
:100C9000805D039025E0102D05D1374800EB07104B
:100CA000805D03901DE0182D07D107EB4700334905
:100CB00001EB0010805D039013E0202D05D130483A
:100CC00000EB8710805D03900BE0302D07D107EB20
:100CD000C7002C4901EB0010805D039001E0BDE8E6
:100CE000FF9F4FF000093AE01098C8B9012000FAC0
:100CF00009F00399084018B1584600F0C6F802E020
:100D00000E9800F0C2F80298401CC0B202900298FF
:100D100090FBF4F104FB1100E8B90020029021E0FF
:100D2000012000FA09F00399084020B15A465146C3
:100D30004046FFF734FF08F101001FFA80F80098E1
:100D4000A8EB0000A04206D1DDF800800AF1010006
:100D50001FFA80FA06E009F1010000F0FF09B9F17D
:100D6000080FC1DB00BF701C86B20198864288DB89
:100D700000BFB4E7785D0008EC610008DC6700089C
:100D8000AC7900086C9100082DE9FF4782B0044659
:100D90000E461F4600200190A2468020009006F1DA
:100DA0001F0083B204F11F0082B231462046FFF7D4
:100DB000D5FE4FF000093FE02249049801EBC01036
:100DC00010F80980002530E00F98C0B90120A84034
:100DD00000EA080018B1384600F057F802E00E9813
:100DE00000F053F80198401CC0B20190019890FBAC
:100DF000FBF10BFB1100B0B90020019017E00120BE
:100E0000A84000EA080020B13A4631462046FFF7E4
:100E1000C6FE601C84B2A4EB0A00584503D15446B8
:100E2000701C86B203E0681CC5B2082DCCDB00BF85
:100E300009F101001FFA80F900988145BCDB06B07A
:100E4000BDE8F087DCC600082DE9FE4F06460F46D8
:100E500014469846DDE90D5ADDF8309010E0CDE9F2
:100E6000015ACDF800902278434639463046FFF7C4
:100E7000D3FE284605EBD07106EB61018EB2641CEF
:100E800020780028EBD1BDE8FE8F18B5044620126B
:100E90008DF80000E0B28DF8010002216846FFF7EE
:100EA000C9FC18BD10B50446204600F011F810BD6D
:100EB00010B5044610210548FFF7E6FD204600F076
:100EC00007F810210148FFF7E1FD10BD000C0140BB
:100ED00001B540210348FFF7D7FD01216846FFF720
:100EE000A9FC08BD000C014010B5044609200C49BE
:100EF0000880AA20887008460088C01EA1F8030058
:100F0000292048710020887108210548A0F80710A1
:100F1000552003498872002004F0AAF910BD000092
:100F20002A21002070B503460024002010E00E5C4A
:100F3000451C4D5D46EA0526851C4D5D46EA054685
:100F4000C51C4D5D46EA056543F82450641C001D30
:100F50009042ECD370BD70B50346144600220020C9
:100F600015E011F822501D5431F82250C5F3072620
:100F7000451C5E5551F82250C5F30746851C5E5549
:100F800051F822502D0EC61C9D55521C001DA0422A
:100F9000E7D370BD2DE9FC4104460E46002500272D
:100FA0002088C0F3C505382D02D2C5F1380001E014
:100FB000C5F178000746082221466846FFF7CBFFB7
:100FC0003A460849204600F00BFC082269462046B4
:100FD00000F006FC102204F108013046FFF7BBFFC9
:100FE000BDE8FC81DC000020002101604160054972
:100FF0008160054AC260CA430261034AD24342612A
:10100000704700000123456789ABCDEF2DE9F04320
:10101000C0B080468946D8F80040D8F80450D8F8C7
:101020000860D8F80C70402249466846FFF77AFFFE
:1010300005EA060027EA0501084300990844FE492D
:1010400008440444E00140EA54642C4404EA0500E6
:1010500026EA0401084301990844F8490844074472
:10106000380340EA1757274407EA040025EA070136
:10107000084302990844F24908440644700440EACF
:10108000D6363E4406EA070024EA060108430399DF
:101090000844EC4908440544A80540EA9525354430
:1010A00005EA060027EA0501084304990844E649D1
:1010B00008440444E00140EA54642C4404EA050076
:1010C00026EA0401084305990844E0490844074416
:1010D000380340EA1757274407EA040025EA0701C6
:1010E000084306990844DA4908440644700440EA73
:1010F000D6363E4406EA070024EA0601084307996B
:101100000844D44908440544A80540EA95253544D7
:1011100005EA060027EA0501084308990844CE4974
:1011200008440444E00140EA54642C4404EA050005
:1011300026EA0401084309990844C84908440744B9
:10114000380340EA1757274407EA040025EA070155
:1011500008430A990844A0F524404F380644700417
:1011600040EAD6363E4406EA070024EA0601084370
:101170000B990844BA4908440544A80540EA952556
:10118000354405EA060027EA050108430C9908449E
:10119000B44908440444E00140EA54642C4404EA9D
:1011A000050026EA040108430D990844AE490844A5
:1011B0000744380340EA1757274407EA040025EAA2
:1011C000070108430E990844A849084406447004DE
:1011D00040EAD6363E4406EA070024EA0601084300
:1011E0000F990844A24908440544A80540EA9525FA
:1011F000354405EA070026EA070108430199084437
:101200009C4908440444600140EAD4642C4404EA44
:10121000060025EA06010843069908449649084451
:101220000744780240EAD757274407EA050024EA32
:10123000050108430B990844904908440644B0034B
:1012400040EA96463E4406EA040027EA04010843C1
:10125000009908448A4908440544280540EA1535A0
:10126000354405EA070026EA0701084305990844C2
:10127000844908440444600140EAD4642C4404EAEC
:10128000060025EA060108430A9908447E490844F5
:101290000744780240EAD757274407EA050024EAC2
:1012A000050108430F990844784908440644B003EF
:1012B00040EA96463E4406EA040027EA0401084351
:1012C00004990844724908440544280540EA153544
:1012D000354405EA070026EA07010843099908444E
:1012E0006C4908440444600140EAD4642C4404EA94
:1012F000060025EA060108430E9908446649084499
:101300000744780240EAD757274407EA050024EA51
:101310000501084303990844604908440644B003A2
:1013200040EA96463E4406EA040027EA04010843E0
:10133000089908445A4908440544280540EA1535E7
:10134000354405EA070026EA070108430D990844D9
:10135000544908440444600140EAD4642C4404EA3B
:10136000060025EA06010843029908444E4908444C
:101370000744780240EAD757274407EA050024EAE1
:101380000501084307990844484908440644B00346
:1013900040EA96463E4406EA040027EA0401084370
:1013A0000C990844424908440544280540EA15358B
:1013B000354485EA06007840059908443D490844CB
:1013C0000444200140EA14742C4484EA050070406F
:1013D00008990844384908440744F80240EA575736
:1013E000274487EA040068400B99084433490844BD
:1013F0000644300440EA16463E4486EA0700604050
:101400000E9908442E4908440544E80540EA55254C
:10141000354485EA06007840019908442949084482
:101420000444200140EA14742C4484EA050070400E
:1014300004990844244949E078A46AD756B7C7E814
:10144000DB702024EECEBDC1AF0F7CF52AC68747E6
:10145000134630A8019546FDD8988069AFF7448BB4
:10146000BED75C892211906B937198FD8E4379A64B
:101470002108B44962251EF640B340C0515A5E2689
:10148000AAC7B6E95D102FD65314440281E6A1D84D
:10149000C8FBD3E7E6CDE121D60737C3870DD5F4E6
:1014A000ED145A4505E9E3A9F8A3EFFCD9026F67EB
:1014B0008A4C2A8D4239FAFF81F6718722619D6D2F
:1014C0000C38E5FD44EABEA4A9CFDE4B084407442E
:1014D000F80240EA5757274487EA04006840079912
:1014E0000844A54908440644300440EA16463E44F0
:1014F00086EA070060400A990844A0490844054468
:10150000E80540EA5525354485EA060078400D99FE
:1015100008449B4908440444200140EA14742C44C4
:1015200084EA05007040009908449649084407443D
:10153000F80240EA5757274487EA040068400399B5
:101540000844914908440644300440EA16463E44A3
:1015500086EA07006040069908448C49084405441F
:10156000E80540EA5525354485EA060078400999A2
:101570000844874908440444200140EA14742C4478
:1015800084EA050070400C990844824908440744E5
:10159000F80240EA5757274487EA040068400F9949
:1015A00008447D4908440644300440EA16463E4457
:1015B00086EA0700604002990844784908440544D7
:1015C000E80540EA5525354465EA07007040009972
:1015D0000844734908440444A00140EA94642C443C
:1015E00064EA06006840079908446E4908440744C5
:1015F000B80240EA9757274467EA050060400E9911
:101600000844694908440644F00340EA56463E440B
:1016100066EA040078400599084464490844054492
:10162000680540EAD525354465EA070070400C9905
:1016300008445F4908440444A00140EA94642C44EF
:1016400064EA06006840039908445A49084407447C
:10165000B80240EA9757274467EA050060400A99B4
:101660000844554908440644F00340EA56463E44BF
:1016700066EA04007840019908445049084405444A
:10168000680540EAD525354465EA070070400899A9
:1016900008444B4908440444A00140EA94642C44A3
:1016A00064EA060068400F99084446490844074424
:1016B000B80240EA9757274467EA05006040069958
:1016C0000844414908440644F00340EA56463E4473
:1016D00066EA040078400D9908443C4908440544F2
:1016E000680540EAD525354465EA0700704004994D
:1016F0000844374908440444A00140EA94642C4457
:1017000064EA060068400B990844324908440744DB
:10171000B80240EA9757274467EA050060400299FB
:1017200008442D4908440644F00340EA56463E4426
:1017300066EA0400784009990844284908440544A9
:10174000680540EAD5253544D8F800002044C8F89B
:101750000000D8F804002844C8F80400D8F80800AD
:101760003044C8F80800D8F80C003844C8F80C0019
:1017700040B0BDE8F0830000604BBBF670BCBFBE5C
:10178000C67E9B28FA27A1EA8530EFD4051D880480
:1017900039D0D4D9E599DBE6F87CA21F6556ACC4F4
:1017A000442229F497FF2A43A72394AB39A093FC42
:1017B000C3595B6592CC0C8F7DF4EFFFD15D8485BE
:1017C0004F7EA86FE0E62CFE144301A3A111084E42
:1017D000827E53F735F23ABDBBD2D72A91D386EB3E
:1017E0002DE9F04704460F4615460026B046B1469F
:1017F0002088C0F3C508C8F14009206800EBC50087
:1018000020602068B0EBC50F02D26068401C6060A9
:10181000606800EB557060604D451CD304F1180101
:1018200001EB08004A463946FEF72BFD04F118018A
:1018300004F10800FFF7EAFB4E4605E0B91904F190
:101840000800FFF7E3FB403606F14000A842F5D957
:101850004FF0000800E00026AA1BB91904F1180394
:1018600003EB0800FEF70DFDBDE8F08700BFFEE7C3
:1018700030B5B3B0E2480078052821D2DFE800F0A7
:101880000321F0EEED00DF480068401CDD490860F0
:1018900008460068C82813D9C82101A8FEF758FDDA
:1018A000FF208DF804000020D649086001A90D2012
:1018B00003F0C0FE012003F097FF002033B030BDDD
:1018C0009AE1D0480068401CCE49086000240025F9
:1018D00008460068B0F5967F77D9002008600CE0D4
:1018E0002846691CCDB2C8490A5C2046611CCCB2AE
:1018F00001A90A541E2D00D103E0C348405D002811
:10190000EED100BFC0480078302805D1BE4800782D
:10191000401CBD4908700EE0BB480078392805DB43
:10192000012003F06FFF3020B7490870B6480078F7
:10193000401CB549087022222046611CCCB201A986
:101940000A542C222046611CCCB201A90A5422223E
:101950002046611CCCB201A90A5400250DE028469E
:10196000691CCDB2A8491E310A5C2046611CCCB26C
:1019700001A90A541E2D00D104E0A3481E30405D89
:101980000028ECD100BF22222046611CCCB201A964
:101990000A542C222046611CCCB201A90A542222EE
:1019A0002046611CCCB201A90A5400250EE028464D
:1019B000691CCDB294493C310A5C2046611CCCB212
:1019C00001A90A54202D01D105E045E08E483C30A4
:1019D000405D0028EBD100BF22222046611CCCB222
:1019E00001A90A542C222046611CCCB201A90A5438
:1019F00030222046611CCCB201A90A542C22204678
:101A0000611CCCB201A90A5430222046611CCCB220
:101A100001A90A542C222046611CCCB201A90A5407
:101A200022222046611CCCB201A90A542046611C26
:101A3000CCB201A90A5400222046611CCCB201A9F3
:101A40000A54092003F0F6FDC82101A8FEF780FC26
:101A500000206E49087031E7CEE0B2E06DE0FFE7AC
:101A600068480068401C6749086000240025084653
:101A70000068B0F5967F5FD9002008606348007861
:101A8000032807DD002061490870012003F0BAFE39
:101A9000002013E70DE02846691CCDB25A495C319D
:101AA0000A5C2046611CCCB201A90A54102D00D159
:101AB00004E055485C30405D0028ECD100BF222294
:101AC0002046611CCCB201A90A542C222046611C7C
:101AD000CCB201A90A5400250DE02846691CCDB2FC
:101AE00049496C310A5C2046611CCCB201A90A54F8
:101AF0000A2D00D104E044486C30405D0028ECD150
:101B000000BF2C222046611CCCB201A90A5430220D
:101B10002046611CCCB201A90A5400222046611C57
:101B2000CCB201A90A540A2003F084FDC82101A8FF
:101B3000FEF70EFC0020C1E65EE032480068401C63
:101B4000304908600024002508460068C82837D9B5
:101B5000002008600DE02846691CCDB22A49763184
:101B60000A5C2046611CCCB201A90A541E2D00D18A
:101B700004E025487630405D0028ECD100BF2222E9
:101B80002046611CCCB201A90A542C222046611CBB
:101B9000CCB201A90A5430222046611CCCB201A962
:101BA0000A5400222046611CCCB201A90A540C2020
:101BB00003F040FDC82101A8FEF7CAFB00207DE626
:101BC0001AE010480068401C0E490860084600688A
:101BD0000F49096888420ED90E480078012805D1BE
:101BE00000200C4908700C4809490860002005498C
:101BF0000860FFF779F900BF00BFFF205EE6000034
:101C00008B00002090000020772000208900002019
:101C1000980000209400002040771B0070470000CF
:101C200070B5002100230F22C47804B3154C24683A
:101C300004F4E064C4F5E064210AC1F10403CA407D
:101C4000447804FA03F184781440214309010E4CCE
:101C50000678A155047804F01F050124AC400578EE
:101C60006D11AD0005F1E025C5F8004109E00478EB
:101C700004F01F050124AC40044D0678761145F8A8
:101C8000264070BD0CED00E000E400E080E100E0E3
:101C900002490143024A1160704700000000FA0542
:101CA0000CED00E00249096809B901490860704774
:101CB000C400002000202CE000EB4001164A52F83E
:101CC000211021B300EB400102EB81010989491C7D
:101CD00000EB4002104B03EB8202118100EB40014C
:101CE0001A4602EB8101098900EB400203EB8202F4
:101CF000D28891420BDB002100EB400203EB820211
:101D00001181012100EB400203EB82021171411CA1
:101D1000C8B20328D0DB70475021002070B500EB1B
:101D200040040E4D55F82440B4B900EB400445F88A
:101D30002410002400EB4005084E06EB85052C71AD
:101D400000EB4004354605EB8404E280002400EB00
:101D5000400506EB85052C8170BD00005021002058
:101D600019E0002415E004EB44000B4901EB80006E
:101D7000007901280BD1002004EB4401064A02EB54
:101D80008101087104EB440152F821008047601C76
:101D9000C4B2032CE7DBE4E750210020002016E06A
:101DA000002100EB40020B4B43F8221000EB4002F5
:101DB00003EB8202117100EB400203EB8202D1803F
:101DC00000EB400203EB82021181411CC8B20328E0
:101DD000E6DB704750210020002007E00549014460
:101DE00091F8E817044A1154411CC8B20C28F5DBDD
:101DF0007047000000F0FF1F4421002070470000E2
:101E00001CB501F037FD01286FD1002000904FF67E
:101E1000FF731022012101900846FEF7B5FF02F082
:101E200079F9052811D100205E49088002F072F985
:101E30000A30C4B2002000904FF6FF732246012101
:101E400001902120FEF7A0FFAAE056480088401C20
:101E5000544908800846008832280AD100200090A2
:101E60004FF6FF730A22012101902120FEF78CFF1B
:101E700096E04C48008864280AD1002000904FF674
:101E8000FF730B22012101902120FEF77DFF87E0E7
:101E90004448008896280AD1002000904FF6FF732E
:101EA0000C22012101902120FEF76EFF78E03D48D1
:101EB0000088C8280AD1002000904FF6FF730D2239
:101EC000012101902120FEF75FFF69E0354800887D
:101ED000FA280BD1002000904FF6FF730E2201214B
:101EE00001902120FEF750FF5AE011E02D480088B4
:101EF000B0F5967F54D100202A49088000904FF613
:101F0000FF730F22012101902120FEF73DFF47E0E2
:101F1000002000904FF6FF73112201210190084626
:101F2000FEF732FF02F0F6F8012828DC1D48008891
:101F3000401C1C4908800846008832280ED102F057
:101F4000E9F80A30C4B2002000904FF6FF73224631
:101F5000012101902120FEF717FF21E011480088A0
:101F600064281DDD00200F49088000904FF6FF73A4
:101F70001322012101902120FEF706FF10E000202E
:101F80000849088002F0C6F80A30C4B20020009068
:101F90004FF6FF732246012101902120FEF7F4FE47
:101FA0001CBD0000B400002001460020034A506818
:101FB00020F4404008435060704700000010024089
:101FC00029B1064A52690243044B5A6104E0034AAC
:101FD00052698243014B5A61704700000010024071
:101FE00029B1064AD2690243044BDA6104E0034A8C
:101FF000D2698243014BDA61704700000010024051
:1020000029B1064A12690243044B1A6104E0034AEB
:1020100012698243014B1A617047000000100240B0
:1020200029B1064A92690243044B9A6104E0034ACB
:1020300092698243014B9A61704700000010024090
:1020400029B1064AD2680243044BDA6004E0034A2D
:10205000D2688243014BDA607047000000100240F2
:102060002DE9F04100210022002500230026002454
:1020700000278C46DFF86081D8F8048008F00C0156
:1020800021B1042907D0082959D109E0DFF84C8192
:10209000C0F8008058E0DFF84881C0F8008053E0C5
:1020A000DFF83481D8F8048008F47012DFF8288152
:1020B000D8F8048008F48035920C0D2A01D0921CC7
:1020C00000E0062235B9DFF81C8102FB08F8C0F8F1
:1020D000008033E0DFF80081D8F82C8008F48036E7
:1020E000DFF8F480D8F82C8008F00F0808F101041C
:1020F00046B9DFF8EC80B8FBF4F808FB02F8C0F84A
:1021000000801BE0DFF8D080D8F82C80C8F30318DB
:1021100008F10107DFF8C080D8F82C80C8F3032845
:1021200008F1020CDFF8B880B8FBF7F808FB0CF8F0
:10213000B8FBF4F808FB02F8C0F8008004E0DFF810
:102140009C80C0F8008000BF00BFDFF88C80D8F80A
:10215000048008F0F0010909DFF88C8018F80130DC
:10216000D0F8008028FA03F8C0F80480DFF868800F
:10217000D8F8048008F4E061090ADFF86C8018F8E8
:102180000130D0F8048028FA03F8C0F80880DFF89E
:102190004880D8F8048008F46051C90ADFF8488004
:1021A00018F80130D0F8048028FA03F8C0F80C8041
:1021B000DFF82480D8F8048008F44041890BDFF868
:1021C0002C8018F80130D0F80C80B8FBF3F8C0F878
:1021D0001080BDE8F08100000010024000127A007B
:1021E00040787D0100093D00C8000020D800002093
:1021F00021B1028842F04002028004E002884FF6DA
:10220000BF731A40028070471AB183880B438380E2
:1022100002E083888B438380704710B500220288D8
:1022200002F441520B884C8823438C882343CC888A
:1022300023430C8923434C8923438C892343CC8932
:1022400023431A430280838B4FF2FF74234083831E
:102250000B8A038210BD70472DE9F84F05460C46E6
:1022600016461F46DDE90A9A1948006820B16946FA
:102270000020174A126890474FF000081CE099F8B8
:102280000000216808702068401C2060F119206857
:10229000884200D1266020682968884206D12868D3
:1022A000401CF1192860884200D12E6008F101001D
:1022B0001FFA80F809F10109D045E0DB0448006805
:1022C00020B169460120024A12689047BDE8F88FA4
:1022D000C400002010B5034608681C68A04204D959
:1022E00008881C88001B80B210BD08681C68A042CA
:1022F00005D2088810441C88001B80B2F4E7002037
:10230000F2E700002DE9F84304460E4615461F4645
:10231000DDF820804FF000091348006820B16946BD
:102320000020114A12689047002088F800003068A9
:10233000216888420CD02068007888F800004FF0AF
:1023400001092068401CE9192060884200D12560FD
:102350000548006820B169460120034A1268904789
:102360004846BDE8F8830000C400002002600A600F
:1023700070472DE9F05F04460D4690462846FEF76B
:102380008CFB8146C84504D3A8EB090000F1010A83
:1023900002E0FF20BDE8F09F002600271CE0207827
:1023A0002978884216D14FF0010B0FE0761C4E457C
:1023B00001D13846EEE7641C6D1C207829788842EC
:1023C00004D0A41BAD1B0026B34602E0BBF1000FF6
:1023D000ECD100BF641C7F1C5745E0D3FF20D9E738
:1023E00010B500F001F810BD0CB500200190009070
:1023F0003F48006840F480303D49086000BF3C48D9
:10240000006800F4003000900198401C0190009892
:1024100018B90198B0F5A06FF1D13548006800F403
:10242000003010B10120009001E0002000900098E1
:1024300001285CD12F48006840F010002D49086049
:102440000846006820F0030008600846006840F075
:1024500002000860264840682549486008464068F0
:1024600048600846406840F4806048600846C06A9A
:10247000214908401E49C8620846C06A1F490843EE
:102480001B49C8620846006840F08060086000BFD1
:102490001748006800F000600028F9D01448406830
:1024A00020F47C10124948600846406840F4E81067
:1024B00048600846006840F08070086000BF0C4823
:1024C000006800F000700028F9D00948406820F04A
:1024D0000300074948600846406840F00200486031
:1024E00000BF0348406800F00C000828F9D10CBD7B
:1024F000001002400020024000F0FEFF44060100F0
:10250000F0B50346144621E0641E187800F00F076A
:102510000A2F04DA00F00F0707F1300603E000F09D
:102520000F075737FEB2001100F00F070A2F04DA29
:1025300000F00F0707F1300503E000F00F075737F1
:10254000FDB20D70491C0E70491C5B1C002CDBD1C8
:10255000F0BD10B5FFF7AEFB10BD000010B516487A
:10256000006840F0010014490860084640681349BB
:1025700008401149486008460068114908400E4962
:1025800008600846006820F480200860084640681B
:1025900020F4FE0048600846006820F0A050086063
:1025A0004FF47F0088600020C862FFF719FF4FF0EA
:1025B00000600449086010BD001002400000FFF0F8
:1025C000FFFFF6FE08ED00E028480068401C2749A0
:1025D00008600846006844F62061884244D900201B
:1025E000224908602248C079401C2149C871084628
:1025F000C0793C2838D10020C87108468079401C39
:102600008871084680793C282ED1002088710846C0
:102610004079401C487108464079182824D1002090
:1026200048710846C078401CC87008460079401CB4
:10263000087108460079072801D1002008710C486C
:10264000C0781E2810D100200949C870084680783B
:10265000401C8870084680780D2805D101208870BC
:1026600008460088401C088070470000C000002019
:10267000B8000020F0B50C46154600220021068C5B
:102680004FF6FE773E400684028B018C4FF60C76A7
:1026900032407E1C06EA03162E433243104EB042EF
:1026A0000ED0104EB0420BD0B0F1804F08D00E4E7D
:1026B000B04205D00D4EB04202D00D4EB04206D110
:1026C0004FF6FD76314044F00106314305E04FF608
:1026D000F576314044F00106314302830184F0BDB8
:1026E000002C01400034014000040040000800407C
:1026F000000C0040F0B50C461546002200210026D3
:10270000078C4FF6EF7C07EA0C070784028B018CDD
:102710004FF6FF7707EA041640F6FF473A404FF6B8
:10272000FF7707EA03373A434FF6FF7707EA0527B3
:102730003A43114FB8420ED0104FB8420BD0B0F10F
:10274000804F08D00E4FB84205D00E4FB84202D08D
:102750000D4FB84206D14FF6DF77394046F01007EB
:10276000394305E04FF65F77394044F010073943AD
:1027700002830184F0BD0000002C014000340140C0
:102780000004004000080040000C0040F0B50C467A
:102790001546002200210026078C4FF6FF6C07EA41
:1027A0000C070784828B018C4FF6FF7707EA04261B
:1027B0004FF60C773A404FF6FF7707EA03172F439F
:1027C0003A43114FB8420ED0104FB8420BD0B0F17F
:1027D000804F08D00E4FB84205D00E4FB84202D0FD
:1027E0000D4FB84206D14FF6FF57394046F4807777
:1027F000394305E04FF2FF57394044F480773943BD
:1028000082830184F0BD0000002C014000340140AF
:102810000004004000080040000C0040F0B50C46E9
:102820001546002200210026078C4EF6FF7C07EAA1
:102830000C070784828B018C4FF6FF7707EA04367A
:1028400040F6FF473A404FF6FF7707EA05273A433D
:102850004FF6FF7707EA03373A43114FB8420ED0DD
:10286000104FB8420BD0B0F1804F08D00E4FB84295
:1028700005D00E4FB84202D00D4FB84206D14DF6EA
:10288000FF77394046F48057394305E047F6FF5754
:10289000394044F48057394382830184F0BD0000FD
:1028A000002C0140003401400004004000080040BA
:1028B000000C004010B501212F4800F076F90421EA
:1028C0002D4800F072F9002850D02B4800F06AF92A
:1028D0002A49886008468068B42806D2084680687D
:1028E0008C2802D90020887131E0244880683C2877
:1028F00003D9224880685A2824D320488068872832
:1029000020D21E48806864281CD91C4A9079C217BE
:1029100000EB5272D310194A0C32D25C174B9979E2
:10292000CB1701EB5373DB10A1EBC30480232341CE
:102930001A43124B9879C31700EB5373DC100F4BFB
:102940000C331A550D488079401C0C4988710B488E
:102950008079282806D10021074800F023F80120BB
:10296000064948710021044800F08FF9052102480A
:1029700000F015F810BD00000004004034010020F4
:1029800010B5FEF797F80121024800F005F8FFF7AF
:102990001BFE10BD00080040CA4302827047CA43B4
:1029A0000282704721B1028842F00102028004E0F5
:1029B00002884FF6FE731A400280704710B5044635
:1029C0006848844208D10121C014FFF739FB002177
:1029D000E014FFF735FBC4E0B4F1804F08D10121CA
:1029E0000846FFF70DFB00210120FFF709FBB8E0C7
:1029F0005D48844208D101210220FFF701FB00213C
:102A00000220FFF7FDFAACE05848844208D10121CA
:102A10000420FFF7F5FA00210420FFF7F1FAA0E007
:102A20005348844208D101210820FFF7E9FA002128
:102A30000820FFF7E5FA94E04E48844208D10121CE
:102A40001020FFF7DDFA00211020FFF7D9FA88E007
:102A50004948844208D101212020FFF7D1FA002102
:102A60002020FFF7CDFA7CE04448844208D10121C0
:102A70004014FFF7E5FA00216014FFF7E1FA70E077
:102A80003F48844209D10121C804FFF7D9FA002147
:102A90004FF40020FFF7D4FA63E03A48844209D1AA
:102AA00001210805FFF7CCFA00214FF48010FFF751
:102AB000C7FA56E03448844209D101214805FFF79E
:102AC000BFFA00214FF40010FFF7BAFA49E02F488F
:102AD000844208D101214020FFF792FA00214020D2
:102AE000FFF78EFA3DE02A48844208D10121802078
:102AF000FFF786FA00218020FFF782FA31E02548AF
:102B0000844208D101218015FFF77AFA0021A0152F
:102B1000FFF776FA25E02048844209D10121080414
:102B2000FFF78EFA00214FF48030FFF789FA18E0A2
:102B30001A48844209D101214804FFF781FA002193
:102B40004FF40030FFF77CFA0BE01548844208D1BF
:102B500001218804FFF774FA00214FF48020FFF769
:102B60006FFA10BD002C0140000400400008004036
:102B7000000C0040001000400014004000340140F0
:102B8000004C01400050014000540140001800403A
:102B9000001C004000200040004001400044014073
:102BA000004801400146088F704730B502460020BA
:102BB00000230024158A05EA0103958905EA01042A
:102BC00013B10CB1012000E0002030BD70B5054606
:102BD0000C46244885420ED0234885420BD0B5F1DF
:102BE000804F08D02148854205D02148854202D037
:102BF0002048854200D100E000BF208850B92389D9
:102C0000A28861882846FFF735FDE188284600F054
:102C10003EF825E0208804280AD12389A28861880B
:102C20002846FFF767FDE188284600F039F817E0ED
:102C3000208808280AD12389A28861882846FFF7BE
:102C4000A5FDE188284600F038F809E02389A2882C
:102C500061882846FFF7E2FDE188284600F036F853
:102C600070BD0000002C0140003401400004004011
:102C700000080040000C00401AB183890B43838197
:102C800002E083898B438381704781847047028B84
:102C90004FF6F3731A400283028B0A430283704794
:102CA000028B4FF2FF331A400283028B4FF6FF7301
:102CB00003EA01231A4302837047828B4FF6F373B2
:102CC0001A408283828B0A4382837047828B4FF241
:102CD000FF331A408283828B4FF6FF7303EA01238E
:102CE0001A43828370470000002202881D4B9842DD
:102CF0000ED01D4B98420BD0B0F1804F08D01B4B2B
:102D0000984205D01A4B984202D01A4B984204D1EF
:102D10004FF68F731A404B881A43174B984207D0CF
:102D2000164B984204D04FF6FF431A40CB881A4303
:102D300002808B8883850B8803850A4B98420BD0D1
:102D4000094B984208D00E4B984205D00D4B984243
:102D500002D00D4B984201D10B7A03860123838266
:102D600070470000002C0140003401400004004086
:102D700000080040000C004000100040001400401B
:102D800000400140004401400048014010B540F2BD
:102D900025510A4800F0C7F878B1084800F07EF9DC
:102DA000C4B240F22551054800F08CF80448006890
:102DB00018B1204602490968884710BD00500040FC
:102DC0005C0000200EB540F225510D4800F0ABF834
:102DD000A0B10B4800F062F9C0B2029040F2255158
:102DE000074800F06FF8012002A940F20123054ACC
:102DF000CDE90010111F081FFFF72EFA0EBD0000CD
:102E000000380140C00300207CB505460C4640F266
:102E100001220949081FFFF75DFA2044B0F5007F41
:102E200009DA40F20123044A121D111F081FCDE9DF
:102E30000054FFF711FA7CBDBC03002008B540F236
:102E400025510D4800F06FF8A8B140F225510A480D
:102E500000F038F8084800F021F9C0B200900748A7
:102E6000006820B19DF800000449096888470121E5
:102E70006846FFF7C9FF08BD004400405400002029
:102E800008B540F225510D4800F04DF8A8B10B48A7
:102E900000F004F9C0B2009040F22551074800F05C
:102EA00011F80748006820B19DF80000044909683E
:102EB000884701216846FFF7A7FF08BD004800408A
:102EC0005800002010B50022002340F66A14A142E9
:102ED00000D100BF0A1201249440A3B2DC43048055
:102EE00010BD21B1828942F40052828104E08289BE
:102EF0004DF6FF731A40828170471AB1838A0B43E3
:102F0000838202E0838A8B438382704702460020DB
:102F1000B1F5007F00D100BF13880B400BB1012039
:102F200000E00020704770B5024600240023002511
:102F3000002040F66A16B14200D100BFC1F342152D
:102F400001F01F03012606FA03F3012D02D1968931
:102F5000334006E0022D02D1168A334001E0968A02
:102F600033400C12012606FA04F41688344013B1DB
:102F70000CB1012000E0002070BDF0B50346002434
:102F800000260025002040F66A17B94200D100BF94
:102F90001846C1F3421401F01F06012707FA06F58F
:102FA000012C01D10C3004E0022C01D1103000E0E2
:102FB00014301AB107682F43076002E00768AF4377
:102FC0000760F0BD2DE9F04786B005460E460024A7
:102FD000A24600BFA1460027B08900B100BF2F461E
:102FE0002C8A4CF6FF700440F08804432C82AC8994
:102FF0004EF6F3100440B0883189084371890843C4
:103000000443AC81AC8A4FF6FF400440B0890443CE
:10301000AC8201A8FFF724F81F48874202D1DDF8EF
:1030200010A001E0DDF80CA0A88900F4004040B138
:103030000AEBCA0000EB0A1031684900B0FBF1F856
:1030400007E00AEBCA0000EB0A1031688900B0FB08
:10305000F1F86420B8FBF0F004012009642101FBC1
:103060001089A88900F4004040B1322000EBC9006B
:10307000B0FBF1F000F00700044308E0322000EB61
:1030800009106421B0FBF1F000F00F0004432C8123
:1030900006B0BDE8F087000000380140014688888E
:1030A000C0F308007047C1F308028280704700BF78
:1030B000FEE770B504460B460021204600E0401CA8
:1030C0000578222DFBD1401C00E0401C0578222D04
:1030D000FBD1401C401C0DE00578302D09DB057844
:1030E000392D06DC01EB810569000578303D0D4482
:1030F000E9B2401C05782C2DEED1401C117003E084
:1031000005781D705B1C401C0D1EA1F10106F1B27B
:10311000F6D170BD2DE9F04781460E461746984618
:10312000002413E004EBC40000EB4000094A8118BE
:1031300042464846FFF71DF9C5B2FF2D04D0347052
:103140003D700020BDE8F087601CC4B20C2CE9DBA8
:10315000FF20F7E7D0D400087CB505462E78002480
:103160000CE0285D1149097801EBC10202EB011165
:103170000F4A02EBC1010855601CC4B2B442F0DB37
:1031800001200A4911230B4ACDE90010111F081F25
:10319000FFF762F805480078401C044908700846AB
:1031A00000780A2801DB002008707CBD8800002020
:1031B000000F0020EC0E002070B5B2B005462E784E
:1031C000701EC6B2002405E0601C285C0DF80400E7
:1031D000601CC4B2B442F7DB31466846FDF7A6FC7A
:1031E00032B070BD2DE9F04105460C4617460C2C57
:1031F00079D2DFE804F00607081C1D4344424C5313
:10320000591E70E06FE046213848FDF77FF82846E8
:1032100002F0EEF93548401E0078022803D108205C
:1032200002F038FB02E0032002F034FB5BE05AE0DE
:1032300059E02F480078012803D1022002F02AFB30
:103240001AE02B480078082816D12A48007801286F
:1032500003D1022002F0C8FA0EE0264800780228C6
:1032600003D1032002F0C0FA06E0224800780328C8
:1032700002D1042002F0B8FA35E034E033E01C4813
:103280000078052802D1062002F004FB2BE0002084
:1032900019490870032002F0A7FA24E016480078C4
:1032A000401C154908701EE0144A15492846FFF7CE
:1032B00000FF1249087800EBD0714910A0EB4101E2
:1032C00069B90E4802780F490D4800F033F80B48F1
:1032D000067806EBD67041100A4802F019F8002073
:1032E00001F0BEFE00BF00BFBDE8F081F119002073
:1032F0008A0000208B000020890000209C00002014
:10330000571D0020371A002010B502F021FB0020C5
:1033100002F066FCFEF774FD10BD000010B5034816
:1033200001F0B4FB024801F031FE10BDBD5B0008A6
:10333000D95B000870B503461846D4B24BE00025AF
:103340000D700578302D07DB0578392D04DC057804
:103350002D072D0E0D7016E00578412D08DB057840
:10336000462D05DC0578ED1F2D072D0E0D700AE0AA
:103370000578612D07DB0578662D04DC0578ED1FE7
:103380002D072D0E0D70401C0578302D08DB0578BB
:10339000392D05DC0E780578303D35440D7016E08A
:1033A0000578412D08DB0578462D05DC0E7805787B
:1033B000373D35440D700AE00578612D07DB05784F
:1033C000662D04DC0E780578573D35440D70401CA1
:1033D000491CA51EECB2002CB1D170BD00204FF4E9
:1033E000E15000BF011EA0F10100FBD170470000B9
:1033F00000B587B001210820FEF712FE0121102040
:10340000FEF70EFE012140F20120FEF709FE012029
:10341000ADF8180000208DF81B0006A91D48FDF727
:103420004DFA0120ADF8180000208DF81B0006A908
:103430001948FDF743FA4FF44040FEF7B5FD002070
:1034400001908DF808008DF809004FF4602003907A
:103450000020049002208DF8140001A90F48FDF708
:1034600039F801210D48FDF708F80C48FDF7B6F8CA
:1034700000BF0A48FDF723F80028FAD10748FDF7F6
:10348000BDF800BF0548FDF703F80028FAD107B0E2
:1034900000BD0000000C014000100140002401406C
:1034A00010B5FFF7A5FF0020054908704870486077
:1034B00088600520087500200874488210BD00004F
:1034C000C405002010B500F0B9FD0446072C0ED14C
:1034D00014480088401C1349088008460088322898
:1034E0001FDD0020088001200F49087019E0062C1C
:1034F00017D00E480078844210D00D480078401C48
:103500000B4908700846007803280ADD002008707F
:103510000648047000780449087502E00020044958
:10352000087010BD62000020C40500206400002067
:103530006500002010B500F019F80248FEF7B2FB54
:1035400010BD00004935000870B504460D4624B989
:1035500000F018FE287072B606E0012C04D128781D
:1035600008B162B600E072B670BD000030B5144814
:1035700000686422B0FBF2F1B1F1807F00D31DE05E
:1035800021F07F40401E4FF0E022506150170F2283
:10359000002807DA13071D0E0A4B00F00F04241F42
:1035A0001D5503E013071C0E074B1C5400BF0020E1
:1035B0004FF0E02290610720106100BF30BD000095
:1035C0006800002018ED00E000E400E070B500EBBA
:1035D00040040B4D05F82430002400EB4005084E54
:1035E00006EB85056C8000EB4004354605EB840452
:1035F000A28000EB400405EB8404A16070BD0000D4
:103600001C0100200649496C21F00101044A516463
:1036100011468864496C41F0010151647047000013
:103620000000024000B58DB001210846FEF7C8FC3D
:103630001A48FDF71BF81A4801901A48029010200A
:103640000390400104900020059080200690002007
:103650000790089009904FF400500A9000200B90BA
:1036600001A90E48FDF7C7F8012202210B48FDF71A
:10367000B9F84FF4A060FEF70BFB0E208DF8300078
:1036800006208DF8310000208DF8320001208DF8E1
:1036900033000CA8FEF7C4FA0DB000BD4400024090
:1036A00004380140B801002010B520210148FDF781
:1036B000EDF910BD0008014010B520210148FDF7CB
:1036C000E3F910BD0008014010B502210148FDF7E3
:1036D000C9F910BD000C014010B510210148FDF7DB
:1036E000D3F910BD0010014010B510210148FDF7BD
:1036F000CDF910BD0010014010B533480068401CE2
:103700003149086008460068B0F5967F04D900206A
:10371000086001202D4908712C48007930B101283A
:1037200005D002280CD004284CD123E04AE000F058
:10373000A3FA022025490871012000F071FA41E046
:1037400080212348FDF7A2F9002000F069FA00F07B
:1037500093FA04201D49087147214FF6FF7000F0CD
:10376000AFFE01211B48FFF71DF900211948FFF7A3
:103770008CFA27E015484079012822D1002013490E
:10378000487108710846047B407B2044C4B2084657
:10379000807B2044C4B20846C07B2044C4B20846A3
:1037A000007CA0420DD10846417B007B01EB00204C
:1037B000064948800846C17B807B01EB0020034915
:1037C000088000BF00BF10BD34000020340100207D
:1037D00000080140000400400148008870470000D4
:1037E0003401002001484088704700003401002067
:1037F00008B501210420FEF713FC01210820FEF783
:103800000FFC01211020FEF70BFC1020ADF800008A
:1038100002208DF8020010208DF80300694611483F
:10382000FDF74CF82020ADF8000002208DF80200D2
:1038300010208DF8030069460B48FDF73FF8022081
:10384000ADF8000004208DF8030069460748FDF735
:1038500035F8FFF739FF06490870FFF745FFFFF716
:103860002BFF08BD0010014000080140000C014082
:103870000000002010B5FFF727FF0446FFF7AEFD5C
:103880000D480078844203D100200C49087010E0F4
:103890000948007884420CD008480078401C074949
:1038A000087008460078142803DD002008700248DC
:1038B00004700148007810BD0000002001000020C5
:1038C00008B501210820FEF7ABFB4FF44070ADF8BE
:1038D000000003208DF8020014208DF803006946D3
:1038E0000448FCF7EBFF012000F018F8012000F07D
:1038F00003F808BD000C014010B504462CB14FF48C
:1039000080710548FDF7C2F804E04FF48071024869
:10391000FDF7BAF810BD0000000C014010B50446D8
:103920002CB14FF400710548FDF7B0F804E04FF4F6
:1039300000710248FDF7A8F810BD0000000C01401E
:103940007FB500200090019002900390684600F03F
:10395000E5F800247DE0FF2500264048005D0528AD
:103960006AD2DFE800F0030A274662001DF804006F
:1039700010B10120394908555EE01DF8040088B1F6
:10398000374830F81400401E80B2354921F8140041
:1039900078B9032021F81400022030490855254643
:1039A000012606E003202E4921F8140000202B49AF
:1039B000085541E01DF8040088B12A4830F8140089
:1039C000401E80B2274921F8140088B9C82021F888
:1039D00014000320214908552546032608E0C82085
:1039E000204921F8140004201C49085525460226C8
:1039F00022E01DF8040048B9042018490855962013
:103A0000194921F81400254605260DE0164830F81E
:103A10001400401E80B2144921F8140020B99620E9
:103A200021F814002546042606E01DF8040010B90C
:103A300000200A49085500BF00BFFF2D07D00B48E2
:103A4000006820B131462846084A12689047601C39
:103A5000C4B2102CFFF67FAF7FBD000048010020EC
:103A60005801002078010020980100204C0000201F
:103A700010B54FF480410D48FCF7FDFFC0F1010087
:103A8000C4B222464FF480410848FDF701F84FF4D4
:103A900000410648FCF7EFFFC0F10100C4B2224626
:103AA0004FF400410148FCF7F3FF10BD0010014046
:103AB00008B501211020FEF7B3FA4FF44040ADF8ED
:103AC000000002208DF8020010208DF803006946E6
:103AD0000648FCF7F3FE4FF480410448FCF7D4FF9E
:103AE0004FF400410148FCF7D1FF08BD0010014030
:103AF00010B5FFF7BDFF0221002000F06DF810BDEA
:103B000010B5FFF7D5FF022344F6206202490020DA
:103B1000FFF75CFD10BD0000F13A000870B50446E7
:103B2000002500260AE06806050E254951F8260002
:103B3000804708B145F00105701CC6B2052EF2DBC6
:103B4000112D3AD2DFE805F039090C0F1215181BB8
:103B50001E2124272A2D30333600012020702CE02E
:103B60000120607029E00120A07026E00120E070B3
:103B700023E00120207120E0012060711DE0012080
:103B8000A0711AE00120E07117E00120207214E01A
:103B90000120607211E00120A0720EE00120E072AD
:103BA0000BE00120207308E00120607305E0012094
:103BB000A07302E00120E07300BF00BF70BD0000F1
:103BC0003800002010B54FF480610248FCF75EFF1A
:103BD00010BD00000010014010B5024602EB42008B
:103BE000094B03EB8000806858B102EB420003F8F8
:103BF0002010002002EB4203034C04EB83035880A7
:103C000010BD0120FCE700001C01002008B50020C9
:103C1000F0234FF4A07201460090FCF7CFFF08BDDF
:103C200038B5044601210420FEF7FAF9012C11D120
:103C30008020ADF8000003208DF8020010208DF8E0
:103C4000030069460B48FCF739FE80210948FCF760
:103C50001BFF0DE08020ADF8000048208DF8030028
:103C600069460448FCF72AFE80210248FCF70CFF55
:103C700038BD0000000801400020044948718871E7
:103C8000886008460021C16001747047340100203B
:103C900010B500F009FDFFF7C5FC002006490870CB
:103CA000064908600649086006490860064A111F6F
:103CB000081FFEF75BFB10BD5000002054000020E1
:103CC000580000205C000020C003002010B500F068
:103CD000BFFC06480088401C04490880084600884C
:103CE000B0F5967F01DB0020088010BD6000002049
:103CF0003EB543E02748008840F21B31884203DB91
:103D00000020244908803EBD224801880088401CCC
:103D1000204A10802048084440F201431F4A111FE6
:103D20000090081FFEF7EEFA1A480088401E1A4954
:103D3000085C0D2822D10A21164802880088401C00
:103D4000144B1880144881541846008802280FDD4F
:103D50001846038801AA02A90F48FFF7DBF90446B9
:103D600034B90C4802889DF808100B48FFF73AFA5E
:103D700009480021016000200649088040F2014204
:103D80000649091F081FFEF7A5FA0128B2DC00BF8B
:103D9000B9E700009E000020D0160020E00A0020B5
:103DA0000EB511226D49081FFEF794FAF0B16C4868
:103DB0000068401C6A490860084600680A2815D94E
:103DC0000020086002A81123644A121D111F0090F0
:103DD000081FFEF797FA9DF8081001EBC10202EBED
:103DE0000111604A02EBC100FFF7E6F95E48007876
:103DF0000A2819D2DFE800F005192C476B7E8E8D5A
:103E0000ABAE5A480068401C584908600846006834
:103E1000C82809D9FF2001900020086001A901F0FD
:103E200009FC012001F036FD95E050480068401C77
:103E30004E49086008460068B0F5967F07D9002013
:103E40000860FF20019001A9012001F0F3FB82E04E
:103E500046480068401C4549086008460068C82874
:103E600010D9FF20019001A9022001F0E3FB01A974
:103E7000032001F0DFFB01A9042001F0DBFB03209C
:103E800001F008FD67E039480068401C37490860C8
:103E900008460068B0F5967F18D935480078401C70
:103EA00033490870002031490860FF20019001A9C2
:103EB000072001F0BFFB2E4800780A2806DD00200D
:103EC0002B490870012001F09DFC0EBD43E0294AFA
:103ED000111F081FFEF74AFAFF20019001A90620D2
:103EE00001F0A8FB01A9052001F0A4FB052001F0C9
:103EF000D1FC30E01D480068401C1C4908600846A1
:103F0000006841F27071884202D9072001F0C2FCBA
:103F100021E000BF18480078401C17490870084687
:103F200000780A2812DD134A111F081FFEF71EFA37
:103F30000020114908700D490860FF20019001A977
:103F4000062001F077FB032001F0A4FC03E0FDF75D
:103F50008FFC00E000BF00BF00BFB6E7E80E002006
:103F6000A0000020000F00208A000020A4000020F4
:103F7000A8000020E00A0020A900002008B50121C7
:103F80001020FEF74DF801210420FEF749F8012129
:103F90000846FEF745F80620ADF8000003208DF82E
:103FA000020010208DF8030069461548FCF786FCD6
:103FB0000120ADF8000003208DF8020004208DF8E8
:103FC000030069460F48FCF779FC0820ADF80000B3
:103FD00003208DF8020004208DF80300694608488C
:103FE000FCF76CFC02210648FCF750FD0421044854
:103FF000FCF74CFD01210348FCF748FD08BD00001B
:10400000001001400008014010B5044607230122BA
:1040100021460948FCF786FA01210748FCF7E3FA34
:1040200000BF02210448FCF741FA0028F9D00248F9
:10403000FCF738FA10BD00000024014010B53448E8
:10404000007830B101280BD0022826D003285CD19B
:1040500034E000202E49487048608860072010BD79
:104060000820FFF7D1FF2A494968084428494860D9
:104070000A20FFF7C9FF2649896808442449886057
:1040800008464078401C4870084640780A2803DB00
:10409000002048700220087037E01D4880680A211F
:1040A000B0FBF1F01A498881084640680A21B0FB4C
:1040B000F1F01749C8810320087026E00020144958
:1040C00008700846C089FA2148431149898990FB44
:1040D000F1F04400B4F5C87F01D90520BFE7B4F57D
:1040E000C37F01D90420BAE7B4F5C87F01D9032002
:1040F000B5E7B4F5B97F01D90220B0E7B4F5B47FD4
:1041000001D90120ABE70020A9E700BF0620A6E700
:10411000C40500200148007D70470000C405002050
:1041200010B5FFF7CDFB10BD10B540210148FCF7DD
:1041300099FC10BD0010014010B580210148FCF72A
:1041400091FC10BD0010014010B54FF48071024881
:10415000FCF788FC10BD00000010014010B54FF4C2
:1041600000710248FCF77EFC10BD00000010014009
:1041700010B54FF480710248FCF774FC10BD0000CC
:104180000008014000BFEFF3108008B9012070471C
:104190000020FCE708B501211420FDF741FF4FF492
:1041A0008070ADF8000048208DF80300694607488C
:1041B000FCF784FB4FF47070ADF8000048208DF8D8
:1041C000030069460248FCF779FB08BD000801407E
:1041D0000010014010B500200C490860FFF7DAFF1D
:1041E000002410E000200A4908550320094921F85D
:1041F0001400C820084921F814009620074921F826
:104200001400601CC4B2102CECDB10BD4C0000206C
:10421000480100205801002078010020980100206A
:1042200010B54FF400410248FCF730FC10BD00000F
:104230000008014010B54FF400410248FCF724FC8F
:1042400010BD00000008014010B504462CB14FF429
:1042500080510548FCF71AFC04E04FF480510248F5
:10426000FCF712FC10BD0000000C014000B587B047
:1042700001218803FDF7B4FE01210820FDF7D0FEDF
:1042800001210846FDF7CCFE4FF46040ADF8040074
:1042900003208DF8060018208DF8070001A91F489B
:1042A000FCF70CFB4FF48050ADF8040003208DF8B0
:1042B000060010208DF8070001A91848FCF7FEFA47
:1042C0004FF480511548FCF7E1FB0020ADF80800E1
:1042D0004FF48270ADF80A000020ADF80C00022007
:1042E000ADF80E000120ADF810004002ADF812004C
:1042F0001020ADF814000020ADF816000720ADF82E
:10430000180002A90648FDF788FF01210448FDF7BF
:104310006FFF0120FFF798FF07B000BD000C0140C0
:104320000038004010B5FFF7E7F9FFF709FBFFF78A
:10433000CDFCFFF7C7F810BD10B500F05BF9FFF733
:1043400057FAFFF7DDFB00F0FFFA00F075F9FFF711
:1043500041FFFFF79DFCFFF7B9FCFFF7A1F8FFF75E
:10436000DFFE10BD00B591B00121C803FDF738FE96
:1043700001210220FDF724FE01211D20FDF750FE42
:1043800001214648FCF726FB4FF40040ADF82C0015
:1043900010208DF82F0003208DF82E000BA9404827
:1043A000FCF78CFA4FF400413D48FCF76FFB5020BE
:1043B000ADF82C0010208DF82F0003208DF82E0072
:1043C0000BA93848FCF77AFA50213648FCF75EFB17
:1043D0004FF48060ADF82C0010208DF82F000320E2
:1043E0008DF82E000BA93048FCF768FA4FF4806175
:1043F0002D48FCF749FB2820ADF82C0003208DF850
:104400002E0018208DF82F000BA92648FCF756FA2D
:104410004FF44040ADF830004FF48270ADF83200F8
:104420000020ADF834000220ADF836000120ADF8D0
:1044300038004002ADF83A000020ADF83C00ADF87D
:104440003E000720ADF840000CA91848FDF7E5FE36
:104450001748FCF70BF915480C300090102002901B
:104460008001039000200490802005900020069099
:10447000079008904FF48050099000200A906946F8
:104480000B48FCF7B8F9012202210848FDF7BCFEF1
:1044900001210648FDF7ACFE11B000BD000230005E
:1044A00000080140000C014000100140003C0040A9
:1044B0001C04024000BF011EA0F10100FBD17047A7
:1044C00030B589B005460C4601210220FDF788FD74
:1044D00001210420FDF7A4FD8020ADF8200010206C
:1044E0008DF8230003208DF8220008A91F48FCF74F
:1044F000E5F980211D48FCF7C9FAADF80C50ADF87C
:1045000008400020ADF80E00ADF80A0002A91848D6
:10451000FEF7EAFB0420ADF814000220ADF8160007
:104520000120ADF818000020ADF81A00ADF81C000D
:1045300005A90F48FEF74AFB1D208DF80400022054
:104540008DF8050000208DF8060001208DF8070089
:1045500001A8FDF765FB012205210548FEF78CFB4C
:1045600000210348FEF71EFA09B030BD00080140E3
:10457000000400401FB501210420FDF731FD1A4859
:10458000FEF71CFA3220ADF80800184800681849F8
:10459000B0FBF1F0401E80B2ADF804000020ADF891
:1045A0000A00ADF8060001A90F48FEF79DFB0122A5
:1045B00011460D48FEF760FB01210B48FEF7F2F9AA
:1045C0004FF4A060FDF764FB1E208DF80000002072
:1045D0008DF8010003208DF8020001208DF8030002
:1045E0006846FDF71DFB1FBD000800406800002065
:1045F00040420F0010B5FFF7BDFF002417E0012077
:1046000004EB44010B4A02F82100002004EB4401B2
:1046100002EB8101488004EB440102EB81018880B8
:1046200004EB440102EB81018860601CC4B2022CDF
:10463000E5DB10BD1C01002010B5002003490880F7
:10464000488008714721FFF73BFF10BD340100206F
:1046500038B51248007800B138BD40F20122104947
:10466000081FFDF737FE054600240BE00D482044E7
:1046700040F201230A4A121D111F0090081FFDF786
:1046800041FE641CAC42F1D32DB12846FEF7BAFFBF
:1046900001200249087000BFDEE700005000002042
:1046A000BC030020B801002000B587B00121042020
:1046B000FDF7B6FC01210820FDF7B2FC0121102016
:1046C000FDF7AEFC01212020FDF7AAFC01218803A3
:1046D000FDF7A6FC01214804FDF782FC01218804B6
:1046E000FDF77EFC01210805FDF77AFC4FF4007010
:1046F000ADF8180018208DF81B0003208DF81A0063
:1047000006A97548FCF7DAF84FF48060ADF8180098
:1047100004208DF81B0003208DF81A0006A96E48AE
:10472000FCF7CCF80420ADF8180018208DF81B0019
:1047300003208DF81A0006A96748FCF7BFF8082087
:10474000ADF8180004208DF81B0003208DF81A0026
:1047500006A96148FCF7B2F84FF48060ADF8180084
:1047600018208DF81B0003208DF81A0006A95B485D
:10477000FCF7A4F84FF40060ADF8180004208DF8A1
:104780001B0003208DF81A0006A95448FCF796F880
:104790004FF48050ADF8180018208DF81B0003204E
:1047A0008DF81A0006A94E48FCF788F80420ADF8E9
:1047B00018008DF81B0003208DF81A0006A949483F
:1047C000FCF77CF84FF4E13002900020ADF80C00CB
:1047D000ADF80E00ADF81000ADF814000C20ADF8E7
:1047E000120002A94048FEF7EDFB02A93F48FEF780
:1047F000E9FB02A93E48FEF7E5FB02A93D48FEF7AA
:10480000E1FB25208DF8040003208DF805008DF8CC
:10481000060001208DF8070001A8FDF701FA262007
:104820008DF8040004208DF8050003208DF80600A3
:1048300001208DF8070001A8FDF7F2F927208DF877
:10484000040005208DF8050003208DF806000120E6
:104850008DF8070001A8FDF7E3F935208DF8040075
:1048600005208DF8050006208DF8060001208DF842
:10487000070001A8FDF7D4F9012240F225511A489A
:10488000FEF77BFB012240F225511848FEF775FB2D
:10489000012240F225511648FEF76FFB012240F23B
:1048A00025511448FEF769FB01210F48FEF719FB5B
:1048B00001210E48FEF715FB01210D48FEF711FB03
:1048C00001210C48FEF70DFB012280210648FEF76E
:1048D00014FB07B000BD000000080140000C0140BF
:1048E0000010014000140140003801400044004025
:1048F00000480040005000400249096809B90149D8
:1049000008607047580000200249096809B9014948
:10491000086070475C00002070B504460D462E46C6
:104920000DE021780748FEF7BEFB00BF4021054897
:10493000FEF7ECFA0028F9D0641C701EC6B2002EF7
:10494000EFD170BD0050004010B5FFF717FB0421F8
:104950000748FCF79BF802210548FCF797F8002070
:104960000449087004490870FF200449087010BD0C
:10497000001001402A0000202B0000202C00002005
:1049800000F00F030A2B04DA00F00F03303313702A
:1049900003E000F00F0337331370001100F00F0332
:1049A0000A2B04DA00F00F0330330B7003E000F041
:1049B0000F0337330B70704710B5FEF7BBFDFDF7E3
:1049C000EDF9FDF709FAFFF7B7FC01231A460C4988
:1049D0000020FDF7A3F900F0D9FC01231A4609498C
:1049E0001846FDF79BF9FEF799FC01231A46064984
:1049F0000220FDF793F9FDF7B3F9002010BD000088
:104A0000254300087D5300080933000810B5002035
:104A100002490860FEF750FE10BD0000AC00002007
:104A200010B5FBF731FF10BD78B502460B464FF6C7
:104A3000FF70002414E012F8011B81EA000505F064
:104A40000F050F4E36F8155085EA201080EA211523
:104A500005F00F0536F8155085EA2010651CACB23C
:104A60009C42E8D3C5B28DF80050050A8DF801507C
:104A70009DF801509DF8006045EA062078BD0000D1
:104A8000DCD0000810B5FFF7F1FB10BD0249096842
:104A900009B9014908607047800000207CB5424890
:104AA000007810BB40F201124049081FFDF712FCCC
:104AB00001281ADD01A840F201133C4A121D111F02
:104AC0000090081FFDF71EFC9DF80400FE280CD185
:104AD000354840F20113354A121D111F0090081F7E
:104AE000FDF710FC0020324908702F48007800289C
:104AF00058DD40F201122D49081FFDF7EBFB2A4952
:104B00000978884241DD28480078632809DD274A72
:104B1000121D111F081FFDF729FC002022490870F3
:104B20007CBD0025002410E02248204440F20113FF
:104B30001E4A121D111F0090081FFDF7E3FB1D48C0
:104B4000005D2844C5B2601CC4B217480078844296
:104B5000EADB01A840F20113144A121D111F009054
:104B6000081FFDF7CFFB9DF80400A84209D10E48AD
:104B70000178104800F04AF80B4801780D48FEF71C
:104B800043F90020084908700CE009480078401CEF
:104B900007490870084600780A2803DB00200870DF
:104BA0000149087000BFBBE78400002060080020B6
:104BB00085000020740A002030B5C1B040F2011217
:104BC0000E49081FFDF786FBC5B2002D14DD002439
:104BD0000CE001A8204440F20113084A121D111FE5
:104BE0000090081FFDF78EFB601CC4B2AC42F0DBE6
:104BF000294601A8FFF790FE41B030BD6C090020A6
:104C000010B5FFF7D9FFFFF749FF10BDF0B587B02A
:104C100004460D46012D7DDD20788DF80800607872
:104C20008DF80900A1788DF80A109DF808000A286F
:104C300074D2DFE800F07305525354555657585953
:104C4000102D49D1E0788DF80B0021798DF80C10EA
:104C500061798DF80D10A1798DF80E10E1798DF83C
:104C60000F10217A8DF81010617A8DF81110A17A49
:104C70008DF81210E17A8DF81310217B8DF8141045
:104C8000617B8DF81510A17B8DF81610E07B8DF8F7
:104C900017000C210DF10B00FFF7C6FE06469DF82C
:104CA00009109DF80A0041EA0020B04214D11D48C5
:104CB000006888B1059800900120DFF868C002A95B
:104CC0000EC9DCF800C0E04706909DF818000128E6
:104CD00002D102A900F03CF820E000BF00BF00BFF5
:104CE00000BF00BF00BF00BF032D16D10E480068F3
:104CF00098B1059800909DF80800DFF82CC002A933
:104D00000EC9DCF800C0E047074637B19DF808003F
:104D100002A900E003E000F01BF800BF00BF07B0ED
:104D2000F0BD0000800000207C0000203EB504465D
:104D30000294012002A940F20113044ACDE90010B7
:104D4000111F081FFDF788FA3EBD0000640800200F
:104D5000F0B58DB007460D463E46FE208DF80000AA
:104D60000124062E7DD006DC062E7BD2DFE806F07D
:104D7000C50C8A8B8C8D072E75D0082E74D0092E09
:104D800073D0FF2E6ED185E010222046611CCCB27C
:104D90000DF8002006F18000C2B22046611CCCB2A2
:104DA0000DF800206A782046611CCCB20DF8002076
:104DB000AA782046611CCCB20DF80020EA78204683
:104DC000611CCCB20DF800202A792046611CCCB2BF
:104DD0000DF800206A792046611CCCB20DF8002045
:104DE000AA792046611CCCB20DF80020EA79204651
:104DF000611CCCB20DF800202A7A2046611CCCB28E
:104E00000DF800206A7A2046611CCCB20DF8002013
:104E1000AA7A2046611CCCB20DF80020EA7A20461E
:104E2000611CCCB20DF800202A7B2046611CCCB25C
:104E30000DF800206A7B2046611CCCB20DF80020E2
:104E4000AA7B2046611CCCB20DF80020EA7B2046EC
:104E5000611CCCB20DF80020A01EC1B20DF1020001
:104E600004E013E049E012E012E012E000F062F822
:104E70002146621CD4B20DF801002146684600F0BC
:104E80003FF83AE000BF00BF00BF00BF00BF00BF57
:104E900000BF00BF03222046611CCCB20DF80020E9
:104EA000FF2E06D1FF222046611CCCB20DF8002057
:104EB00007E006F18000C2B22046611CCCB20DF8BA
:104EC00000206A782046611CCCB20DF80020AA7838
:104ED0002046611CCCB20DF80020A01EC1B20DF11D
:104EE000020000F027F82146621CD4B20DF8010040
:104EF0002146684600F004F800BF00BF0DB0F0BDC9
:104F00007CB505460C462E4640F201120849081FA2
:104F1000FDF7E0F92044FF2809DC40F20113044AC0
:104F2000121D111F081FCDE90064FDF795F97CBD26
:104F30006C09002010B502460020002305E014781B
:104F40000444E0B2521C5C1CE3B28B42F7DB10BDA0
:104F500010B5094A111F081FFDF708FA074A111F6B
:104F6000081FFDF703FA002005490860054908609D
:104F70000548FFF7C9FC10BD640800207009002037
:104F80007C000020800000202D4D000802490968A7
:104F900009B90149086070477C0000202DE9F04301
:104FA000A3B0054688461746002400267B222046EB
:104FB000641C19A90A5400BFA85D38B13046761C9C
:104FC0002A5C2046641C19A90A5400E002E01E2E47
:104FD000F2DD00BF00BF40222046641C19A90A541C
:104FE00073222046641C0A5463222046641C0A541F
:104FF0006D222046641C0A5470222046641C0A5408
:105000007D222146641C19A8425400222046641CBB
:1050100019A90A54402109A8FBF79AF9414609A8A1
:10502000FBF723F919A909A8FBF71FF90B48FBF7B0
:10503000DBFF09A8FBF7FAF881464A4609A90748A9
:10504000FCF7CEFB01A90548FBF7A4FF1022394667
:1050500001A8FDF755FA23B0BDE8F08374210020C4
:10506000014981F8B20070477720002030B589B03F
:1050700030208DF8040000252BE03948445D2411D0
:1050800000BF0A2C07DA04F13000C1B26800401CEE
:1050900001AA115406E004F13700C1B26800401CB7
:1050A00001AA11542E48445D04F00F040A2C07DABB
:1050B00004F13000C1B26800801C01AA115406E05E
:1050C00004F13700C1B26800801C01AA1154681CA9
:1050D000C5B20C2DD1DB00208DF81D0001A800F019
:1050E0004FF80DF1050000F0AFF81E4A0DF1050173
:1050F0000846FFF753FF1CA000F06AF81EA000F05E
:105100007BF85F208DF81D0064208DF81E006F2055
:105110008DF81F0077208DF820006E208DF821007B
:1051200000208DF822000DF1050000F079F85F20D5
:105130008DF81D0075208DF81E0070208DF81F0061
:1051400000208DF820008DF821008DF822000DF14F
:10515000050000F029F80120FFF782FF09B030BDFB
:1051600044210020B32000203131392E39312E3135
:1051700035382E3800000000313838330000000088
:1051800010B5002109E004780A464B1CD9B2054B42
:105190009C54401C1E2900D102E00278002AF2D162
:1051A00000BF10BD7720002010B5002109E0047871
:1051B0000A464B1CD9B2054B9C54401C1E2900D1F9
:1051C00002E00278002AF2D100BF10BD0B210020BE
:1051D00010B5002109E004780A464B1CD9B2054BF2
:1051E0009C54401C102900D102E00278002AF2D120
:1051F00000BF10BDD320002010B5002109E00478C5
:105200000A464B1CD9B2054B9C54401C0A2900D1BC
:1052100002E00278002AF2D100BF10BDE320002096
:1052200010B5002109E004780A464B1CD9B2054BA1
:105230009C54401C1E2900D102E00278002AF2D1C1
:1052400000BF10BDED20002010B5002109E004785A
:105250000A464B1CD9B2054B9C54401C1E2900D158
:1052600002E00278002AF2D100BF10BD9520002094
:1052700070B5B2B006460024C8216846FBF768F84E
:1052800022480588280A8DF80000E8B28DF8010050
:105290001E4880788DF802001C48B0F80350280A98
:1052A0008DF80300E8B28DF804009DF803409DF8E6
:1052B00004004440154840798DF805009DF805002C
:1052C0004440124880798DF806009DF8060044405D
:1052D0000E48B0F80750280A8DF80700E8B28DF89C
:1052E00008009DF8070044409DF808004440074826
:1052F0004472407A8DF809000448807A8DF80A00DB
:1053000016B9684600F0E6F932B070BD2A210020D7
:1053100030B502460B4600201046B0F80510047860
:10532000AA2C27D1032B00DA30BD847B552C21D148
:10533000C478222C1AD0252C19D02A2C02D0512C1A
:1053400017D115E00C06240C44EA11210A4C2180E7
:10535000C479094DAC70047AEC70447A2C71847A6B
:105360006C71C47AAC71047BEC7102E001E000E086
:1053700000BF00BF00BFD7E7B800002010B5FFF79F
:105380003FFC00F0DBFAFFF74BFB10BD10B5FFF759
:1053900079FB00F009F8FFF7DBFD00F089FAFFF771
:1053A00035FBFFF763FE10BD0EB5FEF7DBFF42F2E3
:1053B0001070FFF77FF8FEF73DFF42F21070FFF725
:1053C00079F8FEF72DFF6420FFF774F81120FBF742
:1053D0006FFD42F21070FFF76DF83620FBF768FDA5
:1053E000A020FBF75FFD3A20FBF762FD0520FBF7ED
:1053F00059FDB220FBF75CFD0C20FBF753FD0C20A0
:10540000FBF750FD0020FBF74DFD3320FBF74AFD75
:105410003320FBF747FDB720FBF74AFD3520FBF7AC
:1054200041FDBB20FBF744FD3520FBF73BFDC020D1
:10543000FBF73EFD2C20FBF735FDC220FBF738FDC6
:105440000120FBF72FFDC320FBF732FD1320FBF7F4
:1054500029FDC420FBF72CFD2020FBF723FDC620EF
:10546000FBF726FD0F20FBF71DFDCA20FBF720FDF3
:105470000F20FBF717FDC820FBF71AFD0820FBF7EC
:1054800011FD5520FBF714FD9020FBF70BFDD020FC
:10549000FBF70EFDA420FBF705FDA120FBF702FDA5
:1054A000E020FBF705FDD020FBF7FCFC0020FBF71C
:1054B000F9FC0620FBF7F6FC0920FBF7F3FC0B20B8
:1054C000FBF7F0FC2A20FBF7EDFC3C20FBF7EAFCA5
:1054D0005520FBF7E7FC4B20FBF7E4FC0820FBF72B
:1054E000E1FC1620FBF7DEFC1420FBF7DBFC1920A7
:1054F000FBF7D8FC2020FBF7D5FCE120FBF7D8FC1C
:10550000D020FBF7CFFC0020FBF7CCFC0620FBF7FC
:10551000C9FC0920FBF7C6FC0B20FBF7C3FC2920C4
:10552000FBF7C0FC3620FBF7BDFC5420FBF7BAFCB0
:105530004B20FBF7B7FC0D20FBF7B4FC1620FBF764
:10554000B1FC1420FBF7AEFC2120FBF7ABFC2020C4
:10555000FBF7A8FC2920FBF7ABFCFEF733FBFEF7BB
:1055600055FB002000904FF6FF731022012101909F
:105570000846FBF709FC002000904FF6FF730F224E
:10558000012101902120FBF7FFFB002000904FF646
:10559000FF73032201210190FA20FBF7F5FB0020A5
:1055A00000904FF6FF730422012101904FF48D709B
:1055B000FBF7EAFB002000904FF6FF731222012157
:1055C0000190D220FBF7E0FB00203021CDE9000163
:1055D0004FF6FF7303A2642102904620FBF734FCD0
:1055E0000EBD00002044495341524D2000000000F0
:1055F00010B501460022084600E0401C03783A2B13
:10560000FBD1401C0378303B094C237000E0401C68
:105610000378222BFBD1401C06E00478044B5B1C72
:105620009C54531CDAB2401C0378222BF5D110BDD8
:10563000F019002070B5B2B006460D460E2E45DAC0
:10564000002440E0C6EBC60000EB8000204901EBDF
:105650004000005D50B1C6EBC60000EB800001EBDE
:105660004000015D601C0DF800102BE02878FF2839
:1056700016D0082E0AD105E02978601C0DF800101C
:10568000641C6D1C2878FF28F6D109E005E0297814
:10569000601C0DF80010641C6D1C28780028F6D1E1
:1056A0000D21601C0DF80010641C0A21601C0DF80F
:1056B0000010641C601CC0B28DF800006846FDF745
:1056C0004BFD02E0641C462CBCD300BF32B070BD61
:1056D000FCD00008F0B5B5B0054640480078042875
:1056E00079D13F480078082875D1002400260CE0C5
:1056F0003046711CCEB23B490A5C2046611CCCB2DC
:1057000003A90A541E2E00D103E03648805D00280C
:10571000EED100BF22222046611CCCB203A90A545C
:105720002C222046611CCCB203A90A542222204616
:10573000611CCCB203A90A54287807026D1C287892
:10574000384487B26D1C16E0287801AA02A9FFF739
:1057500017F99DF808202046611CCCB203A90A5411
:105760009DF804202046611CCCB203A90A546D1C8C
:10577000C22C00DB04E0381EA7F101018FB2E3D197
:1057800000BF22222046611CCCB203A90A542C225D
:105790002046611CCCB203A90A5432222146601C67
:1057A000C4B203A842542C222146601CC4B203A8F0
:1057B000425430222046611CCCB203A90A54002274
:1057C0002046611CCCB203A90A540B20FFF732FF1C
:1057D0000020FFF745FC35B0F0BD00008B00002035
:1057E0008A0000200B21002010B5044603480470F5
:1057F000034A111F081FFCF7B9FD10BD8B000020E4
:10580000E00A002010B50446FEF734F8012825D13F
:10581000012C05D1002016490880012000F03AF83B
:105820001348008818B900F043F8FDF755FF1048F9
:105830000088B0F57A7F0FDA0D480088401C0C49CB
:10584000088008460088962804DD4FF4FA60088036
:10585000FDF74AFF002010BD0120FCE700200449AD
:105860000880012000F016F8FDF736FF0020F2E76F
:105870008C00002001B582B0012002A940F2014352
:10588000034ACDE90010111F081FFCF7E5FC0EBD0F
:10589000E00A002010B5044603480470034A111FB3
:1058A000081FFCF763FD10BD8A000020E00A0020FD
:1058B00010B5194A111F081FFCF758FD174A111F90
:1058C000081FFCF753FD1648FFF716F8002015498E
:1058D000087000240BE004EBC40101EB0411124A30
:1058E00002EBC100C821FAF733FD601CC4B20A2CD8
:1058F000F1DB0E480021016001200D4908700020F5
:105900000C49087046210B48401CFAF7FFFC0020A8
:105910000949087010BD0000E00A0020EC0E0020CC
:105920007558000888000020000F0020D0160020C5
:105930008A000020F01900208B00002010B5002004
:10594000FFF760FF18B1FEF7D3F9FEF729FA10BD93
:1059500000B587B0002003900490059006908F4812
:1059600000884FF47A7190FBF1F03030C0B28DF8BE
:105970000C008A48008890FBF1F201FB12006421C0
:1059800090FBF1F03030C0B28DF80D0083480088F4
:105990004FF47A7190FBF1F201FB1200642190FB4D
:1059A000F1F201FB12000A2190FBF1F03030C0B29D
:1059B0008DF80E00794800884FF47A7190FBF1F26F
:1059C00001FB1200642190FBF1F201FB12000A219D
:1059D00090FBF1F201FB12003030C0B28DF80F00E5
:1059E0002D208DF810006D48807890FBF1F030305C
:1059F000C0B28DF811006948807890FBF1F201FB8C
:105A000012003030C0B28DF812002D208DF8130036
:105A10006248C07890FBF1F03030C0B28DF81400CD
:105A20005E48C07890FBF1F201FB12003030C0B24A
:105A30008DF8150000208DF816001821CDE9000121
:105A40004FF6FF7303AAC82102901420FBF7FCF95C
:105A5000524840790A2190FBF1F03030C0B28DF805
:105A60000C004E48407990FBF1F201FB12003030FF
:105A7000C0B28DF80D003A208DF80E0047488079AD
:105A800090FBF1F03030C0B28DF80F0043488079C0
:105A900090FBF1F201FB12003030C0B28DF8100023
:105AA00000208DF811001821CDE900014FF6FF7399
:105AB00003AAC8210290A020FBF7C6F93748007955
:105AC000072867D2DFE800F00412202E3C4A580075
:105AD00000201821CDE900014FF6FF7330A2C82144
