:020000040800F2
:10000000183C00202D02000859200008190D000896
:10001000311B000847060008CF340008000000002C
:10002000000000000000000000000000932600080F
:10003000C508000800000000392200088F290008C8
:10004000470200084702000847020008470200086C
:10005000470200084702000847020008470200085C
:10006000470200084702000847020008470200084C
:1000700047020008470200084D0600084702000832
:10008000470200084702000847020008470200082C
:10009000470200084702000847020008470200081C
:1000A000470200084702000847020008470200080C
:1000B00047020008F12C0008BD2D00084702000887
:1000C00047020008470200084702000847020008EC
:1000D000470200080132000869320008AD3200080A
:1000E000470200084702000847020008000000001D
:1000F0000000000000000000000000000000000000
:10010000000000000000000047020008470200084D
:1001100047020008C93100084702000847020008EA
:10012000470200084702000847020008470200088B
:10013000470200084702000847020008470200087B
:10014000470200084702000847020008470200086B
:1001500000F002F800F05AF80AA090E8000C82447F
:100160008344AAF10107DA4501D100F04FF8AFF25C
:10017000090EBAE80F0013F0010F18BFFB1A43F085
:100180000103184754ED000074ED00000A444FF0DD
:10019000000C10F8013B13F0070408BF10F8014BE6
:1001A0001D1108BF10F8015B641E05D010F8016B2B
:1001B000641E01F8016BF9D113F0080F1EBF10F88F
:1001C000014BAD1C0C1B09D16D1E58BF01F801CBB2
:1001D000FAD505E014F8016B01F8016B6D1EF9D535
:1001E0009142D6D37047000000230024002500264A
:1001F000103A28BF78C1FBD8520728BF30C148BF8A
:100200000B6070471FB51FBD10B510BD00F01CF985
:100210001146FFF7F7FF04F0B1FE00F03AF903B41E
:10022000FFF7F2FF03BC00F041F9000009488047E6
:1002300009480047FEE7FEE7FEE7FEE7FEE7FEE7C8
:10024000FEE7FEE7FEE7FEE704480549054A064BE0
:100250007047000099290008510100081836002055
:10026000183C0020183800201838002010B5431C16
:1002700002E010F8011B71B18107FAD14FF0013291
:1002800002C88C1A8C4314EAC211F9D0C01A0A06AB
:1002900003D0C01E10BDC01A10BD0A0401D0801EBC
:1002A00010BD0902FCD0401E10BD421E12F8013FD5
:1002B000002BFBD111F8013B002B02F8013BF9D1D7
:1002C0007047032A40F2308010F0030C00F01580D4
:1002D00011F8013BBCF1020F624498BF11F801CB49
:1002E00000F8013B38BF11F8013BA2F1040298BFAE
:1002F00000F801CB38BF00F8013B11F0030300F018
:100300007180083AC0F0088051F8043B083A51F86F
:1003100004CBA0E80810F5E7121D5CBF51F8043BC0
:1003200040F8043BAFF30080D20724BF11F8013B33
:1003300011F801CB48BF11F8012B24BF00F8013B95
:1003400000F801CB48BF00F8012B70474FF00002C6
:100350000429C0F0128010F0030C00F01B80CCF1D7
:10036000040CBCF1020F18BF00F8012BA8BF20F845
:10037000022BA1EB0C0100F00DB85FEAC17C24BF99
:1003800000F8012B00F8012B48BF00F8012B704743
:100390004FF0000200B5134694469646203922BF1E
:1003A000A0E80C50A0E80C50B1F12001BFF4F7AF69
:1003B000090728BFA0E80C5048BF0CC05DF804EB4B
:1003C000890028BF40F8042B08BF704748BF20F8B9
:1003D000022B11F0804F18BF00F8012B70477047B7
:1003E0007047704710B5203AC0F00B80B1E8185044
:1003F000203AA0E81850B1E81850A0E81850BFF40F
:10040000F5AF5FEA027C24BFB1E81850A0E81850AD
:1004100044BF18C918C0BDE810405FEA827C24BF01
:1004200051F8043B40F8043B08BF7047D20728BF8F
:1004300031F8023B48BF11F8012B28BF20F8023BDE
:1004400048BF00F8012B7047754600F02BF8AE4608
:1004500005006946534620F00700854618B020B5D0
:10046000FFF7F2FEBDE820404FF000064FF0000716
:100470004FF000084FF0000B21F00701AC46ACE84C
:10048000C009ACE8C009ACE8C009ACE8C0098D46B9
:10049000704710B50446AFF300802046BDE8104019
:1004A000FFF7BDBE00487047B8350020014918204D
:1004B000ABBEFEE726000200704721B1826842F021
:1004C0000102826003E0826822F0010282607047CC
:1004D000014600208A6802F004020AB1012000E00F
:1004E000002070470146C86C80B270470246002069
:1004F00013680B400BB1012000E00020704701465B
:1005000000208A6802F008020AB1012000E0002001
:100510007047000030B502460020002350680F4CA1
:1005200020400D790C6844EA05242043506090680F
:100530000B4C2040D1E902542C434D7944EA450448
:1005400020439060D06A20F470000C7C641EE4B2FA
:10055000234340EA0350D06230BD0000FFFEF0FFAD
:10056000FDF7F1FFF0B504460D4600200021092DEE
:1005700011DDE068A5F10A0606EB4607072606FA34
:1005800007F18843A5F10A0606EB460603FA06F1D1
:100590000843E0600CE0206905EB4507072606FAF2
:1005A00007F1884305EB450603FA06F1084320618D
:1005B000072A0FDA606B561E06EB86071F2606FA1F
:1005C00007F18843561E06EB860605FA06F1084336
:1005D000606322E00D2A0FDA206BD61F06EB860738
:1005E0001F2606FA07F18843D61F06EB860605FA92
:1005F00006F10843206310E0E06AA2F10D0606EB65
:1006000086071F2606FA07F18843A2F10D0606EBBE
:10061000860605FA06F10843E062F0BD816841F004
:1006200008018160704721B1826842F4A0028260B3
:1006300003E0826822F4A00282607047816841F082
:1006400004018160704700BFFEE7000010B54FF461
:10065000005000F0D1F850B14FF4005000F00CF809
:100660000021034800F016F800200249087010BD70
:10067000440002405000002000F0805111B10349B5
:10068000086001E00249486070470000040402402D
:100690000000024021B1026842F00102026004E061
:1006A00002684FF6FE731A400260704701684FF609
:1006B000FE72114001600021016041608160C160F3
:1006C0004B49884208D14A490839496841F00F012D
:1006D000474A083A51608AE045491431884208D1B6
:1006E00043490839496841F0F001414A083A5160EC
:1006F0007DE03F492831884208D13D4908394968A1
:1007000041F470613A4A083A516070E038493C312E
:10071000884208D136490839496841F47041344A61
:10072000083A516063E032495031884208D130497B
:100730000839496841F470212D4A083A516056E061
:100740002B496431884208D129490839496841F464
:100750007001274A083A516049E0254978318842BA
:1007600008D123490839496841F07061204A083AA4
:1007700051603CE01F49884206D1011F096841F0E1
:100780000F01021F116032E01A491431884208D16A
:100790001849091F096841F0F001164A121F11603B
:1007A00025E014492831884208D11249091F0968F7
:1007B00041F470610F4A121F116018E00D493C317D
:1007C000884208D10B49091F096841F47041094A60
:1007D000121F11600BE007495031884207D10549CB
:1007E000091F096841F47021024A121F1160704705
:1007F000080002400804024001460020002201F0E7
:10080000805313B1054B1A6801E0054B1A6802EAE0
:1008100001030BB1012000E00020704700040240FA
:10082000000002401AB103680B43036002E0036852
:100830008B430360704710B50022026847F6F073DF
:100840009A430C6A8B6823430C6923434C69234306
:100850008C692343CC6923434C6A23438C6A23432A
:100860001A430260CB6843600B6883604B68C360C7
:1008700010BD0000124A126842F0F002104B1A60DC
:100880000F4A1C3211600E4A243210600C4A183292
:10089000126842F001020A4B18331A6000BF084A7E
:1008A000121F126802F02002002AF8D0044A1832FF
:1008B000126822F00102024B18331A6070470000E0
:1008C000040402407047000010B50B48006864281B
:1008D00011D209480068401C0749086008460068B2
:1008E000052802D103F086F905E003480068502886
:1008F00001D103F087F910BDB00000202DE9F041CF
:10090000024600250026002000230024002791F83D
:1009100003C00CF00F0591F803C00CF0100CBCF1F3
:10092000000F03D091F802C04CEA050591F800C011
:10093000BCF1000F31D0146800202BE04FF0010C07
:100940000CFA00F3B1F800C00CEA03069E4220D175
:1009500083004FF00F0C0CFA03F7BC4305FA03FCBD
:100960004CEA040491F803C0BCF1280F06D14FF003
:10097000010C0CFA00FCC2F814C00AE091F803C0A4
:10098000BCF1480F05D14FF0010C0CFA00FCC2F885
:1009900010C0401C0828D1D31460B1F800C0BCF1CD
:1009A000FF0F34DD546800202EE000F1080C4FF0FA
:1009B000010808FA0CF3B1F800C00CEA03069E42E5
:1009C00021D183004FF00F0C0CFA03F7BC4305FA5A
:1009D00003FC4CEA040491F803C0BCF1280F05D1D4
:1009E00000F1080C08FA0CF8C2F8148091F803C062
:1009F000BCF1480F07D100F1080C4FF0010808FACC
:100A00000CF8C2F81080401C0828CED35460BDE812
:100A1000F0810000F0B50A460023002400210025E3
:100A200000F00046B6F1004F02D11D4EF16901E021
:100A30001B4E7168C0F3034583B200F44016B6F54F
:100A4000401F08D121F07061154E766826F070665F
:100A5000134F7E6012E000F48016B6F5801F06D1B9
:100A6000032606FA05F4A14341F0706106E0460D45
:100A7000360103FA06F6B14341F0706122B1460D2A
:100A8000360103FA06F6314300F00046B6F1004F96
:100A900002D1034EF16101E0014E7160F0BD000032
:100AA000000001400246002093680B400BB101207A
:100AB00000E00020704702460020D3680B400BB1D5
:100AC000012000E0002070474161704701617047DC
:100AD0000AB1016100E041617047000010B50520D6
:100AE0000649487014210548801CFFF72FFC8C2113
:100AF00002481630FFF72AFC10BD0000BE3300206C
:100B000010B500200449087005204870FFF7E6FF83
:100B100000F004F810BD0000B400002010B505205E
:100B20000349487014210248801CFFF70FFC10BDD8
:100B3000A83300202DE9F04781460E461746984617
:100B4000002412E004EB84000A4A02EB80014246D2
:100B5000484601F02CFEC5B2FF2D04D034703D7024
:100B60000020BDE8F087601CC4B21D2CEADBFF202A
:100B7000F7E7000094EC00087CB505462E780024C9
:100B800008E0285D0F49104A127801EB0221085550
:100B9000601CC4B2B442F4DB01200B4911230B4AA0
:100BA000CDE90010111F081F01F074FD0648007800
:100BB000401C05490870084600780D2801DB00201C
:100BC00008707CBDB4240020AC00002094200020DC
:100BD00070B5C0B005462E78701EC6B2002405E080
:100BE000601C285C0DF80400601CC4B2B442F7DB42
:100BF000684603F0FBFA40B070BD0146002004E0F7
:100C0000401C322800D903E0491C0A78002AF7D199
:100C100000BF70471CB515480078FF280BD1002095
:100C200000904FF6FF730422014601904FF48D703F
:100C300000F00CFA19E00E480088401C0C490880AE
:100C400008460088642810D10020009001900748D1
:100C50000078401DC2B24FF6FF7300214FF48D7033
:100C600000F0F4F90020024908801CBDAD0000200E
:100C7000CA00002010B5002432E004EB44001A49F9
:100C800001EB8000806848B304EB440011F82000B9
:100C9000022823D104EB440001EB80004088401C73
:100CA00004EB4401104A02EB8101488004EB44004C
:100CB000114601EB8000408804EB440102EB810106
:100CC000898888420ADB012004EB440102F82100F4
:100CD00004EB440102EB810188688047601CC4B2C8
:100CE000022CCADB10BD00003001002070B50546A3
:100CF0000E4600240BE000BF4021064802F016FB20
:100D00000028F9D0295D034802F0DDFB641CB442E1
:100D1000F1D370BD0048004000BFFEE730B5C5B05C
:100D200004460D46102C78D2DFE804F07671727319
:100D300074706D21086F6C1E756E22096DE00120C4
:100D40008DF8000100208DF801018DF802010820C6
:100D50008DF8030106208DF80401FF208DF80501B0
:100D600040A804F077F958E004F0D2F955E054E0D7
:100D700001208DF8000108208DF8010103208DF875
:100D8000020102208DF8030100208DF804010620E5
:100D90008DF805018DF8060109208DF80701022064
:100DA0008DF808018DF8090107208DF80A01FF2050
:100DB0008DF80B0170208DF8000072208DF8010075
:100DC00074208DF802008DF8030065208DF8040072
:100DD00079208DF8050020208DF8060077208DF809
:100DE000070069208DF8080066208DF8090065204D
:100DF0008DF80A0000208DF80B00694640A804F029
:100E0000E7F80AE009E008E007E006E005E004E0B2
:100E100003E002E001E000E000BF00BF45B030BDEC
:100E20002DE9F04104460D4616461F462A2000F0E3
:100E3000A1F9A11C88B200F08AF9B11C88B200F0B7
:100E400086F92B2000F096F9691C88B200F07FF932
:100E5000791C88B200F07BF92C2000F08BF9BDE8FA
:100E6000F08170B504460D4616462B4622462946AB
:100E70002046FFF7D5FF304600F069F970BD00004D
:100E80002DE9F04781460F4615461E46DDF82080C5
:100E9000701E83B2681E82B239464846FFF7C0FF13
:100EA00000240AE04FEA28222046611C8CB20A493D
:100EB0000A5401F80480601C84B2AC42F2DB3C4668
:100EC00005E029460448FFF7D5FC601C84B2B4EB6A
:100ED000460FF6DBBDE8F087F00500202DE9FF5F47
:100EE00080468A4617469B460F9D00200290CDF80B
:100EF0000080284605EBD071C1F347042046E21775
:100F000004EB5272D2102146E31704EB5373DB104B
:100F1000A4EBC3030BB1012300E000231A446A438E
:100F200092B20192A7F12000C7B20AEB0500401E61
:100F300083B208EB0400401E82B251464046FFF7E0
:100F40006FFF002673E00C2D07D107EB47003A49ED
:100F500001EB8000805D039025E0102D05D137481E
:100F600000EB0710805D03901DE0182D07D107EB03
:100F70004700334901EB0010805D039013E0202D02
:100F800005D1304800EB8710805D03900BE0302DD9
:100F900007D107EBC7002C4901EB0010805D0390DF
:100FA00001E0BDE8FF9F4FF000093AE01098C8B992
:100FB000012000FA09F00399084018B1584600F0E2
:100FC000C6F802E00E9800F0C2F80298401CC0B2C9
:100FD0000290029890FBF4F104FB1100E8B90020A4
:100FE000029021E0012000FA09F00399084020B1A5
:100FF0005A4651464046FFF734FF08F101001FFAF8
:1010000080F80098A8EB0000A04206D1DDF800802F
:101010000AF101001FFA80FA06E009F1010000F070
:10102000FF09B9F1080FC1DB00BF701C86B201983F
:10103000864288DB00BFB4E7AC6A0008206F000876
:1010400010750008E0860008A09E00082DE9FF4703
:1010500082B004460E461F4600200190A246802022
:10106000009006F11F0083B204F11F0082B23146E6
:101070002046FFF7D5FE4FF000093FE022490498D3
:1010800001EBC01010F80980002530E00F98C0B9BE
:101090000120A84000EA080018B1384600F057F8CF
:1010A00002E00E9800F053F80198401CC0B2019085
:1010B000019890FBFBF10BFB1100B0B900200190EF
:1010C00017E00120A84000EA080020B13A46314666
:1010D0002046FFF7C6FE601C84B2A4EB0A00584508
:1010E00003D15446701C86B203E0681CC5B2082DBB
:1010F000CCDB00BF09F101001FFA80F9009881459F
:10110000BCDB06B0BDE8F08710D400082DE9FE4F27
:1011100006460F4614469846DDE90D5ADDF8309034
:1011200010E0CDE9015ACDF80090227843463946C7
:101130003046FFF7D3FE284605EBD07106EB610180
:101140008EB2641C20780028EBD1BDE8FE8F18B564
:10115000044620128DF80000E0B28DF80100022153
:101160006846FFF787FB18BD10B50446204600F01F
:1011700011F810BD10B5044610210548FFF7A4FC76
:10118000204600F007F810210148FFF79FFC10BD32
:10119000000C014001B540210348FFF795FC0121F7
:1011A0006846FFF767FB08BD000C014010B5044618
:1011B00009200C490880AA20887008460088C01EB3
:1011C000A1F80300292048710020887108210548F2
:1011D000A0F80710552003498872002004F0D8FEBB
:1011E00010BD00001335002070B503460024002018
:1011F00010E00E5C451C4D5D46EA0526851C4D5DE4
:1012000046EA0546C51C4D5D46EA056543F824508F
:10121000641C001D9042ECD370BD70B503461446AB
:101220000022002015E011F822501D5431F8225000
:10123000C5F30726451C5E5551F82250C5F30746F5
:10124000851C5E5551F822502D0EC61C9D55521C12
:10125000001DA042E7D370BD2DE9FC4104460E46B7
:10126000002500272088C0F3C505382D02D2C5F11E
:10127000380001E0C5F1780007460822214668469B
:10128000FFF7CBFF3A460849204600F00BFC082246
:101290006946204600F006FC102204F108013046A1
:1012A000FFF7BBFFBDE8FC81F000002000210160DA
:1012B000416005498160054AC260CA430261034A30
:1012C000D2434261704700000123456789ABCDEFEF
:1012D0002DE9F043C0B080468946D8F80040D8F8E0
:1012E0000450D8F80860D8F80C7040224946684687
:1012F000FFF77AFF05EA060027EA0501084300998F
:101300000844FE4908440444E00140EA54642C4483
:1013100004EA050026EA0401084301990844F84953
:1013200008440744380340EA1757274407EA0400F3
:1013300025EA0701084302990844F2490844064493
:10134000700440EAD6363E4406EA070024EA060165
:10135000084303990844EC4908440544A80540EAB9
:101360009525354405EA060027EA05010843049956
:101370000844E64908440444E00140EA54642C442B
:1013800004EA050026EA0401084305990844E049F7
:1013900008440744380340EA1757274407EA040083
:1013A00025EA0701084306990844DA490844064437
:1013B000700440EAD6363E4406EA070024EA0601F5
:1013C000084307990844D44908440544A80540EA5D
:1013D0009525354405EA060027EA050108430899E2
:1013E0000844CE4908440444E00140EA54642C44D3
:1013F00004EA050026EA0401084309990844C8499B
:1014000008440744380340EA1757274407EA040012
:1014100025EA070108430A990844A0F524404F38FB
:101420000644700440EAD6363E4406EA070024EA41
:10143000060108430B990844BA4908440544A80525
:1014400040EA9525354405EA060027EA05010843E8
:101450000C990844B44908440444E00140EA546447
:101460002C4404EA050026EA040108430D990844C7
:10147000AE4908440744380340EA1757274407EAAF
:10148000040025EA070108430E990844A8490844C6
:101490000644700440EAD6363E4406EA070024EAD1
:1014A000060108430F990844A24908440544A805C9
:1014B00040EA9525354405EA070026EA0701084376
:1014C000019908449C4908440444600140EAD464FA
:1014D0002C4404EA060025EA06010843069908445C
:1014E000964908440744780240EAD757274407EA58
:1014F000050024EA050108430B9908449049084473
:101500000644B00340EA96463E4406EA040027EA51
:1015100004010843009908448A4908440544280501
:1015200040EA1535354405EA070026EA0701084375
:1015300005990844844908440444600140EAD4649D
:101540002C4404EA060025EA060108430A990844E7
:101550007E4908440744780240EAD757274407EAFF
:10156000050024EA050108430F9908447849084416
:101570000644B00340EA96463E4406EA040027EAE1
:1015800004010843049908447249084405442805A5
:1015900040EA1535354405EA070026EA0701084305
:1015A000099908446C4908440444600140EAD46441
:1015B0002C4404EA060025EA060108430E99084473
:1015C000664908440744780240EAD757274407EAA7
:1015D000050024EA050108430399084460490844CA
:1015E0000644B00340EA96463E4406EA040027EA71
:1015F00004010843089908445A4908440544280549
:1016000040EA1535354405EA070026EA0701084394
:101610000D990844544908440444600140EAD464E4
:101620002C4404EA060025EA06010843029908440E
:101630004E4908440744780240EAD757274407EA4E
:10164000050024EA0501084307990844484908446D
:101650000644B00340EA96463E4406EA040027EA00
:10166000040108430C9908444249084405442805EC
:1016700040EA1535354485EA060078400599084466
:101680003D4908440444200140EA14742C4484EA8F
:101690000500704008990844384908440744F80296
:1016A00040EA5757274487EA040068400B990844EA
:1016B000334908440644300440EA16463E4486EA6C
:1016C000070060400E9908442E4908440544E80587
:1016D00040EA5525354485EA0600784001990844DA
:1016E000294908440444200140EA14742C4484EA43
:1016F0000500704004990844244949E078A46AD759
:1017000056B7C7E8DB702024EECEBDC1AF0F7CF525
:101710002AC68747134630A8019546FDD8988069A8
:10172000AFF7448BBED75C892211906B937198FD03
:101730008E4379A62108B44962251EF640B340C005
:10174000515A5E26AAC7B6E95D102FD6531444023B
:1017500081E6A1D8C8FBD3E7E6CDE121D60737C3A0
:10176000870DD5F4ED145A4505E9E3A9F8A3EFFC7C
:10177000D9026F678A4C2A8D4239FAFF81F6718748
:1017800022619D6D0C38E5FD44EABEA4A9CFDE4B75
:1017900008440744F80240EA5757274487EA040000
:1017A000684007990844A54908440644300440EAC3
:1017B00016463E4486EA070060400A990844A0495C
:1017C00008440544E80540EA5525354485EA060005
:1017D00078400D9908449B4908440444200140EA9C
:1017E00014742C4484EA050070400099084496491A
:1017F00008440744F80240EA5757274487EA0400A0
:10180000684003990844914908440644300440EA7A
:1018100016463E4486EA07006040069908448C4913
:1018200008440544E80540EA5525354485EA0600A4
:10183000784009990844874908440444200140EA53
:1018400014742C4484EA050070400C9908448249C1
:1018500008440744F80240EA5757274487EA04003F
:1018600068400F9908447D4908440644300440EA22
:1018700016463E4486EA07006040029908447849CB
:1018800008440544E80540EA5525354465EA070063
:10189000704000990844734908440444A00140EA98
:1018A00094642C4464EA06006840079908446E4931
:1018B00008440744B80240EA9757274467EA0500FE
:1018C00060400E990844694908440644F00340EA20
:1018D00056463E4466EA0400784005990844644947
:1018E00008440544680540EAD525354465EA070003
:1018F00070400C9908445F4908440444A00140EA40
:1019000094642C4464EA06006840039908445A49E8
:1019100008440744B80240EA9757274467EA05009D
:1019200060400A990844554908440644F00340EAD7
:1019300056463E4466EA04007840019908445049FE
:1019400008440544680540EAD525354465EA0700A2
:101950007040089908444B4908440444A00140EAF7
:1019600094642C4464EA060068400F990844464990
:1019700008440744B80240EA9757274467EA05003D
:10198000604006990844414908440644F00340EA8F
:1019900056463E4466EA040078400D9908443C49A6
:1019A00008440544680540EAD525354465EA070042
:1019B000704004990844374908440444A00140EAAF
:1019C00094642C4464EA060068400B990844324948
:1019D00008440744B80240EA9757274467EA0500DD
:1019E0006040029908442D4908440644F00340EA47
:1019F00056463E4466EA040078400999084428495E
:101A000008440544680540EAD5253544D8F8000067
:101A10002044C8F80000D8F804002844C8F804009E
:101A2000D8F808003044C8F80800D8F80C0038444A
:101A3000C8F80C0040B0BDE8F0830000604BBBF676
:101A400070BCBFBEC67E9B28FA27A1EA8530EFD4C2
:101A5000051D880439D0D4D9E599DBE6F87CA21FAE
:101A60006556ACC4442229F497FF2A43A72394ABBC
:101A700039A093FCC3595B6592CC0C8F7DF4EFFFCA
:101A8000D15D84854F7EA86FE0E62CFE144301A350
:101A9000A111084E827E53F735F23ABDBBD2D72A48
:101AA00091D386EB2DE9F04704460F4615460026F4
:101AB000B046B1462088C0F3C508C8F14009206887
:101AC00000EBC50020602068B0EBC50F02D2606853
:101AD000401C6060606800EB557060604D451CD331
:101AE00004F1180101EB08004A463946FEF7E9FB0C
:101AF00004F1180104F10800FFF7EAFB4E4605E087
:101B0000B91904F10800FFF7E3FB403606F1400085
:101B1000A842F5D94FF0000800E00026AA1BB91929
:101B200004F1180303EB0800FEF7CBFBBDE8F087D8
:101B300000BFFEE730B5B3B0E5480078052827D2EE
:101B4000DFE800F00327F6F3F200E2480068401CEB
:101B5000E049086008460068C82819D9C82101A8CA
:101B6000FEF716FCFF208DF804000020D94908601C
:101B700001A90D2004F0EEFB012004F0C5FC0120BA
:101B8000D54908706420D5490860002033B030BDC5
:101B90009BE1D0480068401CCE4908600024002525
:101BA00008460068B0F5967F77D9002008600CE001
:101BB0002846691CCDB2CA490A5C2046611CCCB2D9
:101BC00001A90A541E2D00D103E0C548405D00283C
:101BD000EED100BFC2480078302805D1C048007857
:101BE000401CBF4908700EE0BD480078392805DB6D
:101BF000012004F097FC3020B9490870B8480078FB
:101C0000401CB749087022222046611CCCB201A9B1
:101C10000A542C222046611CCCB201A90A5422226B
:101C20002046611CCCB201A90A5400250DE02846CB
:101C3000691CCDB2AA491E310A5C2046611CCCB297
:101C400001A90A541E2D00D104E0A5481E30405DB4
:101C50000028ECD100BF22222046611CCCB201A991
:101C60000A542C222046611CCCB201A90A5422221B
:101C70002046611CCCB201A90A5400250EE028467A
:101C8000691CCDB296493C310A5C2046611CCCB23D
:101C900001A90A54202D01D105E048E090483C30CC
:101CA000405D0028EBD100BF22222046611CCCB24F
:101CB00001A90A542C222046611CCCB201A90A5465
:101CC00030222046611CCCB201A90A542C222046A5
:101CD000611CCCB201A90A5430222046611CCCB24E
:101CE00001A90A542C222046611CCCB201A90A5435
:101CF00022222046611CCCB201A90A542046611C54
:101D0000CCB201A90A5400222046611CCCB201A920
:101D10000A54092004F01EFBC82101A8FEF738FB75
:101D200000207049087031E7B3E06EE000E0CCE0DD
:101D300068480068401C6749086000240025084680
:101D40000068B0F5967F5FD900200860654800788C
:101D5000032807DD002063490870012004F0E2FB3E
:101D6000002013E70DE02846691CCDB25C495C31C8
:101D70000A5C2046611CCCB201A90A54102D00D186
:101D800004E057485C30405D0028ECD100BF2222BF
:101D90002046611CCCB201A90A542C222046611CA9
:101DA000CCB201A90A5400250DE02846691CCDB229
:101DB0004B496C310A5C2046611CCCB201A90A5423
:101DC0000A2D00D104E046486C30405D0028ECD17B
:101DD00000BF2C222046611CCCB201A90A5430223B
:101DE0002046611CCCB201A90A5400222046611C85
:101DF000CCB201A90A540A2004F0ACFAC82101A807
:101E0000FEF7C6FA0020C1E65FE032480068401CD9
:101E1000304908600024002508460068C82837D9E2
:101E2000002008600DE02846691CCDB22C497631AF
:101E30000A5C2046611CCCB201A90A541E2D00D1B7
:101E400004E027487630405D0028ECD100BF222214
:101E50002046611CCCB201A90A542C222046611CE8
:101E6000CCB201A90A5430222046611CCCB201A98F
:101E70000A5400222046611CCCB201A90A540C204D
:101E800004F068FAC82101A8FEF782FA00207DE676
:101E90001BE010480068401C0E49086008460068B6
:101EA0000E49096888420FD90B480078012806D1ED
:101EB00000200949087040F6C41008490860002055
:101EC00004490860FFF772F900BF00BFFF205DE61C
:101ED0008B0000209000002094000020980000203B
:101EE00060340020890000203EB574E0404800883E
:101EF000B0F5F77F03DD00203D4908803EBD3C483A
:101F000001880088401C3A4A10803A48084440F250
:101F10000143394A111F0090081F00F011FC34489A
:101F20000088401E3349085C3E281FD13048018894
:101F30000088401C2E4A10802E48084440F201437D
:101F40002D4A111F0090081F00F0FAFB2848008856
:101F5000401E2849085C202808D10D212448028809
:101F60000088401C224B1880224881542048008859
:101F7000401E2049085C0D282DD10A211C480288EA
:101F80000088401C1A4B18801A4881541846008853
:101F900002281ADD1846038801AA02A91548FEF78F
:101FA000C9FD04469DF808000C2806D111480021FF
:101FB000016000200E49088016E034B90C48028800
:101FC0009DF808100B4801F0B7FB0A48002101609A
:101FD00000200749088040F201420749091F081FF5
:101FE00000F096FB012881DC00BF00BF86E70000FF
:101FF000C0000020B4310020B02000201CB5112208
:102000001249081F00F084FBD8B111480068401C39
:102010000F490860084600680F2815D9002008609D
:1020200001A81123094A121D111F0090081F00F07A
:1020300087FB08499DF8042001EB0220FEF7C8FD4C
:1020400002E00020024908601CBD00009020002032
:10205000BC000020B42400207047000070B50021AF
:1020600000230F22C47804B3154C246804F4E06400
:10207000C4F5E064210AC1F10403CA40447804FABB
:1020800003F184781440214309010E4C0678A155D0
:10209000047804F01F050124AC4005786D11AD00F3
:1020A00005F1E025C5F8004109E0047804F01F05BA
:1020B0000124AC40044D0678761145F8264070BDE9
:1020C0000CED00E000E400E080E100E002490143A3
:1020D000024A1160704700000000FA050CED00E0B4
:1020E0000249096809B9014908607047D800002011
:1020F00000202CE000EB4001164A52F8211021B3D9
:1021000000EB400102EB81010989491C00EB400210
:10211000104B03EB8202118100EB40011A4602EBE7
:102120008101098900EB400203EB8202D2889142CF
:102130000BDB002100EB400203EB82021181012145
:1021400000EB400203EB82021171411CC8B203286C
:10215000D0DB70473C35002070B500EB40040E4DDD
:1021600055F82440B4B900EB400445F8241000248D
:1021700000EB4005084E06EB85052C7100EB400492
:10218000354605EB8404E280002400EB400506EBB5
:1021900085052C8170BD00003C35002019E000242D
:1021A00015E004EB44000B4901EB800000790128A5
:1021B0000BD1002004EB4401064A02EB81010871B7
:1021C00004EB440152F821008047601CC4B2032C88
:1021D000E7DBE4E73C350020002016E0002100EBBF
:1021E00040020B4B43F8221000EB400203EB82024B
:1021F000117100EB400203EB8202D18000EB400240
:1022000003EB82021181411CC8B20328E6DB704750
:102210003C350020002007E00549014491F8E8170B
:10222000044A1154411CC8B20C28F5DB7047000069
:1022300000F0FF1F2D350020704700001CB501F095
:10224000BFFD01286FD1002000904FF6FF731022D0
:10225000012101900846FEF7F9FE02F035FA052843
:1022600011D100205E49088002F02EFA0A30C4B273
:10227000002000904FF6FF7322460121019021209B
:10228000FEF7E4FEAAE056480088401C5449088046
:102290000846008832280AD1002000904FF6FF73CC
:1022A0000A22012101902120FEF7D0FE96E04C4841
:1022B000008864280AD1002000904FF6FF730B229B
:1022C000012101902120FEF7C1FE87E044480088EB
:1022D00096280AD1002000904FF6FF730C220121AE
:1022E00001902120FEF7B2FE78E03D480088C82822
:1022F0000AD1002000904FF6FF730D2201210190BA
:102300002120FEF7A3FE69E035480088FA280BD1AA
:10231000002000904FF6FF730E2201210190212032
:10232000FEF794FE5AE011E02D480088B0F5967F44
:1023300054D100202A49088000904FF6FF730F22E5
:10234000012101902120FEF781FE47E0002000904E
:102350004FF6FF731122012101900846FEF776FE29
:1023600002F0B2F9012828DC1D480088401C1C49F5
:1023700008800846008832280ED102F0A5F90A30FC
:10238000C4B2002000904FF6FF7322460121019055
:102390002120FEF75BFE21E01148008864281DDD46
:1023A00000200F49088000904FF6FF73132201218F
:1023B00001902120FEF74AFE10E000200849088025
:1023C00002F082F90A30C4B2002000904FF6FF7389
:1023D0002246012101902120FEF738FE1CBD00009D
:1023E000C800002001460020034A506820F4404005
:1023F00008435060704700000010024029B1064AAF
:1024000052690243044B5A6104E0034A5269824311
:10241000014B5A61704700000010024029B1064A82
:10242000D2690243044BDA6104E0034AD269824371
:10243000014BDA61704700000010024029B1064AE2
:1024400012690243044B1A6104E0034A1269824391
:10245000014B1A61704700000010024029B1064A82
:1024600092690243044B9A6104E0034A92698243F1
:10247000014B9A61704700000010024029B1064AE2
:10248000D2680243044BDA6004E0034AD268824314
:10249000014BDA6070470000001002402DE9F04166
:1024A00000210022002500230026002400278C465E
:1024B000DFF86081D8F8048008F00C0121B104290C
:1024C00007D0082959D109E0DFF84C81C0F8008015
:1024D00058E0DFF84881C0F8008053E0DFF834812D
:1024E000D8F8048008F47012DFF82881D8F8048046
:1024F00008F48035920C0D2A01D0921C00E00622CF
:1025000035B9DFF81C8102FB08F8C0F8008033E021
:10251000DFF80081D8F82C8008F48036DFF8F480EA
:10252000D8F82C8008F00F0808F1010446B9DFF84C
:10253000EC80B8FBF4F808FB02F8C0F800801BE060
:10254000DFF8D080D8F82C80C8F3031808F1010711
:10255000DFF8C080D8F82C80C8F3032808F1020CFB
:10256000DFF8B880B8FBF7F808FB0CF8B8FBF4F814
:1025700008FB02F8C0F8008004E0DFF89C80C0F897
:10258000008000BF00BFDFF88C80D8F8048008F01E
:10259000F0010909DFF88C8018F80130D0F80080CC
:1025A00028FA03F8C0F80480DFF86880D8F80480BF
:1025B00008F4E061090ADFF86C8018F80130D0F8FF
:1025C000048028FA03F8C0F80880DFF84880D8F8BB
:1025D000048008F46051C90ADFF8488018F8013017
:1025E000D0F8048028FA03F8C0F80C80DFF82480C3
:1025F000D8F8048008F44041890BDFF82C8018F8E3
:102600000130D0F80C80B8FBF3F8C0F81080BDE8BA
:10261000F08100000010024000127A0040787D0135
:1026200000093D00DC000020EC00002021B1028800
:1026300042F04002028004E002884FF6BF731A4065
:10264000028070471AB183880B43838002E083883D
:102650008B438380704710B50022028802F44152F8
:102660000B884C8823438C882343CC8823430C89D4
:1026700023434C8923438C892343CC8923431A4326
:102680000280838B4FF2FF74234083830B8A038283
:1026900010BD70472DE9F84F05460C4616461F46FB
:1026A000DDE90A9A1948006820B169460020174AF6
:1026B000126890474FF000081CE099F8000021686C
:1026C00008702068401C2060F1192068884200D101
:1026D000266020682968884206D12868401CF119C4
:1026E0002860884200D12E6008F101001FFA80F8AE
:1026F00009F10109D045E0DB0448006820B16946D2
:102700000120024A12689047BDE8F88FD8000020E7
:1027100010B5034608681C68A04204D908881C88C4
:10272000001B80B210BD08681C68A04205D2088852
:1027300010441C88001B80B2F4E70020F2E7000080
:102740002DE9F84304460E4615461F46DDF8208065
:102750004FF000091348006820B169460020114A73
:1027600012689047002088F800003068216888428D
:102770000CD02068007888F800004FF0010920682C
:10278000401CE9192060884200D125600548006896
:1027900020B169460120034A126890474846BDE8C7
:1027A000F8830000D800002002600A6070472DE91D
:1027B000F05F04460D4690462846FEF71EFA814615
:1027C000C84504D3A8EB090000F1010A02E0FF208C
:1027D000BDE8F09F002600271CE020782978884279
:1027E00016D14FF0010B0FE0761C4E4501D1384653
:1027F000EEE7641C6D1C20782978884204D0A41B65
:10280000AD1B0026B34602E0BBF1000FECD100BFC8
:10281000641C7F1C5745E0D3FF20D9E710B500F0BA
:1028200001F810BD0CB50020019000903F480068F1
:1028300040F480303D49086000BF3C48006800F427
:10284000003000900198401C0190009818B9019840
:10285000B0F5A06FF1D13548006800F4003010B138
:102860000120009001E000200090009801285CD138
:102870002F48006840F010002D49086008460068A5
:1028800020F0030008600846006840F0020008607D
:102890002648406825494860084640684860084620
:1028A000406840F4806048600846C06A214908409A
:1028B0001E49C8620846C06A1F4908431B49C862CE
:1028C0000846006840F08060086000BF1748006854
:1028D00000F000600028F9D01448406820F47C1013
:1028E000124948600846406840F4E81048600846CD
:1028F000006840F08070086000BF0C48006800F07D
:1029000000700028F9D00948406820F0030007490A
:1029100048600846406840F00200486000BF034835
:10292000406800F00C000828F9D10CBD00100240EE
:102930000020024000F0FEFF44060100F0B503460F
:10294000144621E0641E187800F00F070A2F04DAFD
:1029500000F00F0707F1300603E000F00F075737CC
:10296000FEB2001100F00F070A2F04DA00F00F0783
:1029700007F1300503E000F00F075737FDB20D7087
:10298000491C0E70491C5B1C002CDBD1F0BD10B53E
:10299000FFF7AEFB10BD000010B51648006840F010
:1029A000010014490860084640681349084011496D
:1029B000486008460068114908400E49086008460A
:1029C000006820F4802008600846406820F4FE007B
:1029D00048600846006820F0A05008604FF47F006F
:1029E00088600020C862FFF719FF4FF000600449BB
:1029F000086010BD001002400000FFF0FFFFF6FE6F
:102A000008ED00E028480068401C27490860084697
:102A1000006844F62061884244D9002022490860B9
:102A20002248C079401C2149C8710846C0793C2819
:102A300038D10020C87108468079401C887108464A
:102A400080793C282ED10020887108464079401CAE
:102A5000487108464079182824D10020487108465A
:102A6000C078401CC87008460079401C08710846B0
:102A70000079072801D1002008710C48C0781E2871
:102A800010D100200949C87008468078401C887021
:102A9000084680780D2805D10120887008460088F6
:102AA000401C088070470000D4000020CC000020AB
:102AB000F0B50C46154600220021068C4FF6FE7735
:102AC0003E400684028B018C4FF60C7632407E1C11
:102AD00006EA03162E433243104EB0420ED0104E7B
:102AE000B0420BD0B0F1804F08D00E4EB04205D0AE
:102AF0000D4EB04202D00D4EB04206D14FF6FD76DB
:102B0000314044F00106314305E04FF6F57631409F
:102B100044F00106314302830184F0BD002C0140E2
:102B2000003401400004004000080040000C004058
:102B3000F0B50C461546002200210026078C4FF602
:102B4000EF7C07EA0C070784028B018C4FF6FF77B6
:102B500007EA041640F6FF473A404FF6FF7707EAC8
:102B600003373A434FF6FF7707EA05273A43114FF9
:102B7000B8420ED0104FB8420BD0B0F1804F08D001
:102B80000E4FB84205D00E4FB84202D00D4FB8429A
:102B900006D14FF6DF77394046F01007394305E09C
:102BA0004FF65F77394044F01007394302830184C0
:102BB000F0BD0000002C0140003401400004004042
:102BC00000080040000C0040F0B50C4615460022FD
:102BD00000210026078C4FF6FF6C07EA0C070784DC
:102BE000828B018C4FF6FF7707EA04264FF60C77AD
:102BF0003A404FF6FF7707EA03172F433A43114F46
:102C0000B8420ED0104FB8420BD0B0F1804F08D070
:102C10000E4FB84205D00E4FB84202D00D4FB84209
:102C200006D14FF6FF57394046F48077394305E027
:102C30004FF2FF57394044F480773943828301844F
:102C4000F0BD0000002C01400034014000040040B1
:102C500000080040000C0040F0B50C46154600226C
:102C600000210026078C4EF6FF7C07EA0C0707843C
:102C7000828B018C4FF6FF7707EA043640F6FF4758
:102C80003A404FF6FF7707EA05273A434FF6FF77BA
:102C900007EA03373A43114FB8420ED0104FB842FB
:102CA0000BD0B0F1804F08D00E4FB84205D00E4F78
:102CB000B84202D00D4FB84206D14DF6FF773940E9
:102CC00046F48057394305E047F6FF57394044F44E
:102CD0008057394382830184F0BD0000002C0140FD
:102CE000003401400004004000080040000C004097
:102CF00010B501212F4800F076F904212D4800F08D
:102D000072F9002850D02B4800F06AF92A498860EF
:102D100008468068B42806D2084680688C2802D904
:102D20000020887131E0244880683C2803D922487B
:102D300080685A2824D320488068872820D21E48DB
:102D4000806864281CD91C4A9079C21700EB527223
:102D5000D310194A0C32D25C174B9979CB1701EB7F
:102D60005373DB10A1EBC304802323411A43124B9E
:102D70009879C31700EB5373DC100F4B0C331A55C3
:102D80000D488079401C0C4988710B4880792828AF
:102D900006D10021074800F023F8012006494871B8
:102DA0000021044800F08FF90521024800F015F8D1
:102DB00010BD0000000400404801002010B5FDF7E0
:102DC00059FF0121024800F005F8FFF71BFE10BD76
:102DD00000080040CA4302827047CA43028270471B
:102DE00021B1028842F00102028004E002884FF61D
:102DF000FE731A400280704710B50446684884424A
:102E000008D10121C014FFF739FB0021E014FFF7BE
:102E100035FBC4E0B4F1804F08D101210846FFF72B
:102E20000DFB00210120FFF709FBB8E05D4884425B
:102E300008D101210220FFF701FB00210220FFF74A
:102E4000FDFAACE05848844208D101210420FFF784
:102E5000F5FA00210420FFF7F1FAA0E0534884427C
:102E600008D101210820FFF7E9FA00210820FFF727
:102E7000E5FA94E04E48844208D101211020FFF782
:102E8000DDFA00211020FFF7D9FA88E04948844292
:102E900008D101212020FFF7D1FA00212020FFF7DF
:102EA000CDFA7CE04448844208D101214014FFF768
:102EB000E5FA00216014FFF7E1FA70E03F48844230
:102EC00009D10121C804FFF7D9FA00214FF40020ED
:102ED000FFF7D4FA63E03A48844209D1012108059A
:102EE000FFF7CCFA00214FF48010FFF7C7FA56E045
:102EF0003448844209D101214805FFF7BFFA002177
:102F00004FF40010FFF7BAFA49E02F48844208D185
:102F100001214020FFF792FA00214020FFF78EFAAE
:102F20003DE02A48844208D101218020FFF786FA3B
:102F300000218020FFF782FA31E02548844208D141
:102F400001218015FFF77AFA0021A015FFF776FA24
:102F500025E02048844209D101210804FFF78EFAB8
:102F600000214FF48030FFF789FA18E01A488442B4
:102F700009D101214804FFF781FA00214FF4003004
:102F8000FFF77CFA0BE01548844208D10121880440
:102F9000FFF774FA00214FF48020FFF76FFA10BD9D
:102FA000002C01400004004000080040000C0040DC
:102FB000001000400014004000340140004C01406B
:102FC000005001400054014000180040001C004027
:102FD0000020004000400140004401400048014002
:102FE0000146088F704730B50246002000230024B8
:102FF000158A05EA0103958905EA010413B10CB1AC
:10300000012000E0002030BD70B505460C46244884
:1030100085420ED0234885420BD0B5F1804F08D0B1
:103020002148854205D02148854202D0204885426A
:1030300000D100E000BF208850B92389A2886188B0
:103040002846FFF735FDE188284600F03EF825E0E8
:10305000208804280AD12389A28861882846FFF79E
:1030600067FDE188284600F039F817E02088082835
:103070000AD12389A28861882846FFF7A5FDE18847
:10308000284600F038F809E02389A288618828469C
:10309000FFF7E2FDE188284600F036F870BD000039
:1030A000002C0140003401400004004000080040B2
:1030B000000C00401AB183890B43838102E08389AD
:1030C0008B438381704781847047028B4FF6F37383
:1030D0001A400283028B0A4302837047028B4FF22D
:1030E000FF331A400283028B4FF6FF7303EA01237A
:1030F0001A4302837047828B4FF6F3731A40828320
:10310000828B0A4382837047828B4FF2FF331A40CF
:103110008283828B4FF6FF7303EA01231A43828373
:1031200070470000002202881D4B98420ED01D4BB4
:1031300098420BD0B0F1804F08D01B4B984205D07D
:103140001A4B984202D01A4B984204D14FF68F7313
:103150001A404B881A43174B984207D0164B984297
:1031600004D04FF6FF431A40CB881A4302808B8865
:1031700083850B8803850A4B98420BD0094B9842F4
:1031800008D00E4B984205D00D4B984202D00D4B03
:10319000984201D10B7A0386012383827047000095
:1031A000002C0140003401400004004000080040B1
:1031B000000C00400010004000140040004001409E
:1031C000004401400048014010B540F225510A4832
:1031D00000F0B9F878B1084800F070F9C4B240F2D4
:1031E0002551054800F07EF80448006818B12046D3
:1031F00002490968884710BD005000405C0000206B
:1032000010B540F22551094800F09DF860B107481B
:1032100000F054F9C4B240F22551044800F062F8BD
:103220002146034800F04FF910BD0000003801406E
:10323000004400407CB505460C4640F20122094995
:10324000081FFFF765FA2044B0F5007F09DA40F265
:103250000123044A121D111F081FCDE90054FFF776
:1032600019FA7CBDD003002008B540F225510D4865
:1032700000F069F8A8B140F225510A4800F032F890
:10328000084800F01BF9C0B200900748006820B160
:103290009DF8000004490968884701216846FFF746
:1032A000C9FF08BD004400405400002010B540F2A2
:1032B00025510A4800F047F878B1084800F0FEF8B8
:1032C000C4B240F22551054800F00CF804480068EB
:1032D00018B1204602490968884710BD00480040DF
:1032E0005800002010B50022002340F66A14A142C5
:1032F00000D100BF0A1201249440A3B2DC43048031
:1033000010BD21B1828942F40052828104E0828999
:103310004DF6FF731A40828170471AB1838A0B43BE
:10332000838202E0838A8B438382704702460020B7
:10333000B1F5007F00D100BF13880B400BB1012015
:1033400000E00020704770B50246002400230025ED
:10335000002040F66A16B14200D100BFC1F3421509
:1033600001F01F03012606FA03F3012D02D196890D
:10337000334006E0022D02D1168A334001E0968ADE
:1033800033400C12012606FA04F41688344013B1B7
:103390000CB1012000E0002070BDF0B50346002410
:1033A00000260025002040F66A17B94200D100BF70
:1033B0001846C1F3421401F01F06012707FA06F56B
:1033C000012C01D10C3004E0022C01D1103000E0BE
:1033D00014301AB107682F43076002E00768AF4353
:1033E0000760F0BD2DE9F04786B005460E46002483
:1033F000A24600BFA1460027B08900B100BF2F46FA
:103400002C8A4CF6FF700440F08804432C82AC896F
:103410004EF6F3100440B08831890843718908439F
:103420000443AC81AC8A4FF6FF400440B0890443AA
:10343000AC8201A8FFF732F81F48874202D1DDF8BD
:1034400010A001E0DDF80CA0A88900F4004040B114
:103450000AEBCA0000EB0A1031684900B0FBF1F832
:1034600007E00AEBCA0000EB0A1031688900B0FBE4
:10347000F1F86420B8FBF0F004012009642101FB9D
:103480001089A88900F4004040B1322000EBC90047
:10349000B0FBF1F000F00700044308E0322000EB3D
:1034A00009106421B0FBF1F000F00F0004432C81FF
:1034B00006B0BDE8F087000000380140014688886A
:1034C000C0F308007047C1F308028280704700BF54
:1034D000FEE770B504460B460021204600E0401C84
:1034E0000578222DFBD1401C00E0401C0578222DE0
:1034F000FBD1401C401C0DE00578302D09DB057820
:10350000392D06DC01EB810569000578303D0D445D
:10351000E9B2401C05782C2DEED1401C117003E05F
:1035200005781D705B1C401C0D1EA1F10106F1B257
:10353000F6D170BD2DE9F04781460E4617469846F4
:10354000002413E004EBC40000EB4000094A81189A
:1035500042464846FFF72BF9C5B2FF2D04D0347020
:103560003D700020BDE8F087601CC4B20C2CE9DB84
:10357000FF20F7E704E200087CB505462E7800241A
:103580000CE0285D1149097801EBC10202EB011141
:103590000F4A02EBC1010855601CC4B2B442F0DB13
:1035A00001200A4911230B4ACDE90010111F081F01
:1035B000FFF770F805480078401C04490870084679
:1035C00000780A2801DB002008707CBD88000020FC
:1035D000140F0020000F002070B5B2B005462E7801
:1035E000701EC6B2002405E0601C285C0DF80400C3
:1035F000601CC4B2B442F7DB31466846FDF776FB87
:1036000032B070BD2DE9F04105460C4617460C2C32
:1036100007D2DFE804F006070F23244A4B49535A28
:10362000602577E03D480078052802D0012002F0AF
:1036300079FF6FE046213A48FCF788FE284602F001
:1036400067FE3748401E0078022803D1082002F0A8
:10365000BBFF02E0032002F0B7FF5BE05AE059E055
:103660002E480078012803D1022002F0ADFF1AE0B5
:103670002A480078082816D12A480078012803D162
:10368000022002F041FF0EE026480078022803D114
:10369000032002F039FF06E022480078032802D117
:1036A000042002F031FF35E034E033E01B480078BD
:1036B000052802D1062002F087FF2BE000201A49DE
:1036C0000870032002F020FF24E017480078401C17
:1036D000154908701EE0154A15492846FFF7F9FEFE
:1036E0001249087800EBD0714910A0EB410169B98B
:1036F0000E4802780F490E4800F0C2F80B480678D1
:1037000006EBD67041100B4802F092FC002002F04C
:1037100037FB00BF00BFBDE8F08100008A00002039
:10372000051A00208B000020890000209C0000204A
:103730006B1D00204B1A002070B505460C4616463E
:103740001D2C75D2DFE804F00F151B212223242540
:1037500026272829742D353F5140484F505260612B
:103760006268697273000120324908700520487050
:103770005EE003202F4908700520487058E00420BF
:103780002C4908700520487052E051E050E04FE0AD
:103790004EE04DE04CE04BE04AE022202649087024
:1037A00046E0254800781F2802D1202022490870D1
:1037B0003EE022480078192804D11A201F490870D9
:1037C0000520487034E033E01C4800781A2802D104
:1037D00005201A4948702BE0002016490870FF2088
:1037E0001749087024E023E022E000BF1348007866
:1037F000192802D01A2805D100E000BF1C200F496B
:10380000087000BF00BF13E012E011E0284601F08D
:1038100013FE0B4908700BE00AE006480078052803
:1038200002D10449487000BF00BF01E000E000BFC2
:1038300000BF70BDB4000020BE330020A8330020BC
:10384000AD00002010B502F01DFF002003F062F86B
:10385000FEF7F4FCFDF7DEF910BD000010B50548D9
:1038600000F0ACFB044801F0A1FF044802F01EFA8E
:1038700010BD00001D0D0008F16800080D6900086A
:1038800070B503461846D4B24BE000250D7005789C
:10389000302D07DB0578392D04DC05782D072D0E3A
:1038A0000D7016E00578412D08DB0578462D05DC06
:1038B0000578ED1F2D072D0E0D700AE00578612D9E
:1038C00007DB0578662D04DC0578ED1F2D072D0E2E
:1038D0000D70401C0578302D08DB0578392D05DC8E
:1038E0000E780578303D35440D7016E00578412D91
:1038F00008DB0578462D05DC0E780578373D354424
:103900000D700AE00578612D07DB0578662D04DC73
:103910000E780578573D35440D70401C491CA51E96
:10392000ECB2002CB1D170BD00204FF4E15000BFCB
:10393000011EA0F10100FBD17047000000B587B067
:1039400001210820FEF78AFD01211020FEF786FDE7
:10395000012140F20120FEF781FD0120ADF81800A1
:1039600000208DF81B0006A91D48FCF7C7FF0120A9
:10397000ADF8180000208DF81B0006A91948FCF7C7
:10398000BDFF4FF44040FEF72DFD002001908DF863
:1039900008008DF809004FF4602003900020049087
:1039A00002208DF8140001A90F48FCF7B3FD012196
:1039B0000D48FCF782FD0C48FCF730FE00BF0A48BA
:1039C000FCF79DFD0028FAD10748FCF737FE00BF41
:1039D0000548FCF77DFD0028FAD107B000BD0000C6
:1039E000000C0140001001400024014010B5FFF719
:1039F000A5FF0020054908704870486088600520D0
:103A0000087500200874488210BD0000D805002009
:103A100010B500F0EDFD0446072C0ED114480088C7
:103A2000401C134908800846008832281FDD00200A
:103A3000088001200F49087019E0062C17D00E48A5
:103A40000078844210D00D480078401C0B49087063
:103A50000846007803280ADD002008700648047034
:103A600000780449087502E000200449087010BD80
:103A700062000020D80500206400002065000020BE
:103A800010B500F019F80248FEF72AFB10BD00003F
:103A9000953A000870B504460D4624B900F04CFE76
:103AA000287072B606E0012C04D1287808B162B6FD
:103AB00000E072B670BD000030B5144800686422A2
:103AC000B0FBF2F1B1F1807F00D31DE021F07F4027
:103AD000401E4FF0E022506150170F22002807DAF5
:103AE00013071D0E0A4B00F00F04241F1D5503E0A1
:103AF00013071C0E074B1C5400BF00204FF0E022A0
:103B000090610720106100BF30BD000068000020F8
:103B100018ED00E000E400E070B500EB40040B4D50
:103B200005F82430002400EB4005084E06EB85051F
:103B30006C8000EB4004354605EB8404A28000EB6A
:103B4000400405EB8404A16070BD0000300100203A
:103B50000649496C21F00101044A51641146886408
:103B6000496C41F0010151647047000000000240BF
:103B700000B58DB001210846FEF740FC1A48FCF75D
:103B800095FD1A4801901A480290102003904001B8
:103B90000490002005908020069000200790089057
:103BA00009904FF400500A9000200B9001A90E4894
:103BB000FCF741FE012202210B48FCF733FE4FF4D3
:103BC000A060FEF783FA0E208DF8300006208DF8F5
:103BD000310000208DF8320001208DF833000CA850
:103BE000FEF73CFA0DB000BD44000240043801402D
:103BF000CC01002010B520210148FCF767FF10BD63
:103C00000008014010B520210148FCF75DFF10BD00
:103C10000008014010B502210148FCF743FF10BD28
:103C2000000C014010B510210148FCF74DFF10BDFC
:103C30000010014010B510210148FCF747FF10BDEE
:103C40000010014010B533480068401C314908603D
:103C500008460068B0F5967F04D90020086001206E
:103C60002D4908712C48007930B1012805D002286F
:103C70000CD004284CD123E04AE000F0ABFA02203B
:103C800025490871012000F079FA41E0802123489C
:103C9000FCF71CFF002000F071FA00F09BFA0420F2
:103CA0001D49087147214FF6FF7000F0E3FE012126
:103CB0001B48FFF795F800211948FFF704FA27E0A1
:103CC00015484079012822D1002013494871087114
:103CD0000846047B407B2044C4B20846807B2044D5
:103CE000C4B20846C07B2044C4B20846007CA0424F
:103CF0000DD10846417B007B01EB0020064948803E
:103D00000846C17B807B01EB00200349088000BF8F
:103D100000BF10BD34000020480100200008014011
:103D2000000400400148008870470000480100205E
:103D300001484088704700004801002008B5012173
:103D40000420FEF78BFB01210820FEF787FB0121F1
:103D50001020FEF783FB1020ADF8000002208DF844
:103D6000020010208DF8030069461148FCF7C6FDDB
:103D70002020ADF8000002208DF8020010208DF800
:103D8000030069460B48FCF7B9FD0220ADF80000BE
:103D900004208DF8030069460748FCF7AFFDFFF7E4
:103DA00039FF06490870FFF745FFFFF72BFF08BDF5
:103DB0000010014000080140000C014000000020FC
:103DC00010B5FFF727FF0446FFF7AEFD0D4800785A
:103DD000844203D100200C49087010E009480078A3
:103DE00084420CD008480078401C074908700846F7
:103DF0000078142803DD0020087002480470014890
:103E0000007810BD000000200100002008B501214D
:103E10000820FEF723FB4FF44070ADF800000320AC
:103E20008DF8020014208DF8030069460448FCF761
:103E300065FD012000F018F8012000F003F808BD2E
:103E4000000C014010B504462CB14FF480710548B8
:103E5000FCF73CFE04E04FF480710248FCF734FEAE
:103E600010BD0000000C014010B504462CB14FF409
:103E700000710548FCF72AFE04E04FF40071024887
:103E8000FCF722FE10BD0000000C01407FB50020B1
:103E90000090019002900390684600F0EDF8002435
:103EA0007DE0FF2500264048005D05286AD2DFE856
:103EB00000F0030A274662001DF8040010B101203B
:103EC000394908555EE01DF8040088B1374830F8DC
:103ED0001400401E80B2354921F8140078B903203F
:103EE00021F814000220304908552546012606E035
:103EF00003202E4921F8140000202B49085541E0E9
:103F00001DF8040088B12A4830F81400401E80B221
:103F1000274921F8140088B9C82021F8140003208B
:103F2000214908552546032608E0C820204921F8E4
:103F3000140004201C4908552546022622E01DF8DD
:103F4000040048B90420184908559620194921F859
:103F50001400254605260DE0164830F81400401ED2
:103F600080B2144921F8140020B9962021F81400D9
:103F70002546042606E01DF8040010B900200A4971
:103F8000085500BF00BFFF2D07D00B48006820B1C7
:103F900031462846084A12689047601CC4B2102C6B
:103FA000FFF67FAF7FBD00005C0100206C010020A8
:103FB0008C010020AC0100204C000020024909685F
:103FC00009B90149086070474C00002010B54FF452
:103FD00080410D48FCF76FFDC0F10100C4B22246DC
:103FE0004FF480410848FCF773FD4FF40041064848
:103FF000FCF761FDC0F10100C4B222464FF400415C
:104000000148FCF765FD10BD0010014008B5012115
:104010001020FEF723FA4FF44040ADF800000220D4
:104020008DF8020010208DF8030069460648FCF761
:1040300065FC4FF480410448FCF746FD4FF4004115
:104040000148FCF743FD08BD0010014010B5FFF723
:10405000BDFF0221002000F06DF810BD10B5FFF784
:10406000D5FF022344F6206202490020FFF754FDE9
:1040700010BD00004D40000870B504460025002624
:104080000AE06806050E254951F82600804708B168
:1040900045F00105701CC6B2052EF2DB112D3AD297
:1040A000DFE805F039090C0F1215181B1E21242713
:1040B0002A2D30333600012020702CE00120607062
:1040C00029E00120A07026E00120E07023E001201B
:1040D000207120E0012060711DE00120A0711AE034
:1040E0000120E07117E00120207214E001206072CD
:1040F00011E00120A0720EE00120E0720BE001202F
:10410000207308E00120607305E00120A07302E045
:104110000120E07300BF00BF70BD00003800002028
:1041200010B54FF480610248FCF7D0FC10BD0000D0
:104130000010014010B5024602EB4200094B03EBB0
:104140008000806858B102EB420003F82010002084
:1041500002EB4203034C04EB8303588010BD0120A3
:10416000FCE700003001002008B50020F0234FF4E8
:10417000A07201460090FCF783FE08BD38B50446E6
:1041800001210420FEF76AF9012C11D18020ADF83D
:10419000000003208DF8020010208DF8030069460E
:1041A0000B48FCF7ABFB80210948FCF78DFC0DE0C8
:1041B0008020ADF8000048208DF8030069460448CF
:1041C000FCF79CFB80210248FCF77EFC38BD000018
:1041D0000008014000200449487188718860084641
:1041E0000021C160017470474801002010B50446E9
:1041F0000BE021780748FFF766F900BF402105482A
:10420000FFF794F80028F9D0641C20780028F0D13A
:1042100010BD00000044004010B500F01FFDFFF786
:10422000A7FC002006490870064908600649086096
:1042300006490860064A111F081FFEF7B5FA10BDAF
:104240005000002054000020580000205C00002096
:10425000D403002010B500F0D5FC06480088401CAF
:104260000449088008460088B0F5967F01DB0020ED
:10427000088010BD600000203EB543E0274800885C
:1042800040F21B31884203DB0020244908803EBDF8
:10429000224801880088401C204A10802048084499
:1042A00040F201431F4A111F0090081FFEF748FA11
:1042B0001A480088401E1A49085C0D2822D10A219C
:1042C000164802880088401C144B188014488154FA
:1042D0001846008802280FDD1846038801AA02A9A3
:1042E0000F48FFF727F9044634B90C4802889DF8B7
:1042F00008100B48FFF786F90948002101600020EB
:104300000649088040F201420649091F081FFEF7CE
:10431000FFF90128B2DC00BFB9E700009E000020D1
:10432000E4160020F40A00200EB511227949081F76
:10433000FEF7EEF9F0B178480068401C7649086055
:10434000084600680A2815D90020086002A8112331
:10435000704A121D111F0090081FFEF7F1F99DF819
:10436000081001EBC10202EB01116C4A02EBC10023
:10437000FFF732F96A4800780A2819D2DFE800F01E
:1043800005192C476B7E8E8DABC566480068401CB6
:104390006449086008460068C82809D9FF200190D0
:1043A0000020086001A901F0D5FF012002F00CF9FE
:1043B000ACE05C480068401C5A4908600846006848
:1043C000B0F5967F07D900200860FF20019001A971
:1043D000012001F0BFFF99E052480068401C51499C
:1043E000086008460068C82810D9FF20019001A97C
:1043F000022001F0AFFF01A9032001F0ABFF01A9EA
:10440000042001F0A7FF032002F0DEF87EE045481B
:104410000068401C4349086008460068B0F5967F74
:1044200018D941480078401C3F49087000203D4998
:104430000860FF20019001A9072001F08BFF3A4896
:1044400000780A2806DD002037490870012002F0B4
:1044500069F80EBD5AE0354A111F081FFEF7A4F98E
:10446000FF20019001A9062001F074FF01A9052099
:1044700001F070FF052002F0A7F847E02948006826
:10448000401C284908600846006841F27071884263
:1044900002D9072002F098F838E000BF24480078DD
:1044A000401C23490870084600780A2812DD1F4A7C
:1044B000111F081FFEF778F900201D4908701949DF
:1044C0000860FF20019001A9062001F043FF0320AE
:1044D00002F07AF81AE013480068401C114908609D
:1044E000FF20019008460068B0F5FA6F06D101A9D7
:1044F000072001F02FFF00200A490860FDF71AFB92
:1045000010B900200749086000E000BF00BF00BFED
:104510009FE70000FC0E0020A0000020140F0020E8
:104520008A000020A4000020A8000020F40A002037
:10453000A900002008B501211020FDF78FFF0121FF
:104540000420FDF78BFF01210846FDF787FF0620B9
:10455000ADF8000003208DF8020010208DF8030054
:1045600069461448FCF7CAF90120ADF800008DF83F
:10457000020010208DF8030069460F48FCF7BEF9D1
:104580000820ADF8000003208DF8020004208DF80B
:10459000030069460748FCF7B1F902210548FCF71A
:1045A00095FA04210348FCF791FA01210248FCF72F
:1045B0008DFA08BD001001400008014010B5044606
:1045C0000723012221460948FBF7CCFF01210748B8
:1045D000FCF729F800BF02210448FBF787FF0028F9
:1045E000F9D00248FBF77EFF10BD00000024014017
:1045F00010B53448007830B101280BD0022826D0FD
:1046000003285CD134E000202E494870486088605F
:10461000072010BD0820FFF7D1FF2A494968084448
:10462000284948600A20FFF7C9FF264989680844DD
:104630002449886008464078401C48700846407805
:104640000A2803DB002048700220087037E01D486C
:1046500080680A21B0FBF1F01A4988810846406859
:104660000A21B0FBF1F01749C8810320087026E049
:104670000020144908700846C089FA2148431149AE
:10468000898990FBF1F04400B4F5C87F01D9052079
:10469000BFE7B4F5C37F01D90420BAE7B4F5C87FFA
:1046A00001D90320B5E7B4F5B97F01D90220B0E7FD
:1046B000B4F5B47F01D90120ABE70020A9E700BF22
:1046C0000620A6E7D80500200148007D70470000BD
:1046D000D805002010B5FFF799FB10BD10B540219B
:1046E0000148FCF7DFF910BD0010014010B5802132
:1046F0000148FCF7D7F910BD0010014010B54FF488
:1047000080710248FCF7CEF910BD00000010014096
:1047100010B54FF400710248FCF7C4F910BD000059
:104720000010014010B54FF480710248FCF7BAF94F
:1047300010BD00000008014000BFEFF3108008B971
:10474000012070470020FCE708B501211420FDF787
:1047500085FE4FF48070ADF8000048208DF803000E
:1047600069460748FCF7CAF84FF47070ADF80000CE
:1047700048208DF8030069460248FCF7BFF808BDE1
:10478000000801400010014010B500200C490860ED
:10479000FFF7DAFF002410E000200A490855032043
:1047A000094921F81400C820084921F8140096206E
:1047B000074921F81400601CC4B2102CECDB10BDBA
:1047C0004C0000205C0100206C0100208C010020C6
:1047D000AC01002010B54FF400410248FCF776F917
:1047E00010BD00000008014010B54FF40041024820
:1047F000FCF76AF910BD00000008014010B504463E
:104800002CB14FF480510548FCF760F904E04FF4F7
:1048100080510248FCF758F910BD0000000C01401F
:1048200000B587B001218803FDF7F8FD01210820BC
:10483000FDF714FE01210846FDF710FE4FF460401D
:10484000ADF8040003208DF8060018208DF807004D
:1048500001A91F48FCF752F84FF48050ADF804004E
:1048600003208DF8060010208DF8070001A91848D4
:10487000FCF744F84FF480511548FCF727F9002065
:10488000ADF808004FF48270ADF80A000020ADF8D2
:104890000C000220ADF80E000120ADF8100040021F
:1048A000ADF812001020ADF814000020ADF816008D
:1048B0000720ADF8180002A90648FDF7CCFE01213B
:1048C0000448FDF7B3FE0120FFF798FF07B000BDD5
:1048D000000C01400038004010B5FFF7B3F9FFF7B6
:1048E000D5FAFFF7B7FCFFF793F810BD10B500F04D
:1048F0005BF9FFF723FAFFF7B1FB00F007FB00F0CD
:1049000075F9FFF741FFFFF787FCFFF7A3FCFFF7FF
:104910006DF8FFF7DFFE10BD00B591B00121C803AF
:10492000FDF77CFD01210220FDF768FD01211D201E
:10493000FDF794FD01214648FCF76CF84FF4004068
:10494000ADF82C0010208DF82F0003208DF82E00DC
:104950000BA94048FBF7D2FF4FF400413D48FCF75C
:10496000B5F85020ADF82C0010208DF82F00032052
:104970008DF82E000BA93848FBF7C0FF50213648B0
:10498000FCF7A4F84FF48060ADF82C0010208DF8EF
:104990002F0003208DF82E000BA93048FBF7AEFF47
:1049A0004FF480612D48FCF78FF82820ADF82C00DB
:1049B00003208DF82E0018208DF82F000BA9264813
:1049C000FBF79CFF4FF44040ADF830004FF482708D
:1049D000ADF832000020ADF834000220ADF836000A
:1049E0000120ADF838004002ADF83A000020ADF8E3
:1049F0003C00ADF83E000720ADF840000CA9184877
:104A0000FDF729FE1748FBF751FE15480C300090C2
:104A100010200290800103900020049080200590D7
:104A200000200690079008904FF4805009900020D5
:104A30000A9069460B48FBF7FEFE01220221084856
:104A4000FDF700FE01210648FDF7F0FD11B000BDA5
:104A50000002300000080140000C0140001001403D
:104A6000003C00401C04024000BF011EA0F10100F8
:104A7000FBD1704730B589B005460C4601210220B4
:104A8000FDF7CCFC01210420FDF7E8FC8020ADF807
:104A9000200010208DF8230003208DF8220008A9A3
:104AA0001F48FBF72BFF80211D48FCF70FF8ADF8DE
:104AB0000C50ADF808400020ADF80E00ADF80A002B
:104AC00002A91848FEF72EFB0420ADF814000220BE
:104AD000ADF816000120ADF818000020ADF81A005E
:104AE000ADF81C0005A90F48FEF78EFA1D208DF8C1
:104AF000040002208DF8050000208DF8060001203A
:104B00008DF8070001A8FDF7A9FA01220521054843
:104B1000FEF7D0FA00210348FEF762F909B030BD74
:104B200000080140000400401FB501210420FDF7EA
:104B300075FC1A48FEF760F93220ADF808001848F5
:104B400000681849B0FBF1F0401E80B2ADF80400D7
:104B50000020ADF80A00ADF8060001A90F48FEF7E5
:104B6000E1FA012211460D48FEF7A4FA01210B4893
:104B7000FEF736F94FF4A060FDF7A8FA1E208DF875
:104B8000000000208DF8010003208DF802000120B4
:104B90008DF803006846FDF761FA1FBD000800406C
:104BA0006800002040420F0010B5FFF7BDFF002451
:104BB00017E0012004EB44010B4A02F82100002019
:104BC00004EB440102EB8101488004EB440102EB59
:104BD0008101888004EB440102EB81018860601C44
:104BE000C4B2022CE5DB10BD3001002010B500205E
:104BF00003490880488008714721FFF73BFF10BD3B
:104C00004801002038B51248007800B138BD40F2A4
:104C100001221049081FFDF77BFD054600240BE02B
:104C20000D48204440F201230A4A121D111F009032
:104C3000081FFDF785FD641CAC42F1D32DB1284659
:104C4000FEF786FF01200249087000BFDEE7000082
:104C500050000020D0030020CC01002000B587B018
:104C600001210420FDF7FAFB01210820FDF7F6FBE6
:104C700001211020FDF7F2FB01212020FDF7EEFBC2
:104C800001218803FDF7EAFB01214804FDF7C6FB7B
:104C900001218804FDF7C2FB01210805FDF7BEFBD9
:104CA0004FF40070ADF8180018208DF81B00032099
:104CB0008DF81A0006A97548FBF720FE4FF48060B6
:104CC000ADF8180004208DF81B0003208DF81A00A1
:104CD00006A96E48FBF712FE0420ADF81800182054
:104CE0008DF81B0003208DF81A0006A96748FBF712
:104CF00005FE0820ADF8180004208DF81B000320E5
:104D00008DF81A0006A96148FBF7F8FD4FF48060A2
:104D1000ADF8180018208DF81B0003208DF81A003C
:104D200006A95B48FBF7EAFD4FF40060ADF81800F8
:104D300004208DF81B0003208DF81A0006A95448A2
:104D4000FBF7DCFD4FF48050ADF8180018208DF80B
:104D50001B0003208DF81A0006A94E48FBF7CEFD74
:104D60000420ADF818008DF81B0003208DF81A0000
:104D700006A94948FBF7C2FD4FF4E130029000203C
:104D8000ADF80C00ADF80E00ADF81000ADF8140051
:104D90000C20ADF8120002A94048FEF723FB02A93F
:104DA0003F48FEF71FFB02A93E48FEF71BFB02A986
:104DB0003D48FEF717FB25208DF8040003208DF8F1
:104DC00005008DF8060001208DF8070001A8FDF709
:104DD00045F926208DF8040004208DF805000320F5
:104DE0008DF8060001208DF8070001A8FDF736F9BF
:104DF00027208DF8040005208DF8050003208DF88C
:104E0000060001208DF8070001A8FDF727F93520DD
:104E10008DF8040005208DF8050006208DF80600A9
:104E200001208DF8070001A8FDF718F9012240F2D2
:104E300025511A48FEF7B1FA012240F225511848CF
:104E4000FEF7ABFA012240F225511648FEF7A5FA0B
:104E5000012240F225511448FEF79FFA01210F4824
:104E6000FEF74FFA01210E48FEF74BFA01210D48DB
:104E7000FEF747FA01210C48FEF743FA0122802190
:104E80000648FEF74AFA07B000BD000000080140DE
:104E9000000C0140001001400014014000380140A6
:104EA00000440040004800400050004002490968AA
:104EB00009B9014908607047540000200249096897
:104EC00009B9014908607047580000200249096883
:104ED00009B90149086070475C00002070B50446BC
:104EE0000D462E460DE021780748FEF7ECFA00BF8C
:104EF00040210548FEF71AFA0028F9D0641C701EFC
:104F0000C6B2002EEFD170BD0050004010B5FFF7C3
:104F100011FB04210748FBF7D9FD02210548FBF7E7
:104F2000D5FD00200449087004490870FF20044999
:104F3000087010BD001001402A0000202B00002046
:104F40002C00002000F00F030A2B04DA00F00F03FE
:104F50003033137003E000F00F0337331370001188
:104F600000F00F030A2B04DA00F00F0330330B704C
:104F700003E000F00F0337330B70704710B5FEF7F6
:104F80007FFDFDF729F9FDF745F9FFF7AFFC012398
:104F90001A460C490020FDF7DFF801F087F80123DD
:104FA0001A4609491846FDF7D7F8FEF757FC0123C2
:104FB0001A4606490220FDF7CFF8FDF7EFF800206A
:104FC00010BD0000D94800089D6000084538000861
:104FD00070B505460E461E4800781E2836D11421AD
:104FE0001B48801CFBF7B2F9002414E028780A283B
:104FF00007DA28783030C1B21548801C01556D1C85
:1050000007E02878FF2804D129781148801C015531
:1050100003E0601CC4B2142CE8DB00BF8C210C48F8
:105020001630FBF793F9002406E031780848163073
:105030000155601CC4B2761C30780028F5D10021DF
:105040000348163001551F200149087070BD00004B
:10505000BE33002070B5054614480078102824D1CE
:1050600014211248801CFBF771F9002410E0287805
:105070000A2807DA28783030C1B20C48801C015564
:105080006D1C03E02878FF2800D103E0601CC4B247
:10509000142CECDB00BF3B210448801C015500228E
:1050A000611C425418200149087070BDA8330020CB
:1050B00010B5FF200E49087000200E4908600E4907
:1050C00008700E4908700E48FFF7F0FE0D4A111FD8
:1050D000081FFDF769FB0C4A111F081FFDF764FB51
:1050E0000A4800210160FBF70BFDFEF78BFD10BDA8
:1050F000AD000020B0000020AC000020AE00002079
:105100002957000894200020B0200020B42400205B
:1051100008B50020009069461C2000F02FF91020EF
:105120000149087008BD0000A833002008B5884870
:105130000078062826D2DFE800F00326466D94D6D4
:1051400084480088401C8349088008460088C82895
:1051500018DD002008807E48407850B17C484078B7
:10516000401E7B49487000200090694600F006F917
:1051700008E0FF2078490870002078490860052081
:1051800073494870E2E073480088401C7149088008
:1051900008460088C82815DD002008800090694670
:1051A000012000F0EBF86946022000F0E7F86946BC
:1051B000032000F0E3F86946042000F0DFF8022045
:1051C00063490870C2E063480088401C6149088058
:1051D00008460088C8281CDD0020088000905C4834
:1051E000407858B15A484078401E594948700020CC
:1051F00000906946052000F0C1F80AE0FF205649FA
:105200000870002055490860052051494870012068
:1052100008709BE04F480088401C4E4908800846B3
:105220000088C8281CDD002008800090484840788D
:1052300058B147484078401E4549487000200090CA
:105240006946062000F09AF80AE0FF2042490870FB
:1052500000204249086005203D494870012008703F
:1052600074E03C480088401C3A49088008460088A1
:10527000C82837DD0020088000906946072000F02C
:105280007DF86946082000F079F86946092000F0A9
:1052900075F869460D2000F071F869460A2000F0A3
:1052A0006DF869460C2000F069F869460B2000F0A3
:1052B00065F869460F2000F061F86946112000F09A
:1052C0005DF86946122000F059F86946132000F095
:1052D00055F81E2022490870102022490870052028
:1052E0001B49087032E01B480088401C194908809F
:1052F00008460088B0F5FA6F1CDD00200880009099
:105300001348407858B112484078401E1049487000
:10531000002000906946142000F030F80AE0FF20D9
:105320000D49087000200D490860052008494870A3
:105330000120087000F05AF9FF2803D100F0AAF804
:10534000FF2802D000200349088000BF00BF08BD2D
:10535000B4000020C2000020AD000020B0000020FA
:10536000BE330020A833002010B5FBF7ADFAFFF7DD
:10537000DDFEFCF743FEFCF7B7FD10BD70B5C0B015
:1053800005460E46222D35DA002430E0C5EBC50077
:1053900000EB8000274901EB4000005D50B1C5EBF8
:1053A000C50000EB800001EB4000015D601C0DF8C2
:1053B00000101BE005E03178601C0DF80010641C43
:1053C000761C30780028F6D10D21601C0DF80010F5
:1053D000641C0A21601C0DF80010641C601CC0B223
:1053E0008DF800006846FBF7C7FB02E0641CFF2C49
:1053F000CCD91CE0242D03D13046FBF7BDFB16E0D1
:10540000252D09D11A208DF8010003208DF8000008
:105410006846FBF7B1FB0AE0262D08D11B208DF86A
:10542000010003208DF800006846FBF7A5FB40B0A3
:1054300070BD000048E3000803460022194600E062
:10544000491C08783A28FBD1491C0DE0491C087812
:10545000302809DB0878392806DC02EB820042009C
:10546000087830381044C2B208782C28EED10A2AC5
:1054700001DA002070470F2A01DA0120FAE7142A26
:1054800001DA0220F6E7212A01DA0320F2E7FF2001
:10549000F0E7000030B5A9B0514800781F2806D0C9
:1054A00020283DD021287CD0222838D18EE0012030
:1054B0004C4908704C480088401C4B4908800846FD
:1054C0000088C8282BDD0020088000240025142136
:1054D00024A8FAF75DFF222229466D1C24A8425415
:1054E0000AE02046611CCCB23D49891C0A5C284672
:1054F000691CCDB224A90A543948801C005DFF28DC
:10550000EFD1222024A94855002124AA681C115457
:1055100024A90E20FFF732FF002029B030BD5CE047
:1055200031480088401C3049088000240125084685
:105530000088C82834DD002008802948407840B31E
:1055400027484078401E264948708C2101A8FAF768
:105550001FFF0AE02046611CCCB2214916310A5CCB
:105560002946681CC5B201A842541D481630005D8A
:105570000028EFD1601CC0B28DF8040001A92420DE
:10558000FFF7FCFE00212520FFF7F8FE0020C4E70E
:1055900007E0FFE700201449088021201049087027
:1055A0001BE011480088401C0F490880084600880D
:1055B000C8280ADD0020088022200949087000213F
:1055C0002620FFF7DBFE0020A7E706E01E200449A7
:1055D000087000200349087000BF00BFFF209CE74F
:1055E000BE330020AE000020B600002008B54B48B6
:1055F0000078002872D14A4800781838062824D24A
:10560000DFE800F0032446716D8546480088401CA1
:1056100044490880084600880A2816DD00200880D2
:10562000009069461C20FFF7A9FE69460F20FFF78E
:10563000A5FE3B49891C1920FFF7A0FE1920384917
:10564000087005204870002008BD64E035480088D7
:10565000401C3449088008460088C82817DD00200F
:1056600008802F48407860B12D484078401E2C4972
:1056700048700020009069461A20FFF77FFE002046
:10568000E2E70020274908801B202549087042E0F6
:1056900024480088401C2349088008460088C82800
:1056A0001BDD002008801E48407880B11C484078EF
:1056B000401E1B4948700020009069461A20FFF7E1
:1056C0005DFE69461B20FFF759FE0020BCE7002065
:1056D000144908801B20124908701CE01CE01B20A4
:1056E0000F49087017E00F480088401C0D490880DA
:1056F00008460088B0F5967F08DD1D20084908702F
:105700000020009069461C20FFF738FE03E01020BF
:105710000349087000BF00BFFF2095E7AE000020DE
:10572000A8330020B800002001B582B0012002A9F2
:1057300040F20143034ACDE90010111F081FFCF796
:10574000A9FF0EBDB020002078B502460B464FF6EB
:10575000FF70002414E012F8011B81EA000505F037
:105760000F050F4E36F8155085EA201080EA2115F6
:1057700005F00F0536F8155085EA2010651CACB20F
:105780009C42E8D3C5B28DF80050050A8DF801504F
:105790009DF801509DF8006045EA062078BD0000A4
:1057A00010DE000810B5FFF73BF810BD024909688C
:1057B00009B9014908607047800000207CB5424863
:1057C000007810BB40F201124049081FFCF7A0FF0F
:1057D00001281ADD01A840F201133C4A121D111FD5
:1057E0000090081FFCF7ACFF9DF80400FE280CD1C8
:1057F000354840F20113354A121D111F0090081F51
:10580000FCF79EFF0020324908702F4800780028DE
:1058100058DD40F201122D49081FFCF779FF2A4993
:105820000978884241DD28480078632809DD274A45
:10583000121D111F081FFCF7B7FF00202249087036
:105840007CBD0025002410E02248204440F20113D2
:105850001E4A121D111F0090081FFCF771FF1D4802
:10586000005D2844C5B2601CC4B217480078844269
:10587000EADB01A840F20113144A121D111F009027
:10588000081FFCF75DFF9DF80400A84209D10E48EF
:105890000178104800F04AF80B4801780D48FDF7F0
:1058A000C9FC0020084908700CE009480078401C39
:1058B00007490870084600780A2803DB00200870B2
:1058C0000149087000BFBBE7840000207408002075
:1058D00085000020880A002030B5C1B040F20112D6
:1058E0000E49081FFCF714FFC5B2002D14DD00247B
:1058F0000CE001A8204440F20113084A121D111FB8
:105900000090081FFCF71CFF601CC4B2AC42F0DB27
:10591000294601A8FFF7E2FA41B030BD8009002016
:1059200010B5FFF7D9FFFFF749FF10BDF0B587B0FD
:1059300004460D46012D7DDD20788DF80800607845
:105940008DF80900A1788DF80A109DF808000A2842
:1059500074D2DFE800F07305525354555657585926
:10596000102D49D1E0788DF80B0021798DF80C10BD
:1059700061798DF80D10A1798DF80E10E1798DF80F
:105980000F10217A8DF81010617A8DF81110A17A1C
:105990008DF81210E17A8DF81310217B8DF8141018
:1059A000617B8DF81510A17B8DF81610E07B8DF8CA
:1059B00017000C210DF10B00FFF7C6FE06469DF8FF
:1059C00009109DF80A0041EA0020B04214D11D4898
:1059D000006888B1059800900120DFF868C002A92E
:1059E0000EC9DCF800C0E04706909DF818000128B9
:1059F00002D102A900F03CF820E000BF00BF00BFC8
:105A000000BF00BF00BF00BF032D16D10E480068C5
:105A100098B1059800909DF80800DFF82CC002A905
:105A20000EC9DCF800C0E047074637B19DF8080012
:105A300002A900E003E000F01BF800BF00BF07B0C0
:105A4000F0BD0000800000207C0000203EB5044630
:105A50000294012002A940F20113044ACDE900108A
:105A6000111F081FFCF716FE3EBD0000780800203D
:105A7000F0B58DB007460D463E46FE208DF800007D
:105A80000124062E7DD006DC062E7BD2DFE806F050
:105A9000C50C8A8B8C8D072E75D0082E74D0092EDC
:105AA00073D0FF2E6ED185E010222046611CCCB24F
:105AB0000DF8002006F18000C2B22046611CCCB275
:105AC0000DF800206A782046611CCCB20DF8002049
:105AD000AA782046611CCCB20DF80020EA78204656
