:020000040800F2
:1000000000280020ED010008C51B0008590B00085E
:100010003118000807060008A72F0008000000009C
:10002000000000000000000000000000FF210008A8
:100030008508000800000000A51D0008FB2400083A
:10004000070200080702000807020008070200086C
:10005000070200080702000807020008070200085C
:10006000070200080702000807020008070200084C
:1000700007020008070200080D0600080702000832
:10008000070200080702000807020008070200082C
:10009000070200080702000807020008070200081C
:1000A000070200080702000807020008070200080C
:1000B00007020008B12700087D2800080702000891
:1000C00007020008070200080702000807020008EC
:1000D00007020008BD2C0008352D0008792D000806
:1000E00007020008070200080702000800000000DD
:1000F0000000000000000000000000000000000000
:1001000000000000000000000702000807020008CD
:1001100007020008852C00080702000807020008F3
:10012000070200080702000807020008070200088B
:10013000070200080702000807020008070200087B
:10014000070200080702000807020008070200086B
:1001500000F002F800F03AF80AA090E8000C82449F
:100160008344AAF10107DA4501D100F02FF8AFF27C
:10017000090EBAE80F0013F0010F18BFFB1A43F085
:100180000103184764CF000084CF0000103A24BF59
:1001900078C878C1FAD8520724BF30C830C144BFEC
:1001A00004680C607047000000230024002500262E
:1001B000103A28BF78C1FBD8520728BF30C148BFCA
:1001C0000B6070471FB51FBD10B510BD00F01CF9C6
:1001D0001146FFF7F7FF04F043FB00F03AF903B4D0
:1001E000FFF7F2FF03BC00F041F900000948804727
:1001F00009480047FEE7FEE7FEE7FEE7FEE7FEE709
:10020000FEE7FEE7FEE7FEE704480549054A064B20
:100210007047000005250008510100080022002059
:1002200000280020002400200024002010B5431CDA
:1002300002E010F8011B71B18107FAD14FF00132D1
:1002400002C88C1A8C4314EAC211F9D0C01A0A06EB
:1002500003D0C01E10BDC01A10BD0A0401D0801EFC
:1002600010BD0902FCD0401E10BD421E12F8013F15
:10027000002BFBD111F8013B002B02F8013BF9D117
:100280007047032A40F2308010F0030C00F0158014
:1002900011F8013BBCF1020F624498BF11F801CB89
:1002A00000F8013B38BF11F8013BA2F1040298BFEE
:1002B00000F801CB38BF00F8013B11F0030300F058
:1002C0007180083AC0F0088051F8043B083A51F8B0
:1002D00004CBA0E80810F5E7121D5CBF51F8043B01
:1002E00040F8043BAFF30080D20724BF11F8013B74
:1002F00011F801CB48BF11F8012B24BF00F8013BD6
:1003000000F801CB48BF00F8012B70474FF0000206
:100310000429C0F0128010F0030C00F01B80CCF117
:10032000040CBCF1020F18BF00F8012BA8BF20F885
:10033000022BA1EB0C0100F00DB85FEAC17C24BFD9
:1003400000F8012B00F8012B48BF00F8012B704783
:100350004FF0000200B5134694469646203922BF5E
:10036000A0E80C50A0E80C50B1F12001BFF4F7AFA9
:10037000090728BFA0E80C5048BF0CC05DF804EB8B
:10038000890028BF40F8042B08BF704748BF20F8F9
:10039000022B11F0804F18BF00F8012B70477047F7
:1003A0007047704710B5203AC0F00B80B1E8185084
:1003B000203AA0E81850B1E81850A0E81850BFF44F
:1003C000F5AF5FEA027C24BFB1E81850A0E81850EE
:1003D00044BF18C918C0BDE810405FEA827C24BF42
:1003E00051F8043B40F8043B08BF7047D20728BFD0
:1003F00031F8023B48BF11F8012B28BF20F8023B1F
:1004000048BF00F8012B7047754600F02BF8AE4648
:1004100005006946534620F00700854618B020B510
:10042000FFF7F2FEBDE820404FF000064FF0000756
:100430004FF000084FF0000B21F00701AC46ACE88C
:10044000C009ACE8C009ACE8C009ACE8C0098D46F9
:10045000704710B50446AFF300802046BDE8104059
:10046000FFF7BDBE004870479C21002001491820BD
:10047000ABBEFEE726000200704721B1826842F061
:100480000102826003E0826822F00102826070470C
:10049000014600208A6802F004020AB1012000E04F
:1004A000002070470146C86C80B2704702460020A9
:1004B00013680B400BB1012000E00020704701469B
:1004C00000208A6802F008020AB1012000E0002042
:1004D0007047000030B502460020002350680F4CE2
:1004E00020400D790C6844EA052420435060906850
:1004F0000B4C2040D1E902542C434D7944EA450489
:1005000020439060D06A20F470000C7C641EE4B23A
:10051000234340EA0350D06230BD0000FFFEF0FFED
:10052000FDF7F1FFF0B504460D4600200021092D2E
:1005300011DDE068A5F10A0606EB4607072606FA74
:1005400007F18843A5F10A0606EB460603FA06F111
:100550000843E0600CE0206905EB4507072606FA32
:1005600007F1884305EB450603FA06F108432061CD
:10057000072A0FDA606B561E06EB86071F2606FA5F
:1005800007F18843561E06EB860605FA06F1084376
:10059000606322E00D2A0FDA206BD61F06EB860778
:1005A0001F2606FA07F18843D61F06EB860605FAD2
:1005B00006F10843206310E0E06AA2F10D0606EBA5
:1005C00086071F2606FA07F18843A2F10D0606EBFF
:1005D000860605FA06F10843E062F0BD816841F045
:1005E00008018160704721B1826842F4A0028260F4
:1005F00003E0826822F4A00282607047816841F0C3
:1006000004018160704700BFFEE7000010B54FF4A1
:10061000005000F0D1F850B14FF4005000F00CF849
:100620000021034800F016F800200249087010BDB0
:10063000440002405000002000F0805111B10349F5
:10064000086001E00249486070470000040402406D
:100650000000024021B1026842F00102026004E0A1
:1006600002684FF6FE731A400260704701684FF649
:10067000FE72114001600021016041608160C16033
:100680004B49884208D14A490839496841F00F016D
:10069000474A083A51608AE045491431884208D1F6
:1006A00043490839496841F0F001414A083A51602C
:1006B0007DE03F492831884208D13D4908394968E1
:1006C00041F470613A4A083A516070E038493C316F
:1006D000884208D136490839496841F47041344AA2
:1006E000083A516063E032495031884208D13049BC
:1006F0000839496841F470212D4A083A516056E0A2
:100700002B496431884208D129490839496841F4A4
:100710007001274A083A516049E0254978318842FA
:1007200008D123490839496841F07061204A083AE4
:1007300051603CE01F49884206D1011F096841F021
:100740000F01021F116032E01A491431884208D1AA
:100750001849091F096841F0F001164A121F11607B
:1007600025E014492831884208D11249091F096837
:1007700041F470610F4A121F116018E00D493C31BD
:10078000884208D10B49091F096841F47041094AA0
:10079000121F11600BE007495031884207D105490B
:1007A000091F096841F47021024A121F1160704745
:1007B000080002400804024001460020002201F027
:1007C000805313B1054B1A6801E0054B1A6802EA21
:1007D00001030BB1012000E000207047000402403B
:1007E000000002401AB103680B43036002E0036893
:1007F0008B430360704710B50022026847F6F07320
:100800009A430C6A8B6823430C6923434C69234346
:100810008C692343CC6923434C6A23438C6A23436A
:100820001A430260CB6843600B6883604B68C36007
:1008300010BD0000124A126842F0F002104B1A601C
:100840000F4A1C3211600E4A243210600C4A1832D2
:10085000126842F001020A4B18331A6000BF084ABE
:10086000121F126802F02002002AF8D0044A18323F
:10087000126822F00102024B18331A607047000020
:10088000040402407047000010B50B48006864285B
:1008900011D209480068401C0749086008460068F2
:1008A000052802D102F070FE05E0034800685028D8
:1008B00001D102F071FE10BDA00000202DE9F04131
:1008C000024600250026002000230024002791F87E
:1008D00003C00CF00F0591F803C00CF0100CBCF134
:1008E000000F03D091F802C04CEA050591F800C052
:1008F000BCF1000F31D0146800202BE04FF0010C48
:100900000CFA00F3B1F800C00CEA03069E4220D1B5
:1009100083004FF00F0C0CFA03F7BC4305FA03FCFD
:100920004CEA040491F803C0BCF1280F06D14FF043
:10093000010C0CFA00FCC2F814C00AE091F803C0E4
:10094000BCF1480F05D14FF0010C0CFA00FCC2F8C5
:1009500010C0401C0828D1D31460B1F800C0BCF10D
:10096000FF0F34DD546800202EE000F1080C4FF03A
:10097000010808FA0CF3B1F800C00CEA03069E4225
:1009800021D183004FF00F0C0CFA03F7BC4305FA9A
:1009900003FC4CEA040491F803C0BCF1280F05D114
:1009A00000F1080C08FA0CF8C2F8148091F803C0A2
:1009B000BCF1480F07D100F1080C4FF0010808FA0C
:1009C0000CF8C2F81080401C0828CED35460BDE853
:1009D000F0810000F0B50A46002300240021002524
:1009E00000F00046B6F1004F02D11D4EF16901E062
:1009F0001B4E7168C0F3034583B200F44016B6F590
:100A0000401F08D121F07061154E766826F070669F
:100A1000134F7E6012E000F48016B6F5801F06D1F9
:100A2000032606FA05F4A14341F0706106E0460D85
:100A3000360103FA06F6B14341F0706122B1460D6A
:100A4000360103FA06F6314300F00046B6F1004FD6
:100A500002D1034EF16101E0014E7160F0BD000072
:100A6000000001400246002093680B400BB10120BA
:100A700000E00020704702460020D3680B400BB115
:100A8000012000E00020704741617047016170471C
:100A90000AB1016100E0416170470146002004E0B5
:100AA000401C322800D903E0491C0A78002AF7D1FB
:100AB00000BF704710B5002432E004EB44001A492F
:100AC00001EB8000806848B304EB440011F820007B
:100AD000022823D104EB440001EB80004088401C35
:100AE00004EB4401104A02EB8101488004EB44000E
:100AF000114601EB8000408804EB440102EB8101C8
:100B0000898888420ADB012004EB440102F82100B5
:100B100004EB440102EB810188688047601CC4B289
:100B2000022CCADB10BD00000401002070B5054690
:100B30000E4600240BE000BF4021064802F062F997
:100B40000028F9D0295D034802F029FA641CB44258
:100B5000F1D370BD0048004000BFFEE72DE9F04131
:100B600004460D4616461F462A2000F0A1F9A11C96
:100B700088B200F08AF9B11C88B200F086F92B2007
:100B800000F096F9691C88B200F07FF9791C88B2F0
:100B900000F07BF92C2000F08BF9BDE8F08170B5F6
:100BA00004460D4616462B46224629462046FFF7A8
:100BB000D5FF304600F069F970BD00002DE9F0471F
:100BC00081460F4615461E46DDF82080701E83B212
:100BD000681E82B239464846FFF7C0FF00240AE08B
:100BE0004FEA28222046611C8CB20A490A5401F8B7
:100BF0000480601C84B2AC42F2DB3C4605E029462E
:100C00000448FFF717FE601C84B2B4EB460FF6DB16
:100C1000BDE8F087C40500202DE9FF5F80468A46C5
:100C200017469B460F9D00200290CDF80080284675
:100C300005EBD071C1F347042046E21704EB527272
:100C4000D2102146E31704EB5373DB10A4EBC3036C
:100C50000BB1012300E000231A446A4392B20192CF
:100C6000A7F12000C7B20AEB0500401E83B208EBD3
:100C70000400401E82B251464046FFF76FFF002637
:100C800073E00C2D07D107EB47003A4901EB8000D8
:100C9000805D039025E0102D05D1374800EB07104B
:100CA000805D03901DE0182D07D107EB4700334905
:100CB00001EB0010805D039013E0202D05D130483A
:100CC00000EB8710805D03900BE0302D07D107EB20
:100CD000C7002C4901EB0010805D039001E0BDE8E6
:100CE000FF9F4FF000093AE01098C8B9012000FAC0
:100CF00009F00399084018B1584600F0C6F802E020
:100D00000E9800F0C2F80298401CC0B202900298FF
:100D100090FBF4F104FB1100E8B90020029021E0FF
:100D2000012000FA09F00399084020B15A465146C3
:100D30004046FFF734FF08F101001FFA80F80098E1
:100D4000A8EB0000A04206D1DDF800800AF1010006
:100D50001FFA80FA06E009F1010000F0FF09B9F17D
:100D6000080FC1DB00BF701C86B20198864288DB89
:100D700000BFB4E74C580008C05C0008B06200082F
:100D800080740008408C00082DE9FF4782B00446BB
:100D90000E461F4600200190A2468020009006F1DA
:100DA0001F0083B204F11F0082B231462046FFF7D4
:100DB000D5FE4FF000093FE02249049801EBC01036
:100DC00010F80980002530E00F98C0B90120A84034
:100DD00000EA080018B1384600F057F802E00E9813
:100DE00000F053F80198401CC0B20190019890FBAC
:100DF000FBF10BFB1100B0B90020019017E00120BE
:100E0000A84000EA080020B13A4631462046FFF7E4
:100E1000C6FE601C84B2A4EB0A00584503D15446B8
:100E2000701C86B203E0681CC5B2082DCCDB00BF85
:100E300009F101001FFA80F900988145BCDB06B07A
:100E4000BDE8F087B0C100082DE9FE4F06460F4609
:100E500014469846DDE90D5ADDF8309010E0CDE9F2
:100E6000015ACDF800902278434639463046FFF7C4
:100E7000D3FE284605EBD07106EB61018EB2641CEF
:100E800020780028EBD1BDE8FE8F18B5044620126B
:100E90008DF80000E0B28DF8010002216846FFF7EE
:100EA000C9FC18BD10B50446204600F011F810BD6D
:100EB00010B5044610210548FFF7E6FD204600F076
:100EC00007F810210148FFF7E1FD10BD000C0140BB
:100ED00001B540210348FFF7D7FD01216846FFF720
:100EE000A9FC08BD000C014070B503460024002099
:100EF00010E00E5C451C4D5D46EA0526851C4D5DE7
:100F000046EA0546C51C4D5D46EA056543F8245092
:100F1000641C001D9042ECD370BD70B503461446AE
:100F20000022002015E011F822501D5431F8225003
:100F3000C5F30726451C5E5551F82250C5F30746F8
:100F4000851C5E5551F822502D0EC61C9D55521C15
:100F5000001DA042E7D370BD2DE9FC4104460E46BA
:100F6000002500272088C0F3C505382D02D2C5F121
:100F7000380001E0C5F1780007460822214668469E
:100F8000FFF7CBFF3A460849204600F00BFC082249
:100F90006946204600F006FC102204F108013046A4
:100FA000FFF7BBFFBDE8FC81C40000200021016009
:100FB000416005498160054AC260CA430261034A33
:100FC000D2434261704700000123456789ABCDEFF2
:100FD0002DE9F043C0B080468946D8F80040D8F8E3
:100FE0000450D8F80860D8F80C704022494668468A
:100FF000FFF77AFF05EA060027EA05010843009992
:101000000844FE4908440444E00140EA54642C4486
:1010100004EA050026EA0401084301990844F84956
:1010200008440744380340EA1757274407EA0400F6
:1010300025EA0701084302990844F2490844064496
:10104000700440EAD6363E4406EA070024EA060168
:10105000084303990844EC4908440544A80540EABC
:101060009525354405EA060027EA05010843049959
:101070000844E64908440444E00140EA54642C442E
:1010800004EA050026EA0401084305990844E049FA
:1010900008440744380340EA1757274407EA040086
:1010A00025EA0701084306990844DA49084406443A
:1010B000700440EAD6363E4406EA070024EA0601F8
:1010C000084307990844D44908440544A80540EA60
:1010D0009525354405EA060027EA050108430899E5
:1010E0000844CE4908440444E00140EA54642C44D6
:1010F00004EA050026EA0401084309990844C8499E
:1011000008440744380340EA1757274407EA040015
:1011100025EA070108430A990844A0F524404F38FE
:101120000644700440EAD6363E4406EA070024EA44
:10113000060108430B990844BA4908440544A80528
:1011400040EA9525354405EA060027EA05010843EB
:101150000C990844B44908440444E00140EA54644A
:101160002C4404EA050026EA040108430D990844CA
:10117000AE4908440744380340EA1757274407EAB2
:10118000040025EA070108430E990844A8490844C9
:101190000644700440EAD6363E4406EA070024EAD4
:1011A000060108430F990844A24908440544A805CC
:1011B00040EA9525354405EA070026EA0701084379
:1011C000019908449C4908440444600140EAD464FD
:1011D0002C4404EA060025EA06010843069908445F
:1011E000964908440744780240EAD757274407EA5B
:1011F000050024EA050108430B9908449049084476
:101200000644B00340EA96463E4406EA040027EA54
:1012100004010843009908448A4908440544280504
:1012200040EA1535354405EA070026EA0701084378
:1012300005990844844908440444600140EAD464A0
:101240002C4404EA060025EA060108430A990844EA
:101250007E4908440744780240EAD757274407EA02
:10126000050024EA050108430F9908447849084419
:101270000644B00340EA96463E4406EA040027EAE4
:1012800004010843049908447249084405442805A8
:1012900040EA1535354405EA070026EA0701084308
:1012A000099908446C4908440444600140EAD46444
:1012B0002C4404EA060025EA060108430E99084476
:1012C000664908440744780240EAD757274407EAAA
:1012D000050024EA050108430399084460490844CD
:1012E0000644B00340EA96463E4406EA040027EA74
:1012F00004010843089908445A490844054428054C
:1013000040EA1535354405EA070026EA0701084397
:101310000D990844544908440444600140EAD464E7
:101320002C4404EA060025EA060108430299084411
:101330004E4908440744780240EAD757274407EA51
:10134000050024EA05010843079908444849084470
:101350000644B00340EA96463E4406EA040027EA03
:10136000040108430C9908444249084405442805EF
:1013700040EA1535354485EA060078400599084469
:101380003D4908440444200140EA14742C4484EA92
:101390000500704008990844384908440744F80299
:1013A00040EA5757274487EA040068400B990844ED
:1013B000334908440644300440EA16463E4486EA6F
:1013C000070060400E9908442E4908440544E8058A
:1013D00040EA5525354485EA0600784001990844DD
:1013E000294908440444200140EA14742C4484EA46
:1013F0000500704004990844244949E078A46AD75C
:1014000056B7C7E8DB702024EECEBDC1AF0F7CF528
:101410002AC68747134630A8019546FDD8988069AB
:10142000AFF7448BBED75C892211906B937198FD06
:101430008E4379A62108B44962251EF640B340C008
:10144000515A5E26AAC7B6E95D102FD6531444023E
:1014500081E6A1D8C8FBD3E7E6CDE121D60737C3A3
:10146000870DD5F4ED145A4505E9E3A9F8A3EFFC7F
:10147000D9026F678A4C2A8D4239FAFF81F671874B
:1014800022619D6D0C38E5FD44EABEA4A9CFDE4B78
:1014900008440744F80240EA5757274487EA040003
:1014A000684007990844A54908440644300440EAC6
:1014B00016463E4486EA070060400A990844A0495F
:1014C00008440544E80540EA5525354485EA060008
:1014D00078400D9908449B4908440444200140EA9F
:1014E00014742C4484EA050070400099084496491D
:1014F00008440744F80240EA5757274487EA0400A3
:10150000684003990844914908440644300440EA7D
:1015100016463E4486EA07006040069908448C4916
:1015200008440544E80540EA5525354485EA0600A7
:10153000784009990844874908440444200140EA56
:1015400014742C4484EA050070400C9908448249C4
:1015500008440744F80240EA5757274487EA040042
:1015600068400F9908447D4908440644300440EA25
:1015700016463E4486EA07006040029908447849CE
:1015800008440544E80540EA5525354465EA070066
:10159000704000990844734908440444A00140EA9B
:1015A00094642C4464EA06006840079908446E4934
:1015B00008440744B80240EA9757274467EA050001
:1015C00060400E990844694908440644F00340EA23
:1015D00056463E4466EA040078400599084464494A
:1015E00008440544680540EAD525354465EA070006
:1015F00070400C9908445F4908440444A00140EA43
:1016000094642C4464EA06006840039908445A49EB
:1016100008440744B80240EA9757274467EA0500A0
:1016200060400A990844554908440644F00340EADA
:1016300056463E4466EA0400784001990844504901
:1016400008440544680540EAD525354465EA0700A5
:101650007040089908444B4908440444A00140EAFA
:1016600094642C4464EA060068400F990844464993
:1016700008440744B80240EA9757274467EA050040
:10168000604006990844414908440644F00340EA92
:1016900056463E4466EA040078400D9908443C49A9
:1016A00008440544680540EAD525354465EA070045
:1016B000704004990844374908440444A00140EAB2
:1016C00094642C4464EA060068400B99084432494B
:1016D00008440744B80240EA9757274467EA0500E0
:1016E0006040029908442D4908440644F00340EA4A
:1016F00056463E4466EA0400784009990844284961
:1017000008440544680540EAD5253544D8F800006A
:101710002044C8F80000D8F804002844C8F80400A1
:10172000D8F808003044C8F80800D8F80C0038444D
:10173000C8F80C0040B0BDE8F0830000604BBBF679
:1017400070BCBFBEC67E9B28FA27A1EA8530EFD4C5
:10175000051D880439D0D4D9E599DBE6F87CA21FB1
:101760006556ACC4442229F497FF2A43A72394ABBF
:1017700039A093FCC3595B6592CC0C8F7DF4EFFFCD
:10178000D15D84854F7EA86FE0E62CFE144301A353
:10179000A111084E827E53F735F23ABDBBD2D72A4B
:1017A00091D386EB2DE9F04704460F4615460026F7
:1017B000B046B1462088C0F3C508C8F1400920688A
:1017C00000EBC50020602068B0EBC50F02D2606856
:1017D000401C6060606800EB557060604D451CD334
:1017E00004F1180101EB08004A463946FEF749FDAD
:1017F00004F1180104F10800FFF7EAFB4E4605E08A
:10180000B91904F10800FFF7E3FB403606F1400088
:10181000A842F5D94FF0000800E00026AA1BB9192C
:1018200004F1180303EB0800FEF72BFDBDE8F08779
:1018300000BFFEE730B5B3B0DD480078052821D2FF
:10184000DFE800F00321F0EEED00DA480088401CEC
:10185000D849088008460088C82813DDC82101A897
:10186000FEF776FDFF208DF804000020D1490880A6
:1018700001A90D2003F0AEFD012003F0FBFD0020C7
:1018800033B030BD91E1CB480088401CC949088085
:101890000024002508460088B0F5967F77DD0020FB
:1018A00008800CE02846691CCDB2C3490A5C20467A
:1018B000611CCCB201A90A541E2D00D103E0BE4820
:1018C000405D0028EED100BFBB480078302805D12C
:1018D000B9480078401CB84908700EE0B648007856
:1018E000392805DB012003F0D3FD3020B249087010
:1018F000B1480078401CB049087022222046611C83
:10190000CCB201A90A542C222046611CCCB201A9F8
:101910000A5422222046611CCCB201A90A54002597
:101920000DE02846691CCDB2A3491E310A5C204651
:10193000611CCCB201A90A541E2D00D104E09E48BE
:101940001E30405D0028ECD100BF22222046611CE1
:10195000CCB201A90A542C222046611CCCB201A9A8
:101960000A5422222046611CCCB201A90A54002547
:101970000EE02846691CCDB28F493C310A5C2046F6
:10198000611CCCB201A90A54202D01D105E045E02B
:1019900089483C30405D0028EBD100BF2222204620
:1019A000611CCCB201A90A542C222046611CCCB285
:1019B00001A90A5430222046611CCCB201A90A5464
:1019C0002C222046611CCCB201A90A5430222046A8
:1019D000611CCCB201A90A542C222046611CCCB255
:1019E00001A90A5422222046611CCCB201A90A5442
:1019F0002046611CCCB201A90A5400222046611C79
:101A0000CCB201A90A54092003F0E4FCC82101A8C2
:101A1000FEF79EFC00206949087031E7C5E0B2E09E
:101A20006DE0FFE763480088401C6249088000249D
:101A3000002508460088B0F5967F5FDD002008800D
:101A40005E480078032807DD00205C49087001200B
:101A500003F01EFD002013E70DE02846691CCDB2FF
:101A600055495C310A5C2046611CCCB201A90A547C
:101A7000102D00D104E050485C30405D0028ECD1CE
:101A800000BF22222046611CCCB201A90A542C229C
:101A90002046611CCCB201A90A5400250DE028465D
:101AA000691CCDB244496C310A5C2046611CCCB241
:101AB00001A90A540A2D00D104E03F486C30405D72
:101AC0000028ECD100BF2C222046611CCCB201A919
:101AD0000A5430222046611CCCB201A90A540022CB
:101AE0002046611CCCB201A90A540A2003F072FC02
:101AF000C82101A8FEF72CFC0020C1E655E02D48C6
:101B00000088401C2B4908800024002508460088D6
:101B1000C82837DD002008800DE02846691CCDB2BA
:101B2000254976310A5C2046611CCCB201A90A54D1
:101B30001E2D00D104E020487630405D0028ECD115
:101B400000BF22222046611CCCB201A90A542C22DB
:101B50002046611CCCB201A90A5430222046611CE7
:101B6000CCB201A90A5400222046611CCCB201A9C2
:101B70000A540C2003F02EFCC82101A8FEF7E8FB54
:101B800000207DE611E00B480088401C09490880D0
:101B900008460088B0F5967F06DD094800780128E0
:101BA00002D100200649087000BF00BFFF2067E691
:101BB0008B0000208E0000205F2000208900002084
:101BC000900000207047000070B5002100230F2214
:101BD000C47804B3154C246804F4E064C4F5E064EC
:101BE000210AC1F10403CA40447804FA03F184785D
:101BF0001440214309010E4C0678A155047804F0E5
:101C00001F050124AC4005786D11AD0005F1E025FC
:101C1000C5F8004109E0047804F01F050124AC4038
:101C2000044D0678761145F8264070BD0CED00E0B5
:101C300000E400E080E100E002490143024A116053
:101C4000704700000000FA050CED00E00249096849
:101C500009B9014908607047AC00002000202CE061
:101C600000EB4001164A52F8211021B300EB40016D
:101C700002EB81010989491C00EB4002104B03EB88
:101C80008202118100EB40011A4602EB81010989B1
:101C900000EB400203EB8202D28891420BDB002171
:101CA00000EB400203EB82021181012100EB4002B4
:101CB00003EB82021171411CC8B20328D0DB7047CC
:101CC0002021002070B500EB40040E4D55F8244053
:101CD000B4B900EB400445F82410002400EB4005A3
:101CE000084E06EB85052C7100EB4004354605EBEC
:101CF0008404E280002400EB400506EB85052C817E
:101D000070BD00002021002019E0002415E004EB44
:101D100044000B4901EB8000007901280BD1002021
:101D200004EB4401064A02EB8101087104EB440113
:101D300052F821008047601CC4B2032CE7DBE4E7C3
:101D400020210020002016E0002100EB40020B4B78
:101D500043F8221000EB400203EB8202117100EB0A
:101D6000400203EB8202D18000EB400203EB8202CF
:101D70001181411CC8B20328E6DB704720210020F6
:101D8000002007E00549014491F8E817044A11547E
:101D9000411CC8B20C28F5DB7047000000F0FF1FA3
:101DA00012210020704700001CB501F0D3FC01286F
:101DB0006FD1002000904FF6FF7310220121019097
:101DC0000846FEF7E1FF02F015F9052811D10020C1
:101DD0005E49088002F00EF90A30C4B2002000907B
:101DE0004FF6FF732246012101902120FEF7CCFF20
:101DF000AAE056480088401C5449088008460088DC
:101E000032280AD1002000904FF6FF730A220121E8
:101E100001902120FEF7B8FF96E04C480088642826
:101E20000AD1002000904FF6FF730B220121019090
:101E30002120FEF7A9FF87E04448008896280AD1B0
:101E4000002000904FF6FF730C2201210190212009
:101E5000FEF79AFF78E03D480088C8280AD10020A4
:101E600000904FF6FF730D22012101902120FEF713
:101E70008BFF69E035480088FA280BD100200090DC
:101E80004FF6FF730E22012101902120FEF77CFF07
:101E90005AE011E02D480088B0F5967F54D100201B
:101EA0002A49088000904FF6FF730F22012101900C
:101EB0002120FEF769FF47E0002000904FF6FF73F6
:101EC0001122012101900846FEF75EFF02F092F810
:101ED000012828DC1D480088401C1C490880084651
:101EE000008832280ED102F085F80A30C4B20020F2
:101EF00000904FF6FF732246012101902120FEF74A
:101F000043FF21E01148008864281DDD00200F49AF
:101F1000088000904FF6FF731322012101902120C9
:101F2000FEF732FF10E000200849088002F062F856
:101F30000A30C4B2002000904FF6FF732246012100
:101F400001902120FEF720FF1CBD0000A80000200A
:101F500001460020034A506820F440400843506086
:101F6000704700000010024029B1064A526902433E
:101F7000044B5A6104E0034A52698243014B5A619F
:101F8000704700000010024029B1064AD26902439E
:101F9000044BDA6104E0034AD2698243014BDA61FF
:101FA000704700000010024029B1064A126902433E
:101FB000044B1A6104E0034A12698243014B1A611F
:101FC000704700000010024029B1064A926902439E
:101FD000044B9A6104E0034A92698243014B9A617F
:101FE000704700000010024029B1064AD26802433F
:101FF000044BDA6004E0034AD2688243014BDA60A2
:1020000070470000001002402DE9F041002100223D
:10201000002500230026002400278C46DFF860817D
:10202000D8F8048008F00C0121B1042907D0082950
:1020300059D109E0DFF84C81C0F8008058E0DFF8A2
:102040004881C0F8008053E0DFF83481D8F804807C
:1020500008F47012DFF82881D8F8048008F480357D
:10206000920C0D2A01D0921C00E0062235B9DFF84F
:102070001C8102FB08F8C0F8008033E0DFF8008123
:10208000D8F82C8008F48036DFF8F480D8F82C805B
:1020900008F00F0808F1010446B9DFF8EC80B8FB3E
:1020A000F4F808FB02F8C0F800801BE0DFF8D080ED
:1020B000D8F82C80C8F3031808F10107DFF8C080B6
:1020C000D8F82C80C8F3032808F1020CDFF8B88098
:1020D000B8FBF7F808FB0CF8B8FBF4F808FB02F8BB
:1020E000C0F8008004E0DFF89C80C0F8008000BFEA
:1020F00000BFDFF88C80D8F8048008F0F0010909EF
:10210000DFF88C8018F80130D0F8008028FA03F846
:10211000C0F80480DFF86880D8F8048008F4E06133
:10212000090ADFF86C8018F80130D0F8048028FA2A
:1021300003F8C0F80880DFF84880D8F8048008F475
:102140006051C90ADFF8488018F80130D0F80480DF
:1021500028FA03F8C0F80C80DFF82480D8F804804F
:1021600008F44041890BDFF82C8018F80130D0F8D2
:102170000C80B8FBF3F8C0F81080BDE8F0810000D7
:102180000010024000127A0040787D0100093D00F5
:10219000B0000020C000002021B1028842F04002BF
:1021A000028004E002884FF6BF731A400280704735
:1021B0001AB183880B43838002E083888B4383803A
:1021C000704710B50022028802F441520B884C88F7
:1021D00023438C882343CC8823430C8923434C8995
:1021E00023438C892343CC8923431A430280838B66
:1021F0004FF2FF74234083830B8A038210BD704724
:102200002DE9F84F05460C4616461F46DDE90A9AA9
:102210001948006820B169460020174A12689047A3
:102220004FF000081CE099F8000021680870206851
:10223000401C2060F1192068884200D12660206887
:102240002968884206D12868401CF1192860884214
:1022500000D12E6008F101001FFA80F809F1010990
:10226000D045E0DB0448006820B169460120024AFD
:1022700012689047BDE8F88FAC00002010B5034607
:1022800008681C68A04204D908881C88001B80B21A
:1022900010BD08681C68A04205D2088810441C883C
:1022A000001B80B2F4E70020F2E700002DE9F843BC
:1022B00004460E4615461F46DDF820804FF0000903
:1022C0001348006820B169460020114A12689047FF
:1022D000002088F800003068216888420CD020680F
:1022E000007888F800004FF001092068401CE919C7
:1022F0002060884200D125600548006820B1694609
:102300000120034A126890474846BDE8F883000060
:10231000AC00002002600A6070472DE9F05F0446BF
:102320000D4690462846FEF7B8FB8146C84504D3C3
:10233000A8EB090000F1010A02E0FF20BDE8F09FD0
:10234000002600271CE020782978884216D14FF01B
:10235000010B0FE0761C4E4501D13846EEE7641CB8
:102360006D1C20782978884204D0A41BAD1B002660
:10237000B34602E0BBF1000FECD100BF641C7F1C30
:102380005745E0D3FF20D9E710B500F001F810BDA4
:102390000CB50020019000903F48006840F4803068
:1023A0003D49086000BF3C48006800F400300090E0
:1023B0000198401C0190009818B90198B0F5A06FE1
:1023C000F1D13548006800F4003010B101200090D0
:1023D00001E000200090009801285CD12F4800689F
:1023E00040F010002D4908600846006820F0030006
:1023F00008600846006840F002000860264840680F
:10240000254948600846406848600846406840F4EE
:10241000806048600846C06A214908401E49C86279
:102420000846C06A1F4908431B49C862084600683D
:1024300040F08060086000BF1748006800F000604E
:102440000028F9D01448406820F47C1012494860F4
:102450000846406840F4E81048600846006840F0CC
:102460008070086000BF0C48006800F00070002811
:10247000F9D00948406820F0030007494860084641
:10248000406840F00200486000BF0348406800F028
:102490000C000828F9D10CBD0010024000200240B9
:1024A00000F0FEFF44060100F0B50346144621E0AB
:1024B000641E187800F00F070A2F04DA00F00F07E7
:1024C00007F1300603E000F00F075737FEB20011A6
:1024D00000F00F070A2F04DA00F00F0707F13005AC
:1024E00003E000F00F075737FDB20D70491C0E7066
:1024F000491C5B1C002CDBD1F0BD10B5FFF7AEFB17
:1025000010BD000010B51648006840F001001449E5
:102510000860084640681349084011494860084669
:102520000068114908400E4908600846006820F418
:10253000802008600846406820F4FE004860084695
:10254000006820F0A05008604FF47F0088600020F1
:10255000C862FFF719FF4FF000600449086010BD22
:10256000001002400000FFF0FFFFF6FE08ED00E063
:10257000F0B50C46154600220021068C4FF6FE777A
:102580003E400684028B018C4FF60C7632407E1C56
:1025900006EA03162E433243104EB0420ED0104EC0
:1025A000B0420BD0B0F1804F08D00E4EB04205D0F3
:1025B0000D4EB04202D00D4EB04206D14FF6FD7620
:1025C000314044F00106314305E04FF6F5763140E5
:1025D00044F00106314302830184F0BD002C014028
:1025E000003401400004004000080040000C00409E
:1025F000F0B50C461546002200210026078C4FF648
:10260000EF7C07EA0C070784028B018C4FF6FF77FB
:1026100007EA041640F6FF473A404FF6FF7707EA0D
:1026200003373A434FF6FF7707EA05273A43114F3E
:10263000B8420ED0104FB8420BD0B0F1804F08D046
:102640000E4FB84205D00E4FB84202D00D4FB842DF
:1026500006D14FF6DF77394046F01007394305E0E1
:102660004FF65F77394044F0100739430283018405
:10267000F0BD0000002C0140003401400004004087
:1026800000080040000C0040F0B50C461546002242
:1026900000210026078C4FF6FF6C07EA0C07078421
:1026A000828B018C4FF6FF7707EA04264FF60C77F2
:1026B0003A404FF6FF7707EA03172F433A43114F8B
:1026C000B8420ED0104FB8420BD0B0F1804F08D0B6
:1026D0000E4FB84205D00E4FB84202D00D4FB8424F
:1026E00006D14FF6FF57394046F48077394305E06D
:1026F0004FF2FF57394044F4807739438283018495
:10270000F0BD0000002C01400034014000040040F6
:1027100000080040000C0040F0B50C4615460022B1
:1027200000210026078C4EF6FF7C07EA0C07078481
:10273000828B018C4FF6FF7707EA043640F6FF479D
:102740003A404FF6FF7707EA05273A434FF6FF77FF
:1027500007EA03373A43114FB8420ED0104FB84240
:102760000BD0B0F1804F08D00E4FB84205D00E4FBD
:10277000B84202D00D4FB84206D14DF6FF7739402E
:1027800046F48057394305E047F6FF57394044F493
:102790008057394382830184F0BD0000002C014042
:1027A000003401400004004000080040000C0040DC
:1027B00010B501212F4800F074F904212D4800F0D4
:1027C00070F9002850D02B4800F068F92A49886039
:1027D00008468068B42806D2084680688C2802D94A
:1027E0000020887131E0244880683C2803D92248C1
:1027F00080685A2824D320488068872820D21E4821
:10280000806864281CD91C4A9079C21700EB527268
:10281000D310194A0C32D25C174B9979CB1701EBC4
:102820005373DB10A1EBC304802323411A43124BE3
:102830009879C31700EB5373DC100F4B0C331A5508
:102840000D488079401C0C4988710B4880792828F4
:1028500006D10021074800F021F8012006494871FF
:102860000021044800F08DF90521024800F013F81A
:1028700010BD0000000400401C01002010B5FEF750
:1028800019F90121014800F003F810BD00080040CB
:10289000CA4302827047CA430282704721B102884C
:1028A00042F00102028004E002884FF6FE731A40F3
:1028B0000280704710B504466848844208D101215F
:1028C000C014FFF791FB0021E014FFF78DFBC4E07B
:1028D000B4F1804F08D101210846FFF765FB0021C4
:1028E0000120FFF761FBB8E05D48844208D1012177
:1028F0000220FFF759FB00210220FFF755FBACE057
:102900005848844208D101210420FFF74DFB0021E3
:102910000420FFF749FBA0E05348844208D101217D
:102920000820FFF741FB00210820FFF73DFB94E062
:102930004E48844208D101211020FFF735FB0021C9
:102940001020FFF731FB88E04948844208D101217B
:102950002020FFF729FB00212020FFF725FB7CE04A
:102960004448844208D101214014FFF73DFB002177
:102970006014FFF739FB70E03F48844209D1012120
:10298000C804FFF731FB00214FF40020FFF72CFBB8
:1029900063E03A48844209D101210805FFF724FB8E
:1029A00000214FF48010FFF71FFB56E034488442AB
:1029B00009D101214805FFF717FB00214FF4001052
:1029C000FFF712FB49E02F48844208D10121402043
:1029D000FFF7EAFA00214020FFF7E6FA3DE02A4837
:1029E000844208D101218020FFF7DEFA00218020F7
:1029F000FFF7DAFA31E02548844208D10121801539
:102A0000FFF7D2FA0021A015FFF7CEFA25E0204803
:102A1000844209D101210804FFF7E6FA00214FF4AE
:102A20008030FFF7E1FA18E01A48844209D1012109
:102A30004804FFF7D9FA00214FF40030FFF7D4FA29
:102A40000BE01548844208D101218804FFF7CCFA35
:102A500000214FF48020FFF7C7FA10BD002C014081
:102A60000004004000080040000C0040001000403E
:102A70000014004000340140004C0140005001406F
:102A80000054014000180040001C0040002000409D
:102A90000040014000440140004801400146088FC9
:102AA000704730B50246002000230024158A05EA4D
:102AB0000103958905EA010413B10CB1012000E07E
:102AC000002030BD70B505460C46244885420ED026
:102AD000234885420BD0B5F1804F08D0214885426C
:102AE00005D02148854202D02048854200D100E02F
:102AF00000BF208850B92389A28861882846FFF743
:102B000037FDE188284600F03EF825E020880428BB
:102B10000AD12389A28861882846FFF769FDE188E8
:102B2000284600F039F817E0208808280AD12389C0
:102B3000A28861882846FFF7A7FDE188284600F0B3
:102B400038F809E02389A28861882846FFF7E4FD68
:102B5000E188284600F036F870BD0000002C0140E6
:102B6000003401400004004000080040000C004018
:102B70001AB183890B43838102E083898B4383816C
:102B8000704781847047028B4FF6F3731A400283BB
:102B9000028B0A4302837047028B4FF2FF331A40C5
:102BA0000283028B4FF6FF7303EA01231A43028369
:102BB0007047828B4FF6F3731A408283828B0A43ED
:102BC00082837047828B4FF2FF331A408283828B5D
:102BD0004FF6FF7303EA01231A4382837047000014
:102BE000002202881D4B98420ED01D4B98420BD0FC
:102BF000B0F1804F08D01B4B984205D01A4B984239
:102C000002D01A4B984204D14FF68F731A404B886A
:102C10001A43174B984207D0164B984204D04FF6F0
:102C2000FF431A40CB881A4302808B8883850B8828
:102C300003850A4B98420BD0094B984208D00E4BA3
:102C4000984205D00D4B984202D00D4B984201D1CD
:102C50000B7A03860123838270470000002C014019
:102C6000003401400004004000080040000C004017
:102C700000100040001400400040014000440140AA
:102C80000048014010B540F225510A4800F0C7F84D
:102C900078B1084800F07EF9C4B240F225510548E9
:102CA00000F08CF80448006818B120460249096811
:102CB000884710BD005000405C0000200EB540F277
:102CC00025510D4800F0ABF8A0B10B4800F062F9B7
:102CD000C0B2029040F22551074800F06FF8012081
:102CE00002A940F20123054ACDE90010111F081F77
:102CF000FFF786FA0EBD000000380140A80300204F
:102D00007CB505460C4640F201220949081FFFF731
:102D1000B5FA2044B0F5007F09DA40F20123044AF5
:102D2000121D111F081FCDE90054FFF769FA7CBD81
:102D3000A403002008B540F225510D4800F06FF8BB
:102D4000A8B140F225510A4800F038F8084800F0D0
:102D500021F9C0B200900748006820B19DF800003A
:102D600004490968884701216846FFF7C9FF08BD83
:102D7000004400405400002008B540F225510D48A1
:102D800000F04DF8A8B10B4800F004F9C0B2009073
:102D900040F22551074800F011F80748006820B1BB
:102DA0009DF8000004490968884701216846FFF73B
:102DB000A7FF08BD004800405800002010B50022C1
:102DC000002340F66A14A14200D100BF0A12012478
:102DD0009440A3B2DC43048010BD21B1828942F447
:102DE0000052828104E082894DF6FF731A4082818D
:102DF00070471AB1838A0B43838202E0838A8B4334
:102E00008382704702460020B1F5007F00D100BFE9
:102E100013880B400BB1012000E00020704770B513
:102E20000246002400230025002040F66A16B14225
:102E300000D100BFC1F3421501F01F03012606FABD
:102E400003F3012D02D19689334006E0022D02D111
:102E5000168A334001E0968A33400C12012606FAA6
:102E600004F41688344013B10CB1012000E00020B6
:102E700070BDF0B50346002400260025002040F672
:102E80006A17B94200D100BF1846C1F3421401F0DD
:102E90001F06012707FA06F5012C01D10C3004E0CA
:102EA000022C01D1103000E014301AB107682F4312
:102EB000076002E00768AF430760F0BD2DE9F04707
:102EC00086B005460E460024A24600BFA146002754
:102ED000B08900B100BF2F462C8A4CF6FF70044029
:102EE000F08804432C82AC894EF6F3100440B0887D
:102EF00031890843718908430443AC81AC8A4FF699
:102F0000FF400440B0890443AC8201A8FFF77CF87D
:102F10001F48874202D1DDF810A001E0DDF80CA0C7
:102F2000A88900F4004040B10AEBCA0000EB0A1087
:102F300031684900B0FBF1F807E00AEBCA0000EB8A
:102F40000A1031688900B0FBF1F86420B8FBF0F09A
:102F500004012009642101FB1089A88900F40040C4
:102F600040B1322000EBC900B0FBF1F000F00700E7
:102F7000044308E0322000EB09106421B0FBF1F0BB
:102F800000F00F0004432C8106B0BDE8F08700007C
:102F90000038014001468888C0F308007047C1F33B
:102FA00008028280704700BFFEE770B504460B46FA
:102FB0000021204600E0401C0578222DFBD1401C5A
:102FC00000E0401C0578222DFBD1401C401C0DE088
:102FD0000578302D09DB0578392D06DC01EB8105FC
:102FE00069000578303D0D44E9B2401C05782C2D70
:102FF000EED1117003E005781D705B1C401C0D1EA6
:10300000A1F10106F1B2F6D170BD00002DE9F04743
:1030100081460E4617469846002413E004EBC40090
:1030200000EB4000094A811842464846FFF775F90F
:10303000C5B2FF2D04D034703D700020BDE8F0878C
:10304000601CC4B20C2CE9DBFF20F7E7A4CF00081A
:103050007CB505462E7800240CE0285D11490978DE
:1030600001EBC10202EB01110F4A02EBC10108554D
:10307000601CC4B2B442F0DB01200A4911230B4AA0
:10308000CDE90010111F081FFFF7BAF805480078B6
:10309000401C04490870084600780A2801DB00201B
:1030A00008707CBD88000020E80E0020D40E0020AF
:1030B00070B5B2B005462E78701EC6B2002405E089
:1030C000601C285C0DF80400601CC4B2B442F7DB3D
:1030D00031466846FDF72AFD32B070BD70B5054631
:1030E0000C4616460C2C71D2DFE804F00607081CCB
:1030F0001D4344424C53591E68E067E04621344862
:10310000FDF704F9284602F043F93148401E0078E3
:10311000022803D1082002F003FA02E0032002F0A3
:10312000FFF953E052E051E02A480078012803D12A
:10313000022002F0F5F91AE026480078082816D196
:1031400025480078012803D1022002F093F90EE00F
:1031500021480078022803D1032002F08BF906E011
:103160001D480078032802D1042002F083F92DE0E5
:103170002CE02BE017480078052802D1062002F049
:10318000CFF923E0002015490870032002F072F9FE
:103190001CE012480078401C1049087016E0104AE4
:1031A00010492846FFF701FF0D49087800EBD07160
:1031B0004910A0EB410129B9094802780A49094898
:1031C00000F028F8002001F09FFE00BF00BF70BD96
:1031D000D91900208A0000208B00002089000020DF
:1031E000910000203F1D00201F1A002010B5002074
:1031F00002F060FAFEF7D8FD10BD000010B50348DC
:1032000001F098FB024801F015FE10BD9156000830
:10321000AD56000870B503461846D4B24BE0002501
:103220000D700578302D07DB0578392D04DC057825
:103230002D072D0E0D7016E00578412D08DB057861
:10324000462D05DC0578ED1F2D072D0E0D700AE0CB
:103250000578612D07DB0578662D04DC0578ED1F08
:103260002D072D0E0D70401C0578302D08DB0578DC
:10327000392D05DC0E780578303D35440D7016E0AB
:103280000578412D08DB0578462D05DC0E7805789C
:10329000373D35440D700AE00578612D07DB057870
:1032A000662D04DC0E780578573D35440D70401CC2
:1032B000491CA51EECB2002CB1D170BD00204FF40A
:1032C000E15000BF011EA0F10100FBD170470000DA
:1032D00000B587B001210820FEF776FE01211020FD
:1032E000FEF772FE012140F20120FEF76DFE012083
:1032F000ADF8180000208DF81B0006A91D48FDF749
:10330000DDFA0120ADF8180000208DF81B0006A999
:103310001948FDF7D3FA4FF44040FEF719FE00209C
:1033200001908DF808008DF809004FF4602003909B
:103330000020049002208DF8140001A90F48FDF729
:10334000C9F801210D48FDF798F80C48FDF746F93A
:1033500000BF0A48FDF7B3F80028FAD10748FDF787
:103360004DF900BF0548FDF793F80028FAD107B0E2
:1033700000BD0000000C014000100140002401408D
:1033800010B5FFF7A5FF0020054908704870486098
:1033900088600520087500200874488210BD000070
:1033A000AC05002010B500F0B9FD0446072C0ED185
:1033B00014480088401C13490880084600883228B9
:1033C0001FDD0020088001200F49087019E0062C3D
:1033D00017D00E480078844210D00D480078401C69
:1033E0000B4908700846007803280ADD00200870A1
:1033F0000648047000780449087502E0002004497A
:10340000087010BD62000020AC05002064000020A0
:103410006500002010B500F019F80248FEF716FC10
:1034200010BD00002934000870B504460D4624B9CB
:1034300000F018FE287072B606E0012C04D128783E
:1034400008B162B600E072B670BD000030B5144835
:1034500000686422B0FBF2F1B1F1807F00D31DE07F
:1034600021F07F40401E4FF0E022506150170F22A4
:10347000002807DA13071D0E0A4B00F00F04241F63
:103480001D5503E013071C0E074B1C5400BF002002
:103490004FF0E02290610720106100BF30BD0000B6
:1034A0006800002018ED00E000E400E070B500EBDB
:1034B00040040B4D05F82430002400EB4005084E75
:1034C00006EB85056C8000EB4004354605EB840473
:1034D000A28000EB400405EB8404A16070BD0000F5
:1034E000040100200649496C21F00101044A51649D
:1034F00011468864496C41F0010151647047000035
:103500000000024000B58DB001210846FEF72CFDF9
:103510001A48FDF7ABF81A4801901A48029010209B
:103520000390400104900020059080200690002028
:103530000790089009904FF400500A9000200B90DB
:1035400001A90E48FDF757F9012202210B48FDF7AA
:1035500049F94FF4A060FEF76FFB0E208DF83000A4
:1035600006208DF8310000208DF8320001208DF802
:1035700033000CA8FEF728FB0DB000BD440002404C
:1035800004380140A001002010B520210148FDF7BA
:103590007DFA10BD0008014010B520210148FDF75B
:1035A00073FA10BD0008014010B502210148FDF773
:1035B00059FA10BD000C014010B510210148FDF76B
:1035C00063FA10BD0010014010B510210148FDF74D
:1035D0005DFA10BD0010014010B533480068401C72
:1035E0003149086008460068B0F5967F04D900208C
:1035F000086001202D4908712C48007930B101285C
:1036000005D002280CD004284CD123E04AE000F079
:10361000A3FA022025490871012000F071FA41E067
:1036200080212348FDF732FA002000F069FA00F00B
:1036300093FA04201D49087147214FF6FF7000F0EE
:10364000AFFE01211B48FFF729F900211948FFF7B8
:1036500098FA27E015484079012822D10020134923
:10366000487108710846047B407B2044C4B2084678
:10367000807B2044C4B20846C07B2044C4B20846C4
:10368000007CA0420DD10846417B007B01EB00206D
:10369000064948800846C17B807B01EB0020034936
:1036A000088000BF00BF10BD340000201C010020B6
:1036B00000080140000400400148008870470000F5
:1036C0001C01002001484088704700001C010020B8
:1036D00008B501210420FEF777FC01210820FEF740
:1036E00073FC01211020FEF76FFC1020ADF80000E4
:1036F00002208DF8020010208DF803006946114861
:10370000FDF7DCF82020ADF8000002208DF8020063
:1037100010208DF8030069460B48FDF7CFF8022012
:10372000ADF8000004208DF8030069460748FDF756
:10373000C5F8FFF739FF06490870FFF745FFFFF7A7
:103740002BFF08BD0010014000080140000C0140A3
:103750000000002010B5FFF727FF0446FFF7AEFD7D
:103760000D480078844203D100200C49087010E015
:103770000948007884420CD008480078401C07496A
:10378000087008460078142803DD002008700248FD
:1037900004700148007810BD0000002001000020E6
:1037A00008B501210820FEF70FFC4FF44070ADF87A
:1037B000000003208DF8020014208DF803006946F4
:1037C0000448FDF77BF8012000F018F8012000F014
:1037D00003F808BD000C014010B504462CB14FF4AD
:1037E00080710548FDF752F904E04FF480710248FA
:1037F000FDF74AF910BD0000000C014010B5044669
:103800002CB14FF400710548FDF740F904E04FF486
:1038100000710248FDF738F910BD0000000C0140AE
:103820007FB500200090019002900390684600F060
:10383000E5F800247DE0FF2500264048005D0528CE
:103840006AD2DFE800F0030A274662001DF8040090
:1038500010B10120394908555EE01DF8040088B117
:10386000374830F81400401E80B2354921F8140062
:1038700078B9032021F81400022030490855254664
:10388000012606E003202E4921F8140000202B49D0
:10389000085541E01DF8040088B12A4830F81400AA
:1038A000401E80B2274921F8140088B9C82021F8A9
:1038B00014000320214908552546032608E0C820A6
:1038C000204921F8140004201C49085525460226E9
:1038D00022E01DF8040048B9042018490855962034
:1038E000194921F81400254605260DE0164830F840
:1038F0001400401E80B2144921F8140020B996200B
:1039000021F814002546042606E01DF8040010B92D
:1039100000200A49085500BF00BFFF2D07D00B4803
:10392000006820B131462846084A12689047601C5A
:10393000C4B2102CFFF67FAF7FBD00003001002025
:103940004001002060010020800100204C00002088
:1039500010B54FF480410D48FDF78DF8C0F101001E
:10396000C4B222464FF480410848FDF791F84FF465
:1039700000410648FDF77FF8C0F10100C4B22246BD
:103980004FF400410148FDF783F810BD00100140DD
:1039900008B501211020FEF717FB4FF44040ADF8A9
:1039A000000002208DF8020010208DF80300694607
:1039B0000648FCF783FF4FF480410448FDF764F8A4
:1039C0004FF400410148FDF761F808BD00100140C7
:1039D00010B5FFF7BDFF0221002000F06DF810BD0B
:1039E00010B5FFF7D5FF022344F6206202490020FC
:1039F000FFF75CFD10BD0000D139000870B504462A
:103A0000002500260AE06806050E254951F8260023
:103A1000804708B145F00105701CC6B2052EF2DBE7
:103A2000112D3AD2DFE805F039090C0F1215181BD9
:103A30001E2124272A2D30333600012020702CE04F
:103A40000120607029E00120A07026E00120E070D4
:103A500023E00120207120E0012060711DE00120A1
:103A6000A0711AE00120E07117E00120207214E03B
:103A70000120607211E00120A0720EE00120E072CE
:103A80000BE00120207308E00120607305E00120B5
:103A9000A07302E00120E07300BF00BF70BD000012
:103AA0003800002010B54FF480610248FCF7EEFFAB
:103AB00010BD00000010014010B5024602EB4200AC
:103AC000094B03EB8000806858B102EB420003F819
:103AD0002010002002EB4203034C04EB83035880C8
:103AE00010BD0120FCE700000401002008B5002003
:103AF000F0234FF4A07201460090FDF75FF808BD77
:103B000038B5044601210420FEF75EFA012C11D1DC
:103B10008020ADF8000003208DF8020010208DF801
:103B2000030069460B48FCF7C9FE80210948FCF7F1
:103B3000ABFF0DE08020ADF8000048208DF80300B9
:103B400069460448FCF7BAFE80210248FCF79CFF56
:103B500038BD000000080140002004494871887108
:103B6000886008460021C160017470471C01002074
:103B700010B500F009FDFFF7C5FC002006490870EC
:103B8000064908600649086006490860064A111F90
:103B9000081FFEF7BFFB10BD50000020540000209E
:103BA000580000205C000020A803002010B500F0A1
:103BB000BFFC06480088401C04490880084600886D
:103BC000B0F5967F01DB0020088010BD600000206A
:103BD0003EB543E02748008840F21B31884203DBB2
:103BE0000020244908803EBD224801880088401CEE
:103BF000204A10802048084440F201431F4A111F08
:103C00000090081FFEF752FB1A480088401E1A4910
:103C1000085C0D2822D10A21164802880088401C21
:103C2000144B1880144881541846008802280FDD70
:103C30001846038801AA02A90F48FFF7E7F90446CE
:103C400034B90C4802889DF808100B48FFF746FA73
:103C500009480021016000200649088040F2014225
:103C60000649091F081FFEF709FB0128B2DC00BF47
:103C7000B9E7000092000020B8160020C80A002012
:103C80000EB511226D49081FFEF7F8FAF0B16C4825
:103C90000068401C6A490860084600680A2815D96F
:103CA0000020086002A81123644A121D111F009011
:103CB000081FFEF7FBFA9DF8081001EBC10202EBAA
:103CC0000111604A02EBC100FFF7F2F95E4800788B
:103CD0000A2819D2DFE800F005192C476B7E8E8D7B
:103CE000ABAE5A480068401C584908600846006856
:103CF000C82809D9FF2001900020086001A901F01F
:103D000069FB012001F00CFC95E050480068401C64
:103D10004E49086008460068B0F5967F07D9002034
:103D20000860FF20019001A9012001F053FB82E00F
:103D300046480068401C4549086008460068C82895
:103D400010D9FF20019001A9022001F043FB01A935
:103D5000032001F03FFB01A9042001F03BFB0320FD
:103D600001F0DEFB67E039480068401C3749086015
:103D700008460068B0F5967F18D935480078401C91
:103D800033490870002031490860FF20019001A9E3
:103D9000072001F01FFB2E4800780A2806DD0020CE
:103DA0002B490870012001F073FB0EBD43E0294A46
:103DB000111F081FFEF7AEFAFF20019001A906208F
:103DC00001F008FB01A9052001F004FB052001F02A
:103DD000A7FB30E01D480068401C1C4908600846ED
:103DE000006841F27071884202D9072001F098FB07
:103DF00021E000BF18480078401C174908700846A9
:103E000000780A2812DD134A111F081FFEF782FAF4
:103E10000020114908700D490860FF20019001A998
:103E2000062001F0D7FA032001F07AFB03E0FDF74A
:103E300001FD00E000BF00BF00BFB6E7D00E0020CC
:103E400094000020E80E00208A0000209800002046
:103E50009C000020C80A00209D00002008B5012118
:103E60001020FEF7B1F801210420FEF7ADF8012182
:103E70000846FEF7A9F80620ADF8000003208DF8EB
:103E8000020010208DF8030069461548FCF716FD66
:103E90000120ADF8000003208DF8020004208DF809
:103EA000030069460F48FCF709FD0820ADF8000043
:103EB00003208DF8020004208DF8030069460848AD
:103EC000FCF7FCFC02210648FCF7E0FD0421044855
:103ED000FCF7DCFD01210348FCF7D8FD08BD00001C
:103EE000001001400008014010B5044607230122DC
:103EF00021460948FCF716FB01210748FCF773FB34
:103F000000BF02210448FCF7D1FA0028F9D002488A
:103F1000FCF7C8FA10BD00000024014010B5344879
:103F2000007830B101280BD0022826D003285CD1BC
:103F300034E000202E49487048608860072010BD9A
:103F40000820FFF7D1FF2A494968084428494860FA
:103F50000A20FFF7C9FF2649896808442449886078
:103F600008464078401C4870084640780A2803DB21
:103F7000002048700220087037E01D4880680A2140
:103F8000B0FBF1F01A498881084640680A21B0FB6D
:103F9000F1F01749C8810320087026E00020144979
:103FA00008700846C089FA2148431149898990FB65
:103FB000F1F04400B4F5C87F01D90520BFE7B4F59E
:103FC000C37F01D90420BAE7B4F5C87F01D9032023
:103FD000B5E7B4F5B97F01D90220B0E7B4F5B47FF5
:103FE00001D90120ABE70020A9E700BF0620A6E722
:103FF000AC0500200148007D70470000AC050020A2
:1040000010B5FFF7CDFB10BD10B540210148FCF7FE
:1040100029FD10BD0010014010B580210148FCF7BA
:1040200021FD10BD0010014010B54FF48071024811
:10403000FCF718FD10BD00000010014010B54FF452
:1040400000710248FCF70EFD10BD00000010014099
:1040500010B54FF480710248FCF704FD10BD00005C
:104060000008014000BFEFF3108008B9012070473D
:104070000020FCE708B501211420FDF7A5FF4FF44F
:104080008070ADF8000048208DF8030069460748AD
:10409000FCF714FC4FF47070ADF8000048208DF868
:1040A000030069460248FCF709FC08BD000801400E
:1040B0000010014010B500200C490860FFF7DAFF3E
:1040C000002410E000200A4908550320094921F87E
:1040D0001400C820084921F814009620074921F847
:1040E0001400601CC4B2102CECDB10BD4C0000208E
:1040F00030010020400100206001002080010020EC
:1041000010B54FF400410248FCF7C0FC10BD0000A0
:104110000008014010B54FF400410248FCF7B4FC20
:1041200010BD00000008014010B504462CB14FF44A
:1041300080510548FCF7AAFC04E04FF48051024886
:10414000FCF7A2FC10BD0000000C014000B587B0D8
:1041500001218803FDF718FF01210820FDF734FF36
:1041600001210846FDF730FF4FF46040ADF8040030
:1041700003208DF8060018208DF8070001A91F48BC
:10418000FCF79CFB4FF48050ADF8040003208DF841
:10419000060010208DF8070001A91848FCF78EFBD7
:1041A0004FF480511548FCF771FC0020ADF8080071
:1041B0004FF48270ADF80A000020ADF80C00022028
:1041C000ADF80E000120ADF810004002ADF812006D
:1041D0001020ADF814000020ADF816000720ADF84F
:1041E000180002A90648FDF7ECFF01210448FDF77D
:1041F000D3FF0120FFF798FF07B000BD000C01407E
:104200000038004010B5FFF7E7F9FFF709FBFFF7AB
:10421000CDFCFFF7C7F810BD10B500F05BF9FFF754
:1042200057FAFFF7DDFB00F0FFFA00F075F9FFF732
:1042300041FFFFF79DFCFFF7B9FCFFF7A1F8FFF77F
:10424000DFFE10BD00B591B00121C803FDF79CFE53
:1042500001210220FDF788FE01211D20FDF7B4FE9B
:1042600001214648FCF7B6FB4FF40040ADF82C00A6
:1042700010208DF82F0003208DF82E000BA9404848
:10428000FCF71CFB4FF400413D48FCF7FFFB5020BE
:10429000ADF82C0010208DF82F0003208DF82E0093
:1042A0000BA93848FCF70AFB50213648FCF7EEFB17
:1042B0004FF48060ADF82C0010208DF82F00032003
:1042C0008DF82E000BA93048FCF7F8FA4FF4806106
:1042D0002D48FCF7D9FB2820ADF82C0003208DF8E1
:1042E0002E0018208DF82F000BA92648FCF7E6FABF
:1042F0004FF44040ADF830004FF48270ADF832001A
:104300000020ADF834000220ADF836000120ADF8F1
:1043100038004002ADF83A000020ADF83C00ADF89E
:104320003E000720ADF840000CA91848FDF749FFF2
:104330001748FCF79BF915480C30009010200290AC
:1043400080010390002004908020059000200690BA
:10435000079008904FF48050099000200A90694619
:104360000B48FCF748FA012202210848FDF720FF1C
:1043700001210648FDF710FF11B000BD000230001A
:1043800000080140000C014000100140003C0040CA
:104390001C04024000BF011EA0F10100FBD17047C8
:1043A00030B589B005460C4601210220FDF7ECFD31
:1043B00001210420FDF708FE8020ADF82000102028
:1043C0008DF8230003208DF8220008A91F48FCF770
:1043D00075FA80211D48FCF759FBADF80C50ADF87B
:1043E00008400020ADF80E00ADF80A0002A91848F8
:1043F000FEF7F6FB0420ADF814000220ADF816001D
:104400000120ADF818000020ADF81A00ADF81C002E
:1044100005A90F48FEF756FB1D208DF80400022069
:104420008DF8050000208DF8060001208DF80700AA
:1044300001A8FDF7C9FB012205210548FEF798FBFD
:1044400000210348FEF72AFA09B030BD00080140F8
:10445000000400401FB501210420FDF795FD1A4816
:10446000FEF728FA3220ADF808001848006818490D
:10447000B0FBF1F0401E80B2ADF804000020ADF8B2
:104480000A00ADF8060001A90F48FEF7A9FB0122BA
:1044900011460D48FEF76CFB01210B48FEF7FEF9B3
:1044A0004FF4A060FDF7C8FB1E208DF8000000202F
:1044B0008DF8010003208DF8020001208DF8030023
:1044C0006846FDF781FB1FBD000800406800002022
:1044D00040420F0010B5FFF7BDFF002417E0012098
:1044E00004EB44010B4A02F82100002004EB4401D4
:1044F00002EB8101488004EB440102EB81018880DA
:1045000004EB440102EB81018860601CC4B2022C00
:10451000E5DB10BD0401002010B500200349088030
:10452000488008714721FFF73BFF10BD1C010020A8
:1045300038B51248007800B138BD40F20122104968
:10454000081FFDF79BFE054600240BE00D482044A4
:1045500040F201230A4A121D111F0090081FFDF7A7
:10456000A5FE641CAC42F1D32DB12846FEF7BAFF7C
:1045700001200249087000BFDEE700005000002063
:10458000A4030020A001002000B587B00121042071
:10459000FDF71AFD01210820FDF716FD012110206D
:1045A000FDF712FD01212020FDF70EFD01218803FA
:1045B000FDF70AFD01214804FDF7E6FC012188040E
:1045C000FDF7E2FC01210805FDF7DEFC4FF4007069
:1045D000ADF8180018208DF81B0003208DF81A0084
:1045E00006A97548FCF76AF94FF48060ADF8180029
:1045F00004208DF81B0003208DF81A0006A96E48D0
:10460000FCF75CF90420ADF8180018208DF81B00A9
:1046100003208DF81A0006A96748FCF74FF9082017
:10462000ADF8180004208DF81B0003208DF81A0047
:1046300006A96148FCF742F94FF48060ADF8180014
:1046400018208DF81B0003208DF81A0006A95B487E
:10465000FCF734F94FF40060ADF8180004208DF831
:104660001B0003208DF81A0006A95448FCF726F910
:104670004FF48050ADF8180018208DF81B0003206F
:104680008DF81A0006A94E48FCF718F90420ADF879
:1046900018008DF81B0003208DF81A0006A9494860
:1046A000FCF70CF94FF4E13002900020ADF80C005B
:1046B000ADF80E00ADF81000ADF814000C20ADF808
:1046C000120002A94048FEF7F9FB02A93F48FEF795
:1046D000F5FB02A93E48FEF7F1FB02A93D48FEF7B3
:1046E000EDFB25208DF8040003208DF805008DF8E2
:1046F000060001208DF8070001A8FDF765FA2620C5
:104700008DF8040004208DF8050003208DF80600C4
:1047100001208DF8070001A8FDF756FA27208DF833
:10472000040005208DF8050003208DF80600012007
:104730008DF8070001A8FDF747FA35208DF8040031
:1047400005208DF8050006208DF8060001208DF863
:10475000070001A8FDF738FA012240F225511A4856
:10476000FEF787FB012240F225511848FEF781FB36
:10477000012240F225511648FEF77BFB012240F250
:1047800025511448FEF775FB01210F48FEF725FB64
:1047900001210E48FEF721FB01210D48FEF71DFB0C
:1047A00001210C48FEF719FB012280210648FEF783
:1047B00020FB07B000BD000000080140000C0140D4
:1047C0000010014000140140003801400044004046
:1047D00000480040005000400249096809B90149F9
:1047E00008607047580000200249096809B901496A
:1047F000086070475C00002070B504460D462E46E8
:104800000DE021780748FEF7CAFB00BF40210548AC
:10481000FEF7F8FA0028F9D0641C701EC6B2002E0C
:10482000EFD170BD0050004010B5FFF717FB042119
:104830000748FCF72BF902210548FCF727F900206F
:104840000449087004490870FF200449087010BD2D
:10485000001001402A0000202B0000202C00002026
:1048600010B5FEF7D7FDFDF76DFAFDF789FAFFF7F2
:10487000D3FC01231A460C490020FDF723FA00F06F
:1048800053FC01231A4609491846FDF71BFAFEF7A7
:10489000B5FC01231A4606490220FDF713FAFDF77D
:1048A00033FA002010BD000005420008195100082D
:1048B000ED31000810B5002002490860FEF76CFEDB
:1048C00010BD0000A000002010B5FBF7DDFF10BDFB
:1048D00078B502460B464FF6FF70002414E012F83C
:1048E000011B81EA000505F00F050F4E36F8155043
:1048F00085EA201080EA211505F00F0536F81550DD
:1049000085EA2010651CACB29C42E8D3C5B28DF894
:104910000050050A8DF801509DF801509DF8006087
:1049200045EA062078BD0000B0CB000810B5FFF7BF
:104930000DFC10BD0249096809B9014908607047BA
:10494000800000207CB54248007810BB40F2011284
:104950004049081FFDF792FC01281ADD01A840F22A
:1049600001133C4A121D111F0090081FFDF79EFC09
:104970009DF80400FE280CD1354840F20113354A59
:10498000121D111F0090081FFDF790FC00203249F6
:1049900008702F480078002858DD40F201122D4998
:1049A000081FFDF76BFC2A490978884241DD284839
:1049B0000078632809DD274A121D111F081FFDF723
:1049C000A9FC0020224908707CBD0025002410E0CD
:1049D0002248204440F201131E4A121D111F00906C
:1049E000081FFDF763FC1D48005D2844C5B2601C2C
:1049F000C4B2174800788442EADB01A840F20113F0
:104A0000144A121D111F0090081FFDF74FFC9DF85E
:104A10000400A84209D10E480178104800F04AF875
:104A20000B4801780D48FEF76BF900200849087023
:104A30000CE009480078401C0749087008460078D7
:104A40000A2803DB002008700149087000BFBBE79B
:104A50008400002048080020850000205C0A002017
:104A600030B5C1B040F201120E49081FFDF706FC37
:104A7000C5B2002D14DD00240CE001A8204440F252
:104A80000113084A121D111F0090081FFDF70EFCAC
:104A9000601CC4B2AC42F0DB294601A8FFF7ACFEB3
:104AA00041B030BD5409002010B5FFF7D9FFFFF722
:104AB00049FF10BDF0B587B004460D46012D7DDDE0
:104AC00020788DF8080060788DF80900A1788DF8BD
:104AD0000A109DF808000A2874D2DFE800F0730578
:104AE0005253545556575859102D49D1E0788DF8E6
:104AF0000B0021798DF80C1061798DF80D10A179DA
:104B00008DF80E10E1798DF80F10217A8DF81010C4
:104B1000617A8DF81110A17A8DF81210E17A8DF872
:104B20001310217B8DF81410617B8DF81510A17B7B
:104B30008DF81610E07B8DF817000C210DF10B009D
:104B4000FFF7C6FE06469DF809109DF80A0041EAE7
:104B50000020B04214D11D48006888B1059800902B
:104B60000120DFF868C002A90EC9DCF800C0E047E8
:104B700006909DF81800012802D102A900F03CF827
:104B800020E000BF00BF00BF00BF00BF00BF00BFEC
:104B9000032D16D10E48006898B1059800909DF835
:104BA0000800DFF82CC002A90EC9DCF800C0E047FD
:104BB000074637B19DF8080002A900E003E000F0C5
:104BC0001BF800BF00BF07B0F0BD00008000002050
:104BD0007C0000203EB504460294012002A940F268
:104BE0000113044ACDE90010111F081FFDF708FB4F
:104BF0003EBD00004C080020F0B58DB007460D46C4
:104C00003E46FE208DF800000124062E7DD006DCF5
:104C1000062E7BD2DFE806F0C50C8A8B8C8D072E22
:104C200075D0082E74D0092E73D0FF2E6ED185E07A
:104C300010222046611CCCB20DF8002006F1800045
:104C4000C2B22046611CCCB20DF800206A78204622
:104C5000611CCCB20DF80020AA782046611CCCB2B1
:104C60000DF80020EA782046611CCCB20DF8002037
:104C70002A792046611CCCB20DF800206A792046C2
:104C8000611CCCB20DF80020AA792046611CCCB280
:104C90000DF80020EA792046611CCCB20DF8002006
:104CA0002A7A2046611CCCB20DF800206A7A204690
:104CB000611CCCB20DF80020AA7A2046611CCCB24F
:104CC0000DF80020EA7A2046611CCCB20DF80020D5
:104CD0002A7B2046611CCCB20DF800206A7B20465E
:104CE000611CCCB20DF80020AA7B2046611CCCB21E
:104CF0000DF80020EA7B2046611CCCB20DF80020A4
:104D0000A01EC1B20DF1020004E013E049E012E080
:104D100012E012E000F062F82146621CD4B20DF8F5
:104D200001002146684600F03FF83AE000BF00BFAE
:104D300000BF00BF00BF00BF00BF00BF032220466E
:104D4000611CCCB20DF80020FF2E06D1FF222046B8
:104D5000611CCCB20DF8002007E006F18000C2B261
:104D60002046611CCCB20DF800206A782046611CF8
:104D7000CCB20DF80020AA782046611CCCB20DF808
:104D80000020A01EC1B20DF1020000F027F821465C
:104D9000621CD4B20DF801002146684600F004F808
:104DA00000BF00BF0DB0F0BD7CB505460C462E46D9
:104DB00040F201120849081FFDF760FA2044FF285D
:104DC00009DC40F20113044A121D111F081FCDE92E
:104DD0000064FDF715FA7CBD5409002010B50246A9
:104DE0000020002305E014780444E0B2521C5C1C4F
:104DF000E3B28B42F7DB10BD10B5094A111F081F43
:104E0000FDF788FA074A111F081FFDF783FA0020F3
:104E100005490860054908600548FFF7E5FC10BD35
:104E20004C080020580900207C0000208000002051
:104E3000D54B00080249096809B901490860704763
:104E40007C0000202DE9F043A3B0054688461746B4
:104E5000002400267B222046641C19A90A5400BFA6
:104E6000A85D38B13046761C2A5C2046641C19A91E
:104E70000A5400E002E01E2EF2DD00BF00BF402217
:104E80002046641C19A90A5473222046641C0A5443
:104E900063222046641C0A546D222046641C0A5476
:104EA00070222046641C0A547D222146641C19A8E5
:104EB000425400222046641C19A90A54402109A822
:104EC000FBF746FA414609A8FBF7CFF919A909A84B
:104ED000FBF7CBF90B48FCF769F809A8FBF7A6F933
:104EE00081464A4609A90748FCF75CFC01A9054828
:104EF000FCF732F81022394601A8FDF7D5FA23B0A5
:104F0000BDE8F08344210020014981F8B2007047D8
:104F10005F20002030B589B030208DF804000025D6
:104F20002BE03948445D241100BF0A2C07DA04F154
:104F30003000C1B26800401C01AA115406E004F11F
:104F40003700C1B26800401C01AA11542E48445DCC
:104F500004F00F040A2C07DA04F13000C1B2680033
:104F6000801C01AA115406E004F13700C1B26800A8
:104F7000801C01AA1154681CC5B20C2DD1DB002085
:104F80008DF81D0001A800F04FF80DF1050000F0AC
:104F9000AFF81E4A0DF105010846FFF753FF1CA0AC
:104FA00000F06AF81EA000F07BF85F208DF81D006D
:104FB00064208DF81E006F208DF81F0077208DF87B
:104FC00020006E208DF8210000208DF822000DF1C8
:104FD000050000F079F85F208DF81D0075208DF830
:104FE0001E0070208DF81F0000208DF820008DF825
:104FF00021008DF822000DF1050000F029F80120B4
:10500000FFF782FF09B030BD122100209B20002055
:105010003131392E39312E3135382E38000000002B
:10502000313838330000000010B5002109E0047861
:105030000A464B1CD9B2054B9C54401C1E2900D17A
:1050400002E00278002AF2D100BF10BD5F200020EC
:1050500010B5002109E004780A464B1CD9B2054B73
:105060009C54401C1E2900D102E00278002AF2D193
:1050700000BF10BDF320002010B5002109E0047826
:105080000A464B1CD9B2054B9C54401C102900D138
:1050900002E00278002AF2D100BF10BDBB20002040
:1050A00010B5002109E004780A464B1CD9B2054B23
:1050B0009C54401C0A2900D102E00278002AF2D157
:1050C00000BF10BDCB20002010B5002109E00478FE
:1050D0000A464B1CD9B2054B9C54401C1E2900D1DA
:1050E00002E00278002AF2D100BF10BDD5200020D6
:1050F00010B5002109E004780A464B1CD9B2054BD3
:105100009C54401C1E2900D102E00278002AF2D1F2
:1051100000BF10BD7D20002010B5FFF7C5FC00F0DA
:1051200053FAFFF7D1FB10BD10B5FFF7FFFB00F0FE
:1051300009F8FFF761FE00F001FAFFF7BBFBFFF78C
:10514000E9FE10BD0EB5FFF77DF842F21070FFF7D3
:1051500021F9FEF7DFFF42F21070FFF71BF9FEF7AF
:10516000CFFF6420FFF716F91120FBF7A1FE42F2F2
:105170001070FFF70FF93620FBF79AFEA020FBF71F
:1051800091FE3A20FBF794FE0520FBF78BFEB22040
:10519000FBF78EFE0C20FBF785FE0C20FBF782FE52
:1051A0000020FBF77FFE3320FBF77CFE3320FBF76C
:1051B00079FEB720FBF77CFE3520FBF773FEBB20A2
:1051C000FBF776FE3520FBF76DFEC020FBF770FE87
:1051D0002C20FBF767FEC220FBF76AFE0120FBF7DD
:1051E00061FEC320FBF764FE1320FBF75BFEC420C7
:1051F000FBF75EFE2020FBF755FEC620FBF758FEAE
:105200000F20FBF74FFECA20FBF752FE0F20FBF7E3
:1052100049FEC820FBF74CFE0820FBF743FE552053
:10522000FBF746FE9020FBF73DFED020FBF740FE4B
:10523000A420FBF737FEA120FBF734FEE020FBF7AC
:1052400037FED020FBF72EFE0020FBF72BFE0620BA
:10525000FBF728FE0920FBF725FE0B20FBF722FEBB
:105260002A20FBF71FFE3C20FBF71CFE5520FBF716
:1052700019FE4B20FBF716FE0820FBF713FE162045
:10528000FBF710FE1420FBF70DFE1920FBF70AFEBA
:105290002020FBF707FEE120FBF70AFED020FBF7FA
:1052A00001FE0020FBF7FEFD0620FBF7FBFD0920B9
:1052B000FBF7F8FD0B20FBF7F5FD2920FBF7F2FDCE
:1052C0003620FBF7EFFD5420FBF7ECFD4B20FBF7FE
:1052D000E9FD0D20FBF7E6FD1620FBF7E3FD1420AA
:1052E000FBF7E0FD2120FBF7DDFD2020FBF7DAFDD9
:1052F0002920FBF7DDFDFEF7D5FBFEF7F7FB0020CD
:1053000000904FF6FF731022012101900846FBF731
:105310003BFD002000904FF6FF730F22012101900A
:105320002120FBF731FD002000904FF6FF73032290
:1053300001210190FA20FBF727FD002000904FF695
:10534000FF730422012101904FF48D70FBF71CFDC7
:10535000002000904FF6FF73122201210190D2200D
:10536000FBF712FD00203021CDE900014FF6FF735D
:1053700004A2642102904620FBF766FD00F02EF99E
:105380000EBD00002044495341524D200000000052
:1053900010B501460022084600E0401C03783A2B75
:1053A000FBD1401C0378303B094C237000E0401CCB
:1053B0000378222BFBD1401C06E00478044B5B1CD5
:1053C0009C54531CDAB2401C0378222BF5D110BD3B
:1053D000D819002070B5B2B006460D460E2E45DA3B
:1053E000002440E0C6EBC60000EB8000204901EB42
:1053F0004000005D50B1C6EBC60000EB800001EB41
:105400004000015D601C0DF800102BE02878FF289B
:1054100016D0082E0AD105E02978601C0DF800107E
:10542000641C6D1C2878FF28F6D109E005E0297876
:10543000601C0DF80010641C6D1C28780028F6D143
:105440000D21601C0DF80010641C0A21601C0DF871
:105450000010641C601CC0B28DF800006846FDF7A7
:10546000F7FD02E0641C462CBCD300BF32B070BD17
:10547000D0CB000810B5044603480470034A111F3E
:10548000081FFCF747FF10BD8B000020C80A002052
:1054900010B50446FEF75EF9012825D1012C05D18F
:1054A000002016490880012000F03AF813480088CF
:1054B00018B900F043F8FEF77FF810480088B0F5FF
:1054C0007A7F0FDA0D480088401C0C490880084696
:1054D0000088962804DD4FF4FA600880FEF774F81F
:1054E000002010BD0120FCE70020044908800120B5
:1054F00000F016F8FEF760F80020F2E78C000020BC
:1055000001B582B0012002A940F20143034ACDE96E
:105510000010111F081FFCF773FE0EBDC80A002003
:1055200010B5044603480470034A111F081FFCF716
:10553000F1FE10BD8A000020C80A002010B5194AEB
:10554000111F081FFCF7E6FE174A111F081FFCF782
:10555000E1FE1648FFF740F90020154908700024C5
:105560000BE004EBC40101EB0411124A02EBC10091
:10557000C821FAF7EDFE601CC4B20A2CF1DB0E481C
:105580000021016001200D49087000200C490870BD
:1055900046210B48401CFAF7B9FE00200949087063
:1055A00010BD0000C80A0020D40E002001550008DC
:1055B00088000020E80E0020B81600208A00002095
:1055C000D81900208B00002010B50020FFF760FFE5
:1055D00018B1FEF7FDFAFEF753FB10BD00B587B01A
:1055E00032208DF80C0030208DF80D0032208DF81F
:1055F0000E0033208DF80F002D208DF81000312083
:105600008DF811008DF812002D208DF81300302038
:105610008DF8140032208DF8150000208DF816004A
:105620001821CDE900014FF6FF7303AAC8210290AB
:105630001420FBF709FC31208DF80C008DF80D00CB
:105640003A208DF80E0033208DF80F0030208DF8B1
:10565000100000208DF811001821CDE900014FF64F
:10566000FF7303AAC8210290A020FBF7EDFB0020E6
:105670001821CDE900014FF6FF7304A2C821029062
:105680004FF48270FBF7E0FB07B000BD4D6F6E007A
:1056900018B5044602208DF80000012C02D101202B
:1056A0008DF80000BDF80010084618BD10B504467E
:1056B000012010BD70B586B005460026FDF7FCFF41
:1056C00060490988884204D0FDF7F6FF5D490880EB
:1056D0000126FDF7F7FF5C490988884204D0FDF7F1
:1056E000F1FF59490880012605B10126012E7DD11F
:1056F000002454480088632810DD52480088B0F523
:105700007A7F0BDA4F480088642190FBF1F030304B
:10571000C2B22046611CCCB204A90A544948008890
:10572000642190FBF1F201FB12000A2190FBF1F0E1
:105730003030C2B22046611CCCB204A90A542E22D9
:105740002046611CCCB204A90A543E4800880A21B4
:1057500090FBF1F201FB12003030C2B22046611C16
:10576000CCB204A90A5421222046611CCCB204A95F
:105770000A5400222046611CCCB204A90A5400201D
:105780001821CDE900014FF6FF7304AA032102900E
:105790004620FBF759FB00242B480088632810DDC6
:1057A00029480088B0F57A7F0BDA27480088642101
:1057B00090FBF1F03030C2B22046611CCCB204A99B
:1057C0000A5421480088642190FBF1F201FB120089
:1057D0000A2190FBF1F03030C2B22046611CCCB2FD
:1057E00004A90A542E222046611C00E028E0CCB215
:1057F00004A90A54144800880A2190FBF1F201FB25
:1058000012003030C2B22046611CCCB204A90A5446
:1058100025222046611CCCB204A90A54002220464D
:10582000611CCCB204A90A5400201821CDE9000162
:105830004FF6FF7304AA032102908720FBF704FBB5
:1058400006B070BDA6000020A400002000000000EB
:105850000000000000000000000004040404040034
:105860000004000014140A00000000000000000002
:1058700000000A0A1F0A0A1F0A0A000000040E1587
:1058800005060C14150E0400000012150D152E2C23
:105890002A1200000000040A0A3615152916000015
:1058A00002020100000000000000000010080804CF
:1058B0000404040408081000020404080808080886
:1058C0000404020000000004150E0E150400000080
:1058D00000000008083E080800000000000000006A
:1058E000000000000202010000000000003F000074
:1058F00000000000000000000000000000020000A6
:1059000000201010080804040202010000000E111B
:1059100011111111110E000000000406040404040A
:10592000040E000000000E1111080402011F000007
:1059300000000E11100C1010110E00000000080CD9
:105940000C0A091F081C000000001F01010F1110A4
:10595000110E000000000C12010D1311110E0000B9
:1059600000001E10080804040404000000000E11CA
:10597000110E1111110E000000000E111119161058
:105980000906000000000000040000000004000000
:1059900000000000000400000004040000001008E3
:1059A0000402020408100000000000003F003F0055
:1059B00000000000000002040810100804020000AB
:1059C00000000E11110804040004000000001C2255
:1059D000292D2D1D221C0000000004040C0A0A1EA3
:1059E0001233000000000F12120E1212120F0000EC
:1059F00000001E1101010101110E000000000F1234
:105A000012121212120F000000001F120A0E0A02D8
:105A1000121F000000001F120A0E0A0202070000F7
:105A200000001C1201013911120C00000000331299
:105A3000121E12121233000000001F04040404049A
:105A4000041F000000003E080808080808080907AD
:105A5000000037120A060A1212370000000007027F
:105A600002020202223F000000003B1B1B1B151517
:105A70001535000000003B1216161A1A1217000006
:105A800000000E1111111111110E000000000F1273
:105A9000120E02020207000000000E111111111770
:105AA000190E180000000F12120E0A121237000011
:105AB00000001E1101060810110F000000001F1544
:105AC00004040404040E0000000033121212121227
:105AD000120C000000003312120A0A0C0404000029
