:020000040800F2
:10000000603F00202D020008E1200008990E000842
:10001000211C0008470600085735000800000000B2
:100020000000000000000000000000001B27000886
:10003000C508000800000000C1220008172A0008B7
:10004000470200084702000847020008470200086C
:10005000470200084702000847020008470200085C
:10006000470200084702000847020008470200084C
:1000700047020008470200084D0600084702000832
:10008000470200084702000847020008470200082C
:10009000470200084702000847020008470200081C
:1000A000470200084702000847020008470200080C
:1000B00047020008792D0008452E00084702000875
:1000C00047020008470200084702000847020008EC
:1000D0004702000889320008F13200083533000871
:1000E000470200084702000847020008000000001D
:1000F0000000000000000000000000000000000000
:10010000000000000000000047020008470200084D
:100110004702000851320008470200084702000861
:10012000470200084702000847020008470200088B
:10013000470200084702000847020008470200087B
:10014000470200084702000847020008470200086B
:1001500000F002F800F05AF80AA090E8000C82447F
:100160008344AAF10107DA4501D100F04FF8AFF25C
:10017000090EBAE80F0013F0010F18BFFB1A43F085
:1001800001031847E0E8000000E900000A444FF0CE
:10019000000C10F8013B13F0070408BF10F8014BE6
:1001A0001D1108BF10F8015B641E05D010F8016B2B
:1001B000641E01F8016BF9D113F0080F1EBF10F88F
:1001C000014BAD1C0C1B09D16D1E58BF01F801CBB2
:1001D000FAD505E014F8016B01F8016B6D1EF9D535
:1001E0009142D6D37047000000230024002500264A
:1001F000103A28BF78C1FBD8520728BF30C148BF8A
:100200000B6070471FB51FBD10B510BD00F01CF985
:100210001146FFF7F7FF04F0D7FE00F03AF903B4F8
:10022000FFF7F2FF03BC00F041F9000009488047E6
:1002300009480047FEE7FEE7FEE7FEE7FEE7FEE7C8
:10024000FEE7FEE7FEE7FEE704480549054A064BE0
:1002500070470000212A0008510100086039002081
:10026000603F0020603B0020603B002010B5431C35
:1002700002E010F8011B71B18107FAD14FF0013291
:1002800002C88C1A8C4314EAC211F9D0C01A0A06AB
:1002900003D0C01E10BDC01A10BD0A0401D0801EBC
:1002A00010BD0902FCD0401E10BD421E12F8013FD5
:1002B000002BFBD111F8013B002B02F8013BF9D1D7
:1002C0007047032A40F2308010F0030C00F01580D4
:1002D00011F8013BBCF1020F624498BF11F801CB49
:1002E00000F8013B38BF11F8013BA2F1040298BFAE
:1002F00000F801CB38BF00F8013B11F0030300F018
:100300007180083AC0F0088051F8043B083A51F86F
:1003100004CBA0E80810F5E7121D5CBF51F8043BC0
:1003200040F8043BAFF30080D20724BF11F8013B33
:1003300011F801CB48BF11F8012B24BF00F8013B95
:1003400000F801CB48BF00F8012B70474FF00002C6
:100350000429C0F0128010F0030C00F01B80CCF1D7
:10036000040CBCF1020F18BF00F8012BA8BF20F845
:10037000022BA1EB0C0100F00DB85FEAC17C24BF99
:1003800000F8012B00F8012B48BF00F8012B704743
:100390004FF0000200B5134694469646203922BF1E
:1003A000A0E80C50A0E80C50B1F12001BFF4F7AF69
:1003B000090728BFA0E80C5048BF0CC05DF804EB4B
:1003C000890028BF40F8042B08BF704748BF20F8B9
:1003D000022B11F0804F18BF00F8012B70477047B7
:1003E0007047704710B5203AC0F00B80B1E8185044
:1003F000203AA0E81850B1E81850A0E81850BFF40F
:10040000F5AF5FEA027C24BFB1E81850A0E81850AD
:1004100044BF18C918C0BDE810405FEA827C24BF01
:1004200051F8043B40F8043B08BF7047D20728BF8F
:1004300031F8023B48BF11F8012B28BF20F8023BDE
:1004400048BF00F8012B7047754600F02BF8AE4608
:1004500005006946534620F00700854618B020B5D0
:10046000FFF7F2FEBDE820404FF000064FF0000716
:100470004FF000084FF0000B21F00701AC46ACE84C
:10048000C009ACE8C009ACE8C009ACE8C0098D46B9
:10049000704710B50446AFF300802046BDE8104019
:1004A000FFF7BDBE00487047FC3800200149182006
:1004B000ABBEFEE726000200704721B1826842F021
:1004C0000102826003E0826822F0010282607047CC
:1004D000014600208A6802F004020AB1012000E00F
:1004E000002070470146C86C80B270470246002069
:1004F00013680B400BB1012000E00020704701465B
:1005000000208A6802F008020AB1012000E0002001
:100510007047000030B502460020002350680F4CA1
:1005200020400D790C6844EA05242043506090680F
:100530000B4C2040D1E902542C434D7944EA450448
:1005400020439060D06A20F470000C7C641EE4B2FA
:10055000234340EA0350D06230BD0000FFFEF0FFAD
:10056000FDF7F1FFF0B504460D4600200021092DEE
:1005700011DDE068A5F10A0606EB4607072606FA34
:1005800007F18843A5F10A0606EB460603FA06F1D1
:100590000843E0600CE0206905EB4507072606FAF2
:1005A00007F1884305EB450603FA06F1084320618D
:1005B000072A0FDA606B561E06EB86071F2606FA1F
:1005C00007F18843561E06EB860605FA06F1084336
:1005D000606322E00D2A0FDA206BD61F06EB860738
:1005E0001F2606FA07F18843D61F06EB860605FA92
:1005F00006F10843206310E0E06AA2F10D0606EB65
:1006000086071F2606FA07F18843A2F10D0606EBBE
:10061000860605FA06F10843E062F0BD816841F004
:1006200008018160704721B1826842F4A0028260B3
:1006300003E0826822F4A00282607047816841F082
:1006400004018160704700BFFEE7000010B54FF461
:10065000005000F0D1F850B14FF4005000F00CF809
:100660000021034800F016F800200249087010BD70
:10067000440002405000002000F0805111B10349B5
:10068000086001E00249486070470000040402402D
:100690000000024021B1026842F00102026004E061
:1006A00002684FF6FE731A400260704701684FF609
:1006B000FE72114001600021016041608160C160F3
:1006C0004B49884208D14A490839496841F00F012D
:1006D000474A083A51608AE045491431884208D1B6
:1006E00043490839496841F0F001414A083A5160EC
:1006F0007DE03F492831884208D13D4908394968A1
:1007000041F470613A4A083A516070E038493C312E
:10071000884208D136490839496841F47041344A61
:10072000083A516063E032495031884208D130497B
:100730000839496841F470212D4A083A516056E061
:100740002B496431884208D129490839496841F464
:100750007001274A083A516049E0254978318842BA
:1007600008D123490839496841F07061204A083AA4
:1007700051603CE01F49884206D1011F096841F0E1
:100780000F01021F116032E01A491431884208D16A
:100790001849091F096841F0F001164A121F11603B
:1007A00025E014492831884208D11249091F0968F7
:1007B00041F470610F4A121F116018E00D493C317D
:1007C000884208D10B49091F096841F47041094A60
:1007D000121F11600BE007495031884207D10549CB
:1007E000091F096841F47021024A121F1160704705
:1007F000080002400804024001460020002201F0E7
:10080000805313B1054B1A6801E0054B1A6802EAE0
:1008100001030BB1012000E00020704700040240FA
:10082000000002401AB103680B43036002E0036852
:100830008B430360704710B50022026847F6F073DF
:100840009A430C6A8B6823430C6923434C69234306
:100850008C692343CC6923434C6A23438C6A23432A
:100860001A430260CB6843600B6883604B68C360C7
:1008700010BD0000124A126842F0F002104B1A60DC
:100880000F4A1C3211600E4A243210600C4A183292
:10089000126842F001020A4B18331A6000BF084A7E
:1008A000121F126802F02002002AF8D0044A1832FF
:1008B000126822F00102024B18331A6070470000E0
:1008C000040402407047000010B50B48006864281B
:1008D00011D209480068401C0749086008460068B2
:1008E000052802D103F0ACF905E003480068502860
:1008F00001D103F0ADF910BDB000002008B57F486C
:100900000078062823D2DFE800F0032343678BC872
:100910007B480088401C7A49088008460088C8281F
:1009200015DD002008807548407850B17348407844
:10093000401E7249487000200090694604F0E2FBB6
:1009400005E000206F49086005206C494870D2E03E
:100950006B480088401C6A49088008460088C828FF
:1009600015DD0020088000906946012004F0CAFBD4
:100970006946022004F0C6FB6946032004F0C2FB6E
:100980006946042004F0BEFB02205C490870B2E016
:100990005B480088401C5A49088008460088C828DF
:1009A00019DD0020088000905448407858B1534821
:1009B0004078401E5149487000200090694605204B
:1009C00004F0A0FB07E000204E49086005204B49D9
:1009D0004870012008708EE049480088401C484952
:1009E000088008460088C82819DD0020088000908B
:1009F0004248407858B141484078401E3F494870CD
:100A0000002000906946062004F07CFB07E00020EF
:100A10003C490860052039494870012008706AE0A7
:100A200037480088401C3649088008460088B0F5E1
:100A3000967F31DD0020088000906946072004F091
:100A400061FB6946082004F05DFB6946092004F05B
:100A500059FB69460A2004F055FB69460B2004F057
:100A600051FB69460C2004F04DFB69460D2004F053
:100A700049FB69460E2004F045FB6946102004F04E
:100A800041FB6946112004F03DFB6946122004F049
:100A900039FB0520194908702DE019480088401CD1
:100AA000174908800846008840F6B83188421ADDA8
:100AB00000201349088000901048407858B10F4832
:100AC0004078401E0D494870002000906946132070
:100AD00004F018FB07E000200A49086005200749D8
:100AE00048700120087004F04DFBFF2802D0002060
:100AF0000349088000BF00BF08BD0000B40000200B
:100B0000C2000020B00000202DE9F041024600257F
:100B10000026002000230024002791F803C00CF0D9
:100B20000F0591F803C00CF0100CBCF1000F03D0BE
:100B300091F802C04CEA050591F800C0BCF1000F25
:100B400031D0146800202BE04FF0010C0CFA00F3B8
:100B5000B1F800C00CEA03069E4220D183004FF09A
:100B60000F0C0CFA03F7BC4305FA03FC4CEA04042F
:100B700091F803C0BCF1280F06D14FF0010C0CFA1C
:100B800000FCC2F814C00AE091F803C0BCF1480FA1
:100B900005D14FF0010C0CFA00FCC2F810C0401C4B
:100BA0000828D1D31460B1F800C0BCF1FF0F34DDC8
:100BB000546800202EE000F1080C4FF0010808FAFC
:100BC0000CF3B1F800C00CEA03069E4221D1830069
:100BD0004FF00F0C0CFA03F7BC4305FA03FC4CEA88
:100BE000040491F803C0BCF1280F05D100F1080CF2
:100BF00008FA0CF8C2F8148091F803C0BCF1480F51
:100C000007D100F1080C4FF0010808FA0CF8C2F8FF
:100C10001080401C0828CED35460BDE8F08100004D
:100C2000F0B50A46002300240021002500F000460C
:100C3000B6F1004F02D11D4EF16901E01B4E716803
:100C4000C0F3034583B200F44016B6F5401F08D147
:100C500021F07061154E766826F07066134F7E6045
:100C600012E000F48016B6F5801F06D1032606FABE
:100C700005F4A14341F0706106E0460D360103FA28
:100C800006F6B14341F0706122B1460D360103FA18
:100C900006F6314300F00046B6F1004F02D1034E94
:100CA000F16101E0014E7160F0BD00000000014003
:100CB0000246002093680B400BB1012000E00020A9
:100CC000704702460020D3680B400BB1012000E0C2
:100CD0000020704741617047016170470AB10161AE
:100CE00000E04161704700000020024908700520C3
:100CF00048707047B400002010B5102004490870F7
:100D00000520487014210248801CFFF71FFB10BD0E
:100D1000A83300202DE9F04781460E461746984635
:100D2000002412E004EB84000A4A02EB80014246F0
:100D3000484601F080FDC5B2FF2D04D034703D70EF
:100D40000020BDE8F087601CC4B21D2CEADBFF2048
:100D5000F7E7000020E800087CB505462E7800245F
:100D600008E0285D0F49104A127801EB022108556E
:100D7000601CC4B2B442F4DB01200B4911230B4ABE
:100D8000CDE90010111F081F01F0C8FC06480078CB
:100D9000401C05490870084600780D2801DB00203A
:100DA00008707CBDB4240020AC00002094200020FA
:100DB00070B5C0B005462E78701EC6B2002405E09E
:100DC000601C285C0DF80400601CC4B2B442F7DB60
:100DD000684603F031FA40B070BD0146002004E0DF
:100DE000401C322800D903E0491C0A78002AF7D1B8
:100DF00000BF704710B5002432E004EB44001A49EC
:100E000001EB8000806848B304EB440011F8200037
:100E1000022823D104EB440001EB80004088401CF1
:100E200004EB4401104A02EB8101488004EB4400CA
:100E3000114601EB8000408804EB440102EB810184
:100E4000898888420ADB012004EB440102F8210072
:100E500004EB440102EB810188688047601CC4B246
:100E6000022CCADB10BD00003001002070B5054621
:100E70000E4600240BE000BF4021064802F09AFA1B
:100E80000028F9D0295D034802F061FB641CB442DC
:100E9000F1D370BD0048004000BFFEE730B585B01B
:100EA00004460D46102C30D2DFE804F02E292A2B00
:100EB0002C280E0B08270D0A2D240C0925E024E010
:100EC00023E022E021E020E001208DF80000002056
:100ED0008DF801008DF8020008208DF8030006202F
:100EE0008DF80400FF208DF805006946012004F00C
:100EF00095F80AE004F0EEF807E006E005E004E00B
:100F000003E002E001E000E000BF00BF05B030BD3B
:100F10002DE9F04104460D4616461F462A2000F0F2
:100F2000A1F9A11C88B200F08AF9B11C88B200F0C6
:100F300086F92B2000F096F9691C88B200F07FF941
:100F4000791C88B200F07BF92C2000F08BF9BDE809
:100F5000F08170B504460D4616462B4622462946BA
:100F60002046FFF7D5FF304600F069F970BD00005C
:100F70002DE9F04781460F4615461E46DDF82080D4
:100F8000701E83B2681E82B239464846FFF7C0FF22
:100F900000240AE04FEA28222046611C8CB20A494C
:100FA0000A5401F80480601C84B2AC42F2DB3C4677
:100FB00005E029460448FFF75DFC601C84B2B4EBF1
:100FC000460FF6DBBDE8F087F00500202DE9FF5F56
:100FD00080468A4617469B460F9D00200290CDF81A
:100FE0000080284605EBD071C1F347042046E21784
:100FF00004EB5272D2102146E31704EB5373DB105B
:10100000A4EBC3030BB1012300E000231A446A439D
:1010100092B20192A7F12000C7B20AEB0500401E70
:1010200083B208EB0400401E82B251464046FFF7EF
:101030006FFF002673E00C2D07D107EB47003A49FC
:1010400001EB8000805D039025E0102D05D137482D
:1010500000EB0710805D03901DE0182D07D107EB12
:101060004700334901EB0010805D039013E0202D11
:1010700005D1304800EB8710805D03900BE0302DE8
:1010800007D107EBC7002C4901EB0010805D0390EE
:1010900001E0BDE8FF9F4FF000093AE01098C8B9A1
:1010A000012000FA09F00399084018B1584600F0F1
:1010B000C6F802E00E9800F0C2F80298401CC0B2D8
:1010C0000290029890FBF4F104FB1100E8B90020B3
:1010D000029021E0012000FA09F00399084020B1B4
:1010E0005A4651464046FFF734FF08F101001FFA07
:1010F00080F80098A8EB0000A04206D1DDF800803F
:101100000AF101001FFA80FA06E009F1010000F07F
:10111000FF09B9F1080FC1DB00BF701C86B201984E
:10112000864288DB00BFB4E738660008AC6A000876
:101130009C7000086C8200082C9A00082DE9FF477B
:1011400082B004460E461F4600200190A246802031
:10115000009006F11F0083B204F11F0082B23146F5
:101160002046FFF7D5FE4FF000093FE022490498E2
:1011700001EBC01010F80980002530E00F98C0B9CD
:101180000120A84000EA080018B1384600F057F8DE
:1011900002E00E9800F053F80198401CC0B2019094
:1011A000019890FBFBF10BFB1100B0B900200190FE
:1011B00017E00120A84000EA080020B13A46314675
:1011C0002046FFF7C6FE601C84B2A4EB0A00584517
:1011D00003D15446701C86B203E0681CC5B2082DCA
:1011E000CCDB00BF09F101001FFA80F900988145AE
:1011F000BCDB06B0BDE8F0879CCF00082DE9FE4FB0
:1012000006460F4614469846DDE90D5ADDF8309043
:1012100010E0CDE9015ACDF80090227843463946D6
:101220003046FFF7D3FE284605EBD07106EB61018F
:101230008EB2641C20780028EBD1BDE8FE8F18B573
:10124000044620128DF80000E0B28DF80100022162
:101250006846FFF70FFB18BD10B50446204600F0A6
:1012600011F810BD10B5044610210548FFF732FDF6
:10127000204600F007F810210148FFF72DFD10BDB2
:10128000000C014001B540210348FFF723FD012177
:101290006846FFF7EFFA08BD000C014010B50446A0
:1012A00009200C490880AA20887008460088C01EC2
:1012B000A1F8030029204871002088710821054801
:1012C000A0F80710552003498872002004F026FC7E
:1012D00010BD00005938002070B5034600240020DE
:1012E00010E00E5C451C4D5D46EA0526851C4D5DF3
:1012F00046EA0546C51C4D5D46EA056543F824509F
:10130000641C001D9042ECD370BD70B503461446BA
:101310000022002015E011F822501D5431F822500F
:10132000C5F30726451C5E5551F82250C5F3074604
:10133000851C5E5551F822502D0EC61C9D55521C21
:10134000001DA042E7D370BD2DE9FC4104460E46C6
:10135000002500272088C0F3C505382D02D2C5F12D
:10136000380001E0C5F178000746082221466846AA
:10137000FFF7CBFF3A460849204600F00BFC082255
:101380006946204600F006FC102204F108013046B0
:10139000FFF7BBFFBDE8FC81F000002000210160E9
:1013A000416005498160054AC260CA430261034A3F
:1013B000D2434261704700000123456789ABCDEFFE
:1013C0002DE9F043C0B080468946D8F80040D8F8EF
:1013D0000450D8F80860D8F80C7040224946684696
:1013E000FFF77AFF05EA060027EA0501084300999E
:1013F0000844FE4908440444E00140EA54642C4493
:1014000004EA050026EA0401084301990844F84962
:1014100008440744380340EA1757274407EA040002
:1014200025EA0701084302990844F24908440644A2
:10143000700440EAD6363E4406EA070024EA060174
:10144000084303990844EC4908440544A80540EAC8
:101450009525354405EA060027EA05010843049965
:101460000844E64908440444E00140EA54642C443A
:1014700004EA050026EA0401084305990844E04906
:1014800008440744380340EA1757274407EA040092
:1014900025EA0701084306990844DA490844064446
:1014A000700440EAD6363E4406EA070024EA060104
:1014B000084307990844D44908440544A80540EA6C
:1014C0009525354405EA060027EA050108430899F1
:1014D0000844CE4908440444E00140EA54642C44E2
:1014E00004EA050026EA0401084309990844C849AA
:1014F00008440744380340EA1757274407EA040022
:1015000025EA070108430A990844A0F524404F380A
:101510000644700440EAD6363E4406EA070024EA50
:10152000060108430B990844BA4908440544A80534
:1015300040EA9525354405EA060027EA05010843F7
:101540000C990844B44908440444E00140EA546456
:101550002C4404EA050026EA040108430D990844D6
:10156000AE4908440744380340EA1757274407EABE
:10157000040025EA070108430E990844A8490844D5
:101580000644700440EAD6363E4406EA070024EAE0
:10159000060108430F990844A24908440544A805D8
:1015A00040EA9525354405EA070026EA0701084385
:1015B000019908449C4908440444600140EAD46409
:1015C0002C4404EA060025EA06010843069908446B
:1015D000964908440744780240EAD757274407EA67
:1015E000050024EA050108430B9908449049084482
:1015F0000644B00340EA96463E4406EA040027EA61
:1016000004010843009908448A4908440544280510
:1016100040EA1535354405EA070026EA0701084384
:1016200005990844844908440444600140EAD464AC
:101630002C4404EA060025EA060108430A990844F6
:101640007E4908440744780240EAD757274407EA0E
:10165000050024EA050108430F9908447849084425
:101660000644B00340EA96463E4406EA040027EAF0
:1016700004010843049908447249084405442805B4
:1016800040EA1535354405EA070026EA0701084314
:10169000099908446C4908440444600140EAD46450
:1016A0002C4404EA060025EA060108430E99084482
:1016B000664908440744780240EAD757274407EAB6
:1016C000050024EA050108430399084460490844D9
:1016D0000644B00340EA96463E4406EA040027EA80
:1016E00004010843089908445A4908440544280558
:1016F00040EA1535354405EA070026EA07010843A4
:101700000D990844544908440444600140EAD464F3
:101710002C4404EA060025EA06010843029908441D
:101720004E4908440744780240EAD757274407EA5D
:10173000050024EA0501084307990844484908447C
:101740000644B00340EA96463E4406EA040027EA0F
:10175000040108430C9908444249084405442805FB
:1017600040EA1535354485EA060078400599084475
:101770003D4908440444200140EA14742C4484EA9E
:101780000500704008990844384908440744F802A5
:1017900040EA5757274487EA040068400B990844F9
:1017A000334908440644300440EA16463E4486EA7B
:1017B000070060400E9908442E4908440544E80596
:1017C00040EA5525354485EA0600784001990844E9
:1017D000294908440444200140EA14742C4484EA52
:1017E0000500704004990844244949E078A46AD768
:1017F00056B7C7E8DB702024EECEBDC1AF0F7CF535
:101800002AC68747134630A8019546FDD8988069B7
:10181000AFF7448BBED75C892211906B937198FD12
:101820008E4379A62108B44962251EF640B340C014
:10183000515A5E26AAC7B6E95D102FD6531444024A
:1018400081E6A1D8C8FBD3E7E6CDE121D60737C3AF
:10185000870DD5F4ED145A4505E9E3A9F8A3EFFC8B
:10186000D9026F678A4C2A8D4239FAFF81F6718757
:1018700022619D6D0C38E5FD44EABEA4A9CFDE4B84
:1018800008440744F80240EA5757274487EA04000F
:10189000684007990844A54908440644300440EAD2
:1018A00016463E4486EA070060400A990844A0496B
:1018B00008440544E80540EA5525354485EA060014
:1018C00078400D9908449B4908440444200140EAAB
:1018D00014742C4484EA0500704000990844964929
:1018E00008440744F80240EA5757274487EA0400AF
:1018F000684003990844914908440644300440EA8A
:1019000016463E4486EA07006040069908448C4922
:1019100008440544E80540EA5525354485EA0600B3
:10192000784009990844874908440444200140EA62
:1019300014742C4484EA050070400C9908448249D0
:1019400008440744F80240EA5757274487EA04004E
:1019500068400F9908447D4908440644300440EA31
:1019600016463E4486EA07006040029908447849DA
:1019700008440544E80540EA5525354465EA070072
:10198000704000990844734908440444A00140EAA7
:1019900094642C4464EA06006840079908446E4940
:1019A00008440744B80240EA9757274467EA05000D
:1019B00060400E990844694908440644F00340EA2F
:1019C00056463E4466EA0400784005990844644956
:1019D00008440544680540EAD525354465EA070012
:1019E00070400C9908445F4908440444A00140EA4F
:1019F00094642C4464EA06006840039908445A49F8
:101A000008440744B80240EA9757274467EA0500AC
:101A100060400A990844554908440644F00340EAE6
:101A200056463E4466EA040078400199084450490D
:101A300008440544680540EAD525354465EA0700B1
:101A40007040089908444B4908440444A00140EA06
:101A500094642C4464EA060068400F99084446499F
:101A600008440744B80240EA9757274467EA05004C
:101A7000604006990844414908440644F00340EA9E
:101A800056463E4466EA040078400D9908443C49B5
:101A900008440544680540EAD525354465EA070051
:101AA000704004990844374908440444A00140EABE
:101AB00094642C4464EA060068400B990844324957
:101AC00008440744B80240EA9757274467EA0500EC
:101AD0006040029908442D4908440644F00340EA56
:101AE00056463E4466EA040078400999084428496D
:101AF00008440544680540EAD5253544D8F8000077
:101B00002044C8F80000D8F804002844C8F80400AD
:101B1000D8F808003044C8F80800D8F80C00384459
:101B2000C8F80C0040B0BDE8F0830000604BBBF685
:101B300070BCBFBEC67E9B28FA27A1EA8530EFD4D1
:101B4000051D880439D0D4D9E599DBE6F87CA21FBD
:101B50006556ACC4442229F497FF2A43A72394ABCB
:101B600039A093FCC3595B6592CC0C8F7DF4EFFFD9
:101B7000D15D84854F7EA86FE0E62CFE144301A35F
:101B8000A111084E827E53F735F23ABDBBD2D72A57
:101B900091D386EB2DE9F04704460F461546002603
:101BA000B046B1462088C0F3C508C8F14009206896
:101BB00000EBC50020602068B0EBC50F02D2606862
:101BC000401C6060606800EB557060604D451CD340
:101BD00004F1180101EB08004A463946FEF771FB93
:101BE00004F1180104F10800FFF7EAFB4E4605E096
:101BF000B91904F10800FFF7E3FB403606F1400095
:101C0000A842F5D94FF0000800E00026AA1BB91938
:101C100004F1180303EB0800FEF753FBBDE8F0875F
:101C200000BFFEE730B5B3B0E5480078052827D2FD
:101C3000DFE800F00327F6F3F200E2480068401CFA
:101C4000E049086008460068C82819D9C82101A8D9
:101C5000FEF79EFBFF208DF804000020D9490860A4
:101C600001A90D2004F03CF9012004F013FA012031
:101C7000D54908706420D5490860002033B030BDD4
:101C80009BE1D0480068401CCE4908600024002534
:101C900008460068B0F5967F77D9002008600CE010
:101CA0002846691CCDB2CA490A5C2046611CCCB2E8
:101CB00001A90A541E2D00D103E0C548405D00284B
:101CC000EED100BFC2480078302805D1C048007866
:101CD000401CBF4908700EE0BD480078392805DB7C
:101CE000012004F0E5F93020B9490870B8480078BF
:101CF000401CB749087022222046611CCCB201A9C1
:101D00000A542C222046611CCCB201A90A5422227A
:101D10002046611CCCB201A90A5400250DE02846DA
:101D2000691CCDB2AA491E310A5C2046611CCCB2A6
:101D300001A90A541E2D00D104E0A5481E30405DC3
:101D40000028ECD100BF22222046611CCCB201A9A0
:101D50000A542C222046611CCCB201A90A5422222A
:101D60002046611CCCB201A90A5400250EE0284689
:101D7000691CCDB296493C310A5C2046611CCCB24C
:101D800001A90A54202D01D105E048E090483C30DB
:101D9000405D0028EBD100BF22222046611CCCB25E
:101DA00001A90A542C222046611CCCB201A90A5474
:101DB00030222046611CCCB201A90A542C222046B4
:101DC000611CCCB201A90A5430222046611CCCB25D
:101DD00001A90A542C222046611CCCB201A90A5444
:101DE00022222046611CCCB201A90A542046611C63
:101DF000CCB201A90A5400222046611CCCB201A930
:101E00000A54092004F06CF8C82101A8FEF7C0FAB2
:101E100000207049087031E7B3E06EE000E0CCE0EC
:101E200068480068401C674908600024002508468F
:101E30000068B0F5967F5FD900200860654800789B
:101E4000032807DD002063490870012004F030F901
:101E5000002013E70DE02846691CCDB25C495C31D7
:101E60000A5C2046611CCCB201A90A54102D00D195
:101E700004E057485C30405D0028ECD100BF2222CE
:101E80002046611CCCB201A90A542C222046611CB8
:101E9000CCB201A90A5400250DE02846691CCDB238
:101EA0004B496C310A5C2046611CCCB201A90A5432
:101EB0000A2D00D104E046486C30405D0028ECD18A
:101EC00000BF2C222046611CCCB201A90A5430224A
:101ED0002046611CCCB201A90A5400222046611C94
:101EE000CCB201A90A540A2003F0FAFFC82101A8C4
:101EF000FEF74EFA0020C1E65FE032480068401C61
:101F0000304908600024002508460068C82837D9F1
:101F1000002008600DE02846691CCDB22C497631BE
:101F20000A5C2046611CCCB201A90A541E2D00D1C6
:101F300004E027487630405D0028ECD100BF222223
:101F40002046611CCCB201A90A542C222046611CF7
:101F5000CCB201A90A5430222046611CCCB201A99E
:101F60000A5400222046611CCCB201A90A540C205C
:101F700003F0B6FFC82101A8FEF70AFA00207DE6AB
:101F80001BE010480068401C0E49086008460068C5
:101F90000E49096888420FD90B480078012806D1FC
:101FA00000200949087040F6C41008490860002064
:101FB00004490860FFF772F900BF00BFFF205DE62B
:101FC0008B0000209000002094000020980000204A
:101FD000A6370020890000203EB542E02648008850
:101FE000B0F5F77F03DD0020234908803EBD22487D
:101FF00001880088401C204A10802048084440F294
:1020000001431F4A111F0090081F00F0DDFB1A4812
:102010000088401E1949085C0D2822D10A21164863
:1020200002880088401C144B1880144881541846BC
:10203000008802280FDD1846038801AA02A90F486C
:10204000FEF768FE044634B90B4802889DF8081074
:102050000A4801F0B5FB094800210160002006494B
:10206000088040F201420649091F081F00F094FB56
:102070000128B3DC00BFB9E7C0000020B431002064
:10208000B02000201CB511221249081F00F084FB6B
:10209000D8B111480068401C0F4908600846006824
:1020A0000F2815D90020086001A81123094A121D24
:1020B000111F0090081F00F087FB08499DF80420BD
:1020C00001EB0220FEF774FE02E0002002490860E6
:1020D0001CBD000090200020BC000020B424002083
:1020E0007047000070B5002100230F22C47804B3AC
:1020F000154C246804F4E064C4F5E064210AC1F1DD
:102100000403CA40447804FA03F18478144021435C
:1021100009010E4C0678A155047804F01F0501242E
:10212000AC4005786D11AD0005F1E025C5F8004122
:1021300009E0047804F01F050124AC40044D067842
:10214000761145F8264070BD0CED00E000E400E09B
:1021500080E100E002490143024A1160704700003B
:102160000000FA050CED00E00249096809B90149CF
:1021700008607047D800002000202CE000EB4001F0
:10218000164A52F8211021B300EB400102EB810105
:102190000989491C00EB4002104B03EB82021181BC
:1021A00000EB40011A4602EB8101098900EB400275
:1021B00003EB8202D28891420BDB002100EB40024C
:1021C00003EB82021181012100EB400203EB82024A
:1021D0001171411CC8B20328D0DB70478038002041
:1021E00070B500EB40040E4D55F82440B4B900EB37
:1021F000400445F82410002400EB4005084E06EB8F
:1022000085052C7100EB4004354605EB8404E28023
:10221000002400EB400506EB85052C8170BD000015
:102220008038002019E0002415E004EB44000B493D
:1022300001EB8000007901280BD1002004EB440160
:10224000064A02EB8101087104EB440152F82100B7
:102250008047601CC4B2032CE7DBE4E78038002031
:10226000002016E0002100EB40020B4B43F8221047
:1022700000EB400203EB8202117100EB400203EB22
:102280008202D18000EB400203EB82021181411CEB
:10229000C8B20328E6DB704780380020002007E042
:1022A0000549014491F8E817044A1154411CC8B289
:1022B0000C28F5DB7047000000F0FF1F733800208A
:1022C000704700001CB501F0A1FD01286FD100206E
:1022D00000904FF6FF731022012101900846FEF78F
:1022E0002DFF02F017FA052811D100205E49088061
:1022F00002F010FA0A30C4B2002000904FF6FF73CB
:102300002246012101902120FEF718FFAAE056483D
:102310000088401C544908800846008832280AD1A9
:10232000002000904FF6FF730A2201210190212026
:10233000FEF704FF96E04C48008864280AD100208C
:1023400000904FF6FF730B22012101902120FEF730
:10235000F5FE87E04448008896280AD100200090C6
:102360004FF6FF730C22012101902120FEF7E6FEBB
:1023700078E03D480088C8280AD1002000904FF638
:10238000FF730D22012101902120FEF7D7FE69E0A5
:1023900035480088FA280BD1002000904FF6FF73D3
:1023A0000E22012101902120FEF7C8FE5AE011E023
:1023B0002D480088B0F5967F54D100202A49088026
:1023C00000904FF6FF730F22012101902120FEF7AC
:1023D000B5FE47E0002000904FF6FF731122012167
:1023E00001900846FEF7AAFE02F094F9012828DCC5
:1023F0001D480088401C1C49088008460088322877
:102400000ED102F087F90A30C4B2002000904FF6D6
:10241000FF732246012101902120FEF78FFE21E06B
:102420001148008864281DDD00200F4908800090B5
:102430004FF6FF731322012101902120FEF77EFE4B
:1024400010E000200849088002F064F90A30C4B2A4
:10245000002000904FF6FF732246012101902120B9
:10246000FEF76CFE1CBD0000C800002001460020E5
:10247000034A506820F44040084350607047000011
:102480000010024029B1064A52690243044B5A61C6
:1024900004E0034A52698243014B5A6170470000CD
:1024A0000010024029B1064AD2690243044BDA61A6
:1024B00004E0034AD2698243014BDA6170470000AD
:1024C0000010024029B1064A12690243044B1A6106
:1024D00004E0034A12698243014B1A61704700000D
:1024E0000010024029B1064A92690243044B9A61E6
:1024F00004E0034A92698243014B9A6170470000ED
:102500000010024029B1064AD2680243044BDA6047
:1025100004E0034AD2688243014BDA60704700004E
:10252000001002402DE9F041002100220025002387
:102530000026002400278C46DFF86081D8F804804C
:1025400008F00C0121B1042907D0082959D109E06C
:10255000DFF84C81C0F8008058E0DFF84881C0F80F
:10256000008053E0DFF83481D8F8048008F470125A
:10257000DFF82881D8F8048008F48035920C0D2A01
:1025800001D0921C00E0062235B9DFF81C8102FB65
:1025900008F8C0F8008033E0DFF80081D8F82C801C
:1025A00008F48036DFF8F480D8F82C8008F00F08A3
:1025B00008F1010446B9DFF8EC80B8FBF4F808FB39
:1025C00002F8C0F800801BE0DFF8D080D8F82C803B
:1025D000C8F3031808F10107DFF8C080D8F82C8091
:1025E000C8F3032808F1020CDFF8B880B8FBF7F84D
:1025F00008FB0CF8B8FBF4F808FB02F8C0F8008000
:1026000004E0DFF89C80C0F8008000BF00BFDFF866
:102610008C80D8F8048008F0F0010909DFF88C807C
:1026200018F80130D0F8008028FA03F8C0F80480C8
:10263000DFF86880D8F8048008F4E061090ADFF860
:102640006C8018F80130D0F8048028FA03F8C0F83C
:102650000880DFF84880D8F8048008F46051C90A7F
:10266000DFF8488018F80130D0F8048028FA03F821
:10267000C0F80C80DFF82480D8F8048008F44041CA
:10268000890BDFF82C8018F80130D0F80C80B8FBEB
:10269000F3F8C0F81080BDE8F0810000001002409F
:1026A00000127A0040787D0100093D00DC00002026
:1026B000EC00002021B1028842F04002028004E0D8
:1026C00002884FF6BF731A40028070471AB18388A0
:1026D0000B43838002E083888B438380704710B56F
:1026E0000022028802F441520B884C8823438C88D4
:1026F0002343CC8823430C8923434C8923438C896F
:102700002343CC8923431A430280838B4FF2FF7407
:10271000234083830B8A038210BD70472DE9F84F55
:1027200005460C4616461F46DDE90A9A1948006818
:1027300020B169460020174A126890474FF0000800
:102740001CE099F80000216808702068401C206097
:10275000F1192068884200D12660206829688842E3
:1027600006D12868401CF1192860884200D12E60EB
:1027700008F101001FFA80F809F10109D045E0DBFA
:102780000448006820B169460120024A1268904757
:10279000BDE8F88FD800002010B5034608681C6813
:1027A000A04204D908881C88001B80B210BD0868AC
:1027B0001C68A04205D2088810441C88001B80B207
:1027C000F4E70020F2E700002DE9F84304460E4646
:1027D00015461F46DDF820804FF0000913480068B9
:1027E00020B169460020114A12689047002088F8FD
:1027F00000003068216888420CD02068007888F892
:1028000000004FF001092068401CE919206088424F
:1028100000D125600548006820B169460120034ABF
:10282000126890474846BDE8F8830000D8000020B1
:1028300002600A6070472DE9F05F04460D4690463D
:102840002846FEF7CAFA8146C84504D3A8EB09001A
:1028500000F1010A02E0FF20BDE8F09F00260027FA
:102860001CE020782978884216D14FF0010B0FE048
:10287000761C4E4501D13846EEE7641C6D1C20786D
:102880002978884204D0A41BAD1B0026B34602E081
:10289000BBF1000FECD100BF641C7F1C5745E0D397
:1028A000FF20D9E710B500F001F810BD0CB50020ED
:1028B000019000903F48006840F480303D49086036
:1028C00000BF3C48006800F4003000900198401CB4
:1028D0000190009818B90198B0F5A06FF1D1354872
:1028E000006800F4003010B10120009001E00020E9
:1028F0000090009801285CD12F48006840F010003B
:102900002D4908600846006820F00300086008466A
:10291000006840F002000860264840682549486089
:102920000846406848600846406840F48060486057
:102930000846C06A214908401E49C8620846C06A64
:102940001F4908431B49C8620846006840F0806080
:10295000086000BF1748006800F000600028F9D048
:102960001448406820F47C101249486008464068CA
:1029700040F4E81048600846006840F08070086045
:1029800000BF0C48006800F000700028F9D009482A
:10299000406820F00300074948600846406840F05E
:1029A0000200486000BF0348406800F00C0008289F
:1029B000F9D10CBD001002400020024000F0FEFFE3
:1029C00044060100F0B50346144621E0641E187861
:1029D00000F00F070A2F04DA00F00F0707F13006A6
:1029E00003E000F00F075737FEB2001100F00F07A9
:1029F0000A2F04DA00F00F0707F1300503E000F0BA
:102A00000F075737FDB20D70491C0E70491C5B1C37
:102A1000002CDBD1F0BD10B5FFF7AEFB10BD000000
:102A200010B51648006840F00100144908600846D7
:102A30004068134908401149486008460068114938
:102A400008400E4908600846006820F480200860AD
:102A50000846406820F4FE0048600846006820F000
:102A6000A05008604FF47F0088600020C862FFF724
:102A700019FF4FF000600449086010BD00100240CB
:102A80000000FFF0FFFFF6FE08ED00E028480068B8
:102A9000401C274908600846006844F620618842C7
:102AA00044D90020224908602248C079401C2149AD
:102AB000C8710846C0793C2838D10020C871084642
:102AC0008079401C8871084680793C282ED10020EE
:102AD000887108464079401C48710846407918289A
:102AE00024D1002048710846C078401CC8700846B0
:102AF0000079401C087108460079072801D10020A0
:102B000008710C48C0781E2810D100200949C870EF
:102B100008468078401C8870084680780D2805D1CA
:102B20000120887008460088401C0880704700001B
:102B3000D4000020CC000020F0B50C461546002241
:102B40000021068C4FF6FE773E400684028B018CF6
:102B50004FF60C7632407E1C06EA03162E433243B3
:102B6000104EB0420ED0104EB0420BD0B0F1804F9C
:102B700008D00E4EB04205D00D4EB04202D00D4EE0
:102B8000B04206D14FF6FD76314044F001063143A4
:102B900005E04FF6F576314044F0010631430283FB
:102BA0000184F0BD002C01400034014000040040CD
:102BB00000080040000C0040F0B50C46154600220D
:102BC00000210026078C4FF6EF7C07EA0C070784EC
:102BD000028B018C4FF6FF7707EA041640F6FF4799
:102BE0003A404FF6FF7707EA03373A434FF6FF774D
:102BF00007EA05273A43114FB8420ED0104FB842AA
:102C00000BD0B0F1804F08D00E4FB84205D00E4F18
:102C1000B84202D00D4FB84206D14FF6DF773940A7
:102C200046F01007394305E04FF65F77394044F02E
:102C30001007394302830184F0BD0000002C0140DD
:102C4000003401400004004000080040000C004037
:102C5000F0B50C461546002200210026078C4FF6E1
:102C6000FF6C07EA0C070784828B018C4FF6FF7715
:102C700007EA04264FF60C773A404FF6FF7707EA4B
:102C800003172F433A43114FB8420ED0104FB842AA
:102C90000BD0B0F1804F08D00E4FB84205D00E4F88
:102CA000B84202D00D4FB84206D14FF6FF57394017
:102CB00046F48077394305E04FF2FF57394044F43A
:102CC0008077394382830184F0BD0000002C0140ED
:102CD000003401400004004000080040000C0040A7
:102CE000F0B50C461546002200210026078C4EF652
:102CF000FF7C07EA0C070784828B018C4FF6FF7775
:102D000007EA043640F6FF473A404FF6FF7707EAF6
:102D100005273A434FF6FF7707EA03373A43114F47
:102D2000B8420ED0104FB8420BD0B0F1804F08D04F
:102D30000E4FB84205D00E4FB84202D00D4FB842E8
:102D400006D14DF6FF77394046F48057394305E008
:102D500047F6FF57394044F4805739438283018452
:102D6000F0BD0000002C0140003401400004004090
:102D700000080040000C004010B501212F4800F071
:102D800076F904212D4800F072F9002850D02B4824
:102D900000F06AF92A49886008468068B42806D29B
:102DA000084680688C2802D90020887131E02448C8
:102DB00080683C2803D9224880685A2824D32048B8
:102DC0008068872820D21E48806864281CD91C4A45
:102DD0009079C21700EB5272D310194A0C32D25CB0
:102DE000174B9979CB1701EB5373DB10A1EBC3049D
:102DF000802323411A43124B9879C31700EB537376
:102E0000DC100F4B0C331A550D488079401C0C49CF
:102E100088710B488079282806D10021074800F0E6
:102E200023F80120064948710021044800F08FF979
:102E30000521024800F015F810BD00000004004014
:102E40004801002010B5FDF7D5FF0121024800F030
:102E500005F8FFF71BFE10BD00080040CA430282C0
:102E60007047CA430282704721B1028842F00102D2
:102E7000028004E002884FF6FE731A400280704719
:102E800010B504466848844208D10121C014FFF7F8
:102E900039FB0021E014FFF735FBC4E0B4F1804FAB
:102EA00008D101210846FFF70DFB00210120FFF7A3
:102EB00009FBB8E05D48844208D101210220FFF7F8
:102EC00001FB00210220FFF7FDFAACE058488442E4
:102ED00008D101210420FFF7F5FA00210420FFF7B3
:102EE000F1FAA0E05348844208D101210820FFF7FD
:102EF000E9FA00210820FFF7E5FA94E04E48844201
:102F000008D101211020FFF7DDFA00211020FFF782
:102F1000D9FA88E04948844208D101212020FFF7EE
:102F2000D1FA00212020FFF7CDFA7CE0444884420A
:102F300008D101214014FFF7E5FA00216014FFF7E2
:102F4000E1FA70E03F48844209D10121C804FFF74B
:102F5000D9FA00214FF40020FFF7D4FA63E03A4891
:102F6000844209D101210805FFF7CCFA00214FF472
:102F70008010FFF7C7FA56E03448844209D1012196
:102F80004805FFF7BFFA00214FF40010FFF7BAFA27
:102F900049E02F48844208D101214020FFF792FAEE
:102FA00000214020FFF78EFA3DE02A48844208D1F4
:102FB00001218020FFF786FA00218020FFF782FAA6
:102FC00031E02548844208D101218015FFF77AFAC3
:102FD0000021A015FFF776FA25E02048844209D1A8
:102FE00001210804FFF78EFA00214FF48030FFF72B
:102FF00089FA18E01A48844209D101214804FFF7F0
:1030000081FA00214FF40030FFF77CFA0BE01548FD
:10301000844208D101218804FFF774FA00214FF49B
:103020008020FFF76FFA10BD002C01400004004023
:1030300000080040000C0040001000400014004058
:1030400000340140004C0140005001400054014058
:1030500000180040001C00400020004000400140DB
:1030600000440140004801400146088F704730B5D8
:103070000246002000230024158A05EA01039589F1
:1030800005EA010413B10CB1012000E0002030BDBD
:1030900070B505460C46244885420ED0234885422B
:1030A0000BD0B5F1804F08D02148854205D021488A
:1030B000854202D02048854200D100E000BF208830
:1030C00050B92389A28861882846FFF735FDE18839
:1030D000284600F03EF825E0208804280AD12389FC
:1030E000A28861882846FFF767FDE188284600F03E
:1030F00039F817E0208808280AD12389A288618836
:103100002846FFF7A5FDE188284600F038F809E0D9
:103110002389A28861882846FFF7E2FDE1882846D6
:1031200000F036F870BD0000002C01400034014072
:103130000004004000080040000C00401AB18389E0
:103140000B43838102E083898B43838170478184B1
:103150007047028B4FF6F3731A400283028B0A43C7
:1031600002837047028B4FF2FF331A400283028BB7
:103170004FF6FF7303EA01231A4302837047828BE1
:103180004FF6F3731A408283828B0A43828370471F
:10319000828B4FF2FF331A408283828B4FF6FF738C
:1031A00003EA01231A438283704700000022028849
:1031B0001D4B98420ED01D4B98420BD0B0F1804F62
:1031C00008D01B4B984205D01A4B984202D01A4B9C
:1031D000984204D14FF68F731A404B881A43174B0D
:1031E000984207D0164B984204D04FF6FF431A403E
:1031F000CB881A4302808B8883850B8803850A4B12
:1032000098420BD0094B984208D00E4B984205D0FB
:103210000D4B984202D00D4B984201D10B7A038698
:103220000123838270470000002C014000340140DC
:103230000004004000080040000C00400010004066
:10324000001400400040014000440140004801409B
:1032500010B540F225510A4800F0B9F878B1084895
:1032600000F070F9C4B240F22551054800F07EF834
:103270000448006818B1204602490968884710BD13
:10328000005000405C00002010B540F22551094874
:1032900000F09DF860B1074800F054F9C4B240F264
:1032A0002551044800F062F82146034800F04FF928
:1032B00010BD000000380140004400407CB50546C8
:1032C0000C4640F201220949081FFFF765FA204425
:1032D000B0F5007F09DA40F20123044A121D111FE4
:1032E000081FCDE90054FFF719FA7CBDD003002078
:1032F00008B540F225510D4800F069F8A8B140F238
:1033000025510A4800F032F8084800F01BF9C0B215
:1033100000900748006820B19DF800000449096842
:10332000884701216846FFF7C9FF08BD00440040F7
:103330005400002010B540F225510A4800F047F82B
:1033400078B1084800F0FEF8C4B240F225510548B3
:1033500000F00CF80448006818B1204602490968DA
:10336000884710BD004800405800002010B50022DA
:10337000002340F66A14A14200D100BF0A120124C2
:103380009440A3B2DC43048010BD21B1828942F491
:103390000052828104E082894DF6FF731A408281D7
:1033A00070471AB1838A0B43838202E0838A8B437E
:1033B0008382704702460020B1F5007F00D100BF34
:1033C00013880B400BB1012000E00020704770B55E
:1033D0000246002400230025002040F66A16B14270
:1033E00000D100BFC1F3421501F01F03012606FA08
:1033F00003F3012D02D19689334006E0022D02D15C
:10340000168A334001E0968A33400C12012606FAF0
:1034100004F41688344013B10CB1012000E0002000
:1034200070BDF0B50346002400260025002040F6BC
:103430006A17B94200D100BF1846C1F3421401F027
:103440001F06012707FA06F5012C01D10C3004E014
:10345000022C01D1103000E014301AB107682F435C
:10346000076002E00768AF430760F0BD2DE9F04751
:1034700086B005460E460024A24600BFA14600279E
:10348000B08900B100BF2F462C8A4CF6FF70044073
:10349000F08804432C82AC894EF6F3100440B088C7
:1034A00031890843718908430443AC81AC8A4FF6E3
:1034B000FF400440B0890443AC8201A8FFF732F812
:1034C0001F48874202D1DDF810A001E0DDF80CA012
:1034D000A88900F4004040B10AEBCA0000EB0A10D2
:1034E00031684900B0FBF1F807E00AEBCA0000EBD5
:1034F0000A1031688900B0FBF1F86420B8FBF0F0E5
:1035000004012009642101FB1089A88900F400400E
:1035100040B1322000EBC900B0FBF1F000F0070031
:10352000044308E0322000EB09106421B0FBF1F005
:1035300000F00F0004432C8106B0BDE8F0870000C6
:103540000038014001468888C0F308007047C1F385
:1035500008028280704700BFFEE770B504460B4644
:103560000021204600E0401C0578222DFBD1401CA4
:1035700000E0401C0578222DFBD1401C401C0DE0D2
:103580000578302D09DB0578392D06DC01EB810546
:1035900069000578303D0D44E9B2401C05782C2DBA
:1035A000EED1401C117003E005781D705B1C401CBF
:1035B0000D1EA1F10106F1B2F6D170BD2DE9F04763
:1035C00081460E4617469846002413E004EBC400DB
:1035D00000EB4000094A811842464846FFF72BF9A4
:1035E000C5B2FF2D04D034703D700020BDE8F087D7
:1035F000601CC4B20C2CE9DBFF20F7E790DD00086B
:103600007CB505462E7800240CE0285D1149097828
:1036100001EBC10202EB01110F4A02EBC101085597
:10362000601CC4B2B442F0DB01200A4911230B4AEA
:10363000CDE90010111F081FFFF770F8054800784A
:10364000401C04490870084600780A2801DB002065
:1036500008707CBD88000020140F0020000F00209F
:1036600070B5B2B005462E78701EC6B2002405E0D3
:10367000601C285C0DF80400601CC4B2B442F7DB87
:1036800031466846FDF7F2FB32B070BD2DE9F041DE
:1036900005460C4617460C2C07D2DFE804F0060757
:1036A0000F23244A4B49535A602577E03D48007860
:1036B000052802D0012002F0FBFC6FE046213A48C9
:1036C000FCF744FE284602F0E9FB3748401E00782C
:1036D000022803D1082002F03DFD02E0032002F0A1
:1036E00039FD5BE05AE059E02E480078012803D10B
:1036F000022002F02FFD1AE02A480078082816D18F
:103700002A480078012803D1022002F0C3FC0EE011
:1037100026480078022803D1032002F0BBFC06E013
:1037200022480078032802D1042002F0B3FC35E0DF
:1037300034E033E01B480078052802D1062002F06F
:1037400009FD2BE000201A490870032002F0A2FCBA
:1037500024E017480078401C154908701EE0154AFF
:1037600015492846FFF7F9FE1249087800EBD07199
:103770004910A0EB410169B90E4802780F490E4883
:1037800000F0A4F80B48067806EBD67041100B4801
:1037900002F014FA002002F0B9F800BF00BFBDE843
:1037A000F08100008A000020051A00208B00002014
:1037B000890000209C0000206B1D00204B1A002077
:1037C00010B51D2960D2DFE801F00F151B215F2223
:1037D000232425262728292A2B3540363E3F414FD2
:1037E000505152535C5D5E000123284C2370052329
:1037F000637049E00323254C23700523637043E085
:103800000423224C2370052363703DE03CE03BE041
:103810003AE039E038E037E036E035E034E033E0F4
:103820001B4B1B78192B04D11A23194C2370052329
:10383000637029E028E0164B1B781A2B02D1052370
:10384000134C637020E01FE01EE000BF104B1B789C
:10385000192B02D01A2B05D100E000BF1C230C4C01
:10386000237000BF00BF0FE00EE00DE00CE00BE0A6
:10387000064B1B78052B02D1044C637000BF00BFC0
:1038800002E001E000E000BF00BF10BDB400002076
:10389000A833002010B502F0BBFC002002F000FEAF
:1038A000FEF710FD10BD000010B5054800F0ACFBA0
:1038B000044801F041FD044801F0BEFF10BD0000C6
:1038C0009D0E00087D6400089964000870B50346E9
:1038D0001846D4B24BE000250D700578302D07DB7B
:1038E0000578392D04DC05782D072D0E0D7016E0B6
:1038F0000578412D08DB0578462D05DC0578ED1FA0
:103900002D072D0E0D700AE00578612D07DB057877
:10391000662D04DC0578ED1F2D072D0E0D70401C63
:103920000578302D08DB0578392D05DC0E78057813
:10393000303D35440D7016E00578412D08DB0578E3
:10394000462D05DC0E780578373D35440D700AE0CC
:103950000578612D07DB0578662D04DC0E78057887
:10396000573D35440D70401C491CA51EECB2002C7F
:10397000B1D170BD00204FF4E15000BF011EA0F195
:103980000100FBD17047000000B587B0012108207D
:10399000FEF7A8FD01211020FEF7A4FD012140F251
:1039A0000120FEF79FFD0120ADF8180000208DF8E2
:1039B0001B0006A91D48FDF7A7F80120ADF8180067
:1039C00000208DF81B0006A91948FDF79DF84FF45B
:1039D0004040FEF74BFD002001908DF808008DF867
:1039E00009004FF4602003900020049002208DF81D
:1039F000140001A90F48FCF78DFD01210D48FCF7CB
:103A00005CFD0C48FCF70AFE00BF0A48FCF777FD96
:103A10000028FAD10748FCF711FE00BF0548FCF763
:103A200057FD0028FAD107B000BD0000000C01408E
:103A3000001001400024014010B5FFF7A5FF002051
:103A400005490870487048608860052008750020A6
:103A50000874488210BD0000D805002010B500F0A1
:103A6000EDFD0446072C0ED114480088401C134974
:103A700008800846008832281FDD002008800120C9
:103A80000F49087019E0062C17D00E4800788442C0
:103A900010D00D480078401C0B490870084600788B
:103AA00003280ADD002008700648047000780449E5
:103AB000087502E000200449087010BD6200002073
:103AC000D8050020640000206500002010B500F03B
:103AD00019F80248FEF748FB10BD0000E13A000863
:103AE00070B504460D4624B900F04CFE287072B63D
:103AF00006E0012C04D1287808B162B600E072B665
:103B000070BD000030B5144800686422B0FBF2F1CB
:103B1000B1F1807F00D31DE021F07F40401E4FF0C7
:103B2000E022506150170F22002807DA13071D0EFC
:103B30000A4B00F00F04241F1D5503E013071C0E51
:103B4000074B1C5400BF00204FF0E022906107207B
:103B5000106100BF30BD00006800002018ED00E0DB
:103B600000E400E070B500EB40040B4D05F8243094
:103B7000002400EB4005084E06EB85056C8000EB49
:103B80004004354605EB8404A28000EB400405EBBD
:103B90008404A16070BD0000300100200649496C1A
:103BA00021F00101044A516411468864496C41F0D6
:103BB00001015164704700000000024000B58DB063
:103BC00001210846FEF75EFC1A48FCF76FFD1A4813
:103BD00001901A48029010200390400104900020A8
:103BE00005908020069000200790089009904FF4DF
:103BF00000500A9000200B9001A90E48FCF71BFE14
:103C0000012202210B48FCF70DFE4FF4A060FEF7E5
:103C1000A1FA0E208DF8300006208DF8310000202A
:103C20008DF8320001208DF833000CA8FEF75AFA07
:103C30000DB000BD4400024004380140CC0100201A
:103C400010B520210148FDF747F810BD00080140DC
:103C500010B520210148FDF73DF810BD00080140D6
:103C600010B502210148FDF723F810BD000C0140FA
:103C700010B510210148FDF72DF810BD00100140CE
:103C800010B510210148FDF727F810BD00100140C4
:103C900010B533480068401C314908600846006888
:103CA000B0F5967F04D90020086001202D490871E5
:103CB0002C48007930B1012805D002280CD0042806
:103CC0004CD123E04AE000F0ABFA0220254908710C
:103CD000012000F079FA41E080212348FCF7FCFF45
:103CE000002000F071FA00F09BFA04201D490871D1
:103CF00047214FF6FF7000F0E3FE01211B48FFF75C
:103D0000B3F800211948FFF722FA27E01548407957
:103D1000012822D100201349487108710846047B0C
:103D2000407B2044C4B20846807B2044C4B208468D
:103D3000C07B2044C4B20846007CA0420DD1084696
:103D4000417B007B01EB0020064948800846C17B8F
:103D5000807B01EB00200349088000BF00BF10BD3D
:103D60003400002048010020000801400004004009
:103D70000148008870470000480100200148408841
:103D8000704700004801002008B501210420FEF71B
:103D9000A9FB01210820FEF7A5FB01211020FEF759
:103DA000A1FB1020ADF8000002208DF802001020C9
:103DB0008DF8030069461148FCF7A6FE2020ADF8F7
:103DC000000002208DF8020010208DF803006946E3
:103DD0000B48FCF799FE0220ADF8000004208DF896
:103DE000030069460748FCF78FFEFFF739FF0649D5
:103DF0000870FFF745FFFFF72BFF08BD00100140DB
:103E000000080140000C01400000002010B5FFF741
:103E100027FF0446FFF7AEFD0D480078844203D12A
:103E200000200C49087010E00948007884420CD04A
:103E300008480078401C0749087008460078142894
:103E400003DD00200870024804700148007810BDAE
:103E5000000000200100002008B501210820FEF725
:103E600041FB4FF44070ADF8000003208DF80200D4
:103E700014208DF8030069460448FCF745FE012034
:103E800000F018F8012000F003F808BD000C014014
:103E900010B504462CB14FF480710548FCF71CFFA7
:103EA00004E04FF480710248FCF714FF10BD0000DD
:103EB000000C014010B504462CB14FF400710548C8
:103EC000FCF70AFF04E04FF400710248FCF702FF20
:103ED00010BD0000000C01407FB500200090019053
:103EE00002900390684600F0EDF800247DE0FF2585
:103EF00000264048005D05286AD2DFE800F0030A8A
:103F0000274662001DF8040010B101203949085508
:103F10005EE01DF8040088B1374830F81400401EF8
:103F200080B2354921F8140078B9032021F8140033
:103F30000220304908552546012606E003202E4977
:103F400021F8140000202B49085541E01DF8040019
:103F500088B12A4830F81400401E80B2274921F861
:103F6000140088B9C82021F81400032021490855FD
:103F70002546032608E0C820204921F81400042023
:103F80001C4908552546022622E01DF8040048B9C0
:103F90000420184908559620194921F8140025468F
:103FA00005260DE0164830F81400401E80B2144972
:103FB00021F8140020B9962021F814002546042683
:103FC00006E01DF8040010B900200A49085500BF9A
:103FD00000BFFF2D07D00B48006820B131462846AE
:103FE000084A12689047601CC4B2102CFFF67FAFDD
:103FF0007FBD00005C0100206C0100208C010020CE
:10400000AC0100204C0000200249096809B90149AF
:10401000086070474C00002010B54FF480410D48F7
:10402000FCF74FFEC0F10100C4B222464FF48041BC
:104030000848FCF753FE4FF400410648FCF741FEE8
:10404000C0F10100C4B222464FF400410148FCF720
:1040500045FE10BD0010014008B501211020FEF7FB
:1040600041FA4FF44040ADF8000002208DF8020004
:1040700010208DF8030069460648FCF745FD4FF413
:1040800080410448FCF726FE4FF400410148FCF74C
:1040900023FE08BD0010014010B5FFF7BDFF02214F
:1040A000002000F06DF810BD10B5FFF7D5FF02231A
:1040B00044F6206202490020FFF754FD10BD0000C5
:1040C0009940000870B50446002500260AE06806FD
:1040D000050E254951F82600804708B145F0010535
:1040E000701CC6B2052EF2DB112D3AD2DFE805F0C6
:1040F00039090C0F1215181B1E2124272A2D3033C5
:104100003600012020702CE00120607029E00120A1
:10411000A07026E00120E07023E00120207120E063
:10412000012060711DE00120A0711AE00120E07102
:1041300017E00120207214E00120607211E00120DC
:10414000A0720EE00120E0720BE00120207308E075
:104150000120607305E00120A07302E00120E073FC
:1041600000BF00BF70BD00003800002010B54FF444
:1041700080610248FCF7B0FD10BD00000010014056
:1041800010B5024602EB4200094B03EB8000806849
:1041900058B102EB420003F82010002002EB42036A
:1041A000034C04EB8303588010BD0120FCE70000A2
:1041B0003001002008B50020F0234FF4A072014622
:1041C0000090FCF7D5FE08BD38B504460121042057
:1041D000FEF788F9012C11D18020ADF800000320F2
:1041E0008DF8020010208DF8030069460B48FCF79B
:1041F0008BFC80210948FCF76DFD0DE08020ADF8B7
:10420000000048208DF8030069460448FCF77CFC58
:1042100080210248FCF75EFD38BD00000008014027
:104220000020044948718871886008460021C160F7
:10423000017470474801002010B504460BE0217856
:104240000748FFF784F900BF40210548FFF7B2F89F
:104250000028F9D0641C20780028F0D110BD00009F
:104260000044004010B500F01FFDFFF7A7FC002040
:104270000649087006490860064908600649086052
:10428000064A111F081FFEF7D3FA10BD5000002088
:1042900054000020580000205C000020D4030020BF
:1042A00010B500F0D5FC06480088401C0449088081
:1042B00008460088B0F5967F01DB0020088010BD1D
:1042C000600000203EB543E02748008840F21B31E3
:1042D000884203DB0020244908803EBD2248018833
:1042E0000088401C204A10802048084440F20143C6
:1042F0001F4A111F0090081FFEF766FA1A4800882F
:10430000401E1A49085C0D2822D10A21164802884D
:104310000088401C144B18801448815418460088AB
:1043200002280FDD1846038801AA02A90F48FFF7EB
:1043300045F9044634B90C4802889DF808100B482A
:10434000FFF7A4F909480021016000200649088010
:1043500040F201420649091F081FFEF71DFA012815
:10436000B2DC00BFB9E700009E000020E416002088
:10437000F40A00200EB511227949081FFEF70CFA45
:10438000F0B178480068401C76490860084600682B
:104390000A2815D90020086002A81123704A121DAE
:1043A000111F0090081FFEF70FFA9DF8081001EB8F
:1043B000C10202EB01116C4A02EBC100FFF750F998
:1043C0006A4800780A2819D2DFE800F005192C475E
:1043D0006B7E8E8DABC566480068401C64490860E2
:1043E00008460068C82809D9FF200190002008600D
:1043F00001A901F075FD012001F0ACFEACE05C48C4
:104400000068401C5A49086008460068B0F5967F6D
:1044100007D900200860FF20019001A9012001F0C8
:104420005FFD99E052480068401C51490860084609
:104430000068C82810D9FF20019001A9022001F0CE
:104440004FFD01A9032001F04BFD01A9042001F05B
:1044500047FD032001F07EFE7EE045480068401CD9
:104460004349086008460068B0F5967F18D941486E
:104470000078401C3F49087000203D490860FF203B
:10448000019001A9072001F02BFD3A4800780A2885
:1044900006DD002037490870012001F009FE0EBD3D
:1044A0005AE0354A111F081FFEF7C2F9FF2001909C
:1044B00001A9062001F014FD01A9052001F010FD5D
:1044C000052001F047FE47E029480068401C2849C4
:1044D00008600846006841F27071884202D90720DE
:1044E00001F038FE38E000BF24480078401C234922
:1044F0000870084600780A2812DD1F4A111F081F9D
:10450000FEF796F900201D49087019490860FF2040
:10451000019001A9062001F0E3FC032001F01AFE3E
:104520001AE013480068401C11490860FF20019000
:1045300008460068B0F5FA6F06D101A9072001F01E
:10454000CFFC00200A490860FDF76CFB10B9002081
:104550000749086000E000BF00BF00BF9FE7000000
:10456000FC0E0020A0000020140F00208A00002074
:10457000A4000020A8000020F40A0020A9000020C8
:1045800008B501211020FDF7ADFF01210420FDF742
:10459000A9FF01210846FDF7A5FF0620ADF80000A0
:1045A00003208DF8020010208DF80300694614489E
:1045B000FCF7AAFA0120ADF800008DF802001020E7
:1045C0008DF8030069460F48FCF79EFA0820ADF805
:1045D000000003208DF8020004208DF803006946D6
:1045E0000748FCF791FA02210548FCF775FB042106
:1045F0000348FCF771FB01210248FCF76DFB08BD85
:10460000001001400008014010B5044607230122B4
:1046100021460948FBF7A6FF01210748FCF703F8EC
:1046200000BF02210448FBF761FF0028F9D00248CF
:10463000FBF758FF10BD00000024014010B53448BE
:10464000007830B101280BD0022826D003285CD195
:1046500034E000202E49487048608860072010BD73
:104660000820FFF7D1FF2A494968084428494860D3
:104670000A20FFF7C9FF2649896808442449886051
:1046800008464078401C4870084640780A2803DBFA
:10469000002048700220087037E01D4880680A2119
:1046A000B0FBF1F01A498881084640680A21B0FB46
:1046B000F1F01749C8810320087026E00020144952
:1046C00008700846C089FA2148431149898990FB3E
:1046D000F1F04400B4F5C87F01D90520BFE7B4F577
:1046E000C37F01D90420BAE7B4F5C87F01D90320FC
:1046F000B5E7B4F5B97F01D90220B0E7B4F5B47FCE
:1047000001D90120ABE70020A9E700BF0620A6E7FA
:10471000D80500200148007D70470000D805002022
:1047200010B5FFF799FB10BD10B540210148FCF70B
:10473000BFFA10BD0010014010B580210148FCF700
:10474000B7FA10BD0010014010B54FF48071024857
:10475000FCF7AEFA10BD00000010014010B54FF498
:1047600000710248FCF7A4FA10BD000000100140DF
:1047700010B54FF480710248FCF79AFA10BD0000A2
:104780000008014000BFEFF3108008B90120704716
:104790000020FCE708B501211420FDF7A3FE4FF42B
:1047A0008070ADF8000048208DF803006946074886
:1047B000FCF7AAF94FF47070ADF8000048208DF8AE
:1047C000030069460248FCF79FF908BD0008014054
:1047D0000010014010B500200C490860FFF7DAFF17
:1047E000002410E000200A4908550320094921F857
:1047F0001400C820084921F814009620074921F820
:104800001400601CC4B2102CECDB10BD4C00002066
:104810005C0100206C0100208C010020AC01002014
:1048200010B54FF400410248FCF756FA10BD0000E5
:104830000008014010B54FF400410248FCF74AFA65
:1048400010BD00000008014010B504462CB14FF423
:1048500080510548FCF740FA04E04FF480510248CB
:10486000FCF738FA10BD0000000C014000B587B01D
:1048700001218803FDF716FE01210820FDF732FE15
:1048800001210846FDF72EFE4FF46040ADF804000C
:1048900003208DF8060018208DF8070001A91F4895
:1048A000FCF732F94FF48050ADF8040003208DF886
:1048B000060010208DF8070001A91848FCF724F91C
:1048C0004FF480511548FCF707FA0020ADF80800B6
:1048D0004FF48270ADF80A000020ADF80C00022001
:1048E000ADF80E000120ADF810004002ADF8120046
:1048F0001020ADF814000020ADF816000720ADF828
:10490000180002A90648FDF7EAFE01210448FDF758
:10491000D1FE0120FFF798FF07B000BD000C014059
:104920000038004010B5FFF7B3F9FFF7D5FAFFF7ED
:10493000B7FCFFF793F810BD10B500F05BF9FFF777
:1049400023FAFFF7B1FB00F007FB00F075F9FFF762
:1049500041FFFFF787FCFFF7A3FCFFF76DF8FFF7B8
:10496000DFFE10BD00B591B00121C803FDF79AFD2F
:1049700001210220FDF786FD01211D20FDF7B2FD7A
:1049800001214648FCF74CF94FF40040ADF82C00EB
:1049900010208DF82F0003208DF82E000BA9404821
:1049A000FCF7B2F84FF400413D48FCF795F9502070
:1049B000ADF82C0010208DF82F0003208DF82E006C
:1049C0000BA93848FCF7A0F850213648FCF784F9C9
:1049D0004FF48060ADF82C0010208DF82F000320DC
:1049E0008DF82E000BA93048FCF78EF84FF480614B
:1049F0002D48FCF76FF92820ADF82C0003208DF826
:104A00002E0018208DF82F000BA92648FCF77CF803
:104A10004FF44040ADF830004FF48270ADF83200F2
:104A20000020ADF834000220ADF836000120ADF8CA
:104A300038004002ADF83A000020ADF83C00ADF877
:104A40003E000720ADF840000CA91848FDF747FECE
:104A50001748FBF72BFE15480C30009010200290F1
:104A60008001039000200490802005900020069093
:104A7000079008904FF48050099000200A906946F2
:104A80000B48FBF7D8FE012202210848FDF71EFE65
:104A900001210648FDF70EFE11B000BD00023000F6
:104AA00000080140000C014000100140003C0040A3
:104AB0001C04024000BF011EA0F10100FBD17047A1
:104AC00030B589B005460C4601210220FDF7EAFC0D
:104AD00001210420FDF706FD8020ADF82000102004
:104AE0008DF8230003208DF8220008A91F48FCF749
:104AF0000BF880211D48FCF7EFF8ADF80C50ADF82D
:104B000008400020ADF80E00ADF80A0002A91848D0
:104B1000FEF74CFB0420ADF814000220ADF816009F
:104B20000120ADF818000020ADF81A00ADF81C0007
:104B300005A90F48FEF7ACFA1D208DF804000220ED
:104B40008DF8050000208DF8060001208DF8070083
:104B500001A8FDF7C7FA012205210548FEF7EEFA84
:104B600000210348FEF780F909B030BD000801407C
:104B7000000400401FB501210420FDF793FC1A48F2
:104B8000FEF77EF93220ADF8080018480068184991
:104B9000B0FBF1F0401E80B2ADF804000020ADF88B
:104BA0000A00ADF8060001A90F48FEF7FFFA01223E
:104BB00011460D48FEF7C2FA01210B48FEF754F9E1
:104BC0004FF4A060FDF7C6FA1E208DF8000000200B
:104BD0008DF8010003208DF8020001208DF80300FC
:104BE0006846FDF77FFA1FBD0008004068000020FE
:104BF00040420F0010B5FFF7BDFF002417E0012071
:104C000004EB44010B4A02F82100002004EB4401AC
:104C100002EB8101488004EB440102EB81018880B2
:104C200004EB440102EB81018860601CC4B2022CD9
:104C3000E5DB10BD3001002010B5002003490880DD
:104C4000488008714721FFF73BFF10BD4801002055
:104C500038B51248007800B138BD40F20122104941
:104C6000081FFDF799FD054600240BE00D48204480
:104C700040F201230A4A121D111F0090081FFDF780
:104C8000A3FD641CAC42F1D32DB12846FEF786FF8C
:104C900001200249087000BFDEE70000500000203C
:104CA000D0030020CC01002000B587B001210420F2
:104CB000FDF718FC01210820FDF714FC012110204C
:104CC000FDF710FC01212020FDF70CFC01218803D9
:104CD000FDF708FC01214804FDF7E4FB01218804ED
:104CE000FDF7E0FB01210805FDF7DCFB4FF4007048
:104CF000ADF8180018208DF81B0003208DF81A005D
:104D000006A97548FBF700FF4FF48060ADF8180066
:104D100004208DF81B0003208DF81A0006A96E48A8
:104D2000FBF7F2FE0420ADF8180018208DF81B00E8
:104D300003208DF81A0006A96748FBF7E5FE082056
:104D4000ADF8180004208DF81B0003208DF81A0020
:104D500006A96148FBF7D8FE4FF48060ADF8180053
:104D600018208DF81B0003208DF81A0006A95B4857
:104D7000FBF7CAFE4FF40060ADF8180004208DF870
:104D80001B0003208DF81A0006A95448FBF7BCFE4F
:104D90004FF48050ADF8180018208DF81B00032048
:104DA0008DF81A0006A94E48FBF7AEFE0420ADF8B8
:104DB00018008DF81B0003208DF81A0006A9494839
:104DC000FBF7A2FE4FF4E13002900020ADF80C009A
:104DD000ADF80E00ADF81000ADF814000C20ADF8E1
:104DE000120002A94048FEF741FB02A93F48FEF726
:104DF0003DFB02A93E48FEF739FB02A93D48FEF7FC
:104E000035FB25208DF8040003208DF805008DF872
:104E1000060001208DF8070001A8FDF763F92620A0
:104E20008DF8040004208DF8050003208DF806009D
:104E300001208DF8070001A8FDF754F927208DF80F
:104E4000040005208DF8050003208DF806000120E0
:104E50008DF8070001A8FDF745F935208DF804000D
:104E600005208DF8050006208DF8060001208DF83C
:104E7000070001A8FDF736F9012240F225511A4832
:104E8000FEF7CFFA012240F225511848FEF7C9FA81
:104E9000012240F225511648FEF7C3FA012240F2E2
:104EA00025511448FEF7BDFA01210F48FEF76DFAAF
:104EB00001210E48FEF769FA01210D48FEF765FA57
:104EC00001210C48FEF761FA012280210648FEF715
:104ED00068FA07B000BD000000080140000C014066
:104EE000001001400014014000380140004400401F
:104EF00000480040005000400249096809B90149D2
:104F000008607047540000200249096809B9014946
:104F100008607047580000200249096809B9014932
:104F2000086070475C00002070B504460D462E46B0
:104F30000DE021780748FEF70AFB00BF4021054835
:104F4000FEF738FA0028F9D0641C701EC6B2002E95
:104F5000EFD170BD0050004010B5FFF711FB0421E8
:104F60000748FBF7B9FE02210548FBF7B5FE002014
:104F70000449087004490870FF200449087010BDF6
:104F8000001001402A0000202B0000202C000020EF
:104F900000F00F030A2B04DA00F00F033033137014
:104FA00003E000F00F0337331370001100F00F031C
:104FB0000A2B04DA00F00F0330330B7003E000F02B
:104FC0000F0337330B70704710B5FEF77FFDFDF709
:104FD00047F9FDF763F9FFF7AFFC01231A460C49C7
:104FE0000020FDF7FDF800F027FE01231A460949CD
:104FF0001846FDF7F5F8FEF757FC01231A46064957
:105000000220FDF7EDF8FDF70DF9002010BD0000BE
:1050100025490008295C00089538000870B5064647
:105020000D4616480078102826D114211348801CFC
:10503000FBF78CF9002410E028780A2807DA287892
:105040003030C1B20D48801C01556D1C03E028783A
:10505000FF2800D103E0601CC4B2142CECDB00BFBD
:105060003B210648801C01550022611C4254012E40
:1050700002D118200149087070BD0000A83300203B
:1050800010B500200D4908600D4908700D48FFF764
:1050900033FF0D4A111F081FFDF7CAFB0B4A111FF2
:1050A000081FFDF7C5FB0A4800210160FBF724FE3D
:1050B000FBF71AFEFEF7CCFD10BD0000B00000208B
:1050C000AC000020B552000894200020B020002041
:1050D000B424002008B50020009069461C2000F090
:1050E00011F810200149087008BD0000A833002005
:1050F00010B5FBF7E9FBFBF701FCFCF7C3FFFCF77E
:105100006BFF10BD70B5C0B005460E46222D35DAD6
:10511000002430E0C5EBC50000EB8000184901EB2E
:105120004000005D50B1C5EBC50000EB800001EB15
:105130004000015D601C0DF800101BE005E03178B7
:10514000601C0DF80010641C761C30780028F6D125
:105150000D21601C0DF80010641C0A21601C0DF864
:105160000010641C601CC0B28DF800006846FBF79C
:10517000F3FD02E0641CFF2CCCD900BF40B070BD31
:10518000D4DE000808B5494800781838062824D22B
:10519000DFE800F0032446706C8445480088401C1A
:1051A00043490880084600880A2816DD0020088048
:1051B000009069461C20FFF7A5FF69460E20FFF707
:1051C000A1FF3A49891C1920FFF79CFF1920374994
:1051D000087005204870002008BD63E0344800884E
:1051E000401C3349088008460088C82817DD002085
:1051F00008802E48407860B12C484078401E2B49EA
:1052000048700020009069461A20FFF77BFF0020BD
:10521000E2E70020264908801B202449087041E06D
:1052200023480088401C2249088008460088C82876
:105230001BDD002008801D48407880B11B48407865
:10524000401E1A4948700020009069461A20FFF756
:1052500059FF69461B20FFF755FF0020BCE70020DF
:10526000134908801B20114908701BE01B200F49BF
:10527000087017E00E480088401C0D490880084659
:105280000088B0F5967F08DD1D20084908700020D1
:10529000009069461C20FFF735FF03E0102003490A
:1052A000087000BF00BFFF2096E70000A833002071
:1052B000B600002001B582B0012002A940F20143EE
:1052C000034ACDE90010111F081FFDF727FA0EBD94
:1052D000B020002078B502460B464FF6FF70002440
:1052E00014E012F8011B81EA000505F00F050F4ECE
:1052F00036F8155085EA201080EA211505F00F05D3
:1053000036F8155085EA2010651CACB29C42E8D3F3
:10531000C5B28DF80050050A8DF801509DF8015076
:105320009DF8006045EA062078BD00009CD9000881
:1053300010B5FFF79BFA10BD0249096809B9014988
:1053400008607047800000207CB54248007810BBA0
:1053500040F201124049081FFDF71EFA01281ADD2C
:1053600001A840F201133C4A121D111F0090081FB2
:10537000FDF72AFA9DF80400FE280CD1354840F2CA
:105380000113354A121D111F0090081FFDF71CFA6A
:105390000020324908702F480078002858DD40F27C
:1053A00001122D49081FFDF7F7F92A4909788842AB
:1053B00041DD28480078632809DD274A121D111FA6
:1053C000081FFDF735FA0020224908707CBD002532
:1053D000002410E02248204440F201131E4A121D0E
:1053E000111F0090081FFDF7EFF91D48005D2844CC
:1053F000C5B2601CC4B2174800788442EADB01A839
:1054000040F20113144A121D111F0090081FFDF7EE
:10541000DBF99DF80400A84209D10E480178104834
:1054200000F04AF80B4801780D48FDF747FF0020CF
:10543000084908700CE009480078401C07490870CA
:10544000084600780A2803DB00200870014908702C
:1054500000BFBBE784000020740800208500002006
:10546000880A002030B5C1B040F201120E49081F71
:10547000FDF792F9C5B2002D14DD00240CE001A85F
:10548000204440F20113084A121D111F0090081F0A
:10549000FDF79AF9601CC4B2AC42F0DB294601A8C2
:1054A000FFF742FD41B030BD8009002010B5FFF785
:1054B000D9FFFFF749FF10BDF0B587B004460D4690
:1054C000012D7DDD20788DF8080060788DF80900C9
:1054D000A1788DF80A109DF808000A2874D2DFE838
:1054E00000F073055253545556575859102D49D151
:1054F000E0788DF80B0021798DF80C1061798DF82A
:105500000D10A1798DF80E10E1798DF80F10217A28
:105510008DF81010617A8DF81110A17A8DF81210A3
:10552000E17A8DF81310217B8DF81410617B8DF8D2
:105530001510A17B8DF81610E07B8DF817000C215B
:105540000DF10B00FFF7C6FE06469DF809109DF809
:105550000A0041EA0020B04214D11D48006888B119
:10556000059800900120DFF868C002A90EC9DCF898
:1055700000C0E04706909DF81800012802D102A95A
:1055800000F03CF820E000BF00BF00BF00BF00BF3C
:1055900000BF00BF032D16D10E48006898B10598D2
:1055A00000909DF80800DFF82CC002A90EC9DCF8B5
:1055B00000C0E047074637B19DF8080002A900E0A7
:1055C00003E000F01BF800BF00BF07B0F0BD000013
:1055D000800000207C0000203EB50446029401209B
:1055E00002A940F20113044ACDE90010111F081F5F
:1055F000FDF794F83EBD000078080020F0B58DB0AE
:1056000007460D463E46FE208DF800000124062E7A
:105610007DD006DC062E7BD2DFE806F0C50C8A8B37
:105620008C8D072E75D0082E74D0092E73D0FF2EC6
:105630006ED185E010222046611CCCB20DF800200E
:1056400006F18000C2B22046611CCCB20DF80020E9
:105650006A782046611CCCB20DF80020AA7820465A
:10566000611CCCB20DF80020EA782046611CCCB257
:105670000DF800202A792046611CCCB20DF80020DC
:105680006A792046611CCCB20DF80020AA79204628
:10569000611CCCB20DF80020EA792046611CCCB226
:1056A0000DF800202A7A2046611CCCB20DF80020AB
:1056B0006A7A2046611CCCB20DF80020AA7A2046F6
:1056C000611CCCB20DF80020EA7A2046611CCCB2F5
:1056D0000DF800202A7B2046611CCCB20DF800207A
:1056E0006A7B2046611CCCB20DF80020AA7B2046C4
:1056F000611CCCB20DF80020EA7B2046611CCCB2C4
:105700000DF80020A01EC1B20DF1020004E013E06C
:1057100049E012E012E012E000F062F82146621C5B
:10572000D4B20DF801002146684600F03FF83AE097
:1057300000BF00BF00BF00BF00BF00BF00BF00BF71
:1057400003222046611CCCB20DF80020FF2E06D1AA
:10575000FF222046611CCCB20DF8002007E006F1C4
:105760008000C2B22046611CCCB20DF800206A78DD
:105770002046611CCCB20DF80020AA782046611C9E
:10578000CCB20DF80020A01EC1B20DF1020000F055
:1057900027F82146621CD4B20DF801002146684664
:1057A00000F004F800BF00BF0DB0F0BD7CB50546A9
:1057B0000C462E4640F201120849081FFCF7ECFF88
:1057C0002044FF2809DC40F20113044A121D111F76
:1057D000081FCDE90064FCF7A1FF7CBD8009002013
:1057E00010B502460020002305E014780444E0B21E
:1057F000521C5C1CE3B28B42F7DB10BD10B5094AAA
:10580000111F081FFDF714F8074A111F081FFDF7A5
:105810000FF8002005490860054908600548FFF7B2
:105820007BFB10BD78080020840900207C0000204C
:1058300080000020D95500080249096809B90149CA
:10584000086070477C0000202DE9F043A3B00546B6
:1058500088461746002400267B222046641C19A98E
:105860000A5400BFA85D38B13046761C2A5C204639
:10587000641C19A90A5400E002E01E2EF2DD00BFEC
:1058800000BF40222046641C19A90A5473222046F6
:10589000641C0A5463222046641C0A546D2220466C
:1058A000641C0A5470222046641C0A547D2221463E
:1058B000641C19A8425400222046641C19A90A54E9
:1058C000402109A8FAF764FD414609A8FAF7EDFC62
:1058D00019A909A8FAF7E9FC0B48FBF75FFD09A82D
:1058E000FAF7C4FC81464A4609A90748FCF752F971
:1058F00001A90548FBF728FD1022394601A8FDF74C
:1059000061F823B0BDE8F083A4380020014981F894
:10591000B2007047A637002030B589B030208DF82E
:10592000040000252BE03948445D241100BF0A2CF7
:1059300007DA04F13000C1B26800401C01AA11541A
:1059400006E004F13700C1B26800401C01AA1154FE
:105950002E48445D04F00F040A2C07DA04F13000ED
:10596000C1B26800801C01AA115406E004F137009E
:10597000C1B26800801C01AA1154681CC5B20C2D6C
:10598000D1DB00208DF81D0001A800F04FF80DF1CB
:10599000050000F0AFF81E4A0DF105010846FFF7BB
:1059A00053FF1CA000F06AF81EA000F07BF85F20F7
:1059B0008DF81D0064208DF81E006F208DF81F00EB
:1059C00077208DF820006E208DF8210000208DF8C2
:1059D00022000DF1050000F079F85F208DF81D0020
:1059E00075208DF81E0070208DF81F0000208DF8A6
:1059F00020008DF821008DF822000DF1050000F047
:105A000029F80120FFF782FF09B030BD733800206C
:105A1000E23700203131392E39312E3135382E38E8
:105A200000000000313838330000000010B50021BC
:105A300009E004780A464B1CD9B2054B9C54401C23
:105A40001E2900D102E00278002AF2D100BF10BD69
:105A5000A637002010B5002109E004780A464B1C47
:105A6000D9B2054B9C54401C1E2900D102E002789B
:105A7000002AF2D100BF10BD3A38002010B5002135
:105A800009E004780A464B1CD9B2054B9C54401CD3
:105A9000102900D102E00278002AF2D100BF10BD27
:105AA0000238002010B5002109E004780A464B1C9A
:105AB000D9B2054B9C54401C0A2900D102E002785F
:105AC000002AF2D100BF10BD1238002010B500210D
:105AD00009E004780A464B1CD9B2054B9C54401C83
