:020000040800F2
:1000000038350020F501000855100008890D00085A
:1000100051100008F50700087917000800000000DB
:100020000000000000000000000000002D13000888
:10003000D109000800000000A111000851140008B7
:100040000F0200080F0200080F0200080F0200084C
:100050000F0200080F0200080F0200080F0200083C
:100060000F0200080F0200080F0200080F0200082C
:100070000F0200080F0200080F0200080F0200081C
:100080000F0200080F0200080F0200080F0200080C
:100090000F0200080F0200080F0200080F020008FC
:1000A0000F0200080F0200080F0200080F020008EC
:1000B0000F0200080F0200080F0200080F020008DC
:1000C0000F0200080F0200080F0200080F020008CC
:1000D0000F0200080F0200080F0200080F020008BC
:1000E0000F0200080F0200080F02000800000000C5
:1000F0000000000000000000000000000000000000
:1001000000000000000000000F0200080F020008BD
:100110000F0200080F0200080F0200080F0200087B
:100120000F0200080F0200080F0200080F0200086B
:100130000F0200080F0200080F0200080F0200085B
:100140000F0200080F0200080F0200080F0200084B
:1001500000F002F800F03AF80AA090E8000C82449F
:100160008344AAF10107DA4501D100F02FF8AFF27C
:10017000090EBAE80F0013F0010F18BFFB1A43F085
:10018000010318476C9300008C930000103A24BFC1
:1001900078C878C1FAD8520724BF30C830C144BFEC
:1001A00004680C607047000000230024002500262E
:1001B000103A28BF78C1FBD8520728BF30C148BFCA
:1001C0000B6070471FB51FBD10B510BD00F035F8AE
:1001D0001146FFF7F7FF01F0FFFC00F053F803B4FE
:1001E000FFF7F2FF03BC00F05BF8000080F3088823
:1001F000704700000948804709480047FEE7FEE7CE
:10020000FEE7FEE7FEE7FEE7FEE7FEE7FEE7FEE7C6
:1002100004480549054A064B704700005914000878
:10022000510100083803002038350020380500202F
:1002300038050020704770477047754600F02CF86D
:10024000AE4605006946534620F00700854618B0C3
:1002500020B5FFF7DDFFBDE820404FF000064FF06E
:1002600000074FF000084FF0000B21F00701AC46EB
:10027000ACE8C009ACE8C009ACE8C009ACE8C0090A
:100280008D46704710B50446AFF300802046BDE8A8
:100290001040FFF7A4BF000000487047D8020020BC
:1002A00001491820ABBEFEE726000200704700009F
:1002B00000B589B00D22002104A801F073FD04A847
:1002C00033490860084600680078AA285BD10D20F1
:1002D000304908602E480068407900062E490860C1
:1002E0002B4800688079096841EA00402A49086083
:1002F00027480068C079096841EA0020264908605B
:1003000023480068007A09680843234908602048A8
:100310000068C078214908701D480068007948705D
:100320001D480068C0F30F201D4908801A48007856
:100330001C49088000201C4908601C4908802021B5
:10034000CDE900014FF6FF7319A2642102901E202F
:1003500000F02EFE00201821CDE900014FF6FF73BA
:1003600018A23C210290084600F022FE0020202125
:10037000CDE900014FF6FF7317A278210290822089
:1003800000F016FE01E000F0E1FC09B000BD000045
:100390001C000020300000202C0000203500002030
:1003A000240000202600002020000020280000203B
:1003B000202020202020202020202020202020203D
:1003C000000000004669726D7761726520557067A4
:1003D000726164652E2E2E003025000030B5ADF51B
:1003E000037DF6480088F649098888427EDA4FF492
:1003F0008072F448016803A801F0D4FCF148006859
:1004000000F58070EF490860002417E0012000EB40
:10041000440003A9085C4FF47F4101EA002043A98E
:1004200021F8140043A830F8140003A911F814109F
:10043000084343A921F81400601C84B2802CE5DB3A
:10044000E1490968E14A8818802243A901F0FEFBCE
:10045000DD48006800F58070DB490860D7480088F7
:10046000401CD6490880D84800684FF47A71484348
:10047000D7490968B0FBF1F0D649088008460088E2
:100480000A2812DA30208DF80C002E208DF80D008D
:10049000084600783030C0B28DF80E0025208DF867
:1004A0000F0000208DF810008CE0CA4800886428F6
:1004B0001DDAC84800880A2190FBF1F03030C0B244
:1004C0008DF80C002E208DF80D00C248008890FB9E
:1004D000F1F201FB12003030C0B28DF80E00252081
:1004E0008DF80F0000208DF810006BE077E0B94820
:1004F0000088B0F57A7F29DAB6480088642190FB3D
:10050000F1F03030C0B28DF80C00B248008890FB9A
:10051000F1F201FB12000A2190FBF1F03030C0B281
:100520008DF80D002E208DF80E00AA48008890FB53
:10053000F1F201FB12003030C0B28DF80F0025201F
:100540008DF8100000208DF811003BE0A1480088D4
:10055000B0F57A7F36DB9F4800884FF47A7190FBC4
:10056000F1F03030C0B28DF80C009A48008890FB52
:10057000F1F201FB1200642190FBF1F03030C0B2C7
:100580008DF80D009348008890FBF1F201FB1200FA
:100590000A2190FBF1F03030C0B28DF80D002E2012
:1005A0008DF80D008B48008890FBF1F201FB1200E2
:1005B0003030C0B28DF80E0025208DF80F000020DD
:1005C0008DF8100000202021CDE900014FF6FF73C7
:1005D00003AA78210290822000F0EAFCEAE0774842
:1005E0000088774909888842F8D17B480288754895
:1005F000016803A801F0D6FB77480588284605EB7B
:10060000D0714910A5EB410129B1FF21681E03AA51
:100610001154681C85B2284605EBD071C1F34F0513
:10062000002417E0012000EB440003A9085C4FF40C
:100630007F4101EA002043A921F8140043A830F8C3
:10064000140003A911F81410084343A921F8140059
:10065000601C84B2AC42E5DB5B4909685B4A8818E0
:100660002A4643A901F0F2FA574800685A49098816
:10067000084455490860084600684FF47A714843B9
:1006800053490968B0FBF1F05249088008460088D8
:10069000B0F57A7F29DA08460088642190FBF1F0F2
:1006A0003030C0B28DF80C004A48008890FBF1F25F
:1006B00001FB12000A2190FBF1F03030C0B28DF83E
:1006C0000D002E208DF80E004248008890FBF1F2BC
:1006D00001FB12003030C0B28DF80F0025208DF8DC
:1006E000100000208DF811003BE03A480088B0F57A
:1006F0007A7F36DB374800884FF47A7190FBF1F04F
:100700003030C0B28DF80C003248008890FBF1F216
:1007100001FB1200642190FBF1F03030C0B28DF883
:100720000D002C48008890FBF1F201FB12000A2119
:1007300090FBF1F03030C0B28DF80E002E208DF815
:100740000F002448008890FBF1F201FB12003030CA
:10075000C0B28DF8100025208DF8110000208DF812
:10076000120000202021CDE900014FF6FF7303AAFB
:1007700078210290822000F01BFCBB208DF80C0039
:10078000164800788DF80D00144840788DF80E005A
:10079000032203A9002001F0F5FB00202021CDE970
:1007A00000014FF6FF730EA27821029000F000FCCA
:1007B00000F0CCFA0DF5037D30BD000038000020BC
:1007C00024000020300000202000002000C8000885
:1007D0002C000020280000202600002035000020EA
:1007E0007570646174652073756363657373667592
:1007F0006C6C790000BFFEE701684FF6FE72114095
:1008000001600021016041608160C1604B49884204
:1008100008D14A490839496841F00F01474A083A66
:1008200051608AE045491431884208D1434908396A
:10083000496841F0F001414A083A51607DE03F4982
:100840002831884208D13D490839496841F470612E
:100850003A4A083A516070E038493C31884208D140
:1008600036490839496841F47041344A083A5160C0
:1008700063E032495031884208D13049083949682B
:1008800041F470212D4A083A516056E02B496431F9
:10089000884208D129490839496841F47001274A3A
:1008A000083A516049E025497831884208D1234906
:1008B0000839496841F07061204A083A51603CE0CB
:1008C0001F49884206D1011F096841F00F01021F2C
:1008D000116032E01A491431884208D11849091FC1
:1008E000096841F0F001164A121F116025E0144911
:1008F0002831884208D11249091F096841F4706102
:100900000F4A121F116018E00D493C31884208D18E
:100910000B49091F096841F47041094A121F11600F
:100920000BE007495031884207D10549091F096882
:1009300041F47021024A121F116070470800024002
:100940000804024010B50022026847F6F0739A438B
:100950000C6A8B6823430C6923434C6923438C69DD
:100960002343CC6923434C6A23438C6A23431A43B1
:100970000260CB6843600B6883604B68C36010BD46
:10098000124A126842F0F002104B1A600F4A1C32F1
:1009900011600E4A243210600C4A1832126842F07C
:1009A00001020A4B18331A6000BF084A121F12686E
:1009B00002F02002002AF8D0044A1832126822F00D
:1009C0000102024B18331A60704700000404024011
:1009D0007047000010B51E4800F080FD00211C4843
:1009E00000F070FD1B4800F079FE1B4800F076FE19
:1009F0001A4800F073FE1A4800F070FE194800F023
:100A00006DFE0021134800F05DFE0021124800F049
:100A100059FE0021114800F055FE0021104800F059
:100A200051FE00210F4800F04DFE0F4800F026FC5B
:100A30000E4800F023FC00210B4800F009FC0021C7
:100A40000A4800F005FC002000F0FCFB72B610BD67
:100A500000080040003801400044004000480040C9
:100A6000004C00400050004000380040003C004076
:100A700030B5044604254FF4302000F06FF80546E9
:100A8000042D17D10C48006940F002000A490861A2
:100A900008464461006940F0400008614FF430208E
:100AA00000F05CF805460448006941F6FD71084015
:100AB00001490861284630BD0020024004200B494E
:100AC000C96801F0010109B101200EE00749C968B8
:100AD00001F0040109B1022007E00449C96801F0EE
:100AE000100109B1032000E00420704700200240FB
:100AF0000348006940F08000014908617047000028
:100B00000020024070B504460D460426F00200F0B5
:100B100025F80646042E11D10948006940F001006D
:100B2000074908612580F00200F018F806460448DD
:100B3000006941F6FE71084001490861304670BD08
:100B4000002002400248034948600348486070475B
:100B50002301674500200240AB89EFCD00B5024676
:100B60000423FFF7ABFF034603E0FFF7A7FF0346AD
:100B7000521E012B01D1002AF7D102B905231846D4
:100B800000BD2DE9F041024600250026002000238B
:100B90000024002791F803C00CF00F0591F803C062
:100BA0000CF0100CBCF1000F03D091F802C04CEA1D
:100BB000050591F800C0BCF1000F31D01468002089
:100BC0002BE04FF0010C0CFA00F3B1F800C00CEA76
:100BD00003069E4220D183004FF00F0C0CFA03F75E
:100BE000BC4305FA03FC4CEA040491F803C0BCF1D1
:100BF000280F06D14FF0010C0CFA00FCC2F814C00B
:100C00000AE091F803C0BCF1480F05D14FF0010C88
:100C10000CFA00FCC2F810C0401C0828D1D31460A4
:100C2000B1F800C0BCF1FF0F34DD546800202EE0A5
:100C300000F1080C4FF0010808FA0CF3B1F800C0FD
:100C40000CEA03069E4221D183004FF00F0C0CFAF0
:100C500003F7BC4305FA03FC4CEA040491F803C013
:100C6000BCF1280F05D100F1080C08FA0CF8C2F805
:100C7000148091F803C0BCF1480F07D100F1080CB3
:100C80004FF0010808FA0CF8C2F81080401C082840
:100C9000CED35460BDE8F081F0B50A4600230024AD
:100CA0000021002500F00046B6F1004F02D11D4E94
:100CB000F16901E01B4E7168C0F3034583B200F493
:100CC0004016B6F5401F08D121F07061154E7668C8
:100CD00026F07066134F7E6012E000F48016B6F5C1
:100CE000801F06D1032606FA05F4A14341F0706186
:100CF00006E0460D360103FA06F6B14341F0706195
:100D000022B1460D360103FA06F6314300F00046E3
:100D1000B6F1004F02D1034EF16101E0014E716066
:100D2000F0BD00000000014002460020D3680B40E7
:100D30000BB1012000E00020704741617047016164
:100D400070470AB1016100E04161704710B50B487E
:100D500000680B490840B0F1005F0DD1FFF73AFE83
:100D60000648001D04680748046004490868FFF746
:100D70003DFA04480068804710BD000000C8000824
:100D80000000FF2F0400002000BFFEE72DE9F04126
:100D900007460C4615461E462A2000F03DF9384607
:100DA00000F027F9284600F024F92B2000F034F950
:100DB000204600F01EF9304600F01BF92C2000F010
:100DC0002BF9BDE8F08170B504460D4616462B465A
:100DD000224629462046FFF7D9FF304600F009F9A0
:100DE00070BD00002DE9F04781460F4615461E46AE
:100DF000DDF82080701E83B2681E82B239464846F4
:100E0000FFF7C4FF00240AE04FEA28222046611CB5
:100E10008CB20A490A5401F80480601C84B2AC42C6
:100E2000F2DB3C4605E029460448FFF7A9FD601CBB
:100E300084B2B4EB460FF6DBBDE8F087400000203B
:100E40002DE9FF5F80468A4617469B460F9D00208E
:100E50000290CDF80080284605EBD071C1F347041D
:100E60002046E21704EB5272D2102146E31704EB3E
:100E70005373DB10A4EBC3030BB1012300E0002389
:100E80001A446A4392B20192A7F12000C7B20AEB5A
:100E90000500401E83B208EB0400401E82B251469A
:100EA0004046FFF773FF002673E00C2D07D107EBD8
:100EB00047003A4901EB8000805D039025E0102D4A
:100EC00005D1374800EB0710805D03901DE0182D19
:100ED00007D107EB4700334901EB0010805D039019
:100EE00013E0202D05D1304800EB8710805D039082
:100EF0000BE0302D07D107EBC7002C4901EB0010A8
:100F0000805D039001E0BDE8FF9F4FF000093AE0EB
:100F10001098C8B9012000FA09F00399084018B1E7
:100F2000584600F066F802E00E9800F062F8029869
:100F3000401CC0B20290029890FBF4F104FB110037
:100F4000E8B90020029021E0012000FA09F003999D
:100F5000084020B15A4651464046FFF734FF08F199
:100F600001001FFA80F80098A8EB0000A04206D10B
:100F7000DDF800800AF101001FFA80FA06E009F1AD
:100F8000010000F0FF09B9F1080FC1DB00BF701CC0
:100F900086B20198864288DB00BFB4E78C21000846
:100FA00000260008F02B0008C03D0008805500080E
:100FB0002DE9FE4F06460F4614469846DDE90D5AC8
:100FC000DDF8309010E0CDE9015ACDF8009022789C
:100FD000434639463046FFF733FF284605EBD071CC
:100FE00006EB61018EB2641C20780028EBD1BDE8CD
:100FF000FE8F18B5044620128DF80000E0B28DF87F
:10100000010002216846FFF7BBFC18BD10B504467D
:10101000204600F011F810BD10B504461021054817
:10102000FFF78BFE204600F007F810210148FFF77C
:1010300086FE10BD000C014001B540210348FFF7BA
:101040007CFE01216846FFF79BFC08BD000C0140B7
:1010500000BFFEE770470000024A0A400243024B0D
:101060001A60704780FFFF1F08ED00E00249096821
:1010700009B90149086070473C00002000202CE0BD
:1010800000EB4001164A52F8211021B300EB400159
:1010900002EB81010989491C00EB4002104B03EB74
:1010A0008202118100EB40011A4602EB810109899D
:1010B00000EB400203EB8202D28891420BDB00215D
:1010C00000EB400203EB82021181012100EB4002A0
:1010D00003EB82021171411CC8B20228D0DB7047B9
:1010E000C002002070B500EB40040E4D55F82440BE
:1010F000B4B900EB400445F82410002400EB40058F
:10110000084E06EB85052C7100EB4004354605EBD7
:101110008404E280002400EB400506EB85052C8169
:1011200070BD0000C002002019E0002415E004EBAF
:1011300044000B4901EB8000007901280BD100200D
:1011400004EB4401064A02EB8101087104EB4401FF
:1011500052F821008047601CC4B2022CE7DBE4E7B0
:10116000C0020020002016E0002100EB40020B4BE3
:1011700043F8221000EB400203EB8202117100EBF6
:10118000400203EB8202D18000EB400203EB8202BB
:101190001181411CC8B20228E6DB7047C002002062
:1011A0007047000029B1064A52690243044B5A6154
:1011B00004E0034A52698243014B5A6170470000C0
:1011C0000010024029B1064AD2690243044BDA6199
:1011D00004E0034AD2698243014BDA6170470000A0
:1011E0000010024029B1064A12690243044B1A61F9
:1011F00004E0034A12698243014B1A617047000000
:101200000010024029B1064A92690243044B9A61D8
:1012100004E0034A92698243014B9A6170470000DF
:101220000010024029B1064AD2680243044BDA603A
:1012300004E0034AD2688243014BDA607047000041
:101240000010024001490860704700003C0442421F
:1012500021B1028842F04002028004E002884FF689
:10126000BF731A40028070471AB183880B43838092
:1012700002E083888B4383807047000010B50446EA
:101280001148844208D101218014FFF7CBFF0021CF
:10129000A014FFF7C7FF16E00C48844208D10121D3
:1012A0000014FFF79FFF00212014FFF79BFF0AE0C7
:1012B0000748844207D10121C013FFF793FF0021A3
:1012C000E013FFF78FFF10BD0030014000380040F1
:1012D000003C00400246002013890B400BB1012066
:1012E00000E000207047014688897047818170477F
:1012F00010B50022028802F441520B884C88234327
:101300008C882343CC8823430C8923434C89234373
:101310008C892343CC8923431A430280838B4FF269
:10132000FF74234083830B8A038210BD704710B57E
:1013300000F002F810BD00000CB5002001900090F4
:101340003F48006840F480303D49086000BF3C4899
:10135000006800F4003000900198401C0190009853
:1013600018B90198B0F5A06FF1D13548006800F4C4
:10137000003010B10120009001E0002000900098A2
:1013800001285CD12F48006840F010002D4908600A
:101390000846006820F0030008600846006840F036
:1013A00002000860264840682549486008464068B1
:1013B00048600846406840F4806048600846C06A5B
:1013C000214908401E49C8620846C06A1F490843AF
:1013D0001B49C8620846006840F08060086000BF92
:1013E0001748006800F000600028F9D014484068F1
:1013F00020F47C10124948600846406840F4E81028
:1014000048600846006840F08070086000BF0C48E3
:10141000006800F000700028F9D00948406820F00A
:101420000300074948600846406840F002004860F1
:1014300000BF0348406800F00C000828F9D10CBD3B
:10144000001002400020024000F0FEFF44060100B0
:1014500010B5FFF713FE10BD10B51648006840F038
:1014600001001449086008464068134908401149C2
:10147000486008460068114908400E49086008465F
:10148000006820F4802008600846406820F4FE00D0
:1014900048600846006820F0A05008604FF47F00C4
:1014A00088600020C862FFF742FF4FF000600449E7
:1014B000086010BD001002400000FFF0FFFFF6FEC4
:1014C00008ED00E021B1028842F00102028004E050
:1014D00002884FF6FE731A400280704710B504462A
:1014E0006848844208D10121C014FFF79BFE002107
:1014F000E014FFF797FEC4E0B4F1804F08D101215A
:101500000846FFF76FFE00210120FFF76BFEB8E0F1
:101510005D48844208D101210220FFF763FE0021CB
:101520000220FFF75FFEACE05848844208D1012159
:101530000420FFF757FE00210420FFF753FEA0E030
:101540005348844208D101210820FFF74BFE0021B7
:101550000820FFF747FE94E04E48844208D101215D
:101560001020FFF73FFE00211020FFF73BFE88E030
:101570004948844208D101212020FFF733FE002191
:101580002020FFF72FFE7CE04448844208D101214F
:101590004014FFF747FE00216014FFF743FE70E0A0
:1015A0003F48844209D10121C804FFF73BFE0021D6
:1015B0004FF40020FFF736FE63E03A48844209D139
:1015C00001210805FFF72EFE00214FF48010FFF7E0
:1015D00029FE56E03448844209D101214805FFF72D
:1015E00021FE00214FF40010FFF71CFE49E02F48B8
:1015F000844208D101214020FFF7F4FD0021402062
:10160000FFF7F0FD3DE02A48844208D10121802007
:10161000FFF7E8FD00218020FFF7E4FD31E02548D9
:10162000844208D101218015FFF7DCFD0021A015BF
:10163000FFF7D8FD25E02048844209D101210804A4
:10164000FFF7F0FD00214FF48030FFF7EBFD18E0CD
:101650001A48844209D101214804FFF7E3FD002123
:101660004FF40030FFF7DEFD0BE01548844208D14F
:1016700001218804FFF7D6FD00214FF48020FFF7F9
:10168000D1FD10BD002C01400004004000080040C6
:10169000000C0040001000400014004000340140E5
:1016A000004C01400050014000540140001800402F
:1016B000001C004000200040004001400044014068
:1016C0000048014021B1828942F40052828104E045
:1016D00082894DF6FF731A408281704710B5044627
:1016E0002048844209D101218803FFF79BFD002196
:1016F0004FF48040FFF796FD32E01B48844209D149
:1017000001214804FFF76EFD00214FF40030FFF780
:1017100069FD25E01548844209D101218804FFF7BD
:1017200061FD00214FF48020FFF75CFD18E01048B8
:10173000844209D10121C804FFF754FD00214FF470
:101740000020FFF74FFD0BE00A48844208D1012139
:101750000805FFF747FD00214FF48010FFF742FD19
:1017600010BD000000380140004400400048004027
:10177000004C00400050004000BFFEE710B500F0F4
:1017800019F80248FFF772FC10BD0000911700081D
:1017900070B504460D4624B900F098F8287072B66A
:1017A00006E0012C04D1287808B162B600E072B6D8
:1017B00070BD000030B5144800686422B0FBF2F13F
:1017C000B1F1807F00D31DE021F07F40401E4FF03B
:1017D000E022506150170F22002807DA13071D0E70
:1017E0000A4B00F00F04241F1D5503E013071C0EC5
:1017F000074B1C5400BF00204FF0E02290610720EF
:10180000106100BF30BD00000800002018ED00E0AE
:1018100000E400E010B514480078401C124908703C
:101820000846007832281DDD002008704FF4804102
:101830000E48FFF779FAC0F10100C4B222464FF416
:1018400080410A48FFF77DFA4FF400410748FFF74F
:101850006BFAC0F10100C4B222464FF400410348C4
:10186000FFF76FFA10BD00000000002000100140DB
:1018700008B501211020FFF7C5FC4FF44040ADF83A
:10188000000002208DF8020010208DF80300694648
:101890000648FFF776F94FF480410448FFF74DFA08
:1018A0004FF400410148FFF74AFA08BD001001401B
:1018B00010B5FFF7DDFF10BD10B54FF48061024891
:1018C000FFF73DFA10BD00000010014000BFEFF32C
:1018D000108008B9012070470020FCE710B54FF4D4
:1018E00000410248FFF72BFA10BD0000000801403C
:1018F00010B54FF400410248FFF71FFA10BD000079
:101900000008014010B504462CB14FF48051054841
:10191000FFF715FA04E04FF480510248FFF70DFA83
:1019200010BD0000000C014000B587B00121880304
:10193000FFF748FC01210820FFF764FC012108465D
:10194000FFF760FC4FF46040ADF8040003208DF811
:10195000060018208DF8070001A91F48FFF711F9AC
:101960004FF48050ADF8040003208DF806001020DD
:101970008DF8070001A91848FFF703F94FF48051CB
:101980001548FFF7DCF90020ADF808004FF482702D
:10199000ADF80A000020ADF80C000220ADF80E00F2
:1019A0000120ADF810004002ADF812001020ADF893
:1019B00014000020ADF816000720ADF8180002A9A9
:1019C0000648FFF795FC01210448FFF741FC012080
:1019D000FFF798FF07B000BD000C01400038004041
:1019E00070B50546002405E0601CC4B2C82C01DDBA
:1019F000002070BD02210E48FFF76CFC0028F3D0D8
:101A000029460B48FFF772FC002405E0601CC4B2B5
:101A1000C82C01DD0020ECE701210548FFF75AFC46
:101A20000028F3D00248FFF75EFCC0B2E1E70000F7
:101A30000038004010B504462046FFF719F810BDE5
:101A400010B5FFF755F810BD70B504460D46294690
:101A50002046FFF757F870BD10B5FFF773F810BDBB
:101A600000B591B00121C803FFF7ACFB01210220B2
:101A7000FFF798FB01211D20FFF7C4FB0121464819
:101A8000FFF70AF94FF40040ADF82C0010208DF854
:101A90002F0003208DF82E000BA94048FFF771F8A6
:101AA0004FF400413D48FFF74AF95020ADF82C00B3
:101AB00010208DF82F0003208DF82E000BA9384838
:101AC000FFF75FF850213648FFF739F94FF480608F
:101AD000ADF82C0010208DF82F0003208DF82E007B
:101AE0000BA93048FFF74DF84FF480612D48FFF700
:101AF00024F92820ADF82C0003208DF82E001820A2
:101B00008DF82F000BA92648FFF73BF84FF4404013
:101B1000ADF830004FF48270ADF832000020ADF81F
:101B200034000220ADF836000120ADF83800400244
:101B3000ADF83A000020ADF83C00ADF83E000720BB
:101B4000ADF840000CA91848FFF7D2FB1748FEF784
:101B500053FE15480C300090102002908001039035
:101B600000200490802005900020069007900890A7
:101B70004FF48050099000200A9069460B48FEF708
:101B8000E1FE012202210848FFF76EFB0121064811
:101B9000FFF75EFB11B000BD0002300000080140FD
:101BA000000C014000100140003C00401C040240B9
:101BB00000BF011EA0F10100FBD17047642006E0C8
:101BC00041F2707100BF0A1EA1F10101FBD1021E9A
:101BD000A0F10100F4D1704710B500214FF0006072
:101BE000FFF73AFA00F0D8F900F0D8F8FFF760FEF6
:101BF000FFF7B8FAFFF7C2FD01231A460749002094
:101C0000FFF770FAFEF754FB01231A460449184601
:101C1000FFF768FAFFF788FA002010BD15180008D2
:101C2000DD03000830B503460C461546002207E0E8
:101C3000184600F008F824F812009B1C501C82B2D1
:101C4000AA42F5DB30BD0146088870472DE9F04F08
:101C5000ADF6040D80468A461746B8F1006F02D3F0
:101C60003448804503D30DF6040DBDE8F08FFFF72F
:101C7000F3FEA8F1006B4FEADB25CBF34909C9F568
:101C80008064A74200DC3C464DE04FF0006101EB70
:101C9000C5204A1401A9FFF7C5FF00260BE009EB98
:101CA000060001A931F810004FF6FF71884200D0FC
:101CB00003E0701C86B2A642F1DB00BFA6421BDA2D
:101CC0004FF0006101EBC520FFF7B4FE002608E0ED
:101CD0003AF8160006EB090101AA22F81100701C5F
:101CE00086B2A642F4DB4FF0006101EBC5204A1436
:101CF00001A900F021F804E022465146404600F0D8
:101D00001BF8A74200D10FE06D1C4FF000090AEB51
:101D1000440AA044381B87B2B7F5806F02DD4FF448
:101D2000806400E03C46B0E700BFFFF789FE00BFDB
:101D300099E70000000004082DE9F04105460E4631
:101D40001746002407E036F814102846FFF77CFEFB
:101D5000AD1C601C84B2BC42F5DBBDE8F08170B5FF
:101D600005462C46240300F0AFF800F056F800209A
:101D7000FFF7C8FD2020FFF733FEC4F30740FFF74D
:101D80002FFEC4F30720FFF72BFEE0B2FFF728FE7B
:101D90000120FFF7B7FD00F040F870BD10B5FFF768
:101DA000C3FD10BD2DE9F04707460C469046264678
:101DB0001FFA88FAB9460020FFF7A4FD0320FFF7B9
:101DC0000FFEC6F30740FFF70BFEC6F30720FFF731
:101DD00007FEF0B2FFF704FE002506E0FF20FFF744
:101DE000FFFD09F80500681C85B25545F6DB0120AA
:101DF000FFF788FDBDE8F08710B500240020FFF74D
:101E000081FD0520FFF7ECFDFF20FFF7E9FD04460B
:101E10000120FFF777FD204610BD10B500BFFFF78A
:101E2000EBFF00F001000028F9D110BD2DE9F74FBC
:101E3000ADF5825D0E4691460DF58050D0F840B06C
:101E4000B2464D464FEA1A37CAF30B010F910F986D
:101E5000C0F58054A54200DC2C462EE039034FF437
:101E6000805210A8FFF79EFF3846FFF778FF4FF02B
:101E7000000809E01BF808100F98404410AA1154FC
:101E800008F101001FFA80F8A045F3DB39034FF495
:101E9000805210A800F04FF8A54200D10EE07F1C40
:101EA00000210F91A344A244281B85B2B5F5805FA1
:101EB00002DD4FF4805400E02C46CFE700BF13B0A2
:101EC0000DF5805DBDE8F08F10B50020FFF71AFD1D
:101ED0000620FFF785FD0120FFF714FD10BD2DE959
:101EE000F04707460C469046B9462646C246FFF7DD
:101EF000EBFF0020FFF706FD0220FFF771FDC6F3A0
:101F00000740FFF76DFDC6F30720FFF769FDF0B24C
:101F1000FFF766FD002505E019F80500FFF760FDF5
:101F2000681C85B25545F7DB0120FFF7EBFCFFF796
:101F300074FFBDE8F0872DE9F04781460E4617464D
:101F4000CA463C46B04608F0FF00C0F58075AC427A
:101F500000DC254612E02A4641465046FFF7BFFF07
:101F6000AC4200D10BE0AA44A844601B84B2B4F593
:101F7000807F02DD4FF4807500E02546EBE700BF6F
:101F8000BDE8F08770B504460D4616463246214638
:101F90002846FFF74BFF70BD0EB5FFF761FD42F21B
:101FA0001070FFF705FEFFF7A3FC42F21070FFF779
:101FB000FFFDFFF793FC6420FFF7FAFD1120FFF708
:101FC0002BF842F21070FFF7F3FD3620FFF724F8EC
:101FD000A020FFF71BF83A20FFF71EF80520FFF7B7
:101FE00015F8B220FFF718F80C20FFF70FF80C20B7
:101FF000FFF70CF80020FFF709F83320FFF706F889
:102000003320FFF703F8B720FFF706F83520FEF777
:10201000FDFFBB20FFF700F83520FEF7F7FFC020DB
:10202000FEF7FAFF2C20FEF7F1FFC220FEF7F4FFC7
:102030000120FEF7EBFFC320FEF7EEFF1320FEF7B3
:10204000E5FFC420FEF7E8FF2020FEF7DFFFC620F3
:10205000FEF7E2FF0F20FEF7D9FFCA20FEF7DCFFF4
:102060000F20FEF7D3FFC820FEF7D6FF0820FEF7AB
:10207000CDFF5520FEF7D0FF9020FEF7C7FFD02000
:10208000FEF7CAFFA420FEF7C1FFA120FEF7BEFFA6
:10209000E020FEF7C1FFD020FEF7B8FF0020FEF7DA
:1020A000B5FF0620FEF7B2FF0920FEF7AFFF0B20B9
:1020B000FEF7ACFF2A20FEF7A9FF3C20FEF7A6FFA3
:1020C0005520FEF7A3FF4B20FEF7A0FF0820FEF7E8
:1020D0009DFF1620FEF79AFF1420FEF797FF1920A8
:1020E000FEF794FF2020FEF791FFE120FEF794FF1A
:1020F000D020FEF78BFF0020FEF788FF0620FEF7BA
:1021000085FF0920FEF782FF0B20FEF77FFF2920C5
:10211000FEF77CFF3620FEF779FF5420FEF776FFAE
:102120004B20FEF773FF0D20FEF770FF1620FEF721
:102130006DFF1420FEF76AFF2120FEF767FF2020C5
:10214000FEF764FF2920FEF767FFFFF7B5FB0020CD
:10215000F0234FF4A07201460090FEF743FE0020EA
:102160002021CDE900014FF6FF7304A26421029003
:102170001E20FEF71DFFFFF721FD0EBD2057554A1B
:10218000492D4D435520535455445900000000003B
:10219000000000000000000000000404040404002B
:1021A0000004000014140A000000000000000000F9
:1021B00000000A0A1F0A0A1F0A0A000000040E157E
:1021C00005060C14150E0400000012150D152E2C1A
:1021D0002A1200000000040A0A361515291600000C
:1021E00002020100000000000000000010080804C6
:1021F000040404040808100002040408080808087D
:102200000404020000000004150E0E150400000076
:1022100000000008083E0808000000000000000060
:10222000000000000202010000000000003F00006A
:10223000000000000000000000000000000200009C
:1022400000201010080804040202010000000E1112
:1022500011111111110E0000000004060404040401
:10226000040E000000000E1111080402011F0000FE
:1022700000000E11100C1010110E00000000080CD0
:102280000C0A091F081C000000001F01010F11109B
:10229000110E000000000C12010D1311110E0000B0
:1022A00000001E10080804040404000000000E11C1
:1022B000110E1111110E000000000E11111916104F
:1022C00009060000000000000400000000040000F7
:1022D00000000000000400000004040000001008DA
:1022E0000402020408100000000000003F003F004C
:1022F00000000000000002040810100804020000A2
:1023000000000E11110804040004000000001C224B
:10231000292D2D1D221C0000000004040C0A0A1E99
:102320001233000000000F12120E1212120F0000E2
:1023300000001E1101010101110E000000000F122A
:1023400012121212120F000000001F120A0E0A02CF
:10235000121F000000001F120A0E0A0202070000EE
:1023600000001C1201013911120C00000000331290
:10237000121E12121233000000001F040404040491
:10238000041F000000003E080808080808080907A4
:10239000000037120A060A12123700000000070276
:1023A00002020202223F000000003B1B1B1B15150E
:1023B0001535000000003B1216161A1A12170000FD
:1023C00000000E1111111111110E000000000F126A
:1023D000120E02020207000000000E111111111767
:1023E000190E180000000F12120E0A121237000008
:1023F00000001E1101060810110F000000001F153B
:1024000004040404040E000000003312121212121D
:10241000120C000000003312120A0A0C040400001F
:102420000000151515150E0A0A0A000000001B0A07
:102430000A04040A0A1B000000001B0A0A0A04041A
:10244000040E000000001F0908040402121F00000F
:102450001C0404040404040404041C000002020418
:1024600004040808081010000E08080808080808E6
:1024700008080E00040A0000000000000000000030
:1024800000000000000000000000003F0204000007
:10249000000000000000000000000000000C121C02
:1024A000123C000000030202020E1212120E000083
:1024B00000000000001C1202120C00000018101096
:1024C000101C1212123C000000000000000C121E32
:1024D000021C000000182404041E0404041E000052
:1024E00000000000003C120C021C221C000302022F
:1024F000020E121212370000000404000006040449
:10250000040E000000080800000C0808080808076E
:1025100000030202021A0A060A130000000704045C
:1025200004040404041F000000000000000F15153F
:102530001515000000000000000F121212370000F5
:1025400000000000000C1212120C0000000000003D
:10255000000F1212120E020700000000001C1212DF
:10256000121C103800000000001B060202070000C9
:1025700000000000001E020C101E000000000004FD
:10258000041E0404041C000000000000001B1212C2
:10259000123C000000000000001B0A0A04040000B6
:1025A000000000000015150E0A0A000000000000DF
:1025B000001B0A040A1B0000000000000033121276
:1025C0000C08040300000000001E0804041E0000A4
:1025D00018080808080C080808081800080808085F
:1025E0000808080808080808060404040408040485
:1025F00004040600160900000000000000000000AE
:1026000000000000000000000000000000000000CA
:102610000000000808080808080800001818000052
:1026200000486C24120000000000000000000000C0
:102630000000002424247F1212127F1212120000C4
:102640000000081C2A2A0A0C1828282A2A1C080814
:1026500000000022251515152A5854545422000054
:102660000000000C1212120A76252911916E00004A
:102670000006060403000000000000000000000047
:10268000004020101008080808080810102040001A
:1026900000020408081010101010100808040200AE
:1026A0000000000008086B1C1C6B080800000000FC
:1026B00000000000080808087F080808080000005B
:1026C00000000000000000000000000006060403F7
:1026D0000000000000000000FE00000000000000FC
:1026E00000000000000000000000000006060000DE
:1026F000000080404020201010080804040202005E
:102700000000001824424242424242422418000083
:10271000000000080E08080808080808083E000025
:102720000000003C4242422020100804427E00008B
:102730000000003C4242201820404042221C000081
:10274000000000203028242422227E20207800004F
:102750000000007E0202021A26404042221C0000B5
:10276000000000382402021A2642424224180000C7
:102770000000007E22221010080808080808000047
:102780000000003C4242422418244242423C0000E5
:10279000000000182442424264584040241C0000BB
:1027A00000000000000018180000000018180000C9
:1027B00000000000000000080000000000080804FD
:1027C000000000402010080402040810204000000F
:1027D0000000000000007F0000007F0000000000FB
:1027E000000000020408102040201008040200002D
:1027F0000000003C42424640201010001818000023
:102800000000001C225A555555552D42221C00002F
:102810000000000808181414243C224242E700007B
:102820000000001F2222221E22424242221F0000DC
:102830000000007C4242010101010142221C000013
:102840000000001F2242424242424242221F000038
:102850000000003F4212121E12120242423F0000CC
:102860000000003F4212121E121202020207000074
:102870000000003C2222010101712122221C0000E3
:10288000000000E7424242427E42424242E70000EC
:102890000000003E0808080808080808083E000074
:1028A0000000007C10101010101010101010110FEC
:1028B0000000007722120A0E0A121222227700006C
:1028C000000000070202020202020202427F000030
:1028D00000000077363636362A2A2A2A2A6B00006C
:1028E000000000E346464A4A5252526262470000E4
:1028F0000000001C2241414141414141221C000095
:102900000000003F424242423E0202020207000033
:102910000000001C2241414141414D53321C6000E6
:102920000000003F4242423E1212222242C70000F3
:102930000000007C4242020418204042423E000057
:102940000000007F4908080808080808081C000063
:10295000000000E74242424242424242423C000002
:10296000000000E742422224241414180808000042
:102970000000006B49494949555536222222000082
:10298000000000E7422424181818242442E700001D
:10299000000000772222141408080808081C000010
:1029A0000000007E2120101008040442423F000075
:1029B00000780808080808080808080808087800C7
:1029C00000000202040408080810102020204040E3
:1029D000001E1010101010101010101010101E00FB
:1029E000003844000000000000000000000000006B
:1029F000000000000000000000000000000000FFD8
:102A000000060800000000000000000000000000B8
:102A1000000000000000003C4278444242FC0000FC
:102A2000000000030202021A26424242261A000057
:102A30000000000000000038440202024438000098
:102A400000000060404040784442424264D80000A8
:102A5000000000000000003C427E0202423C0000F8
:102A6000000000F08808087E08080808083E0000FA
:102A7000000000000000007C22221C023C42423C7C
:102A8000000000030202023A4642424242E70000CE
:102A90000000000C0C00000E08080808083E0000AA
:102AA0000000003030000038202020202020221E8E
:102AB0000000000302020272120A161222770000BE
:102AC0000000000E0808080808080808083E000072
:102AD000000000000000007F9292929292B70000E6
:102AE000000000000000003B4642424242E7000076
:102AF000000000000000003C42424242423C000014
:102B0000000000000000001B26424242221E020775
:102B1000000000000000007844424242447840E057
:102B200000000000000000774C040404041F0000B3
:102B3000000000000000007C42023C40423E0000D9
:102B4000000000000008083E0808080808300000DF
:102B500000000000000000634242424262DC0000CC
:102B600000000000000000E74224241408080000D0
:102B700000000000000000EB4949555522220000EA
:102B8000000000000000007624181818246E0000D1
:102B900000000000000000E7422424141808080781
:102BA000000000000000007E22100808447E0000A3
:102BB00000C0202020202010202020202020C00025
:102BC0001010101010101010101010101010101005
:102BD0000006080808080810080808080808060081
:102BE0000C32C200000000000000000000000000E5
:102BF00000000000000000000000000000000000D5
:102C000000000000000000000000000000000000C4
:102C100000000000000000000000000000000000B4
:102C20000000000000000400CA012A021A02140277
:102C30001002100010001000100010001000100012
:102C40001000100010022001C00000000000000071
:102C50000000000060066006300398018800440010
:102C60000000000000000000000000000000000064
:102C70000000000000000000000000000000000054
:102C800000000000000000001002100210021002FC
:102C9000FE07FE0708020801080108010801FE07F7
:102CA000FE0704010401040104010000000000000B
:102CB00000000000000040004000F00158034C03F9
:102CC000CC034C0058007000E000C001C00140037C
:102CD0004C035C034C034801F0004000400000003E
:102CE00000000000000000000E010A0191009100A8
:102CF0009100510051003A00AE03A002500450046C
:102D000048044804480484028403000000000000D2
:102D1000000000000000000038006C006C006C0037
:102D20006C006C002C0098071C011A013301330160
:102D30006301E300C308C6093C070000000000006F
:102D4000000000000C001C0010001000080004002F
:102D50000000000000000000000000000000000073
:102D60000000000000000000000000000000000063
:102D7000000000000004000200018000800040000C
:102D80004000200020002000200020002000200023
:102D900040004000800080000001000200040000AC
:102DA00000000000020004000800100010002000D5
:102DB0002000400040004000400040004000400033
:102DC0002000200010001000080004000200000095
:102DD0000000000000000000000000004000C000F3
:102DE0004000460C4E0FD001F0015E0F460C400033
:102DF0004000400000000000000000000000000053
:102E00000000000000000000000000000000400082
:102E10004000400040004000FE0F400040004000E5
:102E20004000400000000000000000000000000022
:102E30000000000000000000000000000000000092
:102E40000000000000000000000000000000000082
:102E5000000000000C001C0010001000080004001E
:102E60000000000000000000000000000000000062
:102E70000000000000000000FE070000000000004D
:102E80000000000000000000000000000000000042
:102E90000000000000000000000000000000000032
:102EA0000000000000000000000000000000000022
:102EB000000000001C001C001C00000000000000BE
:102EC00000000000000400060002000300010001F1
:102ED00080008000400040006000200020001000C2
:102EE0001000080008000C000400060002000000AA
:102EF00000000000000000000000F00098010C033A
:102F00000C0306060606060606060606060606065E
:102F100006060C030C039801F000000000000000FE
:102F20000000000000000000000040007C00600085
:102F30006000600060006000600060006000600091
:102F40006000600060006000FC0300000000000002
:102F500000000000000000000000F80084010203EF
:102F600006030603000300018001C000600020008A
:102F70001000080204020602FE0300000000000028
:102F8000000000000000000000007800C60086017C
:102F9000860180018001C0007000800100010003F3
:102FA0000003060306038601F8000000000000008D
:102FB0000000000000000000000080018001C0014E
:102FC000A001A00190018801880184018201FE0F07
:102FD0008001800180018001E00700000000000006
:102FE00000000000000000000000FC0304000400DA
:102FF000040004000400F4008C0104030003000337
:103000000603060382018401F800000000000000AE
:1030100000000000000000000000E00118030C03A5
:103020000C0004000600E60116030E06060606065E
:10303000060604060C021803F00000000000000061
:1030400000000000000000000000F8070C06040269
:1030500004010001000180008000400040004000A9
:103060006000600060006000600000000000000080
:1030700000000000000000000000F8010C0306063C
:10308000060606060C021C03F000C8010C03060627
:103090000606060606060C03F0010000000000000C
:1030A00000000000000000000000F0000C010C0314
:1030B000060206060606060606078C0678060006C1
:1030C000000300030C018C017800000000000000E8
:1030D00000000000000000000000000000000000F0
:1030E00000000000E000E000E00000000000000040
:1030F00000000000E000E000E00000000000000030
:1031000000000000000000000000000000000000BF
:1031100000000000600060000000000000000000EF
:10312000000000000000600060004000200020005F
:103130000000000000000000000400020001800008
:1031400040002000100008000400080010002000CB
:1031500040008000000100020004000000000000A8
:10316000000000000000000000000000000000005F
:1031700000000000FE07000000000000FE07000045
:10318000000000000000000000000000000000003F
:1031900000000000000000000400080010002000F3
:1031A00040008000000100020004000200018000D5
:1031B0004000200010000800040000000000000093
:1031C00000000000000000000000E0031806040CEE
:1031D000040C0C0C0C0C0007800140004000400067
:1031E00000000000E000E000E0000000000000003F
:1031F0000000000000000000E00018030C02CC05F5
:1032000064056605A605B604B604B604B604B6029F
:10321000E4010C040C021803F000000000000000A0
:10322000000000000000000000006000600050008E
:10323000D00090009000880088010801F801040384
:1032400004030402020202060F0F00000000000047
:1032500000000000000000000000FE008C030C03D2
:103260000C030C030C038C01FC000C030C020C0679
:103270000C060C060C060C03FE010000000000000A
:1032800000000000000000000000E00318030C062E
:103290000C040404060006000600060006000600F2
:1032A00006040C040C021803F000000000000000EB
:1032B000000000000000000000007F008C010C03F3
:1032C0000C030C060C060C060C060C060C060C0671
:1032D0000C060C030C038C017F00000000000000B2
:1032E00000000000000000000000FF0306030604C9
:1032F0000604060086008600FE0086008600860022
:103300000600060406040602FF0300000000000099
:1033100000000000000000000000FF030603060498
:103320000604060086008600FE00860086008600F1
:1033300006000600060006001F0000000000000056
:1033400000000000000000000000F00018010C0266
:103350000C0204020600060006000600C60F060363
:1033600006030C030C031803F0000000000000002B
:10337000000000000000000000000F0F0606060617
:103380000606060606060606FE07060606060606E4
:1033900006060606060606060F0F000000000000DF
:1033A00000000000000000000000FC03600060005E
:1033B000600060006000600060006000600060000D
:1033C0006000600060006000FC030000000000007E
:1033D00000000000000000000000F807C000C0006E
:1033E000C000C000C000C000C000C000C000C000DD
:1033F000C000C000C000C000C000C60066003C00A5
:1034000000000000000000000000CF038601C6009D
:1034100046002600160036002E006E004600C6004C
:1034200086008601060106038F07000000000000E9
:10343000000000000000000000001F000600060061
:10344000060006000600060006000600060006004C
:103450000600060406040602FF0300000000000048
:10346000000000000000000000000707860386033C
:103470008E038E034E034E034A035A035A033A0344
:1034800032033203320312038707000000000000FA
:10349000000000000000000000008E0F0C021C0263
:1034A0001C0234023402640264024402C402840234
:1034B00084038403040304031F02000000000000CF
:1034C00000000000000000000000F00098010C0364
:1034D0000C0206060606060606060606060606068A
:1034E00006060C020C039801F0000000000000002A
:1034F00000000000000000000000FF0006030606B8
:1035000006060606060606068603FE0006000600F8
:1035100006000600060006001F0000000000000074
:1035200000000000000000000000F00098010C0303
:103530000C02060606060606060606060606060629
:1035400076064C02CC039801F000800700030000CF
:1035500000000000000000000000FF010603060656
:103560000606060606060603FE004600C60086009E
:1035700086010603060306060F0E00000000000089
:1035800000000000000000000000F8020C0306022A
:10359000060206000E003C00F800E003800300076E
:1035A0000206020606060C03F001000000000000FF
:1035B00000000000000000000000FE076204610837
:1035C00061086000600060006000600060006000F2
:1035D0006000600060006000F80100000000000072
:1035E000000000000000000000001E070C020C029A
:1035F0000C020C020C020C020C020C020C020C025B
:103600000C020C020C021801F00000000000000087
:10361000000000000000000000000F070602040187
:1036200004010C010C0188008800980098005000EB
:10363000500070003000200020000000000000005A
:1036400000000000000000000000F70E62044204C9
:103650004604460464026402E402E4029C029C0103
:10366000980198018801880088000000000000008F
:10367000000000000000000000009E070C0108018F
:1036800018019000B0006000200060006000D000D1
:1036900090008801080104038E070000000000006C
:1036A000000000000000000000000F0F06040402EC
:1036B0000C0208011801B800B00070006000600042
:1036C0006000600060006000F80100000000000081
:1036D00000000000000000000000FC070C020603D0
:1036E0000201800180004000400020002000100006
:1036F000180008040C040402FE030000000000008F
:1037000000000000E0032000200020002000200036
:1037100020002000200020002000200020002000A9
:10372000200020002000200020002000E0030000F6
:103730000000000000000000040004000800080071
:103740001000100010002000200040004000C000C9
:10375000800080000001000100020002000200045D
:10376000000000007C00400040004000400040009D
:103770004000400040004000400040004000400049
:103780004000400040004000400040007C0000003D
:103790000000600090000801000000000000000030
:1037A0000000000000000000000000000000000019
:1037B0000000000000000000000000000000000009
:1037C00000000000000000000000000000000000F9
:1037D00000000000000000000000000000000000E9
:1037E0000000000000000000000000000000FF0FCB
:1037F0000000000018006000000000000000000051
:1038000000000000000000000000000000000000B8
:1038100000000000000000000000000000000000A8
:103820000000000000000000000000000000000098
:1038300000000000F0010C030C030003E0031C0374
:103840000E03060306038E0B7C0E00000000000032
:10385000000000000000000008000E000C000C003A
:103860000C000C00CC013C031C060C060C060C06DC
:103870000C060C060C021C03E40100000000000012
:103880000000000000000000000000000000000038
:1038900000000000F0008C018C018601060006008B
:1038A000060006020C020C01F000000000000000FF
:1038B00000000000000000000002C003000300033D
:1038C0000003000378038C030C03060306030603BE
:1038D0000603060304038C077801000000000000C3
:1038E00000000000000000000000000000000000D8
:1038F00000000000E001180308020C060C06FC079B
:103900000C000C0018041802E00100000000000088
:1039100000000000000000000000C0036006300648
:1039200030003000FE013000300030003000300048
:103930003000300030003000FC01000000000000CA
:103940000000000000000000000000000000000077
:1039500000000000F007D8068C018C018C01980152
:10396000F8000C00FC00CC03060306038E03F800ED
:10397000000000000000000008000E000C000C0019
:103980000C000C00EC011C030C030C030C030C03D7
:103990000C030C030C030C039E0700000000000046
:1039A0000000000000000000000060006000000057
:1039B000000040007C00600060006000600060006B
:1039C0006000600060006000FC0300000000000078
:1039D00000000000000000000000C001C001000065
:1039E00000000001F0018001800180018001800160
:1039F000800180018001800180018001CC007C0079
:103A0000000000000000000008000E000C000C0088
:103A10000C000C008C038C008C004C006C005C00D3
:103A20008C008C010C010C039E07000000000000BC
:103A3000000000000000000040007C00600060000A
:103A40006000600060006000600060006000600076
:103A50006000600060006000FC03000000000000E7
:103A60000000000000000000000000000000000056
:103A7000000000003707EE06660666066606660664
:103A80006606660666066606FF0F00000000000078
:103A90000000000000000000000000000000000026
:103AA00000000000EE011C030C030C030C030C03CC
:103AB0000C030C030C030C039E0700000000000025
:103AC00000000000000000000000000000000000F6
:103AD00000000000F00098010C030606060606062A
:103AE000060606060C030C03F000000000000000B0
:103AF00000000000000000000000000000000000C6
:103B000000000000EE011C030C060C060C060C065F
:103B10000C060C060C031C03EC010C000C003E0010
:103B20000000000000000000000000000000000095
:103B30000000000078028C030C0306030603060352
:103B40000603060304038C03780300030003C00785
:103B50000000000000000000000000000000000065
:103B6000000000009F0358063806180018001800CF
:103B70001800180018001800FF00000000000000E6
:103B80000000000000000000000000000000000035
:103B900000000000F0031C030C020C023800F000CF
:103BA000C003040304038C03FC01000000000000B8
:103BB00000000000000000000000000020002000C5
:103BC00030003000FE0130003000300030003000A6
:103BD0003000300030023002E00100000000000040
:103BE00000000000000000000000000000000000D5
:103BF000000008028E030C030C030C030C030C03DF
:103C00000C030C030C039C0778010000000000006B
:103C100000000000000000000000000000000000A4
:103C2000000000001E070C020801080118019000A6
:103C3000B000B00060006000200000000000000044
:103C40000000000000000000000000000000000074
:103C500000000000F70E6204460464026402EC02F5
:103C60009C019801980198010800000000000000E4
:103C70000000000000000000000000000000000044
:103C800000000000BC0718011001B00060006000D7
:103C9000E0009000080108039E07000000000000FB
:103CA0000000000000000000000000000000000014
:103CB000000000009E070801080108019000900024
:103CC000B0006000600060002000200024001C00A4
:103CD00000000000000000000000000000000000E4
:103CE00000000000FC018401C400440060002000CA
:103CF0003000180208020C03FC0100000000000064
:103D00000000000000038000800080008000800030
:103D10008000800080004000200040008000800083
:103D20008000800080008000800080000003000090
:103D30004000400040004000400040004000400083
:103D40004000400040004000400040004000400073
:103D50004000400040004000400040004000400063
:103D6000000000000C0010001000100010001000F7
:103D70001000100010002000400020001000100073
:103D80001000100010001000100010000C000000C7
:103D900000001C002204C204800300000000000098
:103DA0000000000000000000000000000000000013
:103DB0000000000000000000000000000000000003
:103DC00000000000000000000000000000000000F3
:103DD00000000000000000000000000000000000E3
:103DE00000000000000000000000000000000000D3
:103DF00000000000000000000000000000000000C3
:103E000000000000000000000000C001C001C0016F
:103E1000C001C001C001C00180008000800080009E
:103E20008000800080000000000000000000800191
:103E3000C003C0038001000000000000000000007B
:103E4000000000000000E01CE01CF01E700E3807AF
:103E500018030801840000000000000000000000BA
:103E60000000000000000000000000000000000052
:103E70000000000000000000000000000000000042
:103E800000000000000000000000000020102010D2
:103E9000201020102010FE7FFE7F10081008100850
:103EA0001008100810081008FE7FFE7F08040804A0
:103EB00008040804080400000000000000000000DE
:103EC000000000000000000000010001C0076019B0
:103ED000103118311839183938017001E001C00368
:103EE0008007000F001D003900311C311C310C31DE
:103EF0000C11180DE0070001000100010000000096
:103F00000000000000000000000000001C10361837
:103F10006308630C63046304630263026301361D78
:103F20009C3780228063406340632063206330635A
:103F300010221836081C00000000000000000000DD
:103F4000000000000000000000000000F0009801E8
:103F50008C018C018C018C018C00CC007800183E07
:103F60001C083608320863046304C304C303834394
:103F700006438E26781C00000000000000000000B0
:103F80000000000000001C003C003C00300030003D
:103F900010000C00060000000000000000000000FF
:103FA0000000000000000000000000000000000011
:103FB0000000000000000000000000000000000001
:103FC0000000000000000040002000100008000C6D
:103FD000000400060003000300038001800180014B
:103FE0008001800180018001800100030003000343
:103FF00000060006000C0008001000200040000031
:104000000000000000000200040008001000300062
:1040100020006000C000C000C0008001800180015D
:1040200080018001800180018001C000C000C000CB
:104030006000600030001000080004000200000072
:104040000000000000000000000000000000000070
:1040500000018003800300011C713C79783DC0079A
:104060000001C007783D3C791C710001800380038A
:1040700080010000000000000000000000000000BF
:104080000000000000000000000000000000000030
:104090000000000100010001000100010001000119
:1040A000FC7F00010001000100010001000100018E
:1040B0000000000000000000000000000000000000
:1040C00000000000000000000000000000000000F0
:1040D00000000000000000000000000000000000E0
:1040E00000000000000000000000000000000000D0
:1040F0001C003C003C003000300010000C000600AA
:1041000000000000000000000000000000000000AF
:10411000000000000000000000000000000000009F
:10412000FE7F000000000000000000000000000012
:10413000000000000000000000000000000000007F
:10414000000000000000000000000000000000006F
:10415000000000000000000000000000000000005F
:104160000000000000000000000000000000180037
:104170003C003C00180000000000000000000000AF
:10418000000000000000004000600020003000102F
:1041900000180008000C00040006000200030001E3
:1041A00080018000C000400060002000300010004E
:1041B000180008000C0004000600020000000000C7
:1041C000000000000000000000000000C007600CBC
:1041D00030181830183018200C600C600C600C601F
:1041E0000C600C600C600C600C60182018301830EB
:1041F0003018600CC0070000000000000000000044
:10420000000000000000000000000000000180012C
:10421000F80180018001800180018001800180011E
:104220008001800180018001800180018001800186
:104230008001C003F81F0000000000000000000023
:10424000000000000000000000000000E007101C5B
:104250000818043004300C300C300030001800080E
:1042600000040002000180004000202010200820EF
:104270000430FC1FFC1F00000000000000000000D4
:10428000000000000000000000000000E003180E25
:104290000C0C0C180C180C180018000C0006C003AD
:1042A000000E00180010003000300C300C300C10E4
:1042B0000C18180CE00300000000000000000000D3
:1042C000000000000000000000000000000C000ED4
:1042D000000E000F800E800E400E600E200E100E9D
:1042E000100E080E040E040EFE7F000E000E000ECF
:1042F000000E000E000EC07F000000000000000055
:10430000000000000000000000000000F03FF03F4F
:1043100010001000100008000800C807280C18182A
:10432000081000300030003000300C300C30041821
:104330000418080CF003000000000000000000005A
:10434000000000000000000000000000800FC0100E
:10435000203010301800180008000C008C0F6C186A
:104360003C301C600C600C600C600C601860182005
:1043700030306018C007000000000000000000009E
:10438000000000000000000000000000F83FF83FBF
:104390001C100C08040804040004000200020001C0
:1043A00000010001800080008000C000C000C0004B
:1043B000C000C000C00000000000000000000000BD
:1043C000000000000000000000000000E007300CCA
:1043D00018180C300C300C301C3038187008E007FE
:1043E000B007180E0C1C06380630063006300630B2
:1043F0000C18180CE0030000000000000000000092
:10440000000000000000000000000000E0031804AD
:104410000C080C1806100630063006300630063838
:104420000C3C1836F03100300018001800180C0C45
:104430000C060C03F001000000000000000000006A
:10444000000000000000000000000000000000006C
:10445000000000000000000000008001C003C00355
:10446000800100000000000000000000000080014A
:10447000C003C00380010000000000000000000035
:10448000000000000000000000000000000000002C
:1044900000000000000000000000C000C00000009C
:1044A000000000000000000000000000000000000C
:1044B0000000C000C00080008000400040000000FC
:1044C00000000000000000000000002000100008B4
:1044D0000004000600038001C000600030001800E6
:1044E0000C00180030006000C000800100030006CE
:1044F0000004000800100020000000000000000080
:1045000000000000000000000000000000000000AB
:1045100000000000000000000000FE7F000000001E
:10452000000000000000FE7F00000000000000000E
:10453000000000000000000000000000000000007B
:10454000000000000000000000000400080010004F
:1045500020006000C000800100030006000C00186D
:1045600000300018000C000600038001C00060004D
:1045700020001000080004000000000000000000FF
:1045800000000000000000000000C00730180830E4
:1045900008600C601C601C601C600030001C000681
:1045A0000001800080008000800000000000800189
:1045B000C003C003800100000000000000000000F4
:1045C000000000000000000000000000C0076018AC
:1045D000103018200C2F8C4D864CC64CC64C664CA7
:1045E00066446644662666266615CC1C0C40082088
:1045F00018303018C0070000000000000000000064
:10460000000000000000000000000001C001C00127
:10461000C001400160032003200320033006100680
:1046200010061006F80F080C080C080C0C0C0418E7
:10463000041806181F7C00000000000000000000A5
:10464000000000000000000000000000FE07181C31
:10465000183818301830183018301818180CF80797
:104660001818183018201860186018601860186042
:1046700018301818FE0F00000000000000000000B5
:10468000000000000000000000000000C0276038AB
:10469000103018200C400C400400060006000600F4
:1046A000060006000600060006000C400C400C2028
:1046B00018303018C00700000000000000000000A3
:1046C000000000000000000000000000FE03180EC3
:1046D00018181830183018301860186018601860F2
:1046E00018601860186018601860183018301810BA
:1046F0001818180EFE030000000000000000000063
:10470000000000000000000000000000FE3F183024
:10471000182018601840180018081808180CF80F0E
:10472000180C18081808180018001800184018402D
:1047300018201830FE3F00000000000000000000BC
:10474000000000000000000000000000FE7F187064
:10475000184018C018801800181018101818F81FE2
:104760001818181018101800180018001800180051
:10477000180018007E00000000000000000000008B
:10478000000000000000000000000000C013701CCA
:10479000101018100C200C20040006000600060063
:1047A0000600060006FC063006300C300C301830CF
:1047B00018303008C00700000000000000000000B2
:1047C0000000000000000000000000003F7E0C1808
:1047D0000C180C180C180C180C180C180C180C18B9
:1047E000FC1F0C180C180C180C180C180C180C18B2
:1047F0000C180C183F7E00000000000000000000B4
:10480000000000000000000000000000F81F800110
:104810008001800180018001800180018001800190
:104820008001800180018001800180018001800180
:1048300080018001F81F000000000000000000005F
:10484000000000000000000000000000E07F000603
:104850000006000600060006000600060006000628
:104860000006000600060006000600060006000618
:1048700000060006000600060E060E038E01FC0070
:104880000000000000000000000000007E7C1818FE
:104890001808180418061802180198019801D80180
:1048A000B803380318071806180E180C181C181827
:1048B000183018307EFC00000000000000000000EE
:1048C0000000000000000000000000007E00180052
:1048D0001800180018001800180018001800180018
:1048E0001800180018001800180018001840184088
:1048F00018201830FE3F00000000000000000000FB
:104900000000000000000000000000001FF81C383C
:104910001C381C381C3C343434343434343674324F
:104920006432643264326431C431C431C431C4305D
:10493000C43084309FFC0000000000000000000034
:104940000000000000000000000000001F7C1C10A0
:104950003C103410341074106410E410C410C411EE
:1049600084118413041304170416041E041C041C6D
:10497000041C04181F1800000000000000000000C4
:10498000000000000000000000000000C003300C28
:10499000181808100C300C300660066006600660BF
:1049A000066006600660066006600C200C30081089
:1049B0001818300CC00300000000000000000000C8
:1049C000000000000000000000000000FE0F1818AA
:1049D00018301860186018601860186018301818BF
:1049E000F80F180018001800180018001800180018
:1049F000180018007E000000000000000000000009
:104A0000000000000000000000000000C003300CA7
:104A100018180C100C300C2006600660066006604A
:104A200006600660066006600660E4612C331C3296
:104A30001816300EC007004C007C00380000000043
:104A4000000000000000000000000000FE07181C2D
:104A5000183818301830183018301818180CF80793
:104A600098031803180718061806180E180C180CC7
:104A7000181C18187E7800000000000000000000DC
:104A8000000000000000000000000000E0273038B7
:104A900018300C200C200C000C0018007800E003EB
:104AA000800F001E00380070006004600460086021
:104AB00018303818C80F0000000000000000000087
:104AC000000000000000000000000000FC3F8C21FE
:104AD00084618241824180018001800180018001E6
:104AE00080018001800180018001800180018001BE
:104AF00080018001E00700000000000000000000CD
:104B00000000000000000000000000003F7C0C10CE
:104B10000C100C100C100C100C100C100C100C10B5
:104B20000C100C100C100C100C100C100C100C10A5
:104B300008083804E0030000000000000000000046
:104B40000000000000000000000000003EF81820F7
:104B50001820182030103010301030106008600815
:104B60006008E00CC004C004C0048003800380031C
:104B700080030001000100000000000000000000B0
:104B8000000000000000000000000000DFF386616C
:104B9000862186218C210C218C238C138C138C1361
:104BA0004C1358125816580E380E380E380E300C5A
:104BB00010041004100400000000000000000000B9
:104BC0000000000000000000000000007E3E180809
:104BD00038083004300470026002E001C001C001F6
:104BE000800180034003400720062006100C100CB3
:104BF000081808183E7C00000000000000000000BB
:104C00000000000000000000000000007E7C1C107E
:104C1000181018083008300C700460046002C002DC
:104C2000C002C001800180018001800180018001FB
:104C300080018001E007000000000000000000008B
:104C4000000000000000000000000000F83F1818FD
:104C50000818040C040E00060007000380038001FE
:104C6000C001C000E0006000700030003820182053
:104C70001C100C18FE1F00000000000000000000C7
:104C8000000000000000C03F400040004000400025
:104C90004000400040004000400040004000400014
:104CA0004000400040004000400040004000400004
:104CB00040004000400040004000C03F00000000B5
:104CC00000000000000000000000080018001800AC
:104CD000100030002000600060004000C000800034
:104CE00080018001000100030002000600060004AC
:104CF000000C000800180018001000300020000010
:104D0000000000000000FC0300020002000200029C
:104D10000002000200020002000200020002000283
:104D20000002000200020002000200020002000273
:104D300000020002000200020002FC03000000006A
:104D40000000000000008007C006200810100000CE
:104D50000000000000000000000000000000000053
:104D60000000000000000000000000000000000043
:104D70000000000000000000000000000000000033
:104D80000000000000000000000000000000000023
:104D90000000000000000000000000000000000013
:104DA0000000000000000000000000000000000003
:104DB0000000000000000000000000000000FFFFF5
:104DC0000000000000007800C000000100000000AA
:104DD00000000000000000000000000000000000D3
:104DE00000000000000000000000000000000000C3
:104DF00000000000000000000000000000000000B3
:104E000000000000000000000000000000000000A2
:104E100000000000000000000000F00318060C0C69
:104E20000C0C000C800F700C1C0C0C0C060C060CEF
:104E3000064C0C4FF8380000000000000000000095
:104E40000000000000000000000010001E0018001C
:104E500018001800180018001800180FD81838305B
:104E600038601860186018601860186018601820A2
:104E700038307818C807000000000000000000006B
:104E80000000000000000000000000000000000022
:104E900000000000000000000000C007700C18189F
:104EA00018180C180C000C000C000C000C2018201A
:104EB00018103008C00700000000000000000000CB
:104EC000000000000000000000000010001E00189C
:104ED00000180018001800180018E01B301C1818E3
:104EE00018180C180C180C180C180C180C1808189A
:104EF000181C307AE00900000000000000000000EB
:104F000000000000000000000000000000000000A1
:104F100000000000000000000000C007300C18185E
:104F200008100C300C30FC3F0C000C000C0018205A
:104F300018107018C00700000000000000000000FA
:104F4000000000000000000000000000003E80C3E0
:104F500080C0C0C0C000C000C000FC1FC000C000B6
:104F6000C000C000C000C000C000C000C000C00041
:104F7000C000C000F80F00000000000000000000AA
:104F80000000000000000000000000000000000021
:104F900000000000000000000000C077306C101816
:104FA0001818181818181018300CF00718001800E6
:104FB000F00FF03F08700C600C600C603838E00FA8
:104FC0000000000000000000000010001E0018009B
:104FD00018001800180018001800980FD81838305A
:104FE0001830183018301830183018301830183081
:104FF000183018307EFC00000000000000000000A7
:10500000000000000000000000000000800380039A
:1050100080030000000000000001F8018001800111
:105020008001800180018001800180018001800178
:1050300080018001F81F0000000000000000000057
:1050400000000000000000000000000000380038F0
:1050500000380000000000000010801F0018001839
:105060000018001800180018001800180018001880
:1050700000180018001800180018180C1806F00383
:105080000000000000000000000010001E001800DA
:1050900018001800180018001800183E180C180600
:1050A000180318019801D801380318071806180CBE
:1050B000181C18187E7C0000000000000000000092
:1050C000000000000000000000000001F801800165
:1050D00080018001800180018001800180018001C8
:1050E00080018001800180018001800180018001B8
:1050F00080018001F81F0000000000000000000097
:10510000000000000000000000000000000000009F
:1051100000000000000000000800EE1C9C338C31F1
:105120008C318C318C318C318C318C318C318C3197
:105130008C318C31DE7B000000000000000000009C
:10514000000000000000000000000000000000005F
:10515000000000000000000010001E0FD8183830BA
:1051600018301830183018301830183018301830FF
:10517000183018307EFC0000000000000000000025
:10518000000000000000000000000000000000001F
:1051900000000000000000000000C007701C10307C
:1051A00018300C600C600C600C600C600C601830E7
:1051B00018303018C0070000000000000000000098
:1051C00000000000000000000000000000000000DF
:1051D000000000000000000010009E0F581838303A
:1051E000182018601860186018601860186018306F
:1051F00038307818980718001800180018007E003A
:10520000000000000000000000000000000000009E
:1052100000000000000000000000C023303C1838EF
:1052200018300C300C300C300C300C300C30083096
:105230001838303CE033003000300030003000FCE3
:10524000000000000000000000000000000000005E
:10525000000000000000000060007E3C60666061AD
:10526000E000E0006000600060006000600060003E
:1052700060006000FE070000000000000000000069
:10528000000000000000000000000000000000001E
:1052900000000000000000000000E0273038183057
:1052A000182018007000E003800F001C0430043048
:1052B0000C301C18EC0F0000000000000000000083
:1052C00000000000000000000000000000000000DE
:1052D000800080008000C000E000FC1FC000C00013
:1052E000C000C000C000C000C000C000C000C0209E
:1052F000C0208011000F000000000000000000002E
:10530000000000000000000000000000000000009D
:10531000000000000000000010201E3C1830183073
:10532000183018301830183018301830183018303D
:10533000183830F4E0130000000000000000000006
:10534000000000000000000000000000000000005D
:10535000000000000000000000007E3C1818180843
:10536000380830043004700260026002E001C001BD
:10537000C001C0008000000000000000000000002C
:10538000000000000000000000000000000000001D
:1053900000000000000000000000DFF78E630C2317
:1053A0008C238C239813981358165816700E700E71
:1053B000700E200420040000000000000000000027
:1053C00000000000000000000000000000000000DD
:1053D00000000000000000000000FC3E70087004A7
:1053E000E004C002C0018003800340076006200C77
:1053F000100C18183E7E00000000000000000000A5
:10540000000000000000000000000000000000009C
:10541000000000000000000000007E7C1818180842
:1054200030083008300460046004C002C002C002CA
:105430008001800180018000800080004C003C00E1
:10544000000000000000000000000000000000005C
:1054500000000000000000000000FC1F0C0C040E07
:105460000406000380038001C000E00070203020AB
:1054700038301C18FC1F0000000000000000000075
:1054800000000000000000300008000400040004D8
:1054900000040004000400040004000400040002EE
:1054A0008001000200040004000400040004000461
:1054B00000040004000400040004000800300000A0
:1054C00000010001000100010001000100010001D4
:1054D00000010001000100010001000100010001C4
:1054E00000010001000100010001000100010001B4
:1054F00000010001000100010001000100010001A4
:105500000000000000000C0010002000200020001F
:10551000200020002000200020002000200040006B
:1055200080014000200020002000200020002000FA
:105530002000200020002000200010000C000000AF
:1055400000003800C400864002610022001C0000F8
:10555000000000000000000000000000000000004B
:10556000000000000000000000000000000000003B
:10557000000000000000000000000000000000002B
:10558000000000000000000000000000000000001B
:10559000000000000000000000000000000000000B
:1055A00000000000000000000000000000000000FB
:1055B00000000000000000000000000000000000EB
:1055C00000000000000000000000000000000000DB
:1055D00000000000000000000000000000000000CB
:1055E00000000000000000000000000000000000BB
:1055F00000000000000000000000000000000000AB
:10560000000000000000000000000000000000009A
:10561000000000000000000000000000000000008A
:105620000000003E00003E00003E00003E00003E44
:1056300000003E00003E00003C00003C00003C003A
:10564000003C00003C00003C00003C00003C00002E
:105650003C00003C00003C00003C00003C00003CE2
:1056600000001C00001C00001C00001C00000000CA
:10567000000000000000000000003C00007E000070
:105680007E00007E00003E000018000000000000C8
:10569000000000000000000000000000000000000A
:1056A00000000000000000000000000000000000FA
:1056B0000000000000C0C303C0C303C0C303C0C3D5
:1056C00001C0C301C0C301C0C301C0C30180C10187
:1056D00080C1010000000000000000000000000088
:1056E00000000000000000000000000000000000BA
:1056F00000000000000000000000000000000000AA
:105700000000000000000000000000000000000099
:105710000000000000000000000000000000000089
:105720000000000000000000000000000000000079
:105730000000000000000000000000000000000069
:10574000000000000000000000070E80030E800330
:105750000E80030780030780030780030780030789
:10576000FEFF7FFEFF7FFEFF7FFEFF7FC08103C045
:105770008103C08103C08103C08103E08003E0C0D6
:1057800001E0C001FEFF7FFEFF7FFEFF7FE0C00162
:10579000E0C00170C00170E00070E00070E00070D7
:1057A000E00070E00070E000000000000000000079
:1057B00000000000000000000000000000000000E9
:1057C000000000000000000000000000001C0000BD
:1057D0001C00001C00001C0080FF00C0FF03E0FF55
:1057E00003F0DD07F09C07781C0F781C0F781C0F66
:1057F000781C00F81C00F01C00F01D00E01F00C029
:105800001F00803F0000FF0000FC0100FC0300FCC3
:105810000700DC0F009C0F001C0F7C1C0F781C0F76
:10582000781C0F781C0F781C0FF89C0FF0DD07E038
:10583000FF07E0FF0380FF00001C00001C00001CAD
:1058400000001C00001C0000000000000000000020
:105850000000000000000000000000000000000048
:105860000000000000000000F8000CFC0106DC0352
:10587000069C03038E03038E03018E83018E830037
:105880008EC3008EC3008E63008E63008C3300DCF9
:105890003300FC1100F8180000880F00CC1F00C472
:1058A0003D00E63800E63800E33800E33880E138B0
:1058B00080E13880E038C0E03840E03860E03860AF
:1058C000C03D30C01F30800F00000000000000000D
:1058D00000000000000000000000000000000000C8
:1058E00000000000000000000000000000000000B8
:1058F0000000000000000000003F00C0FF00C0FFEB
:1059000000E0E301E0E101E0E001E0E001E0E001CE
:10591000E0E001E0E000E0F100E07900C03F00C01D
:105920001F00800F00E00700F00700F80F00781F4D
:105930001C3C1E1C3C3C1E1E7C1E1EF81E1EF01F26
:105940001EE00F1EC00F3C800F7CC03FFCE07FF8C4
:10595000FF3DF0FF38C03F100000000000000000D5
:105960000000000000000000000000000000000037
:105970000000000000000000000000000000000027
:105980000000000000000000001F00000F00000EDB
:1059900000000E00000E00000E00000E00000E00C1
:1059A000000E0000000000000000000000000000E9
:1059B00000000000000000000000000000000000E7
:1059C00000000000000000000000000000000000D7
:1059D00000000000000000000000000000000000C7
:1059E00000000000000000000000000000000000B7
:1059F00000000000000000000000000000000000A7
:105A0000000000000000000000000000000018007E
:105A1000003C00001C00000E00000F00800700800A
:105A20000300C00100E00100E00000E000007000A1
:105A300000700000700000380000380000380000DE
:105A40003800003800003800003800003800003806
:105A500000003800003800003800003000007000FE
:105A600000700000F00000E00000E00100C0010054
:105A7000C00300800700000700000E00001E0000A9
:105A80003C000018000000000000000000000000C2
:105A90000000000000000000000000000C00001EDC
:105AA00000003C0000780000700000E00000E00111
:105AB00000C0010080030080030000070000070011
:105AC000000E00000E00000E00000E00000C000092
:105AD0000C00001C00001C00001C00001C00000C3E
